{
  "transactions": [
    {
      "hash": "0xd22674d67a92d9494855831dfa5dcda6fb172be23c62f5bf0268ba984b549e10",
      "transactionType": "CALL",
      "contractName": null,
      "contractAddress": "0xaf88d065e77c8cc2239327c5edb3a432268e5831",
      "function": "approve(address,uint256)",
      "arguments": [
        "0x6c247b1F6182318877311737BaC0844bAa518F5e",
        "500000"
      ],
      "transaction": {
        "from": "0x6539519e69343535a2af6583d9bae3ad74c6a293",
        "to": "0xaf88d065e77c8cc2239327c5edb3a432268e5831",
        "gas": "0x12ab5",
        "value": "0x0",
        "input": "0x095ea7b30000000000000000000000006c247b1f6182318877311737bac0844baa518f5e000000000000000000000000000000000000000000000000000000000007a120",
        "nonce": "0xb",
        "chainId": "0xa4b1"
      },
      "additionalContracts": [],
      "isFixedGasLimit": false
    },
    {
      "hash": "0xf2a050b6642d1a7069a0d0022e7de58eeca21d91f772c5d00f77e6f3c9ef2bf7",
      "transactionType": "CALL",
      "contractName": null,
      "contractAddress": "0x6c247b1f6182318877311737bac0844baa518f5e",
      "function": "supply((address,address,address,address,uint256),uint256,uint256,address,bytes)",
      "arguments": [
        "(0xaf88d065e77c8cC2239327C5EDb3A432268e5831, 0x139450C2dCeF827C9A2a0Bb1CB5506260940c9fd, 0x393A33fc66C1C0742B0e65EE1C239Cf65D2aF3e4, 0x66F30587FB8D4206918deb78ecA7d5eBbafD06DA, 915000000000000000)",
        "500000",
        "0",
        "0x6539519E69343535a2aF6583D9BAE3AD74c6A293",
        "0x"
      ],
      "transaction": {
        "from": "0x6539519e69343535a2af6583d9bae3ad74c6a293",
        "to": "0x6c247b1f6182318877311737bac0844baa518f5e",
        "gas": "0x2b187",
        "value": "0x0",
        "input": "0xa99aad89000000000000000000000000af88d065e77c8cc2239327c5edb3a432268e5831000000000000000000000000139450c2dcef827c9a2a0bb1cb5506260940c9fd000000000000000000000000393a33fc66c1c0742b0e65ee1c239cf65d2af3e400000000000000000000000066f30587fb8d4206918deb78eca7d5ebbafd06da0000000000000000000000000000000000000000000000000cb2bba6f17b8000000000000000000000000000000000000000000000000000000000000007a12000000000000000000000000000000000000000000000000000000000000000000000000000000000000000006539519e69343535a2af6583d9bae3ad74c6a29300000000000000000000000000000000000000000000000000000000000001200000000000000000000000000000000000000000000000000000000000000000",
        "nonce": "0xc",
        "chainId": "0xa4b1"
      },
      "additionalContracts": [],
      "isFixedGasLimit": false
    }
  ],
  "receipts": [
    {
      "status": "0x1",
      "cumulativeGasUsed": "0x2dae1",
      "logs": [
        {
          "address": "0xaf88d065e77c8cc2239327c5edb3a432268e5831",
          "topics": [
            "0x8c5be1e5ebec7d5bd14f71427d1e84f3dd0314c0f7b2291e5b200ac8c7c3b925",
            "0x0000000000000000000000006539519e69343535a2af6583d9bae3ad74c6a293",
            "0x0000000000000000000000006c247b1f6182318877311737bac0844baa518f5e"
          ],
          "data": "0x000000000000000000000000000000000000000000000000000000000007a120",
          "blockHash": "0xdaa206cf56979cd24577341070f49ef6b3d643993ca6986b7b539c7898679d09",
          "blockNumber": "0x16f1ceb0",
          "transactionHash": "0xd22674d67a92d9494855831dfa5dcda6fb172be23c62f5bf0268ba984b549e10",
          "transactionIndex": "0x4",
          "logIndex": "0x0",
          "removed": false
        }
      ],
      "logsBloom": "0x00000000000000000000000000000000000000000000000000000000000000000080000000000100000000000000000000000001000000000000000000200000000000000000000000000000000000000000000000000000000000000100000000000000000000000000000000000000000000000000000000000000000000000000000000000000000000000000000000000000000000000000000000000000020000000000000000000000000000000000000000000000000000000000000000002000000100000000000000000000000000000000000000000000000000000010000000100000000000000000200000100000000000000000000000000000",
      "type": "0x2",
      "transactionHash": "0xd22674d67a92d9494855831dfa5dcda6fb172be23c62f5bf0268ba984b549e10",
      "transactionIndex": "0x4",
      "blockHash": "0xdaa206cf56979cd24577341070f49ef6b3d643993ca6986b7b539c7898679d09",
      "blockNumber": "0x16f1ceb0",
      "gasUsed": "0xdfa0",
      "effectiveGasPrice": "0xb0ba30",
      "from": "0x6539519e69343535a2af6583d9bae3ad74c6a293",
      "to": "0xaf88d065e77c8cc2239327c5edb3a432268e5831",
      "contractAddress": null,
      "gasUsedForL1": "0x713",
      "l1BlockNumber": "0x16652a5",
      "timeboosted": false
    },
    {
      "status": "0x1",
      "cumulativeGasUsed": "0x9ff6a",
      "logs": [
        {
          "address": "0x66f30587fb8d4206918deb78eca7d5ebbafd06da",
          "topics": [
            "0x7120161a7b3d31251e01294ab351ef15a41b91659a36032e4641bb89b121e321",
            "0x0eedc5ee101e262ed96d49d66ff7099b1b9d996ac8007b44a6925b2f8c0626ed"
          ],
          "data": "0x00000000000000000000000000000000000000000000000000000000119f5de40000000000000000000000000000000000000000000000000000000041923537",
          "blockHash": "0xe226834d3275fc4be24ad56df1307fee605b745bde5278e46e2554866a28b1c4",
          "blockNumber": "0x16f1cebb",
          "transactionHash": "0xf2a050b6642d1a7069a0d0022e7de58eeca21d91f772c5d00f77e6f3c9ef2bf7",
          "transactionIndex": "0xc",
          "logIndex": "0x6",
          "removed": false
        },
        {
          "address": "0x6c247b1f6182318877311737bac0844baa518f5e",
          "topics": [
            "0x9d9bd501d0657d7dfe415f779a620a62b78bc508ddc0891fbbd8b7ac0f8fce87",
            "0x0eedc5ee101e262ed96d49d66ff7099b1b9d996ac8007b44a6925b2f8c0626ed"
          ],
          "data": "0x00000000000000000000000000000000000000000000000000000000119f5de400000000000000000000000000000000000000000000000000000000000000000000000000000000000000000000000000000000000000000000000000000000",
          "blockHash": "0xe226834d3275fc4be24ad56df1307fee605b745bde5278e46e2554866a28b1c4",
          "blockNumber": "0x16f1cebb",
          "transactionHash": "0xf2a050b6642d1a7069a0d0022e7de58eeca21d91f772c5d00f77e6f3c9ef2bf7",
          "transactionIndex": "0xc",
          "logIndex": "0x7",
          "removed": false
        },
        {
          "address": "0x6c247b1f6182318877311737bac0844baa518f5e",
          "topics": [
            "0xedf8870433c83823eb071d3df1caa8d008f12f6440918c20d75a3602cda30fe0",
            "0x0eedc5ee101e262ed96d49d66ff7099b1b9d996ac8007b44a6925b2f8c0626ed",
            "0x0000000000000000000000006539519e69343535a2af6583d9bae3ad74c6a293",
            "0x0000000000000000000000006539519e69343535a2af6583d9bae3ad74c6a293"
          ],
          "data": "0x000000000000000000000000000000000000000000000000000000000007a120000000000000000000000000000000000000000000000000000000746a528800",
          "blockHash": "0xe226834d3275fc4be24ad56df1307fee605b745bde5278e46e2554866a28b1c4",
          "blockNumber": "0x16f1cebb",
          "transactionHash": "0xf2a050b6642d1a7069a0d0022e7de58eeca21d91f772c5d00f77e6f3c9ef2bf7",
          "transactionIndex": "0xc",
          "logIndex": "0x8",
          "removed": false
        },
        {
          "address": "0xaf88d065e77c8cc2239327c5edb3a432268e5831",
          "topics": [
            "0xddf252ad1be2c89b69c2b068fc378daa952ba7f163c4a11628f55a4df523b3ef",
            "0x0000000000000000000000006539519e69343535a2af6583d9bae3ad74c6a293",
            "0x0000000000000000000000006c247b1f6182318877311737bac0844baa518f5e"
          ],
          "data": "0x000000000000000000000000000000000000000000000000000000000007a120",
          "blockHash": "0xe226834d3275fc4be24ad56df1307fee605b745bde5278e46e2554866a28b1c4",
          "blockNumber": "0x16f1cebb",
          "transactionHash": "0xf2a050b6642d1a7069a0d0022e7de58eeca21d91f772c5d00f77e6f3c9ef2bf7",
          "transactionIndex": "0xc",
          "logIndex": "0x9",
          "removed": false
        }
      ],
      "logsBloom": "0x00000000000000000000000000000000000000000000000000000000000000000080400000000100000000000000000000000001000000000000000420804002000000000000000000000008800000000000000800000000000000080100020000000000000000000000000000000000000000000000000000000010000000000000000000000000000000000000200000000000000000000002000000000000000000000000000200000000000000000000000000000008000000000000000000002002000100000000000000000000000000000000100000800000000000400000000000100000000000000001200000100000000000000000000000000000",
      "type": "0x2",
      "transactionHash": "0xf2a050b6642d1a7069a0d0022e7de58eeca21d91f772c5d00f77e6f3c9ef2bf7",
      "transactionIndex": "0xc",
      "blockHash": "0xe226834d3275fc4be24ad56df1307fee605b745bde5278e46e2554866a28b1c4",
      "blockNumber": "0x16f1cebb",
      "gasUsed": "0x201d4",
      "effectiveGasPrice": "0xaf4ee8",
      "from": "0x6539519e69343535a2af6583d9bae3ad74c6a293",
      "to": "0x6c247b1f6182318877311737bac0844baa518f5e",
      "contractAddress": null,
      "gasUsedForL1": "0xe9f",
      "l1BlockNumber": "0x16652a5",
      "timeboosted": false
    }
  ],
  "libraries": [],
  "pending": [],
  "returns": {},
  "timestamp": 1759322859,
  "chain": 42161,
  "commit": "24867d0"
}