{
  "transactions": [
    {
      "hash": "0x42642ef3462e9c908b666110354e49f335ed374675c0fbf26e87018a23448ae7",
      "transactionType": "CALL",
      "contractName": null,
      "contractAddress": "0xaf88d065e77c8cc2239327c5edb3a432268e5831",
      "function": "approve(address,uint256)",
      "arguments": [
        "0x6c247b1F6182318877311737BaC0844bAa518F5e",
        "500000"
      ],
      "transaction": {
        "from": "0x6539519e69343535a2af6583d9bae3ad74c6a293",
        "to": "0xaf88d065e77c8cc2239327c5edb3a432268e5831",
        "gas": "0x1372c",
        "value": "0x0",
        "input": "0x095ea7b30000000000000000000000006c247b1f6182318877311737bac0844baa518f5e000000000000000000000000000000000000000000000000000000000007a120",
        "nonce": "0x3",
        "chainId": "0xa4b1"
      },
      "additionalContracts": [],
      "isFixedGasLimit": false
    },
    {
      "hash": "0x0eae7485913a5dd3fdaa2becf8e0119a501cb11f2f7198f7f6f3bd23b5fd6835",
      "transactionType": "CALL",
      "contractName": null,
      "contractAddress": "0x6c247b1f6182318877311737bac0844baa518f5e",
      "function": "supply((address,address,address,address,uint256),uint256,uint256,address,bytes)",
      "arguments": [
        "(0xaf88d065e77c8cC2239327C5EDb3A432268e5831, 0x6eAf19b2FC24552925dB245F9Ff613157a7dbb4C, 0x14A7F156062D35861a285c7A7F5662964c2fe155, 0x66F30587FB8D4206918deb78ecA7d5eBbafD06DA, 915000000000000000)",
        "500000",
        "0",
        "0x6539519E69343535a2aF6583D9BAE3AD74c6A293",
        "0x"
      ],
      "transaction": {
        "from": "0x6539519e69343535a2af6583d9bae3ad74c6a293",
        "to": "0x6c247b1f6182318877311737bac0844baa518f5e",
        "gas": "0x2b187",
        "value": "0x0",
        "input": "0xa99aad89000000000000000000000000af88d065e77c8cc2239327c5edb3a432268e58310000000000000000000000006eaf19b2fc24552925db245f9ff613157a7dbb4c00000000000000000000000014a7f156062d35861a285c7a7f5662964c2fe15500000000000000000000000066f30587fb8d4206918deb78eca7d5ebbafd06da0000000000000000000000000000000000000000000000000cb2bba6f17b8000000000000000000000000000000000000000000000000000000000000007a12000000000000000000000000000000000000000000000000000000000000000000000000000000000000000006539519e69343535a2af6583d9bae3ad74c6a29300000000000000000000000000000000000000000000000000000000000001200000000000000000000000000000000000000000000000000000000000000000",
        "nonce": "0x4",
        "chainId": "0xa4b1"
      },
      "additionalContracts": [],
      "isFixedGasLimit": false
    }
  ],
  "receipts": [
    {
      "status": "0x1",
      "cumulativeGasUsed": "0x299df0",
      "logs": [
        {
          "address": "0xaf88d065e77c8cc2239327c5edb3a432268e5831",
          "topics": [
            "0x8c5be1e5ebec7d5bd14f71427d1e84f3dd0314c0f7b2291e5b200ac8c7c3b925",
            "0x0000000000000000000000006539519e69343535a2af6583d9bae3ad74c6a293",
            "0x0000000000000000000000006c247b1f6182318877311737bac0844baa518f5e"
          ],
          "data": "0x000000000000000000000000000000000000000000000000000000000007a120",
          "blockHash": "0xfba7ca145bf98b5185881d062e69f045b1ce22e282b01f7b28f8af941ba182d4",
          "blockNumber": "0x16d8042b",
          "transactionHash": "0x42642ef3462e9c908b666110354e49f335ed374675c0fbf26e87018a23448ae7",
          "transactionIndex": "0xa",
          "logIndex": "0x1d",
          "removed": false
        }
      ],
      "logsBloom": "0x00000000000000000000000000000000000000000000000000000000000000000080000000000100000000000000000000000001000000000000000000200000000000000000000000000000000000000000000000000000000000000100000000000000000000000000000000000000000000000000000000000000000000000000000000000000000000000000000000000000000000000000000000000000020000000000000000000000000000000000000000000000000000000000000000002000000100000000000000000000000000000000000000000000000000000010000000100000000000000000200000100000000000000000000000000000",
      "type": "0x2",
      "transactionHash": "0x42642ef3462e9c908b666110354e49f335ed374675c0fbf26e87018a23448ae7",
      "transactionIndex": "0xa",
      "blockHash": "0xfba7ca145bf98b5185881d062e69f045b1ce22e282b01f7b28f8af941ba182d4",
      "blockNumber": "0x16d8042b",
      "gasUsed": "0xe641",
      "effectiveGasPrice": "0xf3f520",
      "from": "0x6539519e69343535a2af6583d9bae3ad74c6a293",
      "to": "0xaf88d065e77c8cc2239327c5edb3a432268e5831",
      "contractAddress": null,
      "gasUsedForL1": "0xdb4",
      "l1BlockNumber": "0x165ca36",
      "timeboosted": false
    },
    {
      "status": "0x1",
      "cumulativeGasUsed": "0x3f5121",
      "logs": [
        {
          "address": "0x66f30587fb8d4206918deb78eca7d5ebbafd06da",
          "topics": [
            "0x7120161a7b3d31251e01294ab351ef15a41b91659a36032e4641bb89b121e321",
            "0x7c03103c24ccfa9188bf41a8d44423cf5492645805eb1d23d9f862717d3fe5ab"
          ],
          "data": "0x0000000000000000000000000000000000000000000000000000000010b7ded9000000000000000000000000000000000000000000000000000000003ac29f56",
          "blockHash": "0xcc5084ba5b3ee5383b7f2cb2ab99f0e0106a321c8f0465430b0ec261379070e9",
          "blockNumber": "0x16d80437",
          "transactionHash": "0x0eae7485913a5dd3fdaa2becf8e0119a501cb11f2f7198f7f6f3bd23b5fd6835",
          "transactionIndex": "0x1a",
          "logIndex": "0x4b",
          "removed": false
        },
        {
          "address": "0x6c247b1f6182318877311737bac0844baa518f5e",
          "topics": [
            "0x9d9bd501d0657d7dfe415f779a620a62b78bc508ddc0891fbbd8b7ac0f8fce87",
            "0x7c03103c24ccfa9188bf41a8d44423cf5492645805eb1d23d9f862717d3fe5ab"
          ],
          "data": "0x0000000000000000000000000000000000000000000000000000000010b7ded900000000000000000000000000000000000000000000000000000000000000000000000000000000000000000000000000000000000000000000000000000000",
          "blockHash": "0xcc5084ba5b3ee5383b7f2cb2ab99f0e0106a321c8f0465430b0ec261379070e9",
          "blockNumber": "0x16d80437",
          "transactionHash": "0x0eae7485913a5dd3fdaa2becf8e0119a501cb11f2f7198f7f6f3bd23b5fd6835",
          "transactionIndex": "0x1a",
          "logIndex": "0x4c",
          "removed": false
        },
        {
          "address": "0x6c247b1f6182318877311737bac0844baa518f5e",
          "topics": [
            "0xedf8870433c83823eb071d3df1caa8d008f12f6440918c20d75a3602cda30fe0",
            "0x7c03103c24ccfa9188bf41a8d44423cf5492645805eb1d23d9f862717d3fe5ab",
            "0x0000000000000000000000006539519e69343535a2af6583d9bae3ad74c6a293",
            "0x0000000000000000000000006539519e69343535a2af6583d9bae3ad74c6a293"
          ],
          "data": "0x000000000000000000000000000000000000000000000000000000000007a120000000000000000000000000000000000000000000000000000000746a528800",
          "blockHash": "0xcc5084ba5b3ee5383b7f2cb2ab99f0e0106a321c8f0465430b0ec261379070e9",
          "blockNumber": "0x16d80437",
          "transactionHash": "0x0eae7485913a5dd3fdaa2becf8e0119a501cb11f2f7198f7f6f3bd23b5fd6835",
          "transactionIndex": "0x1a",
          "logIndex": "0x4d",
          "removed": false
        },
        {
          "address": "0xaf88d065e77c8cc2239327c5edb3a432268e5831",
          "topics": [
            "0xddf252ad1be2c89b69c2b068fc378daa952ba7f163c4a11628f55a4df523b3ef",
            "0x0000000000000000000000006539519e69343535a2af6583d9bae3ad74c6a293",
            "0x0000000000000000000000006c247b1f6182318877311737bac0844baa518f5e"
          ],
          "data": "0x000000000000000000000000000000000000000000000000000000000007a120",
          "blockHash": "0xcc5084ba5b3ee5383b7f2cb2ab99f0e0106a321c8f0465430b0ec261379070e9",
          "blockNumber": "0x16d80437",
          "transactionHash": "0x0eae7485913a5dd3fdaa2becf8e0119a501cb11f2f7198f7f6f3bd23b5fd6835",
          "transactionIndex": "0x1a",
          "logIndex": "0x4e",
          "removed": false
        }
      ],
      "logsBloom": "0x00000000000000000000000000000000000000000000000000000000000000080080400000000100000000000000000000000001000000000000000420804002000000000000000000000008800000000000000800000000000000080100000000000000000000000000000000000000000000000000000000000010000000000000000000000000000020000000200000000000000000000000000000000000000000000000000200000000000000000000000000000000000000000000000000002002000100000000000000000000000000000000100000800000000000400000000000100000000000000001200000100000000000000000000000000040",
      "type": "0x2",
      "transactionHash": "0x0eae7485913a5dd3fdaa2becf8e0119a501cb11f2f7198f7f6f3bd23b5fd6835",
      "transactionIndex": "0x1a",
      "blockHash": "0xcc5084ba5b3ee5383b7f2cb2ab99f0e0106a321c8f0465430b0ec261379070e9",
      "blockNumber": "0x16d80437",
      "gasUsed": "0x20e7f",
      "effectiveGasPrice": "0xf7b610",
      "from": "0x6539519e69343535a2af6583d9bae3ad74c6a293",
      "to": "0x6c247b1f6182318877311737bac0844baa518f5e",
      "contractAddress": null,
      "gasUsedForL1": "0x1b4a",
      "l1BlockNumber": "0x165ca36",
      "timeboosted": false
    }
  ],
  "libraries": [],
  "pending": [],
  "returns": {},
  "timestamp": 1758900930,
  "chain": 42161,
  "commit": "b3e5063"
}