{
  "transactions": [
    {
      "hash": "0x0d8fa1762198c8cd66810cc8b38dd03dfef5c429677802fbd905445f3c21f82e",
      "transactionType": "CALL",
      "contractName": null,
      "contractAddress": "0x0000000f2eb9f69274678c76222b35eec7588a65",
      "function": "approve(address,uint256)",
      "arguments": [
        "0xBBBBBbbBBb9cC5e90e3b3Af64bdAF62C37EEFFCb",
        "975902"
      ],
      "transaction": {
        "from": "0x6539519e69343535a2af6583d9bae3ad74c6a293",
        "to": "0x0000000f2eb9f69274678c76222b35eec7588a65",
        "gas": "0x11522",
        "value": "0x0",
        "input": "0x095ea7b3000000000000000000000000bbbbbbbbbb9cc5e90e3b3af64bdaf62c37eeffcb00000000000000000000000000000000000000000000000000000000000ee41e",
        "nonce": "0x23",
        "chainId": "0x2105"
      },
      "additionalContracts": [],
      "isFixedGasLimit": false
    },
    {
      "hash": "0xa68809c44c86de48489304aee1aeede00a8ac35855e67989681aeef70435eef2",
      "transactionType": "CALL",
      "contractName": null,
      "contractAddress": "0xbbbbbbbbbb9cc5e90e3b3af64bdaf62c37eeffcb",
      "function": "supplyCollateral((address,address,address,address,uint256),uint256,address,bytes)",
      "arguments": [
        "(0x833589fCD6eDb6E08f4c7C32D4f71b54bdA02913, 0x0000000f2eB9f69274678c76222B35eEc7588a65, 0x77f59C5C09e7ABEF6991B456170930324FE36222, 0x46415998764C29aB2a25CbeA6254146D50D22687, 915000000000000000)",
        "975902",
        "0x6539519E69343535a2aF6583D9BAE3AD74c6A293",
        "0x"
      ],
      "transaction": {
        "from": "0x6539519e69343535a2af6583d9bae3ad74c6a293",
        "to": "0xbbbbbbbbbb9cc5e90e3b3af64bdaf62c37eeffcb",
        "gas": "0x1e0f9",
        "value": "0x0",
        "input": "0x238d6579000000000000000000000000833589fcd6edb6e08f4c7c32d4f71b54bda029130000000000000000000000000000000f2eb9f69274678c76222b35eec7588a6500000000000000000000000077f59c5c09e7abef6991b456170930324fe3622200000000000000000000000046415998764c29ab2a25cbea6254146d50d226870000000000000000000000000000000000000000000000000cb2bba6f17b800000000000000000000000000000000000000000000000000000000000000ee41e0000000000000000000000006539519e69343535a2af6583d9bae3ad74c6a29300000000000000000000000000000000000000000000000000000000000001000000000000000000000000000000000000000000000000000000000000000000",
        "nonce": "0x24",
        "chainId": "0x2105"
      },
      "additionalContracts": [],
      "isFixedGasLimit": false
    }
  ],
  "receipts": [
    {
      "status": "0x1",
      "cumulativeGasUsed": "0x989c7c",
      "logs": [
        {
          "address": "0x0000000f2eb9f69274678c76222b35eec7588a65",
          "topics": [
            "0x8c5be1e5ebec7d5bd14f71427d1e84f3dd0314c0f7b2291e5b200ac8c7c3b925",
            "0x0000000000000000000000006539519e69343535a2af6583d9bae3ad74c6a293",
            "0x000000000000000000000000bbbbbbbbbb9cc5e90e3b3af64bdaf62c37eeffcb"
          ],
          "data": "0x00000000000000000000000000000000000000000000000000000000000ee41e",
          "blockHash": "0xc1009f9899709f39de4d70aa5d985f22afc8115adaf0627e94ec35fa6ab78826",
          "blockNumber": "0x2089786",
          "blockTimestamp": "0x689b8bef",
          "transactionHash": "0x0d8fa1762198c8cd66810cc8b38dd03dfef5c429677802fbd905445f3c21f82e",
          "transactionIndex": "0x2c",
          "logIndex": "0xd9",
          "removed": false
        }
      ],
      "logsBloom": "0x00000000000000000000000000000080000000000000000000000000000000000080000000000100000000000000000001000000000000000000000000200000000000000000000000000000000000000000000000000000000000000000000000000000000000000000000000000000000000000000000000000000000000000000000000000000000000000000000000000000000000000000000000000000020000000000000000000000000000000000000000000000000000000000000000000000000000000000000008000000002000000000000000000000000000000010000001100000000000200000000000000000000000000000000000000000",
      "type": "0x2",
      "transactionHash": "0x0d8fa1762198c8cd66810cc8b38dd03dfef5c429677802fbd905445f3c21f82e",
      "transactionIndex": "0x2c",
      "blockHash": "0xc1009f9899709f39de4d70aa5d985f22afc8115adaf0627e94ec35fa6ab78826",
      "blockNumber": "0x2089786",
      "gasUsed": "0xc8a4",
      "effectiveGasPrice": "0x9f49cc",
      "from": "0x6539519e69343535a2af6583d9bae3ad74c6a293",
      "to": "0x0000000f2eb9f69274678c76222b35eec7588a65",
      "contractAddress": null,
      "l1BaseFeeScalar": "0x8dd",
      "l1BlobBaseFee": "0x1",
      "l1BlobBaseFeeScalar": "0x101c12",
      "l1Fee": "0x2b443ad4e",
      "l1GasPrice": "0xbeaf77d5",
      "l1GasUsed": "0x640"
    },
    {
      "status": "0x1",
      "cumulativeGasUsed": "0x99f8b4",
      "logs": [
        {
          "address": "0xbbbbbbbbbb9cc5e90e3b3af64bdaf62c37eeffcb",
          "topics": [
            "0xa3b9472a1399e17e123f3c2e6586c23e504184d504de59cdaa2b375e880c6184",
            "0x1a3e69d0109bb1be42b80e11034bb6ee98fc466721f26845dc83b2aa8d979137",
            "0x0000000000000000000000006539519e69343535a2af6583d9bae3ad74c6a293",
            "0x0000000000000000000000006539519e69343535a2af6583d9bae3ad74c6a293"
          ],
          "data": "0x00000000000000000000000000000000000000000000000000000000000ee41e",
          "blockHash": "0xc1009f9899709f39de4d70aa5d985f22afc8115adaf0627e94ec35fa6ab78826",
          "blockNumber": "0x2089786",
          "blockTimestamp": "0x689b8bef",
          "transactionHash": "0xa68809c44c86de48489304aee1aeede00a8ac35855e67989681aeef70435eef2",
          "transactionIndex": "0x2d",
          "logIndex": "0xda",
          "removed": false
        },
        {
          "address": "0x0000000f2eb9f69274678c76222b35eec7588a65",
          "topics": [
            "0xddf252ad1be2c89b69c2b068fc378daa952ba7f163c4a11628f55a4df523b3ef",
            "0x0000000000000000000000006539519e69343535a2af6583d9bae3ad74c6a293",
            "0x000000000000000000000000bbbbbbbbbb9cc5e90e3b3af64bdaf62c37eeffcb"
          ],
          "data": "0x00000000000000000000000000000000000000000000000000000000000ee41e",
          "blockHash": "0xc1009f9899709f39de4d70aa5d985f22afc8115adaf0627e94ec35fa6ab78826",
          "blockNumber": "0x2089786",
          "blockTimestamp": "0x689b8bef",
          "transactionHash": "0xa68809c44c86de48489304aee1aeede00a8ac35855e67989681aeef70435eef2",
          "transactionIndex": "0x2d",
          "logIndex": "0xdb",
          "removed": false
        }
      ],
      "logsBloom": "0x00000000000000000000000000000080000000000000000000000000000000000080000000000100000000000000000001000000000000000000000000000000000000000010000000000008000000000000000000000000000000002000000000000000000000000000000000000000000000000000000000000010000000000000008000000008000000000000004000000000000000000000000000000000000000000000000000000000000000000000400000000000000000000000000020000002000000000000000008000000002000000000000400000000000000000000000001100000000000200000200000000000000000000000000000000000",
      "type": "0x2",
      "transactionHash": "0xa68809c44c86de48489304aee1aeede00a8ac35855e67989681aeef70435eef2",
      "transactionIndex": "0x2d",
      "blockHash": "0xc1009f9899709f39de4d70aa5d985f22afc8115adaf0627e94ec35fa6ab78826",
      "blockNumber": "0x2089786",
      "gasUsed": "0x15c38",
      "effectiveGasPrice": "0x9f49cc",
      "from": "0x6539519e69343535a2af6583d9bae3ad74c6a293",
      "to": "0xbbbbbbbbbb9cc5e90e3b3af64bdaf62c37eeffcb",
      "contractAddress": null,
      "l1BaseFeeScalar": "0x8dd",
      "l1BlobBaseFee": "0x1",
      "l1BlobBaseFeeScalar": "0x101c12",
      "l1Fee": "0x52e9ddd5a",
      "l1GasPrice": "0xbeaf77d5",
      "l1GasUsed": "0xbfa"
    }
  ],
  "libraries": [],
  "pending": [],
  "returns": {},
  "timestamp": 1755024367,
  "chain": 8453,
  "commit": "909bf95"
}