{
  "transactions": [
    {
      "hash": "0x2100a2130272699c4bf218a25d3d45acf0dc358d4e457cccf0f1769e5152458f",
      "transactionType": "CALL",
      "contractName": null,
      "contractAddress": "0x6f5ddb7689d7bd74d29b7d6a06cee8e39655a5dc",
      "function": "approve(address,uint256)",
      "arguments": [
        "0xBBBBBbbBBb9cC5e90e3b3Af64bdAF62C37EEFFCb",
        "1028783722126141974"
      ],
      "transaction": {
        "from": "0x6539519e69343535a2af6583d9bae3ad74c6a293",
        "to": "0x6f5ddb7689d7bd74d29b7d6a06cee8e39655a5dc",
        "gas": "0x125cf",
        "value": "0x0",
        "input": "0x095ea7b3000000000000000000000000bbbbbbbbbb9cc5e90e3b3af64bdaf62c37eeffcb0000000000000000000000000000000000000000000000000e46f95834086a16",
        "nonce": "0x4a",
        "chainId": "0x1"
      },
      "additionalContracts": [],
      "isFixedGasLimit": false
    },
    {
      "hash": "0x626200b032d4ebe994963cc8ae1b1ab4a2340d684628581c09eaf506858050aa",
      "transactionType": "CALL",
      "contractName": null,
      "contractAddress": "0xbbbbbbbbbb9cc5e90e3b3af64bdaf62c37eeffcb",
      "function": "supplyCollateral((address,address,address,address,uint256),uint256,address,bytes)",
      "arguments": [
        "(0xA0b86991c6218b36c1d19D4a2e9Eb0cE3606eB48, 0x6F5DdB7689D7bd74D29B7d6A06ceE8e39655a5Dc, 0x540DA4839F752AffEAF525f1af2EcF8F7e55D81f, 0x870aC11D48B15DB9a138Cf899d20F13F79Ba00BC, 915000000000000000)",
        "1028783722126141974",
        "0x6539519E69343535a2aF6583D9BAE3AD74c6A293",
        "0x"
      ],
      "transaction": {
        "from": "0x6539519e69343535a2af6583d9bae3ad74c6a293",
        "to": "0xbbbbbbbbbb9cc5e90e3b3af64bdaf62c37eeffcb",
        "gas": "0x1f295",
        "value": "0x0",
        "input": "0x238d6579000000000000000000000000a0b86991c6218b36c1d19d4a2e9eb0ce3606eb480000000000000000000000006f5ddb7689d7bd74d29b7d6a06cee8e39655a5dc000000000000000000000000540da4839f752affeaf525f1af2ecf8f7e55d81f000000000000000000000000870ac11d48b15db9a138cf899d20f13f79ba00bc0000000000000000000000000000000000000000000000000cb2bba6f17b80000000000000000000000000000000000000000000000000000e46f95834086a160000000000000000000000006539519e69343535a2af6583d9bae3ad74c6a29300000000000000000000000000000000000000000000000000000000000001000000000000000000000000000000000000000000000000000000000000000000",
        "nonce": "0x4b",
        "chainId": "0x1"
      },
      "additionalContracts": [],
      "isFixedGasLimit": false
    }
  ],
  "receipts": [
    {
      "status": "0x1",
      "cumulativeGasUsed": "0x1a7d5e0",
      "logs": [
        {
          "address": "0x6f5ddb7689d7bd74d29b7d6a06cee8e39655a5dc",
          "topics": [
            "0x8c5be1e5ebec7d5bd14f71427d1e84f3dd0314c0f7b2291e5b200ac8c7c3b925",
            "0x0000000000000000000000006539519e69343535a2af6583d9bae3ad74c6a293",
            "0x000000000000000000000000bbbbbbbbbb9cc5e90e3b3af64bdaf62c37eeffcb"
          ],
          "data": "0x0000000000000000000000000000000000000000000000000e46f95834086a16",
          "blockHash": "0x81e4359f4fd5041a867af3ab9f50ffa2fc4545d9091e7e1d8ed2fa993d39971c",
          "blockNumber": "0x162a68f",
          "blockTimestamp": "0x68b0cdcf",
          "transactionHash": "0x2100a2130272699c4bf218a25d3d45acf0dc358d4e457cccf0f1769e5152458f",
          "transactionIndex": "0xe4",
          "logIndex": "0x6b9",
          "removed": false
        }
      ],
      "logsBloom": "0x00000000000000000000000000000080000000000000000000000000000000000080000000000100000000000000000000000000000000000000000000200000000000000000000100000000000000000000000000000000000000000000000000000000000000000000000000000000000000000000000000000000000000000000000080000000000000000000000000000000000000000000000000000000020000000000000000000000000000000000000000000000000000000000000000000000000000000000020000000000000000000000000000000000000000000010000001100000000000200000000000000000000000000000000000000000",
      "type": "0x2",
      "transactionHash": "0x2100a2130272699c4bf218a25d3d45acf0dc358d4e457cccf0f1769e5152458f",
      "transactionIndex": "0xe4",
      "blockHash": "0x81e4359f4fd5041a867af3ab9f50ffa2fc4545d9091e7e1d8ed2fa993d39971c",
      "blockNumber": "0x162a68f",
      "gasUsed": "0xd4b7",
      "effectiveGasPrice": "0x1265151b",
      "from": "0x6539519e69343535a2af6583d9bae3ad74c6a293",
      "to": "0x6f5ddb7689d7bd74d29b7d6a06cee8e39655a5dc",
      "contractAddress": null
    },
    {
      "status": "0x1",
      "cumulativeGasUsed": "0x1a93ed8",
      "logs": [
        {
          "address": "0xbbbbbbbbbb9cc5e90e3b3af64bdaf62c37eeffcb",
          "topics": [
            "0xa3b9472a1399e17e123f3c2e6586c23e504184d504de59cdaa2b375e880c6184",
            "0x1aba34974778fcec0ab70e7e7af67ca3ce444e62580fd351faff86cd222774a9",
            "0x0000000000000000000000006539519e69343535a2af6583d9bae3ad74c6a293",
            "0x0000000000000000000000006539519e69343535a2af6583d9bae3ad74c6a293"
          ],
          "data": "0x0000000000000000000000000000000000000000000000000e46f95834086a16",
          "blockHash": "0x81e4359f4fd5041a867af3ab9f50ffa2fc4545d9091e7e1d8ed2fa993d39971c",
          "blockNumber": "0x162a68f",
          "blockTimestamp": "0x68b0cdcf",
          "transactionHash": "0x626200b032d4ebe994963cc8ae1b1ab4a2340d684628581c09eaf506858050aa",
          "transactionIndex": "0xe5",
          "logIndex": "0x6ba",
          "removed": false
        },
        {
          "address": "0x6f5ddb7689d7bd74d29b7d6a06cee8e39655a5dc",
          "topics": [
            "0xddf252ad1be2c89b69c2b068fc378daa952ba7f163c4a11628f55a4df523b3ef",
            "0x0000000000000000000000006539519e69343535a2af6583d9bae3ad74c6a293",
            "0x000000000000000000000000bbbbbbbbbb9cc5e90e3b3af64bdaf62c37eeffcb"
          ],
          "data": "0x0000000000000000000000000000000000000000000000000e46f95834086a16",
          "blockHash": "0x81e4359f4fd5041a867af3ab9f50ffa2fc4545d9091e7e1d8ed2fa993d39971c",
          "blockNumber": "0x162a68f",
          "blockTimestamp": "0x68b0cdcf",
          "transactionHash": "0x626200b032d4ebe994963cc8ae1b1ab4a2340d684628581c09eaf506858050aa",
          "transactionIndex": "0xe5",
          "logIndex": "0x6bb",
          "removed": false
        }
      ],
      "logsBloom": "0x00000000000000000000000000000080000000000000000000000000000000000080000000000100000000000000000000000000000000000000000000100000000000000010000100000008000000000000000000000000000000000000000000000000000000000000000000000000000000000000000000000010000000000000008080000008000000000000000000000000000000000000000000000000000000000000000000000000000000000000000000000000000000000000000020000002000800000000020000000000000000000000000400000000000000000000000001100000000000200000200000000000010000000000000000000000",
      "type": "0x2",
      "transactionHash": "0x626200b032d4ebe994963cc8ae1b1ab4a2340d684628581c09eaf506858050aa",
      "transactionIndex": "0xe5",
      "blockHash": "0x81e4359f4fd5041a867af3ab9f50ffa2fc4545d9091e7e1d8ed2fa993d39971c",
      "blockNumber": "0x162a68f",
      "gasUsed": "0x168f8",
      "effectiveGasPrice": "0x1265151b",
      "from": "0x6539519e69343535a2af6583d9bae3ad74c6a293",
      "to": "0xbbbbbbbbbb9cc5e90e3b3af64bdaf62c37eeffcb",
      "contractAddress": null
    }
  ],
  "libraries": [],
  "pending": [],
  "returns": {},
  "timestamp": 1756417491,
  "chain": 1,
  "commit": "2a7395c"
}