{
  "transactions": [
    {
      "hash": "0x86564acfd8f6db5c18924354567b125305b479dee3d4c764fd26f221de674b5c",
      "transactionType": "CALL",
      "contractName": null,
      "contractAddress": "0x23346b04a7f55b8760e5860aa5a77383d63491cd",
      "function": "approve(address,uint256)",
      "arguments": [
        "0xBBBBBbbBBb9cC5e90e3b3Af64bdAF62C37EEFFCb",
        "996816849047343067"
      ],
      "transaction": {
        "from": "0x6539519e69343535a2af6583d9bae3ad74c6a293",
        "to": "0x23346b04a7f55b8760e5860aa5a77383d63491cd",
        "gas": "0x10a39",
        "value": "0x0",
        "input": "0x095ea7b3000000000000000000000000bbbbbbbbbb9cc5e90e3b3af64bdaf62c37eeffcb0000000000000000000000000000000000000000000000000dd567a491974fdb",
        "nonce": "0x17",
        "chainId": "0x1"
      },
      "additionalContracts": [],
      "isFixedGasLimit": false
    },
    {
      "hash": "0xc0a52b1665459a6eecd9af2148808bc72524e207ee3fa5bee257c36b0e315622",
      "transactionType": "CALL",
      "contractName": null,
      "contractAddress": "0xbbbbbbbbbb9cc5e90e3b3af64bdaf62c37eeffcb",
      "function": "supplyCollateral((address,address,address,address,uint256),uint256,address,bytes)",
      "arguments": [
        "(0x6440f144b7e50D6a8439336510312d2F54beB01D, 0x23346B04a7f55b8760E5860AA5A77383D63491cD, 0x173b7573B2604eEd1B36c88902b236af54B02ef4, 0x870aC11D48B15DB9a138Cf899d20F13F79Ba00BC, 915000000000000000)",
        "996816849047343067",
        "0x6539519E69343535a2aF6583D9BAE3AD74c6A293",
        "0x"
      ],
      "transaction": {
        "from": "0x6539519e69343535a2af6583d9bae3ad74c6a293",
        "to": "0xbbbbbbbbbb9cc5e90e3b3af64bdaf62c37eeffcb",
        "gas": "0x1d40d",
        "value": "0x0",
        "input": "0x238d65790000000000000000000000006440f144b7e50d6a8439336510312d2f54beb01d00000000000000000000000023346b04a7f55b8760e5860aa5a77383d63491cd000000000000000000000000173b7573b2604eed1b36c88902b236af54b02ef4000000000000000000000000870ac11d48b15db9a138cf899d20f13f79ba00bc0000000000000000000000000000000000000000000000000cb2bba6f17b80000000000000000000000000000000000000000000000000000dd567a491974fdb0000000000000000000000006539519e69343535a2af6583d9bae3ad74c6a29300000000000000000000000000000000000000000000000000000000000001000000000000000000000000000000000000000000000000000000000000000000",
        "nonce": "0x18",
        "chainId": "0x1"
      },
      "additionalContracts": [],
      "isFixedGasLimit": false
    }
  ],
  "receipts": [
    {
      "status": "0x1",
      "cumulativeGasUsed": "0xd92779",
      "logs": [
        {
          "address": "0x23346b04a7f55b8760e5860aa5a77383d63491cd",
          "topics": [
            "0x8c5be1e5ebec7d5bd14f71427d1e84f3dd0314c0f7b2291e5b200ac8c7c3b925",
            "0x0000000000000000000000006539519e69343535a2af6583d9bae3ad74c6a293",
            "0x000000000000000000000000bbbbbbbbbb9cc5e90e3b3af64bdaf62c37eeffcb"
          ],
          "data": "0x0000000000000000000000000000000000000000000000000dd567a491974fdb",
          "blockHash": "0xd5030502717f935095c2d3ebd629ea5263958afc187a77af341ba33ae23d6ec8",
          "blockNumber": "0x15bba05",
          "blockTimestamp": "0x685d3cab",
          "transactionHash": "0x86564acfd8f6db5c18924354567b125305b479dee3d4c764fd26f221de674b5c",
          "transactionIndex": "0xf4",
          "logIndex": "0x189",
          "removed": false
        }
      ],
      "logsBloom": "0x00000000000000000000000000000080000000000000000000000000000000000080000000000100000000000000000000000000000000000000000000200000000000000000000000000000000000000000000080000000000000000000000000000000000000000000000000000000000000000000000000000000000000000000000000000000000000000000000000000000000000000000000000000000020000000000000000000000000000000000000020000000000000000000000000000000000000000000000000000000000000000000000000000000000000000010000001100000000000200000000000000000000004000000000000000000",
      "type": "0x2",
      "transactionHash": "0x86564acfd8f6db5c18924354567b125305b479dee3d4c764fd26f221de674b5c",
      "transactionIndex": "0xf4",
      "blockHash": "0xd5030502717f935095c2d3ebd629ea5263958afc187a77af341ba33ae23d6ec8",
      "blockNumber": "0x15bba05",
      "gasUsed": "0xc0bf",
      "effectiveGasPrice": "0x6a2b75a7",
      "from": "0x6539519e69343535a2af6583d9bae3ad74c6a293",
      "to": "0x23346b04a7f55b8760e5860aa5a77383d63491cd",
      "contractAddress": null
    },
    {
      "status": "0x1",
      "cumulativeGasUsed": "0x12912bb",
      "logs": [
        {
          "address": "0xbbbbbbbbbb9cc5e90e3b3af64bdaf62c37eeffcb",
          "topics": [
            "0xa3b9472a1399e17e123f3c2e6586c23e504184d504de59cdaa2b375e880c6184",
            "0xda6e6163096ebbcf1fe1d1ff872bd2d3bded1434f189a4648371336340257acd",
            "0x0000000000000000000000006539519e69343535a2af6583d9bae3ad74c6a293",
            "0x0000000000000000000000006539519e69343535a2af6583d9bae3ad74c6a293"
          ],
          "data": "0x0000000000000000000000000000000000000000000000000dd567a491974fdb",
          "blockHash": "0xcc8a23c9cd142598a47fb8c40eb869502b275ecb1a074074e52a6cf87d4097ae",
          "blockNumber": "0x15bba07",
          "blockTimestamp": "0x685d3cc3",
          "transactionHash": "0xc0a52b1665459a6eecd9af2148808bc72524e207ee3fa5bee257c36b0e315622",
          "transactionIndex": "0x10d",
          "logIndex": "0x21f",
          "removed": false
        },
        {
          "address": "0x23346b04a7f55b8760e5860aa5a77383d63491cd",
          "topics": [
            "0x8c5be1e5ebec7d5bd14f71427d1e84f3dd0314c0f7b2291e5b200ac8c7c3b925",
            "0x0000000000000000000000006539519e69343535a2af6583d9bae3ad74c6a293",
            "0x000000000000000000000000bbbbbbbbbb9cc5e90e3b3af64bdaf62c37eeffcb"
          ],
          "data": "0x0000000000000000000000000000000000000000000000000000000000000000",
          "blockHash": "0xcc8a23c9cd142598a47fb8c40eb869502b275ecb1a074074e52a6cf87d4097ae",
          "blockNumber": "0x15bba07",
          "blockTimestamp": "0x685d3cc3",
          "transactionHash": "0xc0a52b1665459a6eecd9af2148808bc72524e207ee3fa5bee257c36b0e315622",
          "transactionIndex": "0x10d",
          "logIndex": "0x220",
          "removed": false
        },
        {
          "address": "0x23346b04a7f55b8760e5860aa5a77383d63491cd",
          "topics": [
            "0xddf252ad1be2c89b69c2b068fc378daa952ba7f163c4a11628f55a4df523b3ef",
            "0x0000000000000000000000006539519e69343535a2af6583d9bae3ad74c6a293",
            "0x000000000000000000000000bbbbbbbbbb9cc5e90e3b3af64bdaf62c37eeffcb"
          ],
          "data": "0x0000000000000000000000000000000000000000000000000dd567a491974fdb",
          "blockHash": "0xcc8a23c9cd142598a47fb8c40eb869502b275ecb1a074074e52a6cf87d4097ae",
          "blockNumber": "0x15bba07",
          "blockTimestamp": "0x685d3cc3",
          "transactionHash": "0xc0a52b1665459a6eecd9af2148808bc72524e207ee3fa5bee257c36b0e315622",
          "transactionIndex": "0x10d",
          "logIndex": "0x221",
          "removed": false
        }
      ],
      "logsBloom": "0x00000000000000000000000000000080000000000000000000000000000000000080000000000100000000000000000000000000000000000000000000200000000000000010000000000008000000000000000080000000000000000000000000000000000000000000000000000008000000000000000000000010000000000000008000000008000000000000000000000000000000000000000000000000020000000000000000000000000000000000000020000000000000000800000020000002000000000000000008000000000000000000000400000000000000000010000001100000000000200000200000000000000004000000000000000000",
      "type": "0x2",
      "transactionHash": "0xc0a52b1665459a6eecd9af2148808bc72524e207ee3fa5bee257c36b0e315622",
      "transactionIndex": "0x10d",
      "blockHash": "0xcc8a23c9cd142598a47fb8c40eb869502b275ecb1a074074e52a6cf87d4097ae",
      "blockNumber": "0x15bba07",
      "gasUsed": "0x152dd",
      "effectiveGasPrice": "0x6c759a2d",
      "from": "0x6539519e69343535a2af6583d9bae3ad74c6a293",
      "to": "0xbbbbbbbbbb9cc5e90e3b3af64bdaf62c37eeffcb",
      "contractAddress": null
    }
  ],
  "libraries": [],
  "pending": [],
  "returns": {},
  "timestamp": 1750940869,
  "chain": 1,
  "commit": "15a7fd3"
}