{
  "transactions": [
    {
      "hash": "0xfa89ea6700b0785dabbee63434b266c0db72f5636f5e802c8c088ad5b8da6022",
      "transactionType": "CALL",
      "contractName": null,
      "contractAddress": "0x9ebb9230276e858efb8209618055add25a2bf41b",
      "function": "approve(address,uint256)",
      "arguments": [
        "0xBBBBBbbBBb9cC5e90e3b3Af64bdAF62C37EEFFCb",
        "1046778943351135207"
      ],
      "transaction": {
        "from": "0x6539519e69343535a2af6583d9bae3ad74c6a293",
        "to": "0x9ebb9230276e858efb8209618055add25a2bf41b",
        "gas": "0x125cf",
        "value": "0x0",
        "input": "0x095ea7b3000000000000000000000000bbbbbbbbbb9cc5e90e3b3af64bdaf62c37eeffcb0000000000000000000000000000000000000000000000000e86e7e724cd9be7",
        "nonce": "0x2e",
        "chainId": "0x1"
      },
      "additionalContracts": [],
      "isFixedGasLimit": false
    },
    {
      "hash": "0x06ad091b605cd714f64f59738b920812e65909f7bbe7cc6080e2554cf9608c75",
      "transactionType": "CALL",
      "contractName": null,
      "contractAddress": "0xbbbbbbbbbb9cc5e90e3b3af64bdaf62c37eeffcb",
      "function": "supplyCollateral((address,address,address,address,uint256),uint256,address,bytes)",
      "arguments": [
        "(0xA0b86991c6218b36c1d19D4a2e9Eb0cE3606eB48, 0x9eBb9230276e858eFb8209618055ADD25a2bf41B, 0x6ac3F157419DFA455b81813B544B7568f52891f7, 0x870aC11D48B15DB9a138Cf899d20F13F79Ba00BC, 915000000000000000)",
        "1046778943351135207",
        "0x6539519E69343535a2aF6583D9BAE3AD74c6A293",
        "0x"
      ],
      "transaction": {
        "from": "0x6539519e69343535a2af6583d9bae3ad74c6a293",
        "to": "0xbbbbbbbbbb9cc5e90e3b3af64bdaf62c37eeffcb",
        "gas": "0x1f295",
        "value": "0x0",
        "input": "0x238d6579000000000000000000000000a0b86991c6218b36c1d19d4a2e9eb0ce3606eb480000000000000000000000009ebb9230276e858efb8209618055add25a2bf41b0000000000000000000000006ac3f157419dfa455b81813b544b7568f52891f7000000000000000000000000870ac11d48b15db9a138cf899d20f13f79ba00bc0000000000000000000000000000000000000000000000000cb2bba6f17b80000000000000000000000000000000000000000000000000000e86e7e724cd9be70000000000000000000000006539519e69343535a2af6583d9bae3ad74c6a29300000000000000000000000000000000000000000000000000000000000001000000000000000000000000000000000000000000000000000000000000000000",
        "nonce": "0x2f",
        "chainId": "0x1"
      },
      "additionalContracts": [],
      "isFixedGasLimit": false
    }
  ],
  "receipts": [
    {
      "status": "0x1",
      "cumulativeGasUsed": "0xfe5129",
      "logs": [
        {
          "address": "0x9ebb9230276e858efb8209618055add25a2bf41b",
          "topics": [
            "0x8c5be1e5ebec7d5bd14f71427d1e84f3dd0314c0f7b2291e5b200ac8c7c3b925",
            "0x0000000000000000000000006539519e69343535a2af6583d9bae3ad74c6a293",
            "0x000000000000000000000000bbbbbbbbbb9cc5e90e3b3af64bdaf62c37eeffcb"
          ],
          "data": "0x0000000000000000000000000000000000000000000000000e86e7e724cd9be7",
          "blockHash": "0x2af2ac18967ccd2402718b0049282ca4578c5becf4e1d176f1ead7edac02272c",
          "blockNumber": "0x162a20d",
          "blockTimestamp": "0x68b0976f",
          "transactionHash": "0xfa89ea6700b0785dabbee63434b266c0db72f5636f5e802c8c088ad5b8da6022",
          "transactionIndex": "0xd0",
          "logIndex": "0x202",
          "removed": false
        }
      ],
      "logsBloom": "0x00000000000000000000000000000080000000000000000000000000000000000080000000000100000000000000000000000000000000000000000000200000000000000000000000000000000000000000000000000000000000000000000000000000000000000000000000000000000000000000000000000000000000000000000000000100000000000000000000000000000000000000000000000000020000000000000010000000000000000000000000000000000000000000000000000000000000000000000000000000000000000000000000000000010000000010000001100000000000200000000000000000000000000000000000000000",
      "type": "0x2",
      "transactionHash": "0xfa89ea6700b0785dabbee63434b266c0db72f5636f5e802c8c088ad5b8da6022",
      "transactionIndex": "0xd0",
      "blockHash": "0x2af2ac18967ccd2402718b0049282ca4578c5becf4e1d176f1ead7edac02272c",
      "blockNumber": "0x162a20d",
      "gasUsed": "0xd4b7",
      "effectiveGasPrice": "0x28bdfc4c",
      "from": "0x6539519e69343535a2af6583d9bae3ad74c6a293",
      "to": "0x9ebb9230276e858efb8209618055add25a2bf41b",
      "contractAddress": null
    },
    {
      "status": "0x1",
      "cumulativeGasUsed": "0xffba21",
      "logs": [
        {
          "address": "0xbbbbbbbbbb9cc5e90e3b3af64bdaf62c37eeffcb",
          "topics": [
            "0xa3b9472a1399e17e123f3c2e6586c23e504184d504de59cdaa2b375e880c6184",
            "0x8fee949ce04cda521a29d5fd9a3b071b80e9246a22db41be2b3f4feae28e86ae",
            "0x0000000000000000000000006539519e69343535a2af6583d9bae3ad74c6a293",
            "0x0000000000000000000000006539519e69343535a2af6583d9bae3ad74c6a293"
          ],
          "data": "0x0000000000000000000000000000000000000000000000000e86e7e724cd9be7",
          "blockHash": "0x2af2ac18967ccd2402718b0049282ca4578c5becf4e1d176f1ead7edac02272c",
          "blockNumber": "0x162a20d",
          "blockTimestamp": "0x68b0976f",
          "transactionHash": "0x06ad091b605cd714f64f59738b920812e65909f7bbe7cc6080e2554cf9608c75",
          "transactionIndex": "0xd1",
          "logIndex": "0x203",
          "removed": false
        },
        {
          "address": "0x9ebb9230276e858efb8209618055add25a2bf41b",
          "topics": [
            "0xddf252ad1be2c89b69c2b068fc378daa952ba7f163c4a11628f55a4df523b3ef",
            "0x0000000000000000000000006539519e69343535a2af6583d9bae3ad74c6a293",
            "0x000000000000000000000000bbbbbbbbbb9cc5e90e3b3af64bdaf62c37eeffcb"
          ],
          "data": "0x0000000000000000000000000000000000000000000000000e86e7e724cd9be7",
          "blockHash": "0x2af2ac18967ccd2402718b0049282ca4578c5becf4e1d176f1ead7edac02272c",
          "blockNumber": "0x162a20d",
          "blockTimestamp": "0x68b0976f",
          "transactionHash": "0x06ad091b605cd714f64f59738b920812e65909f7bbe7cc6080e2554cf9608c75",
          "transactionIndex": "0xd1",
          "logIndex": "0x204",
          "removed": false
        }
      ],
      "logsBloom": "0x00000000000000000000000000000080000000000000000000000000000000000080000000000100000000000000000000000000000000000000000000000000000000000010000000000008000000000000000000000000000000000008000000000000000000000000000000000000000000000000000000000010020000000000008000000108000000000000000000000000000000000000000000000000000000000000000010000000000000000000000000000000000000000000000020000002000000000000000000000000000000000000000400000000010000000000000001100000000000200000200000000000000000000002000000000000",
      "type": "0x2",
      "transactionHash": "0x06ad091b605cd714f64f59738b920812e65909f7bbe7cc6080e2554cf9608c75",
      "transactionIndex": "0xd1",
      "blockHash": "0x2af2ac18967ccd2402718b0049282ca4578c5becf4e1d176f1ead7edac02272c",
      "blockNumber": "0x162a20d",
      "gasUsed": "0x168f8",
      "effectiveGasPrice": "0x28bdfc4c",
      "from": "0x6539519e69343535a2af6583d9bae3ad74c6a293",
      "to": "0xbbbbbbbbbb9cc5e90e3b3af64bdaf62c37eeffcb",
      "contractAddress": null
    }
  ],
  "libraries": [],
  "pending": [],
  "returns": {},
  "timestamp": 1756403570,
  "chain": 1,
  "commit": "0567491"
}