{
  "transactions": [
    {
      "hash": "0x97946d7bc5467b7d65fa23960b3a87275d46579efa5591f4841e02ca1aa72afc",
      "transactionType": "CALL",
      "contractName": null,
      "contractAddress": "0x1dc1b09d656c07404aa2747a9930c0b4d297b4f3",
      "function": "approve(address,uint256)",
      "arguments": [
        "0xBBBBBbbBBb9cC5e90e3b3Af64bdAF62C37EEFFCb",
        "1018476"
      ],
      "transaction": {
        "from": "0x6539519e69343535a2af6583d9bae3ad74c6a293",
        "to": "0x1dc1b09d656c07404aa2747a9930c0b4d297b4f3",
        "gas": "0x136c0",
        "value": "0x0",
        "input": "0x095ea7b3000000000000000000000000bbbbbbbbbb9cc5e90e3b3af64bdaf62c37eeffcb00000000000000000000000000000000000000000000000000000000000f8a6c",
        "nonce": "0x52",
        "chainId": "0x1"
      },
      "additionalContracts": [],
      "isFixedGasLimit": false
    },
    {
      "hash": "0x6315fdc443ca95ed87480d97a84108608f07352d2fcc47c13fc48091e8a7b423",
      "transactionType": "CALL",
      "contractName": null,
      "contractAddress": "0xbbbbbbbbbb9cc5e90e3b3af64bdaf62c37eeffcb",
      "function": "supplyCollateral((address,address,address,address,uint256),uint256,address,bytes)",
      "arguments": [
        "(0xA0b86991c6218b36c1d19D4a2e9Eb0cE3606eB48, 0x1dC1b09D656c07404aa2747A9930C0b4D297B4F3, 0x3e14b645856d1cec3C7a61F22312086339d2dc33, 0x870aC11D48B15DB9a138Cf899d20F13F79Ba00BC, 915000000000000000)",
        "1018476",
        "0x6539519E69343535a2aF6583D9BAE3AD74c6A293",
        "0x"
      ],
      "transaction": {
        "from": "0x6539519e69343535a2af6583d9bae3ad74c6a293",
        "to": "0xbbbbbbbbbb9cc5e90e3b3af64bdaf62c37eeffcb",
        "gas": "0x1f242",
        "value": "0x0",
        "input": "0x238d6579000000000000000000000000a0b86991c6218b36c1d19d4a2e9eb0ce3606eb480000000000000000000000001dc1b09d656c07404aa2747a9930c0b4d297b4f30000000000000000000000003e14b645856d1cec3c7a61f22312086339d2dc33000000000000000000000000870ac11d48b15db9a138cf899d20f13f79ba00bc0000000000000000000000000000000000000000000000000cb2bba6f17b800000000000000000000000000000000000000000000000000000000000000f8a6c0000000000000000000000006539519e69343535a2af6583d9bae3ad74c6a29300000000000000000000000000000000000000000000000000000000000001000000000000000000000000000000000000000000000000000000000000000000",
        "nonce": "0x53",
        "chainId": "0x1"
      },
      "additionalContracts": [],
      "isFixedGasLimit": false
    }
  ],
  "receipts": [
    {
      "status": "0x1",
      "cumulativeGasUsed": "0x24bf41c",
      "logs": [
        {
          "address": "0x1dc1b09d656c07404aa2747a9930c0b4d297b4f3",
          "topics": [
            "0x8c5be1e5ebec7d5bd14f71427d1e84f3dd0314c0f7b2291e5b200ac8c7c3b925",
            "0x0000000000000000000000006539519e69343535a2af6583d9bae3ad74c6a293",
            "0x000000000000000000000000bbbbbbbbbb9cc5e90e3b3af64bdaf62c37eeffcb"
          ],
          "data": "0x00000000000000000000000000000000000000000000000000000000000f8a6c",
          "blockHash": "0x73c5f0b80f4589bbcd105ed59273e1781f3d2364c6c85994f74e483f5cb2eee0",
          "blockNumber": "0x162b347",
          "blockTimestamp": "0x68b16717",
          "transactionHash": "0x97946d7bc5467b7d65fa23960b3a87275d46579efa5591f4841e02ca1aa72afc",
          "transactionIndex": "0x12c",
          "logIndex": "0x3a3",
          "removed": false
        }
      ],
      "logsBloom": "0x00000000000000000000000000000080000000000000000000000000000000000080000000000100000000000004000000000000000000000000000000200000000000000000000000000000000000000000000000000000000000000000000000000000000000000000000000000000000000000000000000000000000000000000000000000000000000000080000000000000000000000000000000000000020000000000000000000000000000000000000000000000000000000000000000004000000000000000000000000000000000000000000000000000000000000010000001100000000000200000000000000000000000000000000000000000",
      "type": "0x2",
      "transactionHash": "0x97946d7bc5467b7d65fa23960b3a87275d46579efa5591f4841e02ca1aa72afc",
      "transactionIndex": "0x12c",
      "blockHash": "0x73c5f0b80f4589bbcd105ed59273e1781f3d2364c6c85994f74e483f5cb2eee0",
      "blockNumber": "0x162b347",
      "gasUsed": "0xd47b",
      "effectiveGasPrice": "0x17574359",
      "from": "0x6539519e69343535a2af6583d9bae3ad74c6a293",
      "to": "0x1dc1b09d656c07404aa2747a9930c0b4d297b4f3",
      "contractAddress": null
    },
    {
      "status": "0x1",
      "cumulativeGasUsed": "0x24d5cd8",
      "logs": [
        {
          "address": "0xbbbbbbbbbb9cc5e90e3b3af64bdaf62c37eeffcb",
          "topics": [
            "0xa3b9472a1399e17e123f3c2e6586c23e504184d504de59cdaa2b375e880c6184",
            "0x5d72e02f3655a343d8477932a8446b1881609c6b4e3044c20d3a5d7e61554cb7",
            "0x0000000000000000000000006539519e69343535a2af6583d9bae3ad74c6a293",
            "0x0000000000000000000000006539519e69343535a2af6583d9bae3ad74c6a293"
          ],
          "data": "0x00000000000000000000000000000000000000000000000000000000000f8a6c",
          "blockHash": "0x73c5f0b80f4589bbcd105ed59273e1781f3d2364c6c85994f74e483f5cb2eee0",
          "blockNumber": "0x162b347",
          "blockTimestamp": "0x68b16717",
          "transactionHash": "0x6315fdc443ca95ed87480d97a84108608f07352d2fcc47c13fc48091e8a7b423",
          "transactionIndex": "0x12d",
          "logIndex": "0x3a4",
          "removed": false
        },
        {
          "address": "0x1dc1b09d656c07404aa2747a9930c0b4d297b4f3",
          "topics": [
            "0xddf252ad1be2c89b69c2b068fc378daa952ba7f163c4a11628f55a4df523b3ef",
            "0x0000000000000000000000006539519e69343535a2af6583d9bae3ad74c6a293",
            "0x000000000000000000000000bbbbbbbbbb9cc5e90e3b3af64bdaf62c37eeffcb"
          ],
          "data": "0x00000000000000000000000000000000000000000000000000000000000f8a6c",
          "blockHash": "0x73c5f0b80f4589bbcd105ed59273e1781f3d2364c6c85994f74e483f5cb2eee0",
          "blockNumber": "0x162b347",
          "blockTimestamp": "0x68b16717",
          "transactionHash": "0x6315fdc443ca95ed87480d97a84108608f07352d2fcc47c13fc48091e8a7b423",
          "transactionIndex": "0x12d",
          "logIndex": "0x3a5",
          "removed": false
        }
      ],
      "logsBloom": "0x00000000000000000000000000000080000000000000000000000000000000000080000000000100000000000004000000000000000000000000000000000000000000000010000000000008000000000000000000000000000000000000000000000000000000000000800000000000000000000000000000000010000000200000008000000008000000000080000000000000000000000000000000000000000000000000000000000000000000000000000000000000000000000000000020004002000000000000000000000000000400000000000400000000000000000000000001100000000000200000200000000000000000000000000000000000",
      "type": "0x2",
      "transactionHash": "0x6315fdc443ca95ed87480d97a84108608f07352d2fcc47c13fc48091e8a7b423",
      "transactionIndex": "0x12d",
      "blockHash": "0x73c5f0b80f4589bbcd105ed59273e1781f3d2364c6c85994f74e483f5cb2eee0",
      "blockNumber": "0x162b347",
      "gasUsed": "0x168bc",
      "effectiveGasPrice": "0x17574359",
      "from": "0x6539519e69343535a2af6583d9bae3ad74c6a293",
      "to": "0xbbbbbbbbbb9cc5e90e3b3af64bdaf62c37eeffcb",
      "contractAddress": null
    }
  ],
  "libraries": [],
  "pending": [],
  "returns": {},
  "timestamp": 1756456730,
  "chain": 1,
  "commit": "2a7395c"
}