{
  "transactions": [
    {
      "hash": "0x58a8c9c7e0c29d44ab06aa1529ff40c1f1c25baa92c5adab7c889b167f17ddb4",
      "transactionType": "CALL",
      "contractName": null,
      "contractAddress": "0x6eaf19b2fc24552925db245f9ff613157a7dbb4c",
      "function": "approve(address,uint256)",
      "arguments": [
        "0x6c247b1F6182318877311737BaC0844bAa518F5e",
        "801180"
      ],
      "transaction": {
        "from": "0x6539519e69343535a2af6583d9bae3ad74c6a293",
        "to": "0x6eaf19b2fc24552925db245f9ff613157a7dbb4c",
        "gas": "0x116bd",
        "value": "0x0",
        "input": "0x095ea7b30000000000000000000000006c247b1f6182318877311737bac0844baa518f5e00000000000000000000000000000000000000000000000000000000000c399c",
        "nonce": "0x5",
        "chainId": "0xa4b1"
      },
      "additionalContracts": [],
      "isFixedGasLimit": false
    },
    {
      "hash": "0x4cb6c08e2d649f7116225d7b9e90fed024bbf4160c4ae2c6167583d3d5e5f373",
      "transactionType": "CALL",
      "contractName": null,
      "contractAddress": "0x6c247b1f6182318877311737bac0844baa518f5e",
      "function": "supplyCollateral((address,address,address,address,uint256),uint256,address,bytes)",
      "arguments": [
        "(0xaf88d065e77c8cC2239327C5EDb3A432268e5831, 0x6eAf19b2FC24552925dB245F9Ff613157a7dbb4C, 0x14A7F156062D35861a285c7A7F5662964c2fe155, 0x66F30587FB8D4206918deb78ecA7d5eBbafD06DA, 915000000000000000)",
        "801180",
        "0x6539519E69343535a2aF6583D9BAE3AD74c6A293",
        "0x"
      ],
      "transaction": {
        "from": "0x6539519e69343535a2af6583d9bae3ad74c6a293",
        "to": "0x6c247b1f6182318877311737bac0844baa518f5e",
        "gas": "0x196e9",
        "value": "0x0",
        "input": "0x238d6579000000000000000000000000af88d065e77c8cc2239327c5edb3a432268e58310000000000000000000000006eaf19b2fc24552925db245f9ff613157a7dbb4c00000000000000000000000014a7f156062d35861a285c7a7f5662964c2fe15500000000000000000000000066f30587fb8d4206918deb78eca7d5ebbafd06da0000000000000000000000000000000000000000000000000cb2bba6f17b800000000000000000000000000000000000000000000000000000000000000c399c0000000000000000000000006539519e69343535a2af6583d9bae3ad74c6a29300000000000000000000000000000000000000000000000000000000000001000000000000000000000000000000000000000000000000000000000000000000",
        "nonce": "0x6",
        "chainId": "0xa4b1"
      },
      "additionalContracts": [],
      "isFixedGasLimit": false
    }
  ],
  "receipts": [
    {
      "status": "0x1",
      "cumulativeGasUsed": "0x22a8c",
      "logs": [
        {
          "address": "0x6eaf19b2fc24552925db245f9ff613157a7dbb4c",
          "topics": [
            "0x8c5be1e5ebec7d5bd14f71427d1e84f3dd0314c0f7b2291e5b200ac8c7c3b925",
            "0x0000000000000000000000006539519e69343535a2af6583d9bae3ad74c6a293",
            "0x0000000000000000000000006c247b1f6182318877311737bac0844baa518f5e"
          ],
          "data": "0x00000000000000000000000000000000000000000000000000000000000c399c",
          "blockHash": "0x7bc2d00f58d15971cb1cf43b18a7a1029396fca4ab6f42b8673caf521f9b181e",
          "blockNumber": "0x16d80531",
          "transactionHash": "0x58a8c9c7e0c29d44ab06aa1529ff40c1f1c25baa92c5adab7c889b167f17ddb4",
          "transactionIndex": "0x2",
          "logIndex": "0x2",
          "removed": false
        }
      ],
      "logsBloom": "0x00000000000000000000000000000000000000000000000000000000000000000080000000000100000000000000000000000000000000000000000000200000000000000000000000000000000000000000000000000000001000000100000000000000000000000000000000000000000000000000000000000000000000000000000000000000000000000000000000000000000000000000000000000000020000000000000000000000000000000000000000000000000000000000000000000000000100000000000000000000000000000000000000000000800000000018000000100000000000000000000000100000000000000000000000000000",
      "type": "0x2",
      "transactionHash": "0x58a8c9c7e0c29d44ab06aa1529ff40c1f1c25baa92c5adab7c889b167f17ddb4",
      "transactionIndex": "0x2",
      "blockHash": "0x7bc2d00f58d15971cb1cf43b18a7a1029396fca4ab6f42b8673caf521f9b181e",
      "blockNumber": "0x16d80531",
      "gasUsed": "0xccb2",
      "effectiveGasPrice": "0xdca078",
      "from": "0x6539519e69343535a2af6583d9bae3ad74c6a293",
      "to": "0x6eaf19b2fc24552925db245f9ff613157a7dbb4c",
      "contractAddress": null,
      "gasUsedForL1": "0xf27",
      "l1BlockNumber": "0x165ca3b",
      "timeboosted": false
    },
    {
      "status": "0x1",
      "cumulativeGasUsed": "0x61458",
      "logs": [
        {
          "address": "0x6c247b1f6182318877311737bac0844baa518f5e",
          "topics": [
            "0xa3b9472a1399e17e123f3c2e6586c23e504184d504de59cdaa2b375e880c6184",
            "0x7c03103c24ccfa9188bf41a8d44423cf5492645805eb1d23d9f862717d3fe5ab",
            "0x0000000000000000000000006539519e69343535a2af6583d9bae3ad74c6a293",
            "0x0000000000000000000000006539519e69343535a2af6583d9bae3ad74c6a293"
          ],
          "data": "0x00000000000000000000000000000000000000000000000000000000000c399c",
          "blockHash": "0xe394ce9fce68a1e2da15aed3bfb06c32a1ea347fa8adc7ea274f9112d1797281",
          "blockNumber": "0x16d8053d",
          "transactionHash": "0x4cb6c08e2d649f7116225d7b9e90fed024bbf4160c4ae2c6167583d3d5e5f373",
          "transactionIndex": "0x3",
          "logIndex": "0x9",
          "removed": false
        },
        {
          "address": "0x6eaf19b2fc24552925db245f9ff613157a7dbb4c",
          "topics": [
            "0xddf252ad1be2c89b69c2b068fc378daa952ba7f163c4a11628f55a4df523b3ef",
            "0x0000000000000000000000006539519e69343535a2af6583d9bae3ad74c6a293",
            "0x0000000000000000000000006c247b1f6182318877311737bac0844baa518f5e"
          ],
          "data": "0x00000000000000000000000000000000000000000000000000000000000c399c",
          "blockHash": "0xe394ce9fce68a1e2da15aed3bfb06c32a1ea347fa8adc7ea274f9112d1797281",
          "blockNumber": "0x16d8053d",
          "transactionHash": "0x4cb6c08e2d649f7116225d7b9e90fed024bbf4160c4ae2c6167583d3d5e5f373",
          "transactionIndex": "0x3",
          "logIndex": "0xa",
          "removed": false
        }
      ],
      "logsBloom": "0x00000000000000000000000000000000000000000000000000000000000000080080000000000100000000000000000000000000000000000000000000000000000000000000000000000008000000000000000000000000001000000100000000000000000000000000000000000000000000000000000000000010000000000000008000000000000020000000200000000000000000000000000000000000000000000000000000000000000000000000000000000000000000000000000000000002000100000000000000000000000000000000100400800000800000000008000000100000000000000000200000100000000000000000000000000040",
      "type": "0x2",
      "transactionHash": "0x4cb6c08e2d649f7116225d7b9e90fed024bbf4160c4ae2c6167583d3d5e5f373",
      "transactionIndex": "0x3",
      "blockHash": "0xe394ce9fce68a1e2da15aed3bfb06c32a1ea347fa8adc7ea274f9112d1797281",
      "blockNumber": "0x16d8053d",
      "gasUsed": "0x13518",
      "effectiveGasPrice": "0xd93960",
      "from": "0x6539519e69343535a2af6583d9bae3ad74c6a293",
      "to": "0x6c247b1f6182318877311737bac0844baa518f5e",
      "contractAddress": null,
      "gasUsedForL1": "0x1edd",
      "l1BlockNumber": "0x165ca3c",
      "timeboosted": false
    }
  ],
  "libraries": [],
  "pending": [],
  "returns": {},
  "timestamp": 1758900995,
  "chain": 42161,
  "commit": "b3e5063"
}