{
  "transactions": [
    {
      "hash": "0x76645beed008432e1447afbc6c95d5e82094e4d39ad8aaec4d25f3e4bca2ce11",
      "transactionType": "CALL",
      "contractName": null,
      "contractAddress": "0x139450c2dcef827c9a2a0bb1cb5506260940c9fd",
      "function": "approve(address,uint256)",
      "arguments": [
        "0x6c247b1F6182318877311737BaC0844bAa518F5e",
        "967114"
      ],
      "transaction": {
        "from": "0x6539519e69343535a2af6583d9bae3ad74c6a293",
        "to": "0x139450c2dcef827c9a2a0bb1cb5506260940c9fd",
        "gas": "0x114a4",
        "value": "0x0",
        "input": "0x095ea7b30000000000000000000000006c247b1f6182318877311737bac0844baa518f5e00000000000000000000000000000000000000000000000000000000000ec1ca",
        "nonce": "0x9",
        "chainId": "0xa4b1"
      },
      "additionalContracts": [],
      "isFixedGasLimit": false
    },
    {
      "hash": "0xdf89f312f625413b2fb27afb4ee739dc015c0d50daabbf0c50af5835541f3e57",
      "transactionType": "CALL",
      "contractName": null,
      "contractAddress": "0x6c247b1f6182318877311737bac0844baa518f5e",
      "function": "supplyCollateral((address,address,address,address,uint256),uint256,address,bytes)",
      "arguments": [
        "(0xaf88d065e77c8cC2239327C5EDb3A432268e5831, 0x139450C2dCeF827C9A2a0Bb1CB5506260940c9fd, 0x393A33fc66C1C0742B0e65EE1C239Cf65D2aF3e4, 0x66F30587FB8D4206918deb78ecA7d5eBbafD06DA, 915000000000000000)",
        "967114",
        "0x6539519E69343535a2aF6583D9BAE3AD74c6A293",
        "0x"
      ],
      "transaction": {
        "from": "0x6539519e69343535a2af6583d9bae3ad74c6a293",
        "to": "0x6c247b1f6182318877311737bac0844baa518f5e",
        "gas": "0x22423",
        "value": "0x0",
        "input": "0x238d6579000000000000000000000000af88d065e77c8cc2239327c5edb3a432268e5831000000000000000000000000139450c2dcef827c9a2a0bb1cb5506260940c9fd000000000000000000000000393a33fc66c1c0742b0e65ee1c239cf65d2af3e400000000000000000000000066f30587fb8d4206918deb78eca7d5ebbafd06da0000000000000000000000000000000000000000000000000cb2bba6f17b800000000000000000000000000000000000000000000000000000000000000ec1ca0000000000000000000000006539519e69343535a2af6583d9bae3ad74c6a29300000000000000000000000000000000000000000000000000000000000001000000000000000000000000000000000000000000000000000000000000000000",
        "nonce": "0xa",
        "chainId": "0xa4b1"
      },
      "additionalContracts": [],
      "isFixedGasLimit": false
    }
  ],
  "receipts": [
    {
      "status": "0x1",
      "cumulativeGasUsed": "0x5f35d",
      "logs": [
        {
          "address": "0x139450c2dcef827c9a2a0bb1cb5506260940c9fd",
          "topics": [
            "0x8c5be1e5ebec7d5bd14f71427d1e84f3dd0314c0f7b2291e5b200ac8c7c3b925",
            "0x0000000000000000000000006539519e69343535a2af6583d9bae3ad74c6a293",
            "0x0000000000000000000000006c247b1f6182318877311737bac0844baa518f5e"
          ],
          "data": "0x00000000000000000000000000000000000000000000000000000000000ec1ca",
          "blockHash": "0xb231b6e473b8228a6441bd32761082632a7b7ce31fc7a84f137bacdecf22b9d1",
          "blockNumber": "0x16f1ccea",
          "transactionHash": "0x76645beed008432e1447afbc6c95d5e82094e4d39ad8aaec4d25f3e4bca2ce11",
          "transactionIndex": "0x6",
          "logIndex": "0x2",
          "removed": false
        }
      ],
      "logsBloom": "0x00000000000000000000000000000000000000000000000000000000000000000080000000000100000000000010000000000000000000000000000000200000000000000000010000000000000000000000000000000000000000000100000000000000000000000000000000000000000000000000000000000000000000000000000000000000000000000000000000000000000000000000000000000000020000000000000000000000000000000000000000000000000000000000000000000000000100000000000000000000000000000000000000000000000000000010000000100000000000000000000000100000000040000000000000000000",
      "type": "0x2",
      "transactionHash": "0x76645beed008432e1447afbc6c95d5e82094e4d39ad8aaec4d25f3e4bca2ce11",
      "transactionIndex": "0x6",
      "blockHash": "0xb231b6e473b8228a6441bd32761082632a7b7ce31fc7a84f137bacdecf22b9d1",
      "blockNumber": "0x16f1ccea",
      "gasUsed": "0xcee6",
      "effectiveGasPrice": "0xc16f88",
      "from": "0x6539519e69343535a2af6583d9bae3ad74c6a293",
      "to": "0x139450c2dcef827c9a2a0bb1cb5506260940c9fd",
      "contractAddress": null,
      "gasUsedForL1": "0x677",
      "l1BlockNumber": "0x166529b",
      "timeboosted": false
    },
    {
      "status": "0x1",
      "cumulativeGasUsed": "0x5cef6",
      "logs": [
        {
          "address": "0x6c247b1f6182318877311737bac0844baa518f5e",
          "topics": [
            "0xa3b9472a1399e17e123f3c2e6586c23e504184d504de59cdaa2b375e880c6184",
            "0x0eedc5ee101e262ed96d49d66ff7099b1b9d996ac8007b44a6925b2f8c0626ed",
            "0x0000000000000000000000006539519e69343535a2af6583d9bae3ad74c6a293",
            "0x0000000000000000000000006539519e69343535a2af6583d9bae3ad74c6a293"
          ],
          "data": "0x00000000000000000000000000000000000000000000000000000000000ec1ca",
          "blockHash": "0xdab66eb7c750e18ba0d25eb78e284dd5e9f7b354eff74d506e32b19e936b0385",
          "blockNumber": "0x16f1ccf6",
          "transactionHash": "0xdf89f312f625413b2fb27afb4ee739dc015c0d50daabbf0c50af5835541f3e57",
          "transactionIndex": "0x4",
          "logIndex": "0x4",
          "removed": false
        },
        {
          "address": "0x139450c2dcef827c9a2a0bb1cb5506260940c9fd",
          "topics": [
            "0xddf252ad1be2c89b69c2b068fc378daa952ba7f163c4a11628f55a4df523b3ef",
            "0x0000000000000000000000006539519e69343535a2af6583d9bae3ad74c6a293",
            "0x0000000000000000000000006c247b1f6182318877311737bac0844baa518f5e"
          ],
          "data": "0x00000000000000000000000000000000000000000000000000000000000ec1ca",
          "blockHash": "0xdab66eb7c750e18ba0d25eb78e284dd5e9f7b354eff74d506e32b19e936b0385",
          "blockNumber": "0x16f1ccf6",
          "transactionHash": "0xdf89f312f625413b2fb27afb4ee739dc015c0d50daabbf0c50af5835541f3e57",
          "transactionIndex": "0x4",
          "logIndex": "0x5",
          "removed": false
        }
      ],
      "logsBloom": "0x00000000000000000000000000000000000000000000000000000000000000000080000000000100000000000010000000000000000000000000000000000000000000000000010000000008000000000000000000000000000000000100020000000000000000000000000000000000000000000000000000000010000000000000008000000000000000000000200000000000000000000002000000000000000000000000000000000000000000000000000000000008000000000000000000000002000100000000000000000000000000000000100400800000000000000000000000100000000000000000200000100000000040000000000000000000",
      "type": "0x2",
      "transactionHash": "0xdf89f312f625413b2fb27afb4ee739dc015c0d50daabbf0c50af5835541f3e57",
      "transactionIndex": "0x4",
      "blockHash": "0xdab66eb7c750e18ba0d25eb78e284dd5e9f7b354eff74d506e32b19e936b0385",
      "blockNumber": "0x16f1ccf6",
      "gasUsed": "0x199c6",
      "effectiveGasPrice": "0xc27540",
      "from": "0x6539519e69343535a2af6583d9bae3ad74c6a293",
      "to": "0x6c247b1f6182318877311737bac0844baa518f5e",
      "contractAddress": null,
      "gasUsedForL1": "0xcee",
      "l1BlockNumber": "0x166529c",
      "timeboosted": false
    }
  ],
  "libraries": [],
  "pending": [],
  "returns": {},
  "timestamp": 1759322744,
  "chain": 42161,
  "commit": "24867d0"
}