{
  "transactions": [
    {
      "hash": "0x7eee66727721172f072fa868a26d06d4a6432a6babbf7e5873aa4aab3549eb93",
      "transactionType": "CALL",
      "contractName": null,
      "contractAddress": "0xb67675158b412d53fe6b68946483ba920b135ba1",
      "function": "approve(address,uint256)",
      "arguments": [
        "0xBBBBBbbBBb9cC5e90e3b3Af64bdAF62C37EEFFCb",
        "2000793000000000000"
      ],
      "transaction": {
        "from": "0x6539519e69343535a2af6583d9bae3ad74c6a293",
        "to": "0xb67675158b412d53fe6b68946483ba920b135ba1",
        "gas": "0x12525",
        "value": "0x0",
        "input": "0x095ea7b3000000000000000000000000bbbbbbbbbb9cc5e90e3b3af64bdaf62c37eeffcb0000000000000000000000000000000000000000000000001bc43ea202169000",
        "nonce": "0x4",
        "chainId": "0x2105"
      },
      "additionalContracts": [],
      "isFixedGasLimit": false
    },
    {
      "hash": "0xe66d9da4f7b1b9eeea86d52453123bf8f0819d94b36b54149458da5151f10974",
      "transactionType": "CALL",
      "contractName": null,
      "contractAddress": "0xbbbbbbbbbb9cc5e90e3b3af64bdaf62c37eeffcb",
      "function": "supplyCollateral((address,address,address,address,uint256),uint256,address,bytes)",
      "arguments": [
        "(0x833589fCD6eDb6E08f4c7C32D4f71b54bdA02913, 0xB67675158B412D53fe6B68946483ba920b135bA1, 0x31fB76310E7AA59f4994af8cb6a420c39669604A, 0x46415998764C29aB2a25CbeA6254146D50D22687, 915000000000000000)",
        "2000793000000000000",
        "0x6539519E69343535a2aF6583D9BAE3AD74c6A293",
        "0x"
      ],
      "transaction": {
        "from": "0x6539519e69343535a2af6583d9bae3ad74c6a293",
        "to": "0xbbbbbbbbbb9cc5e90e3b3af64bdaf62c37eeffcb",
        "gas": "0x1f013",
        "value": "0x0",
        "input": "0x238d6579000000000000000000000000833589fcd6edb6e08f4c7c32d4f71b54bda02913000000000000000000000000b67675158b412d53fe6b68946483ba920b135ba100000000000000000000000031fb76310e7aa59f4994af8cb6a420c39669604a00000000000000000000000046415998764c29ab2a25cbea6254146d50d226870000000000000000000000000000000000000000000000000cb2bba6f17b80000000000000000000000000000000000000000000000000001bc43ea2021690000000000000000000000000006539519e69343535a2af6583d9bae3ad74c6a29300000000000000000000000000000000000000000000000000000000000001000000000000000000000000000000000000000000000000000000000000000000",
        "nonce": "0x5",
        "chainId": "0x2105"
      },
      "additionalContracts": [],
      "isFixedGasLimit": false
    }
  ],
  "receipts": [
    {
      "status": "0x1",
      "cumulativeGasUsed": "0x1c7c5e3",
      "logs": [
        {
          "address": "0xb67675158b412d53fe6b68946483ba920b135ba1",
          "topics": [
            "0x8c5be1e5ebec7d5bd14f71427d1e84f3dd0314c0f7b2291e5b200ac8c7c3b925",
            "0x0000000000000000000000006539519e69343535a2af6583d9bae3ad74c6a293",
            "0x000000000000000000000000bbbbbbbbbb9cc5e90e3b3af64bdaf62c37eeffcb"
          ],
          "data": "0x0000000000000000000000000000000000000000000000001bc43ea202169000",
          "blockHash": "0xea0c15e801014afbcf21fc72f3a9e013562a8ddf663dd1ef668fe27f404bb70d",
          "blockNumber": "0x1e59d41",
          "transactionHash": "0x7eee66727721172f072fa868a26d06d4a6432a6babbf7e5873aa4aab3549eb93",
          "transactionIndex": "0x71",
          "logIndex": "0x1e5",
          "removed": false
        }
      ],
      "logsBloom": "0x00000000000000000000000000000080000000000000000000000000000000000080000000000100000000000000000000000010000000000000000000200000000000000000000000000000000000000000000000000000000000000000000000000000000000000000000000000000000000000000000000000000000000000000000000000000000000000000000000000000000000000000000000000000020000000000000000000000000000000000000000004000000000000000000000000000000000000000000002000000000000000000000000000000000000000010000001100000000000200000000000000000000000000000000000000000",
      "type": "0x2",
      "transactionHash": "0x7eee66727721172f072fa868a26d06d4a6432a6babbf7e5873aa4aab3549eb93",
      "transactionIndex": "0x71",
      "blockHash": "0xea0c15e801014afbcf21fc72f3a9e013562a8ddf663dd1ef668fe27f404bb70d",
      "blockNumber": "0x1e59d41",
      "gasUsed": "0xc871",
      "effectiveGasPrice": "0x14fcd06",
      "from": "0x6539519e69343535a2af6583d9bae3ad74c6a293",
      "to": "0xb67675158b412d53fe6b68946483ba920b135ba1",
      "contractAddress": null,
      "l1BaseFeeScalar": "0x8dd",
      "l1BlobBaseFee": "0x1",
      "l1BlobBaseFeeScalar": "0x101c12",
      "l1Fee": "0x160b226fe",
      "l1GasPrice": "0x61269446",
      "l1GasUsed": "0x640"
    },
    {
      "status": "0x1",
      "cumulativeGasUsed": "0x1c91916",
      "logs": [
        {
          "address": "0xbbbbbbbbbb9cc5e90e3b3af64bdaf62c37eeffcb",
          "topics": [
            "0xa3b9472a1399e17e123f3c2e6586c23e504184d504de59cdaa2b375e880c6184",
            "0x5a24250884b607439e8eb2a5bf7e4f6647af665936f47d0a8509ff783b3916ec",
            "0x0000000000000000000000006539519e69343535a2af6583d9bae3ad74c6a293",
            "0x0000000000000000000000006539519e69343535a2af6583d9bae3ad74c6a293"
          ],
          "data": "0x0000000000000000000000000000000000000000000000001bc43ea202169000",
          "blockHash": "0xea0c15e801014afbcf21fc72f3a9e013562a8ddf663dd1ef668fe27f404bb70d",
          "blockNumber": "0x1e59d41",
          "transactionHash": "0xe66d9da4f7b1b9eeea86d52453123bf8f0819d94b36b54149458da5151f10974",
          "transactionIndex": "0x72",
          "logIndex": "0x1e6",
          "removed": false
        },
        {
          "address": "0xb67675158b412d53fe6b68946483ba920b135ba1",
          "topics": [
            "0xddf252ad1be2c89b69c2b068fc378daa952ba7f163c4a11628f55a4df523b3ef",
            "0x0000000000000000000000006539519e69343535a2af6583d9bae3ad74c6a293",
            "0x000000000000000000000000bbbbbbbbbb9cc5e90e3b3af64bdaf62c37eeffcb"
          ],
          "data": "0x0000000000000000000000000000000000000000000000001bc43ea202169000",
          "blockHash": "0xea0c15e801014afbcf21fc72f3a9e013562a8ddf663dd1ef668fe27f404bb70d",
          "blockNumber": "0x1e59d41",
          "transactionHash": "0xe66d9da4f7b1b9eeea86d52453123bf8f0819d94b36b54149458da5151f10974",
          "transactionIndex": "0x72",
          "logIndex": "0x1e7",
          "removed": false
        }
      ],
      "logsBloom": "0x20000000000000100000000000000080000000000000000000000000000000000080000000000100000000000000000000000010000000000000000000000000000000000010000000000008000000000000000000000000000000000000000000000000000000000000000000000000000000000000000000000010000000000000008000000008000000000000000000000000000000000000000000000000000000000000000000000000000000000000000000004000000000000000000020000002000000000000000002000000000000000000000400000000000000000000000001101000000000200000200000000000000000000000000000000000",
      "type": "0x2",
      "transactionHash": "0xe66d9da4f7b1b9eeea86d52453123bf8f0819d94b36b54149458da5151f10974",
      "transactionIndex": "0x72",
      "blockHash": "0xea0c15e801014afbcf21fc72f3a9e013562a8ddf663dd1ef668fe27f404bb70d",
      "blockNumber": "0x1e59d41",
      "gasUsed": "0x15333",
      "effectiveGasPrice": "0x14fcd06",
      "from": "0x6539519e69343535a2af6583d9bae3ad74c6a293",
      "to": "0xbbbbbbbbbb9cc5e90e3b3af64bdaf62c37eeffcb",
      "contractAddress": null,
      "l1BaseFeeScalar": "0x8dd",
      "l1BlobBaseFee": "0x1",
      "l1BlobBaseFeeScalar": "0x101c12",
      "l1Fee": "0x2be707c5a",
      "l1GasPrice": "0x61269446",
      "l1GasUsed": "0xc72"
    }
  ],
  "libraries": [],
  "pending": [],
  "returns": {},
  "timestamp": 1750439783,
  "chain": 8453,
  "commit": "4de0748"
}