{
  "transactions": [
    {
      "hash": "0xbbf3bbd51ea2c7af72ae79f0afa83486b015879466e49ddf3ca86bbb119372c3",
      "transactionType": "CALL",
      "contractName": null,
      "contractAddress": "0xad11a8beb98bbf61dbb1aa0f6d6f2ecd87b35afa",
      "function": "approve(address,uint256)",
      "arguments": [
        "0xa4Ca2c2e25b97DA19879201bA49422bc6f181f42",
        "323000"
      ],
      "transaction": {
        "from": "0x6539519e69343535a2af6583d9bae3ad74c6a293",
        "to": "0xad11a8beb98bbf61dbb1aa0f6d6f2ecd87b35afa",
        "gas": "0x12b1b",
        "value": "0x0",
        "input": "0x095ea7b3000000000000000000000000a4ca2c2e25b97da19879201ba49422bc6f181f42000000000000000000000000000000000000000000000000000000000004edb8",
        "nonce": "0xa",
        "chainId": "0xa867"
      },
      "additionalContracts": [],
      "isFixedGasLimit": false
    },
    {
      "hash": "0x2a03eee837053fbb6a7923bcdee8bb0ed33e03bb6fe972a9b0dd8d45cc5de520",
      "transactionType": "CALL",
      "contractName": null,
      "contractAddress": "0xa4ca2c2e25b97da19879201ba49422bc6f181f42",
      "function": "supply((address,address,address,address,uint256),uint256,uint256,address,bytes)",
      "arguments": [
        "(0xad11a8BEb98bbf61dbb1aa0F6d6F2ECD87b35afA, 0xAA40c0c7644e0b2B224509571e10ad20d9C4ef28, 0xaF72003a728Abb217Dc424fcB2F05094edF44F34, 0xdEbdEa31624552DF904A065221cD14088ABDeD70, 860000000000000000)",
        "323000",
        "0",
        "0x6539519E69343535a2aF6583D9BAE3AD74c6A293",
        "0x"
      ],
      "transaction": {
        "from": "0x6539519e69343535a2af6583d9bae3ad74c6a293",
        "to": "0xa4ca2c2e25b97da19879201ba49422bc6f181f42",
        "gas": "0x2b165",
        "value": "0x0",
        "input": "0xa99aad89000000000000000000000000ad11a8beb98bbf61dbb1aa0f6d6f2ecd87b35afa000000000000000000000000aa40c0c7644e0b2b224509571e10ad20d9c4ef28000000000000000000000000af72003a728abb217dc424fcb2f05094edf44f34000000000000000000000000debdea31624552df904a065221cd14088abded700000000000000000000000000000000000000000000000000bef55718ad60000000000000000000000000000000000000000000000000000000000000004edb800000000000000000000000000000000000000000000000000000000000000000000000000000000000000006539519e69343535a2af6583d9bae3ad74c6a29300000000000000000000000000000000000000000000000000000000000001200000000000000000000000000000000000000000000000000000000000000000",
        "nonce": "0xb",
        "chainId": "0xa867"
      },
      "additionalContracts": [],
      "isFixedGasLimit": false
    }
  ],
  "receipts": [
    {
      "status": "0x1",
      "cumulativeGasUsed": "0xe3e37",
      "logs": [
        {
          "address": "0xad11a8beb98bbf61dbb1aa0f6d6f2ecd87b35afa",
          "topics": [
            "0x8c5be1e5ebec7d5bd14f71427d1e84f3dd0314c0f7b2291e5b200ac8c7c3b925",
            "0x0000000000000000000000006539519e69343535a2af6583d9bae3ad74c6a293",
            "0x000000000000000000000000a4ca2c2e25b97da19879201ba49422bc6f181f42"
          ],
          "data": "0x000000000000000000000000000000000000000000000000000000000004edb8",
          "blockHash": "0x5529f3bae02fec4d9ad9765b905ea6c374cb604dd0d28834d1009ec99f6e239f",
          "blockNumber": "0x2879df",
          "transactionHash": "0xbbf3bbd51ea2c7af72ae79f0afa83486b015879466e49ddf3ca86bbb119372c3",
          "transactionIndex": "0x3",
          "logIndex": "0xd",
          "removed": false
        }
      ],
      "logsBloom": "0x00000000000000000000000000000000000000000010000000000000000000000080000000000100000000000000002000000000000000000000000000200010000008002400000000000000000000000000000000000000000000000000000000000000000000000000000000000000000000000000000000000000000000000000000000000000000000000000000000000000000000000000000000000000020000000000000000000000000000000000000000000000000000000000000000000000000000000000000000000000000000000000000000000000000000000010000000100000000000000000000000000000000000000000000000000000",
      "type": "0x2",
      "transactionHash": "0xbbf3bbd51ea2c7af72ae79f0afa83486b015879466e49ddf3ca86bbb119372c3",
      "transactionIndex": "0x3",
      "blockHash": "0x5529f3bae02fec4d9ad9765b905ea6c374cb604dd0d28834d1009ec99f6e239f",
      "blockNumber": "0x2879df",
      "gasUsed": "0xd88d",
      "effectiveGasPrice": "0xf433c",
      "from": "0x6539519e69343535a2af6583d9bae3ad74c6a293",
      "to": "0xad11a8beb98bbf61dbb1aa0f6d6f2ecd87b35afa",
      "contractAddress": null,
      "l1BaseFeeScalar": "0xf4240",
      "l1BlobBaseFee": "0x1",
      "l1BlobBaseFeeScalar": "0x0",
      "l1Fee": "0x133d6e55500",
      "l1GasPrice": "0x31411a74",
      "l1GasUsed": "0x640"
    },
    {
      "status": "0x1",
      "cumulativeGasUsed": "0x103154",
      "logs": [
        {
          "address": "0xdebdea31624552df904a065221cd14088abded70",
          "topics": [
            "0x7120161a7b3d31251e01294ab351ef15a41b91659a36032e4641bb89b121e321",
            "0x36931ab4ffe6fed55ab0624afd2bf6eb1cebdbd6d5c98334e949841e402f86ff"
          ],
          "data": "0x0000000000000000000000000000000000000000000000000000000012d0489b000000000000000000000000000000000000000000000000000000004ae85a9c",
          "blockHash": "0x5529f3bae02fec4d9ad9765b905ea6c374cb604dd0d28834d1009ec99f6e239f",
          "blockNumber": "0x2879df",
          "transactionHash": "0x2a03eee837053fbb6a7923bcdee8bb0ed33e03bb6fe972a9b0dd8d45cc5de520",
          "transactionIndex": "0x4",
          "logIndex": "0xe",
          "removed": false
        },
        {
          "address": "0xa4ca2c2e25b97da19879201ba49422bc6f181f42",
          "topics": [
            "0x9d9bd501d0657d7dfe415f779a620a62b78bc508ddc0891fbbd8b7ac0f8fce87",
            "0x36931ab4ffe6fed55ab0624afd2bf6eb1cebdbd6d5c98334e949841e402f86ff"
          ],
          "data": "0x0000000000000000000000000000000000000000000000000000000012d0489b00000000000000000000000000000000000000000000000000000000000000000000000000000000000000000000000000000000000000000000000000000000",
          "blockHash": "0x5529f3bae02fec4d9ad9765b905ea6c374cb604dd0d28834d1009ec99f6e239f",
          "blockNumber": "0x2879df",
          "transactionHash": "0x2a03eee837053fbb6a7923bcdee8bb0ed33e03bb6fe972a9b0dd8d45cc5de520",
          "transactionIndex": "0x4",
          "logIndex": "0xf",
          "removed": false
        },
        {
          "address": "0xa4ca2c2e25b97da19879201ba49422bc6f181f42",
          "topics": [
            "0xedf8870433c83823eb071d3df1caa8d008f12f6440918c20d75a3602cda30fe0",
            "0x36931ab4ffe6fed55ab0624afd2bf6eb1cebdbd6d5c98334e949841e402f86ff",
            "0x0000000000000000000000006539519e69343535a2af6583d9bae3ad74c6a293",
            "0x0000000000000000000000006539519e69343535a2af6583d9bae3ad74c6a293"
          ],
          "data": "0x000000000000000000000000000000000000000000000000000000000004edb80000000000000000000000000000000000000000000000000000004b344cde00",
          "blockHash": "0x5529f3bae02fec4d9ad9765b905ea6c374cb604dd0d28834d1009ec99f6e239f",
          "blockNumber": "0x2879df",
          "transactionHash": "0x2a03eee837053fbb6a7923bcdee8bb0ed33e03bb6fe972a9b0dd8d45cc5de520",
          "transactionIndex": "0x4",
          "logIndex": "0x10",
          "removed": false
        },
        {
          "address": "0xad11a8beb98bbf61dbb1aa0f6d6f2ecd87b35afa",
          "topics": [
            "0xddf252ad1be2c89b69c2b068fc378daa952ba7f163c4a11628f55a4df523b3ef",
            "0x0000000000000000000000006539519e69343535a2af6583d9bae3ad74c6a293",
            "0x000000000000000000000000a4ca2c2e25b97da19879201ba49422bc6f181f42"
          ],
          "data": "0x000000000000000000000000000000000000000000000000000000000004edb8",
          "blockHash": "0x5529f3bae02fec4d9ad9765b905ea6c374cb604dd0d28834d1009ec99f6e239f",
          "blockNumber": "0x2879df",
          "transactionHash": "0x2a03eee837053fbb6a7923bcdee8bb0ed33e03bb6fe972a9b0dd8d45cc5de520",
          "transactionIndex": "0x4",
          "logIndex": "0x11",
          "removed": false
        }
      ],
      "logsBloom": "0x00000000000020000000000002000000000000000010000000000000000000000080400000000100000000000000002000400000000000000000000020804010000008002400000000000008800000000000000800200000000000080000000000000000000000000000000000008000000000000000000000000010000000000000000000000000000000000000000000000000000080000000000000000000000000000000000080000000000000000000000000000000000000000000000000000002000000000008000000000000000000000000000000000000000000400000000000100000000000000001000000000000000000000000000000004000",
      "type": "0x2",
      "transactionHash": "0x2a03eee837053fbb6a7923bcdee8bb0ed33e03bb6fe972a9b0dd8d45cc5de520",
      "transactionIndex": "0x4",
      "blockHash": "0x5529f3bae02fec4d9ad9765b905ea6c374cb604dd0d28834d1009ec99f6e239f",
      "blockNumber": "0x2879df",
      "gasUsed": "0x1f31d",
      "effectiveGasPrice": "0xf433c",
      "from": "0x6539519e69343535a2af6583d9bae3ad74c6a293",
      "to": "0xa4ca2c2e25b97da19879201ba49422bc6f181f42",
      "contractAddress": null,
      "l1BaseFeeScalar": "0xf4240",
      "l1BlobBaseFee": "0x1",
      "l1BlobBaseFeeScalar": "0x0",
      "l1Fee": "0x2583a002ec2",
      "l1GasPrice": "0x31411a74",
      "l1GasUsed": "0xc2f"
    }
  ],
  "libraries": [],
  "pending": [],
  "returns": {},
  "timestamp": 1757698379,
  "chain": 43111,
  "commit": "3a72d60"
}