{
  "transactions": [
    {
      "hash": "0xbe78d00124610007d83d27586404b43e7d59b4de56b49954af969f17fdceee05",
      "transactionType": "CALL",
      "contractName": null,
      "contractAddress": "0xad11a8beb98bbf61dbb1aa0f6d6f2ecd87b35afa",
      "function": "approve(address,uint256)",
      "arguments": [
        "0xa4Ca2c2e25b97DA19879201bA49422bc6f181f42",
        "150000"
      ],
      "transaction": {
        "from": "0x6539519e69343535a2af6583d9bae3ad74c6a293",
        "to": "0xad11a8beb98bbf61dbb1aa0f6d6f2ecd87b35afa",
        "gas": "0x12b1b",
        "value": "0x0",
        "input": "0x095ea7b3000000000000000000000000a4ca2c2e25b97da19879201ba49422bc6f181f4200000000000000000000000000000000000000000000000000000000000249f0",
        "nonce": "0x46",
        "chainId": "0xa867"
      },
      "additionalContracts": [],
      "isFixedGasLimit": false
    },
    {
      "hash": "0xbcf5ce071f4cb3a8862c508447f7253c6d674396a7b08c0452cfaa24ada439a4",
      "transactionType": "CALL",
      "contractName": null,
      "contractAddress": "0xa4ca2c2e25b97da19879201ba49422bc6f181f42",
      "function": "supply((address,address,address,address,uint256),uint256,uint256,address,bytes)",
      "arguments": [
        "(0xad11a8BEb98bbf61dbb1aa0F6d6F2ECD87b35afA, 0x99e3dE3817F6081B2568208337ef83295b7f591D, 0xf0FF7a2E8b5d57EAb433d676c9A101DF1d2414B7, 0xdEbdEa31624552DF904A065221cD14088ABDeD70, 385000000000000000)",
        "150000",
        "0",
        "0x6539519E69343535a2aF6583D9BAE3AD74c6A293",
        "0x"
      ],
      "transaction": {
        "from": "0x6539519e69343535a2af6583d9bae3ad74c6a293",
        "to": "0xa4ca2c2e25b97da19879201ba49422bc6f181f42",
        "gas": "0x2b187",
        "value": "0x0",
        "input": "0xa99aad89000000000000000000000000ad11a8beb98bbf61dbb1aa0f6d6f2ecd87b35afa00000000000000000000000099e3de3817f6081b2568208337ef83295b7f591d000000000000000000000000f0ff7a2e8b5d57eab433d676c9a101df1d2414b7000000000000000000000000debdea31624552df904a065221cd14088abded700000000000000000000000000000000000000000000000000557cb75ce86800000000000000000000000000000000000000000000000000000000000000249f000000000000000000000000000000000000000000000000000000000000000000000000000000000000000006539519e69343535a2af6583d9bae3ad74c6a29300000000000000000000000000000000000000000000000000000000000001200000000000000000000000000000000000000000000000000000000000000000",
        "nonce": "0x47",
        "chainId": "0xa867"
      },
      "additionalContracts": [],
      "isFixedGasLimit": false
    }
  ],
  "receipts": [
    {
      "status": "0x1",
      "cumulativeGasUsed": "0x1a295",
      "logs": [
        {
          "address": "0xad11a8beb98bbf61dbb1aa0f6d6f2ecd87b35afa",
          "topics": [
            "0x8c5be1e5ebec7d5bd14f71427d1e84f3dd0314c0f7b2291e5b200ac8c7c3b925",
            "0x0000000000000000000000006539519e69343535a2af6583d9bae3ad74c6a293",
            "0x000000000000000000000000a4ca2c2e25b97da19879201ba49422bc6f181f42"
          ],
          "data": "0x00000000000000000000000000000000000000000000000000000000000249f0",
          "blockHash": "0x5960ba20ac2a33da42fa3c06d25997b7d82ea2dffc523c2b16025e84e37e2737",
          "blockNumber": "0x2a9009",
          "transactionHash": "0xbe78d00124610007d83d27586404b43e7d59b4de56b49954af969f17fdceee05",
          "transactionIndex": "0x1",
          "logIndex": "0x0",
          "removed": false
        }
      ],
      "logsBloom": "0x00000000000000000000000000000000000000000010000000000000000000000080000000000100000000000000002000000000000000000000000000200010000008002400000000000000000000000000000000000000000000000000000000000000000000000000000000000000000000000000000000000000000000000000000000000000000000000000000000000000000000000000000000000000020000000000000000000000000000000000000000000000000000000000000000000000000000000000000000000000000000000000000000000000000000000010000000100000000000000000000000000000000000000000000000000000",
      "type": "0x2",
      "transactionHash": "0xbe78d00124610007d83d27586404b43e7d59b4de56b49954af969f17fdceee05",
      "transactionIndex": "0x1",
      "blockHash": "0x5960ba20ac2a33da42fa3c06d25997b7d82ea2dffc523c2b16025e84e37e2737",
      "blockNumber": "0x2a9009",
      "gasUsed": "0xd88d",
      "effectiveGasPrice": "0x12a358",
      "from": "0x6539519e69343535a2af6583d9bae3ad74c6a293",
      "to": "0xad11a8beb98bbf61dbb1aa0f6d6f2ecd87b35afa",
      "contractAddress": null,
      "l1BaseFeeScalar": "0xf4240",
      "l1BlobBaseFee": "0x1",
      "l1BlobBaseFeeScalar": "0x0",
      "l1Fee": "0x16f0b017180",
      "l1GasPrice": "0x3aba14b6",
      "l1GasUsed": "0x640"
    },
    {
      "status": "0x1",
      "cumulativeGasUsed": "0x395ca",
      "logs": [
        {
          "address": "0xdebdea31624552df904a065221cd14088abded70",
          "topics": [
            "0x7120161a7b3d31251e01294ab351ef15a41b91659a36032e4641bb89b121e321",
            "0x6b17e90837b92f5d7339ceb02218f63b14caf63c6658b704b65b512cd2ba74d0"
          ],
          "data": "0x0000000000000000000000000000000000000000000000000000000012e59055000000000000000000000000000000000000000000000000000000004b9263ca",
          "blockHash": "0x5960ba20ac2a33da42fa3c06d25997b7d82ea2dffc523c2b16025e84e37e2737",
          "blockNumber": "0x2a9009",
          "transactionHash": "0xbcf5ce071f4cb3a8862c508447f7253c6d674396a7b08c0452cfaa24ada439a4",
          "transactionIndex": "0x2",
          "logIndex": "0x1",
          "removed": false
        },
        {
          "address": "0xa4ca2c2e25b97da19879201ba49422bc6f181f42",
          "topics": [
            "0x9d9bd501d0657d7dfe415f779a620a62b78bc508ddc0891fbbd8b7ac0f8fce87",
            "0x6b17e90837b92f5d7339ceb02218f63b14caf63c6658b704b65b512cd2ba74d0"
          ],
          "data": "0x0000000000000000000000000000000000000000000000000000000012e5905500000000000000000000000000000000000000000000000000000000000000000000000000000000000000000000000000000000000000000000000000000000",
          "blockHash": "0x5960ba20ac2a33da42fa3c06d25997b7d82ea2dffc523c2b16025e84e37e2737",
          "blockNumber": "0x2a9009",
          "transactionHash": "0xbcf5ce071f4cb3a8862c508447f7253c6d674396a7b08c0452cfaa24ada439a4",
          "transactionIndex": "0x2",
          "logIndex": "0x2",
          "removed": false
        },
        {
          "address": "0xa4ca2c2e25b97da19879201ba49422bc6f181f42",
          "topics": [
            "0xedf8870433c83823eb071d3df1caa8d008f12f6440918c20d75a3602cda30fe0",
            "0x6b17e90837b92f5d7339ceb02218f63b14caf63c6658b704b65b512cd2ba74d0",
            "0x0000000000000000000000006539519e69343535a2af6583d9bae3ad74c6a293",
            "0x0000000000000000000000006539519e69343535a2af6583d9bae3ad74c6a293"
          ],
          "data": "0x00000000000000000000000000000000000000000000000000000000000249f000000000000000000000000000000000000000000000000000000022ecb25c00",
          "blockHash": "0x5960ba20ac2a33da42fa3c06d25997b7d82ea2dffc523c2b16025e84e37e2737",
          "blockNumber": "0x2a9009",
          "transactionHash": "0xbcf5ce071f4cb3a8862c508447f7253c6d674396a7b08c0452cfaa24ada439a4",
          "transactionIndex": "0x2",
          "logIndex": "0x3",
          "removed": false
        },
        {
          "address": "0xad11a8beb98bbf61dbb1aa0f6d6f2ecd87b35afa",
          "topics": [
            "0xddf252ad1be2c89b69c2b068fc378daa952ba7f163c4a11628f55a4df523b3ef",
            "0x0000000000000000000000006539519e69343535a2af6583d9bae3ad74c6a293",
            "0x000000000000000000000000a4ca2c2e25b97da19879201ba49422bc6f181f42"
          ],
          "data": "0x00000000000000000000000000000000000000000000000000000000000249f0",
          "blockHash": "0x5960ba20ac2a33da42fa3c06d25997b7d82ea2dffc523c2b16025e84e37e2737",
          "blockNumber": "0x2a9009",
          "transactionHash": "0xbcf5ce071f4cb3a8862c508447f7253c6d674396a7b08c0452cfaa24ada439a4",
          "transactionIndex": "0x2",
          "logIndex": "0x4",
          "removed": false
        }
      ],
      "logsBloom": "0x00000000000000000000000000000000000000000010000000000000000000000080400000000100000000000000002000400000000000000000000020804010000008002400000000000008800000000000000800200000000000080000000000000000000002000000000000008000000000000000000000000010000000000000000000000000000000000000000000000000000082000000000000000000000000000000000000000000000000000000000000000000000000000000000000000002000000000008000000000000000000000000000000000000000000400000000000100000000000000001000000000000000000000000000000004000",
      "type": "0x2",
      "transactionHash": "0xbcf5ce071f4cb3a8862c508447f7253c6d674396a7b08c0452cfaa24ada439a4",
      "transactionIndex": "0x2",
      "blockHash": "0x5960ba20ac2a33da42fa3c06d25997b7d82ea2dffc523c2b16025e84e37e2737",
      "blockNumber": "0x2a9009",
      "gasUsed": "0x1f335",
      "effectiveGasPrice": "0x12a358",
      "from": "0x6539519e69343535a2af6583d9bae3ad74c6a293",
      "to": "0xa4ca2c2e25b97da19879201ba49422bc6f181f42",
      "contractAddress": null,
      "l1BaseFeeScalar": "0xf4240",
      "l1BlobBaseFee": "0x1",
      "l1BlobBaseFeeScalar": "0x0",
      "l1Fee": "0x2cebb71dd96",
      "l1GasPrice": "0x3aba14b6",
      "l1GasUsed": "0xc3d"
    }
  ],
  "libraries": [],
  "pending": [],
  "returns": {},
  "timestamp": 1759339331,
  "chain": 43111,
  "commit": "e9775cb"
}