{
  "transactions": [
    {
      "hash": "0x4fc098f43fac0e7458e514a0a50fc047bbe39db146e229b7f5064b0ba5dc570f",
      "transactionType": "CALL",
      "contractName": null,
      "contractAddress": "0xaa40c0c7644e0b2b224509571e10ad20d9c4ef28",
      "function": "approve(address,uint256)",
      "arguments": [
        "0xa4Ca2c2e25b97DA19879201bA49422bc6f181f42",
        "300"
      ],
      "transaction": {
        "from": "0x6539519e69343535a2af6583d9bae3ad74c6a293",
        "to": "0xaa40c0c7644e0b2b224509571e10ad20d9c4ef28",
        "gas": "0xfba172",
        "value": "0x0",
        "input": "0x095ea7b3000000000000000000000000a4ca2c2e25b97da19879201ba49422bc6f181f42000000000000000000000000000000000000000000000000000000000000012c",
        "nonce": "0x36",
        "chainId": "0xa867"
      },
      "additionalContracts": [],
      "isFixedGasLimit": true
    },
    {
      "hash": "0x8ed765c192534f78a3319f7767ce829e0417122acaf71046b0b96b34fc9c9aec",
      "transactionType": "CALL",
      "contractName": null,
      "contractAddress": "0xa4ca2c2e25b97da19879201ba49422bc6f181f42",
      "function": "supply((address,address,address,address,uint256),uint256,uint256,address,bytes)",
      "arguments": [
        "(0xAA40c0c7644e0b2B224509571e10ad20d9C4ef28, 0x7f0b394Bb1a2a4dF859f8a0b2A384f3d9d4E95cC, 0xA45a7741b3b8C8259969c093Cf6e8e306AC34d78, 0xdEbdEa31624552DF904A065221cD14088ABDeD70, 860000000000000000)",
        "300",
        "0",
        "0x6539519E69343535a2aF6583D9BAE3AD74c6A293",
        "0x"
      ],
      "transaction": {
        "from": "0x6539519e69343535a2af6583d9bae3ad74c6a293",
        "to": "0xa4ca2c2e25b97da19879201ba49422bc6f181f42",
        "gas": "0xfb0f82",
        "value": "0x0",
        "input": "0xa99aad89000000000000000000000000aa40c0c7644e0b2b224509571e10ad20d9c4ef280000000000000000000000007f0b394bb1a2a4df859f8a0b2a384f3d9d4e95cc000000000000000000000000a45a7741b3b8c8259969c093cf6e8e306ac34d78000000000000000000000000debdea31624552df904a065221cd14088abded700000000000000000000000000000000000000000000000000bef55718ad60000000000000000000000000000000000000000000000000000000000000000012c00000000000000000000000000000000000000000000000000000000000000000000000000000000000000006539519e69343535a2af6583d9bae3ad74c6a29300000000000000000000000000000000000000000000000000000000000001200000000000000000000000000000000000000000000000000000000000000000",
        "nonce": "0x37",
        "chainId": "0xa867"
      },
      "additionalContracts": [],
      "isFixedGasLimit": true
    }
  ],
  "receipts": [
    {
      "status": "0x1",
      "cumulativeGasUsed": "0xd7599",
      "logs": [
        {
          "address": "0xaa40c0c7644e0b2b224509571e10ad20d9c4ef28",
          "topics": [
            "0x8c5be1e5ebec7d5bd14f71427d1e84f3dd0314c0f7b2291e5b200ac8c7c3b925",
            "0x0000000000000000000000006539519e69343535a2af6583d9bae3ad74c6a293",
            "0x000000000000000000000000a4ca2c2e25b97da19879201ba49422bc6f181f42"
          ],
          "data": "0x000000000000000000000000000000000000000000000000000000000000012c",
          "blockHash": "0x106f9b26099afaab76949e40a4a1b788d9f1202f7c2c297b2d0fe260a8aa4a86",
          "blockNumber": "0x297af7",
          "transactionHash": "0x4fc098f43fac0e7458e514a0a50fc047bbe39db146e229b7f5064b0ba5dc570f",
          "transactionIndex": "0x4",
          "logIndex": "0x1a",
          "removed": false
        }
      ],
      "logsBloom": "0x00000000000000000000000000000000000000000010000000000000000000000080020000000100000000000000002000000000000000000000000000200010000000000000000000000000000000000000000000000000000000000000000000000000000000000000000000000000000000000000000000000000000000000000000000000000000000000000000000002000000000000000000000000000020002000000000000000000000000000000000000000000000000000000000000000000000000000000000000000000000000000000000000000000000000000010000000100000000000000000000000000000000000000000000000000000",
      "type": "0x2",
      "transactionHash": "0x4fc098f43fac0e7458e514a0a50fc047bbe39db146e229b7f5064b0ba5dc570f",
      "transactionIndex": "0x4",
      "blockHash": "0x106f9b26099afaab76949e40a4a1b788d9f1202f7c2c297b2d0fe260a8aa4a86",
      "blockNumber": "0x297af7",
      "gasUsed": "0xb505",
      "effectiveGasPrice": "0xf787a",
      "from": "0x6539519e69343535a2af6583d9bae3ad74c6a293",
      "to": "0xaa40c0c7644e0b2b224509571e10ad20d9c4ef28",
      "contractAddress": null,
      "l1BaseFeeScalar": "0xf4240",
      "l1BlobBaseFee": "0x1",
      "l1BlobBaseFeeScalar": "0x0",
      "l1Fee": "0x30c0ae8a80",
      "l1GasPrice": "0x7cce8ba",
      "l1GasUsed": "0x640"
    },
    {
      "status": "0x1",
      "cumulativeGasUsed": "0xf3ec1",
      "logs": [
        {
          "address": "0xdebdea31624552df904a065221cd14088abded70",
          "topics": [
            "0x7120161a7b3d31251e01294ab351ef15a41b91659a36032e4641bb89b121e321",
            "0x4b670128dfaa02a92f833bb9b99949262b685c2d3f55d4f7c97da1849d2b6355"
          ],
          "data": "0x000000000000000000000000000000000000000000000000000000000e71ceef000000000000000000000000000000000000000000000000000000002a173880",
          "blockHash": "0x106f9b26099afaab76949e40a4a1b788d9f1202f7c2c297b2d0fe260a8aa4a86",
          "blockNumber": "0x297af7",
          "transactionHash": "0x8ed765c192534f78a3319f7767ce829e0417122acaf71046b0b96b34fc9c9aec",
          "transactionIndex": "0x5",
          "logIndex": "0x1b",
          "removed": false
        },
        {
          "address": "0xa4ca2c2e25b97da19879201ba49422bc6f181f42",
          "topics": [
            "0x9d9bd501d0657d7dfe415f779a620a62b78bc508ddc0891fbbd8b7ac0f8fce87",
            "0x4b670128dfaa02a92f833bb9b99949262b685c2d3f55d4f7c97da1849d2b6355"
          ],
          "data": "0x000000000000000000000000000000000000000000000000000000000e71ceef00000000000000000000000000000000000000000000000000000000000000000000000000000000000000000000000000000000000000000000000000000000",
          "blockHash": "0x106f9b26099afaab76949e40a4a1b788d9f1202f7c2c297b2d0fe260a8aa4a86",
          "blockNumber": "0x297af7",
          "transactionHash": "0x8ed765c192534f78a3319f7767ce829e0417122acaf71046b0b96b34fc9c9aec",
          "transactionIndex": "0x5",
          "logIndex": "0x1c",
          "removed": false
        },
        {
          "address": "0xa4ca2c2e25b97da19879201ba49422bc6f181f42",
          "topics": [
            "0xedf8870433c83823eb071d3df1caa8d008f12f6440918c20d75a3602cda30fe0",
            "0x4b670128dfaa02a92f833bb9b99949262b685c2d3f55d4f7c97da1849d2b6355",
            "0x0000000000000000000000006539519e69343535a2af6583d9bae3ad74c6a293",
            "0x0000000000000000000000006539519e69343535a2af6583d9bae3ad74c6a293"
          ],
          "data": "0x000000000000000000000000000000000000000000000000000000000000012c0000000000000000000000000000000000000000000000000000000011e1a300",
          "blockHash": "0x106f9b26099afaab76949e40a4a1b788d9f1202f7c2c297b2d0fe260a8aa4a86",
          "blockNumber": "0x297af7",
          "transactionHash": "0x8ed765c192534f78a3319f7767ce829e0417122acaf71046b0b96b34fc9c9aec",
          "transactionIndex": "0x5",
          "logIndex": "0x1d",
          "removed": false
        },
        {
          "address": "0xaa40c0c7644e0b2b224509571e10ad20d9c4ef28",
          "topics": [
            "0xddf252ad1be2c89b69c2b068fc378daa952ba7f163c4a11628f55a4df523b3ef",
            "0x0000000000000000000000006539519e69343535a2af6583d9bae3ad74c6a293",
            "0x000000000000000000000000a4ca2c2e25b97da19879201ba49422bc6f181f42"
          ],
          "data": "0x000000000000000000000000000000000000000000000000000000000000012c",
          "blockHash": "0x106f9b26099afaab76949e40a4a1b788d9f1202f7c2c297b2d0fe260a8aa4a86",
          "blockNumber": "0x297af7",
          "transactionHash": "0x8ed765c192534f78a3319f7767ce829e0417122acaf71046b0b96b34fc9c9aec",
          "transactionIndex": "0x5",
          "logIndex": "0x1e",
          "removed": false
        }
      ],
      "logsBloom": "0x00000000000000000000000000000000000000000010000000000000000100000080420000000100000000000000002000400000000000000000000020804010000000000000000000000008800000000000000800200800000000080000000000000000020000000000000000008000000000000000000000000010000000000000000000000000000000000000000000002000000080000000000000000000000002000000000000000000000000000000000000000000000000000000000000000002000000000008000000000000000000000000000000000000000000400000000000100000000000000001000000000000000000000000000000004000",
      "type": "0x2",
      "transactionHash": "0x8ed765c192534f78a3319f7767ce829e0417122acaf71046b0b96b34fc9c9aec",
      "transactionIndex": "0x5",
      "blockHash": "0x106f9b26099afaab76949e40a4a1b788d9f1202f7c2c297b2d0fe260a8aa4a86",
      "blockNumber": "0x297af7",
      "gasUsed": "0x1c928",
      "effectiveGasPrice": "0xf787a",
      "from": "0x6539519e69343535a2af6583d9bae3ad74c6a293",
      "to": "0xa4ca2c2e25b97da19879201ba49422bc6f181f42",
      "contractAddress": null,
      "l1BaseFeeScalar": "0xf4240",
      "l1BlobBaseFee": "0x1",
      "l1BlobBaseFeeScalar": "0x0",
      "l1Fee": "0x5ea67b7e38",
      "l1GasPrice": "0x7cce8ba",
      "l1GasUsed": "0xc22"
    }
  ],
  "libraries": [],
  "pending": [],
  "returns": {},
  "timestamp": 1758488171,
  "chain": 43111,
  "commit": "0966a6e"
}