{
  "transactions": [
    {
      "hash": "0xa5d673fb4242c9d1020f5fb2d11ea19cee932ee7e59a15371ca838d41900eb64",
      "transactionType": "CALL",
      "contractName": null,
      "contractAddress": "0xad11a8beb98bbf61dbb1aa0f6d6f2ecd87b35afa",
      "function": "approve(address,uint256)",
      "arguments": [
        "0xa4Ca2c2e25b97DA19879201bA49422bc6f181f42",
        "337000"
      ],
      "transaction": {
        "from": "0x6539519e69343535a2af6583d9bae3ad74c6a293",
        "to": "0xad11a8beb98bbf61dbb1aa0f6d6f2ecd87b35afa",
        "gas": "0x12b1b",
        "value": "0x0",
        "input": "0x095ea7b3000000000000000000000000a4ca2c2e25b97da19879201ba49422bc6f181f420000000000000000000000000000000000000000000000000000000000052468",
        "nonce": "0x1f",
        "chainId": "0xa867"
      },
      "additionalContracts": [],
      "isFixedGasLimit": false
    },
    {
      "hash": "0xc9ccb5d2c5e2a20be164593d25ae3b96ee5eca01547a3fb509466fe000568e21",
      "transactionType": "CALL",
      "contractName": null,
      "contractAddress": "0xa4ca2c2e25b97da19879201ba49422bc6f181f42",
      "function": "supply((address,address,address,address,uint256),uint256,uint256,address,bytes)",
      "arguments": [
        "(0xad11a8BEb98bbf61dbb1aa0F6d6F2ECD87b35afA, 0x7A06C4AeF988e7925575C50261297a946aD204A8, 0x4B1182e277F51539aC87Ec8138871947E9881862, 0xdEbdEa31624552DF904A065221cD14088ABDeD70, 915000000000000000)",
        "337000",
        "0",
        "0x6539519E69343535a2aF6583D9BAE3AD74c6A293",
        "0x"
      ],
      "transaction": {
        "from": "0x6539519e69343535a2af6583d9bae3ad74c6a293",
        "to": "0xa4ca2c2e25b97da19879201ba49422bc6f181f42",
        "gas": "0x2b187",
        "value": "0x0",
        "input": "0xa99aad89000000000000000000000000ad11a8beb98bbf61dbb1aa0f6d6f2ecd87b35afa0000000000000000000000007a06c4aef988e7925575c50261297a946ad204a80000000000000000000000004b1182e277f51539ac87ec8138871947e9881862000000000000000000000000debdea31624552df904a065221cd14088abded700000000000000000000000000000000000000000000000000cb2bba6f17b8000000000000000000000000000000000000000000000000000000000000005246800000000000000000000000000000000000000000000000000000000000000000000000000000000000000006539519e69343535a2af6583d9bae3ad74c6a29300000000000000000000000000000000000000000000000000000000000001200000000000000000000000000000000000000000000000000000000000000000",
        "nonce": "0x20",
        "chainId": "0xa867"
      },
      "additionalContracts": [],
      "isFixedGasLimit": false
    }
  ],
  "receipts": [
    {
      "status": "0x1",
      "cumulativeGasUsed": "0x46864",
      "logs": [
        {
          "address": "0xad11a8beb98bbf61dbb1aa0f6d6f2ecd87b35afa",
          "topics": [
            "0x8c5be1e5ebec7d5bd14f71427d1e84f3dd0314c0f7b2291e5b200ac8c7c3b925",
            "0x0000000000000000000000006539519e69343535a2af6583d9bae3ad74c6a293",
            "0x000000000000000000000000a4ca2c2e25b97da19879201ba49422bc6f181f42"
          ],
          "data": "0x0000000000000000000000000000000000000000000000000000000000052468",
          "blockHash": "0x5fa600c6d695c1eeb4e900ca11d9f266fb26fa27d3142f3b5c78cf3222baa8f3",
          "blockNumber": "0x28c805",
          "transactionHash": "0xa5d673fb4242c9d1020f5fb2d11ea19cee932ee7e59a15371ca838d41900eb64",
          "transactionIndex": "0x2",
          "logIndex": "0x8",
          "removed": false
        }
      ],
      "logsBloom": "0x00000000000000000000000000000000000000000010000000000000000000000080000000000100000000000000002000000000000000000000000000200010000008002400000000000000000000000000000000000000000000000000000000000000000000000000000000000000000000000000000000000000000000000000000000000000000000000000000000000000000000000000000000000000020000000000000000000000000000000000000000000000000000000000000000000000000000000000000000000000000000000000000000000000000000000010000000100000000000000000000000000000000000000000000000000000",
      "type": "0x2",
      "transactionHash": "0xa5d673fb4242c9d1020f5fb2d11ea19cee932ee7e59a15371ca838d41900eb64",
      "transactionIndex": "0x2",
      "blockHash": "0x5fa600c6d695c1eeb4e900ca11d9f266fb26fa27d3142f3b5c78cf3222baa8f3",
      "blockNumber": "0x28c805",
      "gasUsed": "0xd88d",
      "effectiveGasPrice": "0xf433c",
      "from": "0x6539519e69343535a2af6583d9bae3ad74c6a293",
      "to": "0xad11a8beb98bbf61dbb1aa0f6d6f2ecd87b35afa",
      "contractAddress": null,
      "l1BaseFeeScalar": "0xf4240",
      "l1BlobBaseFee": "0x1",
      "l1BlobBaseFeeScalar": "0x0",
      "l1Fee": "0xb0363aad40",
      "l1GasPrice": "0x1c31a2fd",
      "l1GasUsed": "0x640"
    },
    {
      "status": "0x1",
      "cumulativeGasUsed": "0x65b99",
      "logs": [
        {
          "address": "0xdebdea31624552df904a065221cd14088abded70",
          "topics": [
            "0x7120161a7b3d31251e01294ab351ef15a41b91659a36032e4641bb89b121e321",
            "0xb7dd4c2e7c164de474b28c354cddb137deb0ce2583b925d20c33322074c22178"
          ],
          "data": "0x0000000000000000000000000000000000000000000000000000000012dcecb4000000000000000000000000000000000000000000000000000000004b4d5070",
          "blockHash": "0x5fa600c6d695c1eeb4e900ca11d9f266fb26fa27d3142f3b5c78cf3222baa8f3",
          "blockNumber": "0x28c805",
          "transactionHash": "0xc9ccb5d2c5e2a20be164593d25ae3b96ee5eca01547a3fb509466fe000568e21",
          "transactionIndex": "0x3",
          "logIndex": "0x9",
          "removed": false
        },
        {
          "address": "0xa4ca2c2e25b97da19879201ba49422bc6f181f42",
          "topics": [
            "0x9d9bd501d0657d7dfe415f779a620a62b78bc508ddc0891fbbd8b7ac0f8fce87",
            "0xb7dd4c2e7c164de474b28c354cddb137deb0ce2583b925d20c33322074c22178"
          ],
          "data": "0x0000000000000000000000000000000000000000000000000000000012dcecb400000000000000000000000000000000000000000000000000000000000000000000000000000000000000000000000000000000000000000000000000000000",
          "blockHash": "0x5fa600c6d695c1eeb4e900ca11d9f266fb26fa27d3142f3b5c78cf3222baa8f3",
          "blockNumber": "0x28c805",
          "transactionHash": "0xc9ccb5d2c5e2a20be164593d25ae3b96ee5eca01547a3fb509466fe000568e21",
          "transactionIndex": "0x3",
          "logIndex": "0xa",
          "removed": false
        },
        {
          "address": "0xa4ca2c2e25b97da19879201ba49422bc6f181f42",
          "topics": [
            "0xedf8870433c83823eb071d3df1caa8d008f12f6440918c20d75a3602cda30fe0",
            "0xb7dd4c2e7c164de474b28c354cddb137deb0ce2583b925d20c33322074c22178",
            "0x0000000000000000000000006539519e69343535a2af6583d9bae3ad74c6a293",
            "0x0000000000000000000000006539519e69343535a2af6583d9bae3ad74c6a293"
          ],
          "data": "0x00000000000000000000000000000000000000000000000000000000000524680000000000000000000000000000000000000000000000000000004e76c3ea00",
          "blockHash": "0x5fa600c6d695c1eeb4e900ca11d9f266fb26fa27d3142f3b5c78cf3222baa8f3",
          "blockNumber": "0x28c805",
          "transactionHash": "0xc9ccb5d2c5e2a20be164593d25ae3b96ee5eca01547a3fb509466fe000568e21",
          "transactionIndex": "0x3",
          "logIndex": "0xb",
          "removed": false
        },
        {
          "address": "0xad11a8beb98bbf61dbb1aa0f6d6f2ecd87b35afa",
          "topics": [
            "0xddf252ad1be2c89b69c2b068fc378daa952ba7f163c4a11628f55a4df523b3ef",
            "0x0000000000000000000000006539519e69343535a2af6583d9bae3ad74c6a293",
            "0x000000000000000000000000a4ca2c2e25b97da19879201ba49422bc6f181f42"
          ],
          "data": "0x0000000000000000000000000000000000000000000000000000000000052468",
          "blockHash": "0x5fa600c6d695c1eeb4e900ca11d9f266fb26fa27d3142f3b5c78cf3222baa8f3",
          "blockNumber": "0x28c805",
          "transactionHash": "0xc9ccb5d2c5e2a20be164593d25ae3b96ee5eca01547a3fb509466fe000568e21",
          "transactionIndex": "0x3",
          "logIndex": "0xc",
          "removed": false
        }
      ],
      "logsBloom": "0x00000000000000000000000000000000000000000010000000400000000000000080400000000100000000000000002000400000000000000000000020804010000008002400000000000008800000000000000800200000000000080000000000000000000000000000000000008000000000000000000000000010000000000000000000000000000000000000000000000000000080000000000000000000000000000000000000000000000000000000000000000001000000000000000000000002000000000008000000000000000000000000000020000000000000400000000000100000000000000001000000000000000000000000000000004000",
      "type": "0x2",
      "transactionHash": "0xc9ccb5d2c5e2a20be164593d25ae3b96ee5eca01547a3fb509466fe000568e21",
      "transactionIndex": "0x3",
      "blockHash": "0x5fa600c6d695c1eeb4e900ca11d9f266fb26fa27d3142f3b5c78cf3222baa8f3",
      "blockNumber": "0x28c805",
      "gasUsed": "0x1f335",
      "effectiveGasPrice": "0xf433c",
      "from": "0x6539519e69343535a2af6583d9bae3ad74c6a293",
      "to": "0xa4ca2c2e25b97da19879201ba49422bc6f181f42",
      "contractAddress": null,
      "l1BaseFeeScalar": "0xf4240",
      "l1BlobBaseFee": "0x1",
      "l1BlobBaseFeeScalar": "0x0",
      "l1Fee": "0x1590d73d16b",
      "l1GasPrice": "0x1c31a2fd",
      "l1GasUsed": "0xc3d"
    }
  ],
  "libraries": [],
  "pending": [],
  "returns": {},
  "timestamp": 1757938452,
  "chain": 43111,
  "commit": "ccc26c1"
}