{
  "transactions": [
    {
      "hash": "0x0ec92e2a070621639a6d190688d5ec3ba821bc3862eefd9ef26df7090938891f",
      "transactionType": "CALL",
      "contractName": null,
      "contractAddress": "0xad11a8beb98bbf61dbb1aa0f6d6f2ecd87b35afa",
      "function": "approve(address,uint256)",
      "arguments": [
        "0xa4Ca2c2e25b97DA19879201bA49422bc6f181f42",
        "323000"
      ],
      "transaction": {
        "from": "0x6539519e69343535a2af6583d9bae3ad74c6a293",
        "to": "0xad11a8beb98bbf61dbb1aa0f6d6f2ecd87b35afa",
        "gas": "0x12b1b",
        "value": "0x0",
        "input": "0x095ea7b3000000000000000000000000a4ca2c2e25b97da19879201ba49422bc6f181f42000000000000000000000000000000000000000000000000000000000004edb8",
        "nonce": "0x17",
        "chainId": "0xa867"
      },
      "additionalContracts": [],
      "isFixedGasLimit": false
    },
    {
      "hash": "0xcbe5f7beb6b67a532149a28c4ca0c5945300ac3bb66b429b632520eff68751f3",
      "transactionType": "CALL",
      "contractName": null,
      "contractAddress": "0xa4ca2c2e25b97da19879201ba49422bc6f181f42",
      "function": "supply((address,address,address,address,uint256),uint256,uint256,address,bytes)",
      "arguments": [
        "(0xad11a8BEb98bbf61dbb1aa0F6d6F2ECD87b35afA, 0x03C7054BCB39f7b2e5B2c7AcB37583e32D70Cfa3, 0x3E83F3F3cbB80BBa545910c53C080f99C1f2bA84, 0xdEbdEa31624552DF904A065221cD14088ABDeD70, 860000000000000000)",
        "323000",
        "0",
        "0x6539519E69343535a2aF6583D9BAE3AD74c6A293",
        "0x"
      ],
      "transaction": {
        "from": "0x6539519e69343535a2af6583d9bae3ad74c6a293",
        "to": "0xa4ca2c2e25b97da19879201ba49422bc6f181f42",
        "gas": "0x2da05",
        "value": "0x0",
        "input": "0xa99aad89000000000000000000000000ad11a8beb98bbf61dbb1aa0f6d6f2ecd87b35afa00000000000000000000000003c7054bcb39f7b2e5b2c7acb37583e32d70cfa30000000000000000000000003e83f3f3cbb80bba545910c53c080f99c1f2ba84000000000000000000000000debdea31624552df904a065221cd14088abded700000000000000000000000000000000000000000000000000bef55718ad60000000000000000000000000000000000000000000000000000000000000004edb800000000000000000000000000000000000000000000000000000000000000000000000000000000000000006539519e69343535a2af6583d9bae3ad74c6a29300000000000000000000000000000000000000000000000000000000000001200000000000000000000000000000000000000000000000000000000000000000",
        "nonce": "0x18",
        "chainId": "0xa867"
      },
      "additionalContracts": [],
      "isFixedGasLimit": false
    }
  ],
  "receipts": [
    {
      "status": "0x1",
      "cumulativeGasUsed": "0x1a295",
      "logs": [
        {
          "address": "0xad11a8beb98bbf61dbb1aa0f6d6f2ecd87b35afa",
          "topics": [
            "0x8c5be1e5ebec7d5bd14f71427d1e84f3dd0314c0f7b2291e5b200ac8c7c3b925",
            "0x0000000000000000000000006539519e69343535a2af6583d9bae3ad74c6a293",
            "0x000000000000000000000000a4ca2c2e25b97da19879201ba49422bc6f181f42"
          ],
          "data": "0x000000000000000000000000000000000000000000000000000000000004edb8",
          "blockHash": "0x02d927f0353cd733a897cdb4cd49d76b961df9c85c17e26ee2da93f3601f54ab",
          "blockNumber": "0x28c58b",
          "transactionHash": "0x0ec92e2a070621639a6d190688d5ec3ba821bc3862eefd9ef26df7090938891f",
          "transactionIndex": "0x1",
          "logIndex": "0x0",
          "removed": false
        }
      ],
      "logsBloom": "0x00000000000000000000000000000000000000000010000000000000000000000080000000000100000000000000002000000000000000000000000000200010000008002400000000000000000000000000000000000000000000000000000000000000000000000000000000000000000000000000000000000000000000000000000000000000000000000000000000000000000000000000000000000000020000000000000000000000000000000000000000000000000000000000000000000000000000000000000000000000000000000000000000000000000000000010000000100000000000000000000000000000000000000000000000000000",
      "type": "0x2",
      "transactionHash": "0x0ec92e2a070621639a6d190688d5ec3ba821bc3862eefd9ef26df7090938891f",
      "transactionIndex": "0x1",
      "blockHash": "0x02d927f0353cd733a897cdb4cd49d76b961df9c85c17e26ee2da93f3601f54ab",
      "blockNumber": "0x28c58b",
      "gasUsed": "0xd88d",
      "effectiveGasPrice": "0x124f80",
      "from": "0x6539519e69343535a2af6583d9bae3ad74c6a293",
      "to": "0xad11a8beb98bbf61dbb1aa0f6d6f2ecd87b35afa",
      "contractAddress": null,
      "l1BaseFeeScalar": "0xf4240",
      "l1BlobBaseFee": "0x1",
      "l1BlobBaseFeeScalar": "0x0",
      "l1Fee": "0x73199dcd80",
      "l1GasPrice": "0x126a7fa6",
      "l1GasUsed": "0x640"
    },
    {
      "status": "0x1",
      "cumulativeGasUsed": "0x395be",
      "logs": [
        {
          "address": "0xdebdea31624552df904a065221cd14088abded70",
          "topics": [
            "0x7120161a7b3d31251e01294ab351ef15a41b91659a36032e4641bb89b121e321",
            "0xf1b97d86baa12ef4622eeca186a49fa7f7ea1ac2aa55ea4c20a26e815ddd6bc6"
          ],
          "data": "0x0000000000000000000000000000000000000000000000000000000012c60fa0000000000000000000000000000000000000000000000000000000004a96ceb9",
          "blockHash": "0x02d927f0353cd733a897cdb4cd49d76b961df9c85c17e26ee2da93f3601f54ab",
          "blockNumber": "0x28c58b",
          "transactionHash": "0xcbe5f7beb6b67a532149a28c4ca0c5945300ac3bb66b429b632520eff68751f3",
          "transactionIndex": "0x2",
          "logIndex": "0x1",
          "removed": false
        },
        {
          "address": "0xa4ca2c2e25b97da19879201ba49422bc6f181f42",
          "topics": [
            "0x9d9bd501d0657d7dfe415f779a620a62b78bc508ddc0891fbbd8b7ac0f8fce87",
            "0xf1b97d86baa12ef4622eeca186a49fa7f7ea1ac2aa55ea4c20a26e815ddd6bc6"
          ],
          "data": "0x0000000000000000000000000000000000000000000000000000000012c60fa000000000000000000000000000000000000000000000000000000000000000000000000000000000000000000000000000000000000000000000000000000000",
          "blockHash": "0x02d927f0353cd733a897cdb4cd49d76b961df9c85c17e26ee2da93f3601f54ab",
          "blockNumber": "0x28c58b",
          "transactionHash": "0xcbe5f7beb6b67a532149a28c4ca0c5945300ac3bb66b429b632520eff68751f3",
          "transactionIndex": "0x2",
          "logIndex": "0x2",
          "removed": false
        },
        {
          "address": "0xa4ca2c2e25b97da19879201ba49422bc6f181f42",
          "topics": [
            "0xedf8870433c83823eb071d3df1caa8d008f12f6440918c20d75a3602cda30fe0",
            "0xf1b97d86baa12ef4622eeca186a49fa7f7ea1ac2aa55ea4c20a26e815ddd6bc6",
            "0x0000000000000000000000006539519e69343535a2af6583d9bae3ad74c6a293",
            "0x0000000000000000000000006539519e69343535a2af6583d9bae3ad74c6a293"
          ],
          "data": "0x000000000000000000000000000000000000000000000000000000000004edb80000000000000000000000000000000000000000000000000000004b344cde00",
          "blockHash": "0x02d927f0353cd733a897cdb4cd49d76b961df9c85c17e26ee2da93f3601f54ab",
          "blockNumber": "0x28c58b",
          "transactionHash": "0xcbe5f7beb6b67a532149a28c4ca0c5945300ac3bb66b429b632520eff68751f3",
          "transactionIndex": "0x2",
          "logIndex": "0x3",
          "removed": false
        },
        {
          "address": "0xad11a8beb98bbf61dbb1aa0f6d6f2ecd87b35afa",
          "topics": [
            "0xddf252ad1be2c89b69c2b068fc378daa952ba7f163c4a11628f55a4df523b3ef",
            "0x0000000000000000000000006539519e69343535a2af6583d9bae3ad74c6a293",
            "0x000000000000000000000000a4ca2c2e25b97da19879201ba49422bc6f181f42"
          ],
          "data": "0x000000000000000000000000000000000000000000000000000000000004edb8",
          "blockHash": "0x02d927f0353cd733a897cdb4cd49d76b961df9c85c17e26ee2da93f3601f54ab",
          "blockNumber": "0x28c58b",
          "transactionHash": "0xcbe5f7beb6b67a532149a28c4ca0c5945300ac3bb66b429b632520eff68751f3",
          "transactionIndex": "0x2",
          "logIndex": "0x4",
          "removed": false
        }
      ],
      "logsBloom": "0x00000000000000000000000000000000000000000010000000000000000000000080400000000100000000000000002000400000000000000000000020804010000008002400000000000008800000000000000800200000000000080000000000000000000000000000000000008000000000000000000000000010000080000000000000000000000000000000000000000000000080000000004000000000000000000000000000000000000000000000000000000000000000000000000000000002000000000008000000000000000000000000000000000000000000400000000000100000000000040001000000000000000000000000000000004000",
      "type": "0x2",
      "transactionHash": "0xcbe5f7beb6b67a532149a28c4ca0c5945300ac3bb66b429b632520eff68751f3",
      "transactionIndex": "0x2",
      "blockHash": "0x02d927f0353cd733a897cdb4cd49d76b961df9c85c17e26ee2da93f3601f54ab",
      "blockNumber": "0x28c58b",
      "gasUsed": "0x1f329",
      "effectiveGasPrice": "0x124f80",
      "from": "0x6539519e69343535a2af6583d9bae3ad74c6a293",
      "to": "0xa4ca2c2e25b97da19879201ba49422bc6f181f42",
      "contractAddress": null,
      "l1BaseFeeScalar": "0xf4240",
      "l1BlobBaseFee": "0x1",
      "l1BlobBaseFeeScalar": "0x0",
      "l1Fee": "0xe06c2d3fa1",
      "l1GasPrice": "0x126a7fa6",
      "l1GasUsed": "0xc2f"
    }
  ],
  "libraries": [],
  "pending": [],
  "returns": {},
  "timestamp": 1757930844,
  "chain": 43111,
  "commit": "66cdf02"
}