{
  "transactions": [
    {
      "hash": "0xd6b335f868dcfb1aabb0d72c05cde4dc1eac7f5ccde8dbadd2bd767af68ac466",
      "transactionType": "CALL",
      "contractName": null,
      "contractAddress": "0xaa40c0c7644e0b2b224509571e10ad20d9c4ef28",
      "function": "approve(address,uint256)",
      "arguments": [
        "0xa4Ca2c2e25b97DA19879201bA49422bc6f181f42",
        "258"
      ],
      "transaction": {
        "from": "0x6539519e69343535a2af6583d9bae3ad74c6a293",
        "to": "0xaa40c0c7644e0b2b224509571e10ad20d9c4ef28",
        "gas": "0xfba172",
        "value": "0x0",
        "input": "0x095ea7b3000000000000000000000000a4ca2c2e25b97da19879201ba49422bc6f181f420000000000000000000000000000000000000000000000000000000000000102",
        "nonce": "0x2d",
        "chainId": "0xa867"
      },
      "additionalContracts": [],
      "isFixedGasLimit": true
    },
    {
      "hash": "0x2aa44b7a663ab4ff1c800f59ec78910409be5f920d66633719058e43048581df",
      "transactionType": "CALL",
      "contractName": null,
      "contractAddress": "0xa4ca2c2e25b97da19879201ba49422bc6f181f42",
      "function": "supply((address,address,address,address,uint256),uint256,uint256,address,bytes)",
      "arguments": [
        "(0xAA40c0c7644e0b2B224509571e10ad20d9C4ef28, 0xad11a8BEb98bbf61dbb1aa0F6d6F2ECD87b35afA, 0x6F3B428CB767018a9bBFB3764f410c9636A92e3C, 0xdEbdEa31624552DF904A065221cD14088ABDeD70, 770000000000000000)",
        "258",
        "0",
        "0x6539519E69343535a2aF6583D9BAE3AD74c6A293",
        "0x"
      ],
      "transaction": {
        "from": "0x6539519e69343535a2af6583d9bae3ad74c6a293",
        "to": "0xa4ca2c2e25b97da19879201ba49422bc6f181f42",
        "gas": "0xfb0f82",
        "value": "0x0",
        "input": "0xa99aad89000000000000000000000000aa40c0c7644e0b2b224509571e10ad20d9c4ef28000000000000000000000000ad11a8beb98bbf61dbb1aa0f6d6f2ecd87b35afa0000000000000000000000006f3b428cb767018a9bbfb3764f410c9636a92e3c000000000000000000000000debdea31624552df904a065221cd14088abded700000000000000000000000000000000000000000000000000aaf96eb9d0d0000000000000000000000000000000000000000000000000000000000000000010200000000000000000000000000000000000000000000000000000000000000000000000000000000000000006539519e69343535a2af6583d9bae3ad74c6a29300000000000000000000000000000000000000000000000000000000000001200000000000000000000000000000000000000000000000000000000000000000",
        "nonce": "0x2e",
        "chainId": "0xa867"
      },
      "additionalContracts": [],
      "isFixedGasLimit": true
    }
  ],
  "receipts": [
    {
      "status": "0x1",
      "cumulativeGasUsed": "0x17f0d",
      "logs": [
        {
          "address": "0xaa40c0c7644e0b2b224509571e10ad20d9c4ef28",
          "topics": [
            "0x8c5be1e5ebec7d5bd14f71427d1e84f3dd0314c0f7b2291e5b200ac8c7c3b925",
            "0x0000000000000000000000006539519e69343535a2af6583d9bae3ad74c6a293",
            "0x000000000000000000000000a4ca2c2e25b97da19879201ba49422bc6f181f42"
          ],
          "data": "0x0000000000000000000000000000000000000000000000000000000000000102",
          "blockHash": "0xb87180ff25916db4616af2490eea88204b0104d88899e525fc8dcaf7b0c93302",
          "blockNumber": "0x297a90",
          "transactionHash": "0xd6b335f868dcfb1aabb0d72c05cde4dc1eac7f5ccde8dbadd2bd767af68ac466",
          "transactionIndex": "0x1",
          "logIndex": "0x0",
          "removed": false
        }
      ],
      "logsBloom": "0x00000000000000000000000000000000000000000010000000000000000000000080020000000100000000000000002000000000000000000000000000200010000000000000000000000000000000000000000000000000000000000000000000000000000000000000000000000000000000000000000000000000000000000000000000000000000000000000000000002000000000000000000000000000020002000000000000000000000000000000000000000000000000000000000000000000000000000000000000000000000000000000000000000000000000000010000000100000000000000000000000000000000000000000000000000000",
      "type": "0x2",
      "transactionHash": "0xd6b335f868dcfb1aabb0d72c05cde4dc1eac7f5ccde8dbadd2bd767af68ac466",
      "transactionIndex": "0x1",
      "blockHash": "0xb87180ff25916db4616af2490eea88204b0104d88899e525fc8dcaf7b0c93302",
      "blockNumber": "0x297a90",
      "gasUsed": "0xb505",
      "effectiveGasPrice": "0x12507d",
      "from": "0x6539519e69343535a2af6583d9bae3ad74c6a293",
      "to": "0xaa40c0c7644e0b2b224509571e10ad20d9c4ef28",
      "contractAddress": null,
      "l1BaseFeeScalar": "0xf4240",
      "l1BlobBaseFee": "0x1",
      "l1BlobBaseFeeScalar": "0x0",
      "l1Fee": "0x2db25e2740",
      "l1GasPrice": "0x74fbd25",
      "l1GasUsed": "0x640"
    },
    {
      "status": "0x1",
      "cumulativeGasUsed": "0x34835",
      "logs": [
        {
          "address": "0xdebdea31624552df904a065221cd14088abded70",
          "topics": [
            "0x7120161a7b3d31251e01294ab351ef15a41b91659a36032e4641bb89b121e321",
            "0x7c985a3ba92fa76a362f661b37a68c9955490eb659b7905aab6019b91042b452"
          ],
          "data": "0x000000000000000000000000000000000000000000000000000000000f638e800000000000000000000000000000000000000000000000000000000030c717ca",
          "blockHash": "0xb87180ff25916db4616af2490eea88204b0104d88899e525fc8dcaf7b0c93302",
          "blockNumber": "0x297a90",
          "transactionHash": "0x2aa44b7a663ab4ff1c800f59ec78910409be5f920d66633719058e43048581df",
          "transactionIndex": "0x2",
          "logIndex": "0x1",
          "removed": false
        },
        {
          "address": "0xa4ca2c2e25b97da19879201ba49422bc6f181f42",
          "topics": [
            "0x9d9bd501d0657d7dfe415f779a620a62b78bc508ddc0891fbbd8b7ac0f8fce87",
            "0x7c985a3ba92fa76a362f661b37a68c9955490eb659b7905aab6019b91042b452"
          ],
          "data": "0x000000000000000000000000000000000000000000000000000000000f638e8000000000000000000000000000000000000000000000000000000000000000000000000000000000000000000000000000000000000000000000000000000000",
          "blockHash": "0xb87180ff25916db4616af2490eea88204b0104d88899e525fc8dcaf7b0c93302",
          "blockNumber": "0x297a90",
          "transactionHash": "0x2aa44b7a663ab4ff1c800f59ec78910409be5f920d66633719058e43048581df",
          "transactionIndex": "0x2",
          "logIndex": "0x2",
          "removed": false
        },
        {
          "address": "0xa4ca2c2e25b97da19879201ba49422bc6f181f42",
          "topics": [
            "0xedf8870433c83823eb071d3df1caa8d008f12f6440918c20d75a3602cda30fe0",
            "0x7c985a3ba92fa76a362f661b37a68c9955490eb659b7905aab6019b91042b452",
            "0x0000000000000000000000006539519e69343535a2af6583d9bae3ad74c6a293",
            "0x0000000000000000000000006539519e69343535a2af6583d9bae3ad74c6a293"
          ],
          "data": "0x0000000000000000000000000000000000000000000000000000000000000102000000000000000000000000000000000000000000000000000000000f60c480",
          "blockHash": "0xb87180ff25916db4616af2490eea88204b0104d88899e525fc8dcaf7b0c93302",
          "blockNumber": "0x297a90",
          "transactionHash": "0x2aa44b7a663ab4ff1c800f59ec78910409be5f920d66633719058e43048581df",
          "transactionIndex": "0x2",
          "logIndex": "0x3",
          "removed": false
        },
        {
          "address": "0xaa40c0c7644e0b2b224509571e10ad20d9c4ef28",
          "topics": [
            "0xddf252ad1be2c89b69c2b068fc378daa952ba7f163c4a11628f55a4df523b3ef",
            "0x0000000000000000000000006539519e69343535a2af6583d9bae3ad74c6a293",
            "0x000000000000000000000000a4ca2c2e25b97da19879201ba49422bc6f181f42"
          ],
          "data": "0x0000000000000000000000000000000000000000000000000000000000000102",
          "blockHash": "0xb87180ff25916db4616af2490eea88204b0104d88899e525fc8dcaf7b0c93302",
          "blockNumber": "0x297a90",
          "transactionHash": "0x2aa44b7a663ab4ff1c800f59ec78910409be5f920d66633719058e43048581df",
          "transactionIndex": "0x2",
          "logIndex": "0x4",
          "removed": false
        }
      ],
      "logsBloom": "0x00000000400000000000000000000000000008000010000000000000000000000080420000000100000000000000002000400000000000000000000020804010000000000000000000000008800000000000400800200000000000080000000000000000000000000000000000008000000000000000000000000010000000000000000000000000000000000000000000002000000080000000000000000000000002000000000000000000000000000000000000000000000000000000000000000002000000000008000000000000000000000000000000000000000000400000000000100000000000000001000000000000000000000000000000004000",
      "type": "0x2",
      "transactionHash": "0x2aa44b7a663ab4ff1c800f59ec78910409be5f920d66633719058e43048581df",
      "transactionIndex": "0x2",
      "blockHash": "0xb87180ff25916db4616af2490eea88204b0104d88899e525fc8dcaf7b0c93302",
      "blockNumber": "0x297a90",
      "gasUsed": "0x1c928",
      "effectiveGasPrice": "0x12507d",
      "from": "0x6539519e69343535a2af6583d9bae3ad74c6a293",
      "to": "0xa4ca2c2e25b97da19879201ba49422bc6f181f42",
      "contractAddress": null,
      "l1BaseFeeScalar": "0xf4240",
      "l1BlobBaseFee": "0x1",
      "l1BlobBaseFeeScalar": "0x0",
      "l1Fee": "0x58b7aade74",
      "l1GasPrice": "0x74fbd25",
      "l1GasUsed": "0xc22"
    }
  ],
  "libraries": [],
  "pending": [],
  "returns": {},
  "timestamp": 1758486934,
  "chain": 43111,
  "commit": "d8ba599"
}