{
  "transactions": [
    {
      "hash": "0x3886abdbf137c13a96490f2cd320057ace540e38d59c29c7dfe9f4b089b1aecc",
      "transactionType": "CALL",
      "contractName": null,
      "contractAddress": "0x833589fcd6edb6e08f4c7c32d4f71b54bda02913",
      "function": "approve(address,uint256)",
      "arguments": [
        "0xBBBBBbbBBb9cC5e90e3b3Af64bdAF62C37EEFFCb",
        "923123"
      ],
      "transaction": {
        "from": "0x6539519e69343535a2af6583d9bae3ad74c6a293",
        "to": "0x833589fcd6edb6e08f4c7c32d4f71b54bda02913",
        "gas": "0x12b1b",
        "value": "0x0",
        "input": "0x095ea7b3000000000000000000000000bbbbbbbbbb9cc5e90e3b3af64bdaf62c37eeffcb00000000000000000000000000000000000000000000000000000000000e15f3",
        "nonce": "0x25",
        "chainId": "0x2105"
      },
      "additionalContracts": [],
      "isFixedGasLimit": false
    },
    {
      "hash": "0xc5af91236741a7e34d469541a7052d1bd1fb93411954660bb52ffc52a4f30e41",
      "transactionType": "CALL",
      "contractName": null,
      "contractAddress": "0xbbbbbbbbbb9cc5e90e3b3af64bdaf62c37eeffcb",
      "function": "supply((address,address,address,address,uint256),uint256,uint256,address,bytes)",
      "arguments": [
        "(0x833589fCD6eDb6E08f4c7C32D4f71b54bdA02913, 0x0000000f2eB9f69274678c76222B35eEc7588a65, 0x77f59C5C09e7ABEF6991B456170930324FE36222, 0x46415998764C29aB2a25CbeA6254146D50D22687, 915000000000000000)",
        "923123",
        "0",
        "0x6539519E69343535a2aF6583D9BAE3AD74c6A293",
        "0x"
      ],
      "transaction": {
        "from": "0x6539519e69343535a2af6583d9bae3ad74c6a293",
        "to": "0xbbbbbbbbbb9cc5e90e3b3af64bdaf62c37eeffcb",
        "gas": "0x2be76",
        "value": "0x0",
        "input": "0xa99aad89000000000000000000000000833589fcd6edb6e08f4c7c32d4f71b54bda029130000000000000000000000000000000f2eb9f69274678c76222b35eec7588a6500000000000000000000000077f59c5c09e7abef6991b456170930324fe3622200000000000000000000000046415998764c29ab2a25cbea6254146d50d226870000000000000000000000000000000000000000000000000cb2bba6f17b800000000000000000000000000000000000000000000000000000000000000e15f300000000000000000000000000000000000000000000000000000000000000000000000000000000000000006539519e69343535a2af6583d9bae3ad74c6a29300000000000000000000000000000000000000000000000000000000000001200000000000000000000000000000000000000000000000000000000000000000",
        "nonce": "0x26",
        "chainId": "0x2105"
      },
      "additionalContracts": [],
      "isFixedGasLimit": false
    }
  ],
  "receipts": [
    {
      "status": "0x1",
      "cumulativeGasUsed": "0x44d56c",
      "logs": [
        {
          "address": "0x833589fcd6edb6e08f4c7c32d4f71b54bda02913",
          "topics": [
            "0x8c5be1e5ebec7d5bd14f71427d1e84f3dd0314c0f7b2291e5b200ac8c7c3b925",
            "0x0000000000000000000000006539519e69343535a2af6583d9bae3ad74c6a293",
            "0x000000000000000000000000bbbbbbbbbb9cc5e90e3b3af64bdaf62c37eeffcb"
          ],
          "data": "0x00000000000000000000000000000000000000000000000000000000000e15f3",
          "blockHash": "0x853327c1b6d2720828385571ce51c47cd73fec359b54bbdd9a1a09c8e5ab71a1",
          "blockNumber": "0x208987f",
          "blockTimestamp": "0x689b8de1",
          "transactionHash": "0x3886abdbf137c13a96490f2cd320057ace540e38d59c29c7dfe9f4b089b1aecc",
          "transactionIndex": "0x15",
          "logIndex": "0x38",
          "removed": false
        }
      ],
      "logsBloom": "0x00000000000000000000000000000080000000000000000000000000000000000080000000000100000000000000100000000000000000000000000000200000000000000000000000000000000000000000000000080000000000000000000000800000000000000000000000000000000000000000000000000000000000000000000000000000000000000000000000000000000000000000000000000000020000000000000000000000000000000000000000000000000000000000000000000000000000000000000000000000000000000000000000000000000000000010000001100000000000200000000000000000000000000000000000000000",
      "type": "0x2",
      "transactionHash": "0x3886abdbf137c13a96490f2cd320057ace540e38d59c29c7dfe9f4b089b1aecc",
      "transactionIndex": "0x15",
      "blockHash": "0x853327c1b6d2720828385571ce51c47cd73fec359b54bbdd9a1a09c8e5ab71a1",
      "blockNumber": "0x208987f",
      "gasUsed": "0xd88d",
      "effectiveGasPrice": "0xae04bc",
      "from": "0x6539519e69343535a2af6583d9bae3ad74c6a293",
      "to": "0x833589fcd6edb6e08f4c7c32d4f71b54bda02913",
      "contractAddress": null,
      "l1BaseFeeScalar": "0x8dd",
      "l1BlobBaseFee": "0x1",
      "l1BlobBaseFeeScalar": "0x101c12",
      "l1Fee": "0x1fe5f3001",
      "l1GasPrice": "0x8c9532cb",
      "l1GasUsed": "0x640"
    },
    {
      "status": "0x1",
      "cumulativeGasUsed": "0x46b5bd",
      "logs": [
        {
          "address": "0x46415998764c29ab2a25cbea6254146d50d22687",
          "topics": [
            "0x7120161a7b3d31251e01294ab351ef15a41b91659a36032e4641bb89b121e321",
            "0x1a3e69d0109bb1be42b80e11034bb6ee98fc466721f26845dc83b2aa8d979137"
          ],
          "data": "0x0000000000000000000000000000000000000000000000000000000012de02ca000000000000000000000000000000000000000000000000000000004b55ff0b",
          "blockHash": "0x52e42ed1c85ebc957a821988f9e3061c189e90cf8fb38dd5c453f7fdd2eb851e",
          "blockNumber": "0x208987f",
          "blockTimestamp": "0x689b8de1",
          "transactionHash": "0xc5af91236741a7e34d469541a7052d1bd1fb93411954660bb52ffc52a4f30e41",
          "transactionIndex": "0x16",
          "logIndex": "0x39",
          "removed": false
        },
        {
          "address": "0xbbbbbbbbbb9cc5e90e3b3af64bdaf62c37eeffcb",
          "topics": [
            "0x9d9bd501d0657d7dfe415f779a620a62b78bc508ddc0891fbbd8b7ac0f8fce87",
            "0x1a3e69d0109bb1be42b80e11034bb6ee98fc466721f26845dc83b2aa8d979137"
          ],
          "data": "0x0000000000000000000000000000000000000000000000000000000012de02ca00000000000000000000000000000000000000000000000000000000000000000000000000000000000000000000000000000000000000000000000000000000",
          "blockHash": "0x52e42ed1c85ebc957a821988f9e3061c189e90cf8fb38dd5c453f7fdd2eb851e",
          "blockNumber": "0x208987f",
          "blockTimestamp": "0x689b8de1",
          "transactionHash": "0xc5af91236741a7e34d469541a7052d1bd1fb93411954660bb52ffc52a4f30e41",
          "transactionIndex": "0x16",
          "logIndex": "0x3a",
          "removed": false
        },
        {
          "address": "0xbbbbbbbbbb9cc5e90e3b3af64bdaf62c37eeffcb",
          "topics": [
            "0xedf8870433c83823eb071d3df1caa8d008f12f6440918c20d75a3602cda30fe0",
            "0x1a3e69d0109bb1be42b80e11034bb6ee98fc466721f26845dc83b2aa8d979137",
            "0x0000000000000000000000006539519e69343535a2af6583d9bae3ad74c6a293",
            "0x0000000000000000000000006539519e69343535a2af6583d9bae3ad74c6a293"
          ],
          "data": "0x00000000000000000000000000000000000000000000000000000000000e15f3000000000000000000000000000000000000000000000000000000d6ee6b22c0",
          "blockHash": "0x52e42ed1c85ebc957a821988f9e3061c189e90cf8fb38dd5c453f7fdd2eb851e",
          "blockNumber": "0x208987f",
          "blockTimestamp": "0x689b8de1",
          "transactionHash": "0xc5af91236741a7e34d469541a7052d1bd1fb93411954660bb52ffc52a4f30e41",
          "transactionIndex": "0x16",
          "logIndex": "0x3b",
          "removed": false
        },
        {
          "address": "0x833589fcd6edb6e08f4c7c32d4f71b54bda02913",
          "topics": [
            "0xddf252ad1be2c89b69c2b068fc378daa952ba7f163c4a11628f55a4df523b3ef",
            "0x0000000000000000000000006539519e69343535a2af6583d9bae3ad74c6a293",
            "0x000000000000000000000000bbbbbbbbbb9cc5e90e3b3af64bdaf62c37eeffcb"
          ],
          "data": "0x00000000000000000000000000000000000000000000000000000000000e15f3",
          "blockHash": "0x52e42ed1c85ebc957a821988f9e3061c189e90cf8fb38dd5c453f7fdd2eb851e",
          "blockNumber": "0x208987f",
          "blockTimestamp": "0x689b8de1",
          "transactionHash": "0xc5af91236741a7e34d469541a7052d1bd1fb93411954660bb52ffc52a4f30e41",
          "transactionIndex": "0x16",
          "logIndex": "0x3c",
          "removed": false
        }
      ],
      "logsBloom": "0x00000000000000000000000000000080000000000000000000000000000000000080400000000100000000000000100000000000000000000000000020804000000000000010000000000008800000000000000800080000000000082000000000800000000000000000000000000000000000000000000000000010000000000000000000000008000000000000004000000000000000000008000000000000000000000000000000000000000000000000400000000000000000000000000020000002000000000000000000000000000100000000000000000000000000400000000001100000000000200001000000000000000000000000000000000000",
      "type": "0x2",
      "transactionHash": "0xc5af91236741a7e34d469541a7052d1bd1fb93411954660bb52ffc52a4f30e41",
      "transactionIndex": "0x16",
      "blockHash": "0x52e42ed1c85ebc957a821988f9e3061c189e90cf8fb38dd5c453f7fdd2eb851e",
      "blockNumber": "0x208987f",
      "gasUsed": "0x1e051",
      "effectiveGasPrice": "0xae04bc",
      "from": "0x6539519e69343535a2af6583d9bae3ad74c6a293",
      "to": "0xbbbbbbbbbb9cc5e90e3b3af64bdaf62c37eeffcb",
      "contractAddress": null,
      "l1BaseFeeScalar": "0x8dd",
      "l1BlobBaseFee": "0x1",
      "l1BlobBaseFeeScalar": "0x101c12",
      "l1Fee": "0x3d20c48e0",
      "l1GasPrice": "0x8c9532cb",
      "l1GasUsed": "0xbfa"
    }
  ],
  "libraries": [],
  "pending": [],
  "returns": {},
  "timestamp": 1755024863,
  "chain": 8453,
  "commit": "909bf95"
}