{
  "transactions": [
    {
      "hash": "0x82474c68b5ffc3863ec122538467717cc37333ff862e0973772b85e208986421",
      "transactionType": "CALL",
      "contractName": null,
      "contractAddress": "0x4200000000000000000000000000000000000006",
      "function": "approve(address,uint256)",
      "arguments": [
        "0xBBBBBbbBBb9cC5e90e3b3Af64bdAF62C37EEFFCb",
        "153429000000000"
      ],
      "transaction": {
        "from": "0x6539519e69343535a2af6583d9bae3ad74c6a293",
        "to": "0x4200000000000000000000000000000000000006",
        "gas": "0x106e6",
        "value": "0x0",
        "input": "0x095ea7b3000000000000000000000000bbbbbbbbbb9cc5e90e3b3af64bdaf62c37eeffcb00000000000000000000000000000000000000000000000000008b8af90b1200",
        "nonce": "0x2d",
        "chainId": "0x2105"
      },
      "additionalContracts": [],
      "isFixedGasLimit": false
    },
    {
      "hash": "0xff07b907a20b5cd294da596380050750c79bf2f9d362e1e77ec39db01c0addab",
      "transactionType": "CALL",
      "contractName": null,
      "contractAddress": "0xbbbbbbbbbb9cc5e90e3b3af64bdaf62c37eeffcb",
      "function": "supply((address,address,address,address,uint256),uint256,uint256,address,bytes)",
      "arguments": [
        "(0x4200000000000000000000000000000000000006, 0x3A43AEC53490CB9Fa922847385D82fe25d0E9De7, 0xBF991c8c88Be948881a4D2168f7b7f3E1ee71DBC, 0x46415998764C29aB2a25CbeA6254146D50D22687, 915000000000000000)",
        "153429000000000",
        "0",
        "0x6539519E69343535a2aF6583D9BAE3AD74c6A293",
        "0x"
      ],
      "transaction": {
        "from": "0x6539519e69343535a2af6583d9bae3ad74c6a293",
        "to": "0xbbbbbbbbbb9cc5e90e3b3af64bdaf62c37eeffcb",
        "gas": "0x299fd",
        "value": "0x0",
        "input": "0xa99aad8900000000000000000000000042000000000000000000000000000000000000060000000000000000000000003a43aec53490cb9fa922847385d82fe25d0e9de7000000000000000000000000bf991c8c88be948881a4d2168f7b7f3e1ee71dbc00000000000000000000000046415998764c29ab2a25cbea6254146d50d226870000000000000000000000000000000000000000000000000cb2bba6f17b800000000000000000000000000000000000000000000000000000008b8af90b120000000000000000000000000000000000000000000000000000000000000000000000000000000000000000006539519e69343535a2af6583d9bae3ad74c6a29300000000000000000000000000000000000000000000000000000000000001200000000000000000000000000000000000000000000000000000000000000000",
        "nonce": "0x2e",
        "chainId": "0x2105"
      },
      "additionalContracts": [],
      "isFixedGasLimit": false
    }
  ],
  "receipts": [
    {
      "status": "0x1",
      "cumulativeGasUsed": "0x2af90dd",
      "logs": [
        {
          "address": "0x4200000000000000000000000000000000000006",
          "topics": [
            "0x8c5be1e5ebec7d5bd14f71427d1e84f3dd0314c0f7b2291e5b200ac8c7c3b925",
            "0x0000000000000000000000006539519e69343535a2af6583d9bae3ad74c6a293",
            "0x000000000000000000000000bbbbbbbbbb9cc5e90e3b3af64bdaf62c37eeffcb"
          ],
          "data": "0x00000000000000000000000000000000000000000000000000008b8af90b1200",
          "blockHash": "0x6b2d4c8831bb5324a247ccdd0113c463065d3875a7d2504249745d25709e5ae5",
          "blockNumber": "0x208a14f",
          "blockTimestamp": "0x689b9f81",
          "transactionHash": "0x82474c68b5ffc3863ec122538467717cc37333ff862e0973772b85e208986421",
          "transactionIndex": "0xd2",
          "logIndex": "0x338",
          "removed": false
        }
      ],
      "logsBloom": "0x00000000000000000000000000000080000000000000000000040000000000000080000000000100000000100000000000000000000000000000000000200000000000000000000000000000000000000000000000000000000000000000000000000000000000000000000000000000000000000000000000000000000000000000000000000000000000000000000000000000002000000000000000000000020000000000000000000000000000000000000000000000000000000000000000000000000000000000000000000000000000000000000000000000000000000010000001100000000000200000000000000000000000000000000000000000",
      "type": "0x2",
      "transactionHash": "0x82474c68b5ffc3863ec122538467717cc37333ff862e0973772b85e208986421",
      "transactionIndex": "0xd2",
      "blockHash": "0x6b2d4c8831bb5324a247ccdd0113c463065d3875a7d2504249745d25709e5ae5",
      "blockNumber": "0x208a14f",
      "gasUsed": "0xb3c3",
      "effectiveGasPrice": "0x72dfb3",
      "from": "0x6539519e69343535a2af6583d9bae3ad74c6a293",
      "to": "0x4200000000000000000000000000000000000006",
      "contractAddress": null,
      "l1BaseFeeScalar": "0x8dd",
      "l1BlobBaseFee": "0x1",
      "l1BlobBaseFeeScalar": "0x101c12",
      "l1Fee": "0x18f85ba8a",
      "l1GasPrice": "0x6e0c93f6",
      "l1GasUsed": "0x640"
    },
    {
      "status": "0x1",
      "cumulativeGasUsed": "0x2b1583e",
      "logs": [
        {
          "address": "0x46415998764c29ab2a25cbea6254146d50d22687",
          "topics": [
            "0x7120161a7b3d31251e01294ab351ef15a41b91659a36032e4641bb89b121e321",
            "0x94f344f8db8c950faa45206c269dd0c2787a86ae3a7b988423e1e6e8173ae269"
          ],
          "data": "0x0000000000000000000000000000000000000000000000000000000012dfd518000000000000000000000000000000000000000000000000000000004b648e84",
          "blockHash": "0x6b2d4c8831bb5324a247ccdd0113c463065d3875a7d2504249745d25709e5ae5",
          "blockNumber": "0x208a14f",
          "blockTimestamp": "0x689b9f81",
          "transactionHash": "0xff07b907a20b5cd294da596380050750c79bf2f9d362e1e77ec39db01c0addab",
          "transactionIndex": "0xd3",
          "logIndex": "0x339",
          "removed": false
        },
        {
          "address": "0xbbbbbbbbbb9cc5e90e3b3af64bdaf62c37eeffcb",
          "topics": [
            "0x9d9bd501d0657d7dfe415f779a620a62b78bc508ddc0891fbbd8b7ac0f8fce87",
            "0x94f344f8db8c950faa45206c269dd0c2787a86ae3a7b988423e1e6e8173ae269"
          ],
          "data": "0x0000000000000000000000000000000000000000000000000000000012dfd51800000000000000000000000000000000000000000000000000000000000000000000000000000000000000000000000000000000000000000000000000000000",
          "blockHash": "0x6b2d4c8831bb5324a247ccdd0113c463065d3875a7d2504249745d25709e5ae5",
          "blockNumber": "0x208a14f",
          "blockTimestamp": "0x689b9f81",
          "transactionHash": "0xff07b907a20b5cd294da596380050750c79bf2f9d362e1e77ec39db01c0addab",
          "transactionIndex": "0xd3",
          "logIndex": "0x33a",
          "removed": false
        },
        {
          "address": "0xbbbbbbbbbb9cc5e90e3b3af64bdaf62c37eeffcb",
          "topics": [
            "0xedf8870433c83823eb071d3df1caa8d008f12f6440918c20d75a3602cda30fe0",
            "0x94f344f8db8c950faa45206c269dd0c2787a86ae3a7b988423e1e6e8173ae269",
            "0x0000000000000000000000006539519e69343535a2af6583d9bae3ad74c6a293",
            "0x0000000000000000000000006539519e69343535a2af6583d9bae3ad74c6a293"
          ],
          "data": "0x00000000000000000000000000000000000000000000000000008b8af90b120000000000000000000000000000000000000000000000000851414e992b688000",
          "blockHash": "0x6b2d4c8831bb5324a247ccdd0113c463065d3875a7d2504249745d25709e5ae5",
          "blockNumber": "0x208a14f",
          "blockTimestamp": "0x689b9f81",
          "transactionHash": "0xff07b907a20b5cd294da596380050750c79bf2f9d362e1e77ec39db01c0addab",
          "transactionIndex": "0xd3",
          "logIndex": "0x33b",
          "removed": false
        },
        {
          "address": "0x4200000000000000000000000000000000000006",
          "topics": [
            "0xddf252ad1be2c89b69c2b068fc378daa952ba7f163c4a11628f55a4df523b3ef",
            "0x0000000000000000000000006539519e69343535a2af6583d9bae3ad74c6a293",
            "0x000000000000000000000000bbbbbbbbbb9cc5e90e3b3af64bdaf62c37eeffcb"
          ],
          "data": "0x00000000000000000000000000000000000000000000000000008b8af90b1200",
          "blockHash": "0x6b2d4c8831bb5324a247ccdd0113c463065d3875a7d2504249745d25709e5ae5",
          "blockNumber": "0x208a14f",
          "blockTimestamp": "0x689b9f81",
          "transactionHash": "0xff07b907a20b5cd294da596380050750c79bf2f9d362e1e77ec39db01c0addab",
          "transactionIndex": "0xd3",
          "logIndex": "0x33c",
          "removed": false
        }
      ],
      "logsBloom": "0x00000000000000000000000000000080000000000000000000040000000000000080400000000100000000100000000000000400000000000010000020804000000000000010000000000008800000000000000800000000000000080000000000000000000000000000000000000000000000000000000000000010000000000000000000000008000000000000000000000000002000000008000000000000000000000000000000000000000000000000000000000000000000000000000020000082000000000000000000000000000100000000000000000000000000400000000001100000000000200001000000000000000000000000000000000000",
      "type": "0x2",
      "transactionHash": "0xff07b907a20b5cd294da596380050750c79bf2f9d362e1e77ec39db01c0addab",
      "transactionIndex": "0xd3",
      "blockHash": "0x6b2d4c8831bb5324a247ccdd0113c463065d3875a7d2504249745d25709e5ae5",
      "blockNumber": "0x208a14f",
      "gasUsed": "0x1c761",
      "effectiveGasPrice": "0x72dfb3",
      "from": "0x6539519e69343535a2af6583d9bae3ad74c6a293",
      "to": "0xbbbbbbbbbb9cc5e90e3b3af64bdaf62c37eeffcb",
      "contractAddress": null,
      "l1BaseFeeScalar": "0x8dd",
      "l1BlobBaseFee": "0x1",
      "l1BlobBaseFeeScalar": "0x101c12",
      "l1Fee": "0x2d8dc39fb",
      "l1GasPrice": "0x6e0c93f6",
      "l1GasUsed": "0xb66"
    }
  ],
  "libraries": [],
  "pending": [],
  "returns": {},
  "timestamp": 1755029379,
  "chain": 8453,
  "commit": "596d8a9"
}