{
  "transactions": [
    {
      "hash": "0x820056402e74021ad08930ad69bb183c3790604b1653bf7b3e4a355f2e3de578",
      "transactionType": "CALL",
      "contractName": null,
      "contractAddress": "0xbbbbbbbbbb9cc5e90e3b3af64bdaf62c37eeffcb",
      "function": "borrow((address,address,address,address,uint256),uint256,uint256,address,address)",
      "arguments": [
        "(0xA0b86991c6218b36c1d19D4a2e9Eb0cE3606eB48, 0x3928cbCcC982EFbaDBc004977827325B0BE4c346, 0xA9F505fA754C6D1164127A9Ba4496a0B5d980D33, 0x870aC11D48B15DB9a138Cf899d20F13F79Ba00BC, 915000000000000000)",
        "900000",
        "0",
        "0x6539519E69343535a2aF6583D9BAE3AD74c6A293",
        "0x6539519E69343535a2aF6583D9BAE3AD74c6A293"
      ],
      "transaction": {
        "from": "0x6539519e69343535a2af6583d9bae3ad74c6a293",
        "to": "0xbbbbbbbbbb9cc5e90e3b3af64bdaf62c37eeffcb",
        "gas": "0x589dd",
        "value": "0x0",
        "input": "0x50d8cd4b000000000000000000000000a0b86991c6218b36c1d19d4a2e9eb0ce3606eb480000000000000000000000003928cbccc982efbadbc004977827325b0be4c346000000000000000000000000a9f505fa754c6d1164127a9ba4496a0b5d980d33000000000000000000000000870ac11d48b15db9a138cf899d20f13f79ba00bc0000000000000000000000000000000000000000000000000cb2bba6f17b800000000000000000000000000000000000000000000000000000000000000dbba000000000000000000000000000000000000000000000000000000000000000000000000000000000000000006539519e69343535a2af6583d9bae3ad74c6a2930000000000000000000000006539519e69343535a2af6583d9bae3ad74c6a293",
        "nonce": "0x47",
        "chainId": "0x1"
      },
      "additionalContracts": [],
      "isFixedGasLimit": false
    }
  ],
  "receipts": [
    {
      "status": "0x1",
      "cumulativeGasUsed": "0x136fa92",
      "logs": [
        {
          "address": "0x870ac11d48b15db9a138cf899d20f13f79ba00bc",
          "topics": [
            "0x7120161a7b3d31251e01294ab351ef15a41b91659a36032e4641bb89b121e321",
            "0x41af37b39c4369160933b9a7523c54ca5ec9d83fe39aada8ff8cc75426290582"
          ],
          "data": "0x0000000000000000000000000000000000000000000000000000000012e1edf9000000000000000000000000000000000000000000000000000000004b86fb8d",
          "blockHash": "0xffca971ee342bbb36695bce8b6a23879f4acb8507e255d53bdb96f82d2960afb",
          "blockNumber": "0x162a642",
          "blockTimestamp": "0x68b0ca33",
          "transactionHash": "0x820056402e74021ad08930ad69bb183c3790604b1653bf7b3e4a355f2e3de578",
          "transactionIndex": "0xbf",
          "logIndex": "0x3e8",
          "removed": false
        },
        {
          "address": "0xbbbbbbbbbb9cc5e90e3b3af64bdaf62c37eeffcb",
          "topics": [
            "0x9d9bd501d0657d7dfe415f779a620a62b78bc508ddc0891fbbd8b7ac0f8fce87",
            "0x41af37b39c4369160933b9a7523c54ca5ec9d83fe39aada8ff8cc75426290582"
          ],
          "data": "0x0000000000000000000000000000000000000000000000000000000012e1edf900000000000000000000000000000000000000000000000000000000000000000000000000000000000000000000000000000000000000000000000000000000",
          "blockHash": "0xffca971ee342bbb36695bce8b6a23879f4acb8507e255d53bdb96f82d2960afb",
          "blockNumber": "0x162a642",
          "blockTimestamp": "0x68b0ca33",
          "transactionHash": "0x820056402e74021ad08930ad69bb183c3790604b1653bf7b3e4a355f2e3de578",
          "transactionIndex": "0xbf",
          "logIndex": "0x3e9",
          "removed": false
        },
        {
          "address": "0xbbbbbbbbbb9cc5e90e3b3af64bdaf62c37eeffcb",
          "topics": [
            "0x570954540bed6b1304a87dfe815a5eda4a648f7097a16240dcd85c9b5fd42a43",
            "0x41af37b39c4369160933b9a7523c54ca5ec9d83fe39aada8ff8cc75426290582",
            "0x0000000000000000000000006539519e69343535a2af6583d9bae3ad74c6a293",
            "0x0000000000000000000000006539519e69343535a2af6583d9bae3ad74c6a293"
          ],
          "data": "0x0000000000000000000000006539519e69343535a2af6583d9bae3ad74c6a29300000000000000000000000000000000000000000000000000000000000dbba0000000000000000000000000000000000000000000000000000000d18c2e2800",
          "blockHash": "0xffca971ee342bbb36695bce8b6a23879f4acb8507e255d53bdb96f82d2960afb",
          "blockNumber": "0x162a642",
          "blockTimestamp": "0x68b0ca33",
          "transactionHash": "0x820056402e74021ad08930ad69bb183c3790604b1653bf7b3e4a355f2e3de578",
          "transactionIndex": "0xbf",
          "logIndex": "0x3ea",
          "removed": false
        },
        {
          "address": "0xa0b86991c6218b36c1d19d4a2e9eb0ce3606eb48",
          "topics": [
            "0xddf252ad1be2c89b69c2b068fc378daa952ba7f163c4a11628f55a4df523b3ef",
            "0x000000000000000000000000bbbbbbbbbb9cc5e90e3b3af64bdaf62c37eeffcb",
            "0x0000000000000000000000006539519e69343535a2af6583d9bae3ad74c6a293"
          ],
          "data": "0x00000000000000000000000000000000000000000000000000000000000dbba0",
          "blockHash": "0xffca971ee342bbb36695bce8b6a23879f4acb8507e255d53bdb96f82d2960afb",
          "blockNumber": "0x162a642",
          "blockTimestamp": "0x68b0ca33",
          "transactionHash": "0x820056402e74021ad08930ad69bb183c3790604b1653bf7b3e4a355f2e3de578",
          "transactionIndex": "0xbf",
          "logIndex": "0x3eb",
          "removed": false
        }
      ],
      "logsBloom": "0x000000000000000000020000000000800000000000000000000000000000000000804000000001000000000000000000000000000000000000000000208440000000000000100000080000080000000000000000002000000000000800000000000000000000000000000000000000800000000000000000000000100000000000000000000000080000000000000000000000000100000000000000000000000000000000002000000000000000000000000000000000000000000000000000a0002002000000000001000000000000000000000000000000000000000000000000004001100008000000200001000000000000000000000000000000000000",
      "type": "0x2",
      "transactionHash": "0x820056402e74021ad08930ad69bb183c3790604b1653bf7b3e4a355f2e3de578",
      "transactionIndex": "0xbf",
      "blockHash": "0xffca971ee342bbb36695bce8b6a23879f4acb8507e255d53bdb96f82d2960afb",
      "blockNumber": "0x162a642",
      "gasUsed": "0x3c97b",
      "effectiveGasPrice": "0xf9f5691",
      "from": "0x6539519e69343535a2af6583d9bae3ad74c6a293",
      "to": "0xbbbbbbbbbb9cc5e90e3b3af64bdaf62c37eeffcb",
      "contractAddress": null
    }
  ],
  "libraries": [],
  "pending": [],
  "returns": {},
  "timestamp": 1756416566,
  "chain": 1,
  "commit": "50a0c38"
}