{
  "transactions": [
    {
      "hash": "0xc3162e08faec7629393958fffec2c4caa369cb6fae061128d539d1a3cb8e0576",
      "transactionType": "CALL",
      "contractName": null,
      "contractAddress": "0xbbbbbbbbbb9cc5e90e3b3af64bdaf62c37eeffcb",
      "function": "borrow((address,address,address,address,uint256),uint256,uint256,address,address)",
      "arguments": [
        "(0xA0b86991c6218b36c1d19D4a2e9Eb0cE3606eB48, 0x9eBb9230276e858eFb8209618055ADD25a2bf41B, 0x6ac3F157419DFA455b81813B544B7568f52891f7, 0x870aC11D48B15DB9a138Cf899d20F13F79Ba00BC, 915000000000000000)",
        "900000",
        "0",
        "0x6539519E69343535a2aF6583D9BAE3AD74c6A293",
        "0x6539519E69343535a2aF6583D9BAE3AD74c6A293"
      ],
      "transaction": {
        "from": "0x6539519e69343535a2af6583d9bae3ad74c6a293",
        "to": "0xbbbbbbbbbb9cc5e90e3b3af64bdaf62c37eeffcb",
        "gas": "0x4b58f",
        "value": "0x0",
        "input": "0x50d8cd4b000000000000000000000000a0b86991c6218b36c1d19d4a2e9eb0ce3606eb480000000000000000000000009ebb9230276e858efb8209618055add25a2bf41b0000000000000000000000006ac3f157419dfa455b81813b544b7568f52891f7000000000000000000000000870ac11d48b15db9a138cf899d20f13f79ba00bc0000000000000000000000000000000000000000000000000cb2bba6f17b800000000000000000000000000000000000000000000000000000000000000dbba000000000000000000000000000000000000000000000000000000000000000000000000000000000000000006539519e69343535a2af6583d9bae3ad74c6a2930000000000000000000000006539519e69343535a2af6583d9bae3ad74c6a293",
        "nonce": "0x32",
        "chainId": "0x1"
      },
      "additionalContracts": [],
      "isFixedGasLimit": false
    }
  ],
  "receipts": [
    {
      "status": "0x1",
      "cumulativeGasUsed": "0x19d367d",
      "logs": [
        {
          "address": "0x870ac11d48b15db9a138cf899d20f13f79ba00bc",
          "topics": [
            "0x7120161a7b3d31251e01294ab351ef15a41b91659a36032e4641bb89b121e321",
            "0x8fee949ce04cda521a29d5fd9a3b071b80e9246a22db41be2b3f4feae28e86ae"
          ],
          "data": "0x0000000000000000000000000000000000000000000000000000000012dacea5000000000000000000000000000000000000000000000000000000004b69936a",
          "blockHash": "0x710787033a6e8ca3aef44c69c7cf6ef3421faeea2500d1fcea1dba77315c1089",
          "blockNumber": "0x162a25a",
          "blockTimestamp": "0x68b09b2f",
          "transactionHash": "0xc3162e08faec7629393958fffec2c4caa369cb6fae061128d539d1a3cb8e0576",
          "transactionIndex": "0xf3",
          "logIndex": "0x30d",
          "removed": false
        },
        {
          "address": "0xbbbbbbbbbb9cc5e90e3b3af64bdaf62c37eeffcb",
          "topics": [
            "0x9d9bd501d0657d7dfe415f779a620a62b78bc508ddc0891fbbd8b7ac0f8fce87",
            "0x8fee949ce04cda521a29d5fd9a3b071b80e9246a22db41be2b3f4feae28e86ae"
          ],
          "data": "0x0000000000000000000000000000000000000000000000000000000012dacea500000000000000000000000000000000000000000000000000000000000000000000000000000000000000000000000000000000000000000000000000000000",
          "blockHash": "0x710787033a6e8ca3aef44c69c7cf6ef3421faeea2500d1fcea1dba77315c1089",
          "blockNumber": "0x162a25a",
          "blockTimestamp": "0x68b09b2f",
          "transactionHash": "0xc3162e08faec7629393958fffec2c4caa369cb6fae061128d539d1a3cb8e0576",
          "transactionIndex": "0xf3",
          "logIndex": "0x30e",
          "removed": false
        },
        {
          "address": "0xbbbbbbbbbb9cc5e90e3b3af64bdaf62c37eeffcb",
          "topics": [
            "0x570954540bed6b1304a87dfe815a5eda4a648f7097a16240dcd85c9b5fd42a43",
            "0x8fee949ce04cda521a29d5fd9a3b071b80e9246a22db41be2b3f4feae28e86ae",
            "0x0000000000000000000000006539519e69343535a2af6583d9bae3ad74c6a293",
            "0x0000000000000000000000006539519e69343535a2af6583d9bae3ad74c6a293"
          ],
          "data": "0x0000000000000000000000006539519e69343535a2af6583d9bae3ad74c6a29300000000000000000000000000000000000000000000000000000000000dbba0000000000000000000000000000000000000000000000000000000d18c2e2800",
          "blockHash": "0x710787033a6e8ca3aef44c69c7cf6ef3421faeea2500d1fcea1dba77315c1089",
          "blockNumber": "0x162a25a",
          "blockTimestamp": "0x68b09b2f",
          "transactionHash": "0xc3162e08faec7629393958fffec2c4caa369cb6fae061128d539d1a3cb8e0576",
          "transactionIndex": "0xf3",
          "logIndex": "0x30f",
          "removed": false
        },
        {
          "address": "0xa0b86991c6218b36c1d19d4a2e9eb0ce3606eb48",
          "topics": [
            "0xddf252ad1be2c89b69c2b068fc378daa952ba7f163c4a11628f55a4df523b3ef",
            "0x000000000000000000000000bbbbbbbbbb9cc5e90e3b3af64bdaf62c37eeffcb",
            "0x0000000000000000000000006539519e69343535a2af6583d9bae3ad74c6a293"
          ],
          "data": "0x00000000000000000000000000000000000000000000000000000000000dbba0",
          "blockHash": "0x710787033a6e8ca3aef44c69c7cf6ef3421faeea2500d1fcea1dba77315c1089",
          "blockNumber": "0x162a25a",
          "blockTimestamp": "0x68b09b2f",
          "transactionHash": "0xc3162e08faec7629393958fffec2c4caa369cb6fae061128d539d1a3cb8e0576",
          "transactionIndex": "0xf3",
          "logIndex": "0x310",
          "removed": false
        }
      ],
      "logsBloom": "0x00000000000000000002000000000080000000000000000000000000000000000080400000000100000000000000000000000000000000000000000020844000000000000010000008000008000000000000000000200000000000080008000000000000000000000000000000000000000000000000000000000010020000000000000000000008000000000000000000000000010000000000000000000000000000000000200000000000000000000000000000000000000000000000000020000002000000000001000000000000000000000000000000000000000000000000004001100008000000200001000000000000000000000002000000000000",
      "type": "0x2",
      "transactionHash": "0xc3162e08faec7629393958fffec2c4caa369cb6fae061128d539d1a3cb8e0576",
      "transactionIndex": "0xf3",
      "blockHash": "0x710787033a6e8ca3aef44c69c7cf6ef3421faeea2500d1fcea1dba77315c1089",
      "blockNumber": "0x162a25a",
      "gasUsed": "0x368cf",
      "effectiveGasPrice": "0x3447e352",
      "from": "0x6539519e69343535a2af6583d9bae3ad74c6a293",
      "to": "0xbbbbbbbbbb9cc5e90e3b3af64bdaf62c37eeffcb",
      "contractAddress": null
    }
  ],
  "libraries": [],
  "pending": [],
  "returns": {},
  "timestamp": 1756404531,
  "chain": 1,
  "commit": "0567491"
}