{
  "transactions": [
    {
      "hash": "0x2e58fe0816ca2f4e368047aaee0ecdc8672cd169d09ca084e67fc928e35d2aba",
      "transactionType": "CALL",
      "contractName": null,
      "contractAddress": "0xbbbbbbbbbb9cc5e90e3b3af64bdaf62c37eeffcb",
      "function": "borrow((address,address,address,address,uint256),uint256,uint256,address,address)",
      "arguments": [
        "(0x6440f144b7e50D6a8439336510312d2F54beB01D, 0x23346B04a7f55b8760E5860AA5A77383D63491cD, 0x173b7573B2604eEd1B36c88902b236af54B02ef4, 0x870aC11D48B15DB9a138Cf899d20F13F79Ba00BC, 915000000000000000)",
        "900000000000000000",
        "0",
        "0x6539519E69343535a2aF6583D9BAE3AD74c6A293",
        "0x6539519E69343535a2aF6583D9BAE3AD74c6A293"
      ],
      "transaction": {
        "from": "0x6539519e69343535a2af6583d9bae3ad74c6a293",
        "to": "0xbbbbbbbbbb9cc5e90e3b3af64bdaf62c37eeffcb",
        "gas": "0x3471e",
        "value": "0x0",
        "input": "0x50d8cd4b0000000000000000000000006440f144b7e50d6a8439336510312d2f54beb01d00000000000000000000000023346b04a7f55b8760e5860aa5a77383d63491cd000000000000000000000000173b7573b2604eed1b36c88902b236af54b02ef4000000000000000000000000870ac11d48b15db9a138cf899d20f13f79ba00bc0000000000000000000000000000000000000000000000000cb2bba6f17b80000000000000000000000000000000000000000000000000000c7d713b49da000000000000000000000000000000000000000000000000000000000000000000000000000000000000000000006539519e69343535a2af6583d9bae3ad74c6a2930000000000000000000000006539519e69343535a2af6583d9bae3ad74c6a293",
        "nonce": "0x1b",
        "chainId": "0x1"
      },
      "additionalContracts": [],
      "isFixedGasLimit": false
    }
  ],
  "receipts": [
    {
      "status": "0x1",
      "cumulativeGasUsed": "0x1b32555",
      "logs": [
        {
          "address": "0x870ac11d48b15db9a138cf899d20f13f79ba00bc",
          "topics": [
            "0x7120161a7b3d31251e01294ab351ef15a41b91659a36032e4641bb89b121e321",
            "0xda6e6163096ebbcf1fe1d1ff872bd2d3bded1434f189a4648371336340257acd"
          ],
          "data": "0x000000000000000000000000000000000000000000000000000000001277638c0000000000000000000000000000000000000000000000000000000049dbefbe",
          "blockHash": "0xfaab941f7ffd59d7c6f50c8a0b122dd210378ef56572cdb12db0f8065b340c97",
          "blockNumber": "0x15bba26",
          "blockTimestamp": "0x685d3e37",
          "transactionHash": "0x2e58fe0816ca2f4e368047aaee0ecdc8672cd169d09ca084e67fc928e35d2aba",
          "transactionIndex": "0xb1",
          "logIndex": "0x22b",
          "removed": false
        },
        {
          "address": "0xbbbbbbbbbb9cc5e90e3b3af64bdaf62c37eeffcb",
          "topics": [
            "0x9d9bd501d0657d7dfe415f779a620a62b78bc508ddc0891fbbd8b7ac0f8fce87",
            "0xda6e6163096ebbcf1fe1d1ff872bd2d3bded1434f189a4648371336340257acd"
          ],
          "data": "0x000000000000000000000000000000000000000000000000000000001277638c00000000000000000000000000000000000000000000000000000000000000000000000000000000000000000000000000000000000000000000000000000000",
          "blockHash": "0xfaab941f7ffd59d7c6f50c8a0b122dd210378ef56572cdb12db0f8065b340c97",
          "blockNumber": "0x15bba26",
          "blockTimestamp": "0x685d3e37",
          "transactionHash": "0x2e58fe0816ca2f4e368047aaee0ecdc8672cd169d09ca084e67fc928e35d2aba",
          "transactionIndex": "0xb1",
          "logIndex": "0x22c",
          "removed": false
        },
        {
          "address": "0xbbbbbbbbbb9cc5e90e3b3af64bdaf62c37eeffcb",
          "topics": [
            "0x570954540bed6b1304a87dfe815a5eda4a648f7097a16240dcd85c9b5fd42a43",
            "0xda6e6163096ebbcf1fe1d1ff872bd2d3bded1434f189a4648371336340257acd",
            "0x0000000000000000000000006539519e69343535a2af6583d9bae3ad74c6a293",
            "0x0000000000000000000000006539519e69343535a2af6583d9bae3ad74c6a293"
          ],
          "data": "0x0000000000000000000000006539519e69343535a2af6583d9bae3ad74c6a2930000000000000000000000000000000000000000000000000c7d713b49da000000000000000000000000000000000000000000000000be951906eba2aa800000",
          "blockHash": "0xfaab941f7ffd59d7c6f50c8a0b122dd210378ef56572cdb12db0f8065b340c97",
          "blockNumber": "0x15bba26",
          "blockTimestamp": "0x685d3e37",
          "transactionHash": "0x2e58fe0816ca2f4e368047aaee0ecdc8672cd169d09ca084e67fc928e35d2aba",
          "transactionIndex": "0xb1",
          "logIndex": "0x22d",
          "removed": false
        },
        {
          "address": "0x6440f144b7e50d6a8439336510312d2f54beb01d",
          "topics": [
            "0xddf252ad1be2c89b69c2b068fc378daa952ba7f163c4a11628f55a4df523b3ef",
            "0x000000000000000000000000bbbbbbbbbb9cc5e90e3b3af64bdaf62c37eeffcb",
            "0x0000000000000000000000006539519e69343535a2af6583d9bae3ad74c6a293"
          ],
          "data": "0x0000000000000000000000000000000000000000000000000c7d713b49da0000",
          "blockHash": "0xfaab941f7ffd59d7c6f50c8a0b122dd210378ef56572cdb12db0f8065b340c97",
          "blockNumber": "0x15bba26",
          "blockTimestamp": "0x685d3e37",
          "transactionHash": "0x2e58fe0816ca2f4e368047aaee0ecdc8672cd169d09ca084e67fc928e35d2aba",
          "transactionIndex": "0xb1",
          "logIndex": "0x22e",
          "removed": false
        }
      ],
      "logsBloom": "0x00000000000000000002000004000080000000000000000000000000000000000080400000000100000000000000000000000000000000000000000020844000000000000010000000000008000000000000000000200000000000080000000000000000000000000000000000000008000000000000000000000010000000010000000000000008000000000000100000000000000000000000000000000000000000000000000000000000000000000000000000000000000000000800000020000002000000000001000008000000000000000000000000000000000000000000004001100008000000200001000000000000000000000000000000000000",
      "type": "0x2",
      "transactionHash": "0x2e58fe0816ca2f4e368047aaee0ecdc8672cd169d09ca084e67fc928e35d2aba",
      "transactionIndex": "0xb1",
      "blockHash": "0xfaab941f7ffd59d7c6f50c8a0b122dd210378ef56572cdb12db0f8065b340c97",
      "blockNumber": "0x15bba26",
      "gasUsed": "0x23dc2",
      "effectiveGasPrice": "0x67aff90b",
      "from": "0x6539519e69343535a2af6583d9bae3ad74c6a293",
      "to": "0xbbbbbbbbbb9cc5e90e3b3af64bdaf62c37eeffcb",
      "contractAddress": null
    }
  ],
  "libraries": [],
  "pending": [],
  "returns": {},
  "timestamp": 1750941242,
  "chain": 1,
  "commit": "77171bc"
}