{
  "transactions": [
    {
      "hash": "0x49d5f8fa17a4954700ad3087940ffa75f16d2c59942b95fbccbc3d22f2c642d7",
      "transactionType": "CALL",
      "contractName": null,
      "contractAddress": "0xbbbbbbbbbb9cc5e90e3b3af64bdaf62c37eeffcb",
      "function": "borrow((address,address,address,address,uint256),uint256,uint256,address,address)",
      "arguments": [
        "(0xA0b86991c6218b36c1d19D4a2e9Eb0cE3606eB48, 0x1dC1b09D656c07404aa2747A9930C0b4D297B4F3, 0x3e14b645856d1cec3C7a61F22312086339d2dc33, 0x870aC11D48B15DB9a138Cf899d20F13F79Ba00BC, 915000000000000000)",
        "900000",
        "0",
        "0x6539519E69343535a2aF6583D9BAE3AD74c6A293",
        "0x6539519E69343535a2aF6583D9BAE3AD74c6A293"
      ],
      "transaction": {
        "from": "0x6539519e69343535a2af6583d9bae3ad74c6a293",
        "to": "0xbbbbbbbbbb9cc5e90e3b3af64bdaf62c37eeffcb",
        "gas": "0x582d0",
        "value": "0x0",
        "input": "0x50d8cd4b000000000000000000000000a0b86991c6218b36c1d19d4a2e9eb0ce3606eb480000000000000000000000001dc1b09d656c07404aa2747a9930c0b4d297b4f30000000000000000000000003e14b645856d1cec3c7a61f22312086339d2dc33000000000000000000000000870ac11d48b15db9a138cf899d20f13f79ba00bc0000000000000000000000000000000000000000000000000cb2bba6f17b800000000000000000000000000000000000000000000000000000000000000dbba000000000000000000000000000000000000000000000000000000000000000000000000000000000000000006539519e69343535a2af6583d9bae3ad74c6a2930000000000000000000000006539519e69343535a2af6583d9bae3ad74c6a293",
        "nonce": "0x56",
        "chainId": "0x1"
      },
      "additionalContracts": [],
      "isFixedGasLimit": false
    }
  ],
  "receipts": [
    {
      "status": "0x1",
      "cumulativeGasUsed": "0x20b2fe9",
      "logs": [
        {
          "address": "0x870ac11d48b15db9a138cf899d20f13f79ba00bc",
          "topics": [
            "0x7120161a7b3d31251e01294ab351ef15a41b91659a36032e4641bb89b121e321",
            "0x5d72e02f3655a343d8477932a8446b1881609c6b4e3044c20d3a5d7e61554cb7"
          ],
          "data": "0x0000000000000000000000000000000000000000000000000000000011b16b420000000000000000000000000000000000000000000000000000000046c1b647",
          "blockHash": "0x177f65204de7575981284d2ebfc39413bca5c295fc10a6adb39545bfbe70f546",
          "blockNumber": "0x162b371",
          "blockTimestamp": "0x68b1690f",
          "transactionHash": "0x49d5f8fa17a4954700ad3087940ffa75f16d2c59942b95fbccbc3d22f2c642d7",
          "transactionIndex": "0x165",
          "logIndex": "0x447",
          "removed": false
        },
        {
          "address": "0xbbbbbbbbbb9cc5e90e3b3af64bdaf62c37eeffcb",
          "topics": [
            "0x9d9bd501d0657d7dfe415f779a620a62b78bc508ddc0891fbbd8b7ac0f8fce87",
            "0x5d72e02f3655a343d8477932a8446b1881609c6b4e3044c20d3a5d7e61554cb7"
          ],
          "data": "0x0000000000000000000000000000000000000000000000000000000011b16b4200000000000000000000000000000000000000000000000000000000000000000000000000000000000000000000000000000000000000000000000000000000",
          "blockHash": "0x177f65204de7575981284d2ebfc39413bca5c295fc10a6adb39545bfbe70f546",
          "blockNumber": "0x162b371",
          "blockTimestamp": "0x68b1690f",
          "transactionHash": "0x49d5f8fa17a4954700ad3087940ffa75f16d2c59942b95fbccbc3d22f2c642d7",
          "transactionIndex": "0x165",
          "logIndex": "0x448",
          "removed": false
        },
        {
          "address": "0xbbbbbbbbbb9cc5e90e3b3af64bdaf62c37eeffcb",
          "topics": [
            "0x570954540bed6b1304a87dfe815a5eda4a648f7097a16240dcd85c9b5fd42a43",
            "0x5d72e02f3655a343d8477932a8446b1881609c6b4e3044c20d3a5d7e61554cb7",
            "0x0000000000000000000000006539519e69343535a2af6583d9bae3ad74c6a293",
            "0x0000000000000000000000006539519e69343535a2af6583d9bae3ad74c6a293"
          ],
          "data": "0x0000000000000000000000006539519e69343535a2af6583d9bae3ad74c6a29300000000000000000000000000000000000000000000000000000000000dbba0000000000000000000000000000000000000000000000000000000d18c2e2800",
          "blockHash": "0x177f65204de7575981284d2ebfc39413bca5c295fc10a6adb39545bfbe70f546",
          "blockNumber": "0x162b371",
          "blockTimestamp": "0x68b1690f",
          "transactionHash": "0x49d5f8fa17a4954700ad3087940ffa75f16d2c59942b95fbccbc3d22f2c642d7",
          "transactionIndex": "0x165",
          "logIndex": "0x449",
          "removed": false
        },
        {
          "address": "0xa0b86991c6218b36c1d19d4a2e9eb0ce3606eb48",
          "topics": [
            "0xddf252ad1be2c89b69c2b068fc378daa952ba7f163c4a11628f55a4df523b3ef",
            "0x000000000000000000000000bbbbbbbbbb9cc5e90e3b3af64bdaf62c37eeffcb",
            "0x0000000000000000000000006539519e69343535a2af6583d9bae3ad74c6a293"
          ],
          "data": "0x00000000000000000000000000000000000000000000000000000000000dbba0",
          "blockHash": "0x177f65204de7575981284d2ebfc39413bca5c295fc10a6adb39545bfbe70f546",
          "blockNumber": "0x162b371",
          "blockTimestamp": "0x68b1690f",
          "transactionHash": "0x49d5f8fa17a4954700ad3087940ffa75f16d2c59942b95fbccbc3d22f2c642d7",
          "transactionIndex": "0x165",
          "logIndex": "0x44a",
          "removed": false
        }
      ],
      "logsBloom": "0x00000000000000000002000000000080000000000000000000000000000000000080400000000100000000000000000000000000000000000000000020844000000000000010000008000008000000000000000000200000000000080000000000000000000000000000800000000000000000000000000000000010000000200000000000000008000000000000000000000000010000000000000000000000000000000000200000000000000000000000000000000000000000000000000020000002000000000001000000000000000400000000000000000000000000000000004001100008000000200001000000000000000000000000000000000000",
      "type": "0x2",
      "transactionHash": "0x49d5f8fa17a4954700ad3087940ffa75f16d2c59942b95fbccbc3d22f2c642d7",
      "transactionIndex": "0x165",
      "blockHash": "0x177f65204de7575981284d2ebfc39413bca5c295fc10a6adb39545bfbe70f546",
      "blockNumber": "0x162b371",
      "gasUsed": "0x3fd68",
      "effectiveGasPrice": "0x15e84b98",
      "from": "0x6539519e69343535a2af6583d9bae3ad74c6a293",
      "to": "0xbbbbbbbbbb9cc5e90e3b3af64bdaf62c37eeffcb",
      "contractAddress": null
    }
  ],
  "libraries": [],
  "pending": [],
  "returns": {},
  "timestamp": 1756457234,
  "chain": 1,
  "commit": "2a7395c"
}