{
  "transactions": [
    {
      "hash": "0x03f3878cdcb4506c734a3ec75f83c7f097c7ed2829cdd761a21ea5c8ecab0951",
      "transactionType": "CALL",
      "contractName": null,
      "contractAddress": "0xbbbbbbbbbb9cc5e90e3b3af64bdaf62c37eeffcb",
      "function": "borrow((address,address,address,address,uint256),uint256,uint256,address,address)",
      "arguments": [
        "(0xA0b86991c6218b36c1d19D4a2e9Eb0cE3606eB48, 0x6F5DdB7689D7bd74D29B7d6A06ceE8e39655a5Dc, 0x540DA4839F752AffEAF525f1af2EcF8F7e55D81f, 0x870aC11D48B15DB9a138Cf899d20F13F79Ba00BC, 915000000000000000)",
        "900000",
        "0",
        "0x6539519E69343535a2aF6583D9BAE3AD74c6A293",
        "0x6539519E69343535a2aF6583D9BAE3AD74c6A293"
      ],
      "transaction": {
        "from": "0x6539519e69343535a2af6583d9bae3ad74c6a293",
        "to": "0xbbbbbbbbbb9cc5e90e3b3af64bdaf62c37eeffcb",
        "gas": "0x4cec1",
        "value": "0x0",
        "input": "0x50d8cd4b000000000000000000000000a0b86991c6218b36c1d19d4a2e9eb0ce3606eb480000000000000000000000006f5ddb7689d7bd74d29b7d6a06cee8e39655a5dc000000000000000000000000540da4839f752affeaf525f1af2ecf8f7e55d81f000000000000000000000000870ac11d48b15db9a138cf899d20f13f79ba00bc0000000000000000000000000000000000000000000000000cb2bba6f17b800000000000000000000000000000000000000000000000000000000000000dbba000000000000000000000000000000000000000000000000000000000000000000000000000000000000000006539519e69343535a2af6583d9bae3ad74c6a2930000000000000000000000006539519e69343535a2af6583d9bae3ad74c6a293",
        "nonce": "0x4e",
        "chainId": "0x1"
      },
      "additionalContracts": [],
      "isFixedGasLimit": false
    }
  ],
  "receipts": [
    {
      "status": "0x1",
      "cumulativeGasUsed": "0xdd7a6c",
      "logs": [
        {
          "address": "0x870ac11d48b15db9a138cf899d20f13f79ba00bc",
          "topics": [
            "0x7120161a7b3d31251e01294ab351ef15a41b91659a36032e4641bb89b121e321",
            "0x1aba34974778fcec0ab70e7e7af67ca3ce444e62580fd351faff86cd222774a9"
          ],
          "data": "0x0000000000000000000000000000000000000000000000000000000012e3dc81000000000000000000000000000000000000000000000000000000004b8eb597",
          "blockHash": "0xa853f507b22d5cd8bdda4924fa508166e32d5e676be3215c76eee8bed74bbd80",
          "blockNumber": "0x162a6a2",
          "blockTimestamp": "0x68b0ceb3",
          "transactionHash": "0x03f3878cdcb4506c734a3ec75f83c7f097c7ed2829cdd761a21ea5c8ecab0951",
          "transactionIndex": "0x92",
          "logIndex": "0x4f8",
          "removed": false
        },
        {
          "address": "0xbbbbbbbbbb9cc5e90e3b3af64bdaf62c37eeffcb",
          "topics": [
            "0x9d9bd501d0657d7dfe415f779a620a62b78bc508ddc0891fbbd8b7ac0f8fce87",
            "0x1aba34974778fcec0ab70e7e7af67ca3ce444e62580fd351faff86cd222774a9"
          ],
          "data": "0x0000000000000000000000000000000000000000000000000000000012e3dc8100000000000000000000000000000000000000000000000000000000000000000000000000000000000000000000000000000000000000000000000000000000",
          "blockHash": "0xa853f507b22d5cd8bdda4924fa508166e32d5e676be3215c76eee8bed74bbd80",
          "blockNumber": "0x162a6a2",
          "blockTimestamp": "0x68b0ceb3",
          "transactionHash": "0x03f3878cdcb4506c734a3ec75f83c7f097c7ed2829cdd761a21ea5c8ecab0951",
          "transactionIndex": "0x92",
          "logIndex": "0x4f9",
          "removed": false
        },
        {
          "address": "0xbbbbbbbbbb9cc5e90e3b3af64bdaf62c37eeffcb",
          "topics": [
            "0x570954540bed6b1304a87dfe815a5eda4a648f7097a16240dcd85c9b5fd42a43",
            "0x1aba34974778fcec0ab70e7e7af67ca3ce444e62580fd351faff86cd222774a9",
            "0x0000000000000000000000006539519e69343535a2af6583d9bae3ad74c6a293",
            "0x0000000000000000000000006539519e69343535a2af6583d9bae3ad74c6a293"
          ],
          "data": "0x0000000000000000000000006539519e69343535a2af6583d9bae3ad74c6a29300000000000000000000000000000000000000000000000000000000000dbba0000000000000000000000000000000000000000000000000000000d18c2e2800",
          "blockHash": "0xa853f507b22d5cd8bdda4924fa508166e32d5e676be3215c76eee8bed74bbd80",
          "blockNumber": "0x162a6a2",
          "blockTimestamp": "0x68b0ceb3",
          "transactionHash": "0x03f3878cdcb4506c734a3ec75f83c7f097c7ed2829cdd761a21ea5c8ecab0951",
          "transactionIndex": "0x92",
          "logIndex": "0x4fa",
          "removed": false
        },
        {
          "address": "0xa0b86991c6218b36c1d19d4a2e9eb0ce3606eb48",
          "topics": [
            "0xddf252ad1be2c89b69c2b068fc378daa952ba7f163c4a11628f55a4df523b3ef",
            "0x000000000000000000000000bbbbbbbbbb9cc5e90e3b3af64bdaf62c37eeffcb",
            "0x0000000000000000000000006539519e69343535a2af6583d9bae3ad74c6a293"
          ],
          "data": "0x00000000000000000000000000000000000000000000000000000000000dbba0",
          "blockHash": "0xa853f507b22d5cd8bdda4924fa508166e32d5e676be3215c76eee8bed74bbd80",
          "blockNumber": "0x162a6a2",
          "blockTimestamp": "0x68b0ceb3",
          "transactionHash": "0x03f3878cdcb4506c734a3ec75f83c7f097c7ed2829cdd761a21ea5c8ecab0951",
          "transactionIndex": "0x92",
          "logIndex": "0x4fb",
          "removed": false
        }
      ],
      "logsBloom": "0x00000000000000000002000000000080000000000000000000000000000000000080400000000100000000000000000000000000000000000000000020944000000000000010000008000008000000000000000000200000000000080000000000000000000000000000000000000000000000000000000000000010000000000000000000000008000000000000000000000000010000000000000000000000000000000000200000000000000000000000000000000000000000000000000020000002000800000001000000000000000000000000000000000000000000000000004001100008000000200001000000000000010000000000000000000000",
      "type": "0x2",
      "transactionHash": "0x03f3878cdcb4506c734a3ec75f83c7f097c7ed2829cdd761a21ea5c8ecab0951",
      "transactionIndex": "0x92",
      "blockHash": "0xa853f507b22d5cd8bdda4924fa508166e32d5e676be3215c76eee8bed74bbd80",
      "blockNumber": "0x162a6a2",
      "gasUsed": "0x37b0c",
      "effectiveGasPrice": "0x127bcb2f",
      "from": "0x6539519e69343535a2af6583d9bae3ad74c6a293",
      "to": "0xbbbbbbbbbb9cc5e90e3b3af64bdaf62c37eeffcb",
      "contractAddress": null
    }
  ],
  "libraries": [],
  "pending": [],
  "returns": {},
  "timestamp": 1756417717,
  "chain": 1,
  "commit": "2a7395c"
}