{
  "transactions": [
    {
      "hash": "0x516f9b65e623947baeddf0e27efc9f9197cfb19ecaa84f8f9395bf09dea2ff7c",
      "transactionType": "CALL",
      "contractName": null,
      "contractAddress": "0xa4ca2c2e25b97da19879201ba49422bc6f181f42",
      "function": "borrow((address,address,address,address,uint256),uint256,uint256,address,address)",
      "arguments": [
        "(0xad11a8BEb98bbf61dbb1aa0F6d6F2ECD87b35afA, 0x4200000000000000000000000000000000000006, 0x294d56f3EE59Ec9CCbAdB3f1051390293c448892, 0xdEbdEa31624552DF904A065221cD14088ABDeD70, 860000000000000000)",
        "49950",
        "0",
        "0x6539519E69343535a2aF6583D9BAE3AD74c6A293",
        "0x6539519E69343535a2aF6583D9BAE3AD74c6A293"
      ],
      "transaction": {
        "from": "0x6539519e69343535a2af6583d9bae3ad74c6a293",
        "to": "0xa4ca2c2e25b97da19879201ba49422bc6f181f42",
        "gas": "0x34632",
        "value": "0x0",
        "input": "0x50d8cd4b000000000000000000000000ad11a8beb98bbf61dbb1aa0f6d6f2ecd87b35afa0000000000000000000000004200000000000000000000000000000000000006000000000000000000000000294d56f3ee59ec9ccbadb3f1051390293c448892000000000000000000000000debdea31624552df904a065221cd14088abded700000000000000000000000000000000000000000000000000bef55718ad60000000000000000000000000000000000000000000000000000000000000000c31e00000000000000000000000000000000000000000000000000000000000000000000000000000000000000006539519e69343535a2af6583d9bae3ad74c6a2930000000000000000000000006539519e69343535a2af6583d9bae3ad74c6a293",
        "nonce": "0x10",
        "chainId": "0xa867"
      },
      "additionalContracts": [],
      "isFixedGasLimit": false
    }
  ],
  "receipts": [
    {
      "status": "0x1",
      "cumulativeGasUsed": "0x719dc",
      "logs": [
        {
          "address": "0xdebdea31624552df904a065221cd14088abded70",
          "topics": [
            "0x7120161a7b3d31251e01294ab351ef15a41b91659a36032e4641bb89b121e321",
            "0x08abb2b634eb6454a5819dbaa5c0229136989a9990ed757727c406dbcb4e606b"
          ],
          "data": "0x0000000000000000000000000000000000000000000000000000000012bcd57d000000000000000000000000000000000000000000000000000000004abf8882",
          "blockHash": "0x88c08fabcc680242fdc0d3b4ca101e83a775a2e882b29ab0d47ff46f0cbfd382",
          "blockNumber": "0x287b51",
          "transactionHash": "0x516f9b65e623947baeddf0e27efc9f9197cfb19ecaa84f8f9395bf09dea2ff7c",
          "transactionIndex": "0x4",
          "logIndex": "0x3",
          "removed": false
        },
        {
          "address": "0xa4ca2c2e25b97da19879201ba49422bc6f181f42",
          "topics": [
            "0x9d9bd501d0657d7dfe415f779a620a62b78bc508ddc0891fbbd8b7ac0f8fce87",
            "0x08abb2b634eb6454a5819dbaa5c0229136989a9990ed757727c406dbcb4e606b"
          ],
          "data": "0x0000000000000000000000000000000000000000000000000000000012bcd57d00000000000000000000000000000000000000000000000000000000000000000000000000000000000000000000000000000000000000000000000000000000",
          "blockHash": "0x88c08fabcc680242fdc0d3b4ca101e83a775a2e882b29ab0d47ff46f0cbfd382",
          "blockNumber": "0x287b51",
          "transactionHash": "0x516f9b65e623947baeddf0e27efc9f9197cfb19ecaa84f8f9395bf09dea2ff7c",
          "transactionIndex": "0x4",
          "logIndex": "0x4",
          "removed": false
        },
        {
          "address": "0xa4ca2c2e25b97da19879201ba49422bc6f181f42",
          "topics": [
            "0x570954540bed6b1304a87dfe815a5eda4a648f7097a16240dcd85c9b5fd42a43",
            "0x08abb2b634eb6454a5819dbaa5c0229136989a9990ed757727c406dbcb4e606b",
            "0x0000000000000000000000006539519e69343535a2af6583d9bae3ad74c6a293",
            "0x0000000000000000000000006539519e69343535a2af6583d9bae3ad74c6a293"
          ],
          "data": "0x0000000000000000000000006539519e69343535a2af6583d9bae3ad74c6a293000000000000000000000000000000000000000000000000000000000000c31e0000000000000000000000000000000000000000000000000000000ba1408380",
          "blockHash": "0x88c08fabcc680242fdc0d3b4ca101e83a775a2e882b29ab0d47ff46f0cbfd382",
          "blockNumber": "0x287b51",
          "transactionHash": "0x516f9b65e623947baeddf0e27efc9f9197cfb19ecaa84f8f9395bf09dea2ff7c",
          "transactionIndex": "0x4",
          "logIndex": "0x5",
          "removed": false
        },
        {
          "address": "0xad11a8beb98bbf61dbb1aa0f6d6f2ecd87b35afa",
          "topics": [
            "0xddf252ad1be2c89b69c2b068fc378daa952ba7f163c4a11628f55a4df523b3ef",
            "0x000000000000000000000000a4ca2c2e25b97da19879201ba49422bc6f181f42",
            "0x0000000000000000000000006539519e69343535a2af6583d9bae3ad74c6a293"
          ],
          "data": "0x000000000000000000000000000000000000000000000000000000000000c31e",
          "blockHash": "0x88c08fabcc680242fdc0d3b4ca101e83a775a2e882b29ab0d47ff46f0cbfd382",
          "blockNumber": "0x287b51",
          "transactionHash": "0x516f9b65e623947baeddf0e27efc9f9197cfb19ecaa84f8f9395bf09dea2ff7c",
          "transactionIndex": "0x4",
          "logIndex": "0x6",
          "removed": false
        }
      ],
      "logsBloom": "0x00000000000000000002000000000000000004000010100000000000000000000080400000000100000000000000002000400000000000000000000020804010000008002400000000000008000000000000000000200000000000080000000000000000000000000000000000008000000000000000000000000010000000000000000000000000000000000000000000000000000080000000000000000000000000000000000000000000000000000000000000000000000000000000000000000002000000000008000001000000000000000000000000000000000000000000004000100008000000000001000000000000000000000000000000004000",
      "type": "0x2",
      "transactionHash": "0x516f9b65e623947baeddf0e27efc9f9197cfb19ecaa84f8f9395bf09dea2ff7c",
      "transactionIndex": "0x4",
      "blockHash": "0x88c08fabcc680242fdc0d3b4ca101e83a775a2e882b29ab0d47ff46f0cbfd382",
      "blockNumber": "0x287b51",
      "gasUsed": "0x25ed7",
      "effectiveGasPrice": "0xf433c",
      "from": "0x6539519e69343535a2af6583d9bae3ad74c6a293",
      "to": "0xa4ca2c2e25b97da19879201ba49422bc6f181f42",
      "contractAddress": null,
      "l1BaseFeeScalar": "0xf4240",
      "l1BlobBaseFee": "0x1",
      "l1BlobBaseFeeScalar": "0x0",
      "l1Fee": "0x212ab71743d",
      "l1GasPrice": "0x2fdbb4f3",
      "l1GasUsed": "0xb16"
    }
  ],
  "libraries": [],
  "pending": [],
  "returns": {},
  "timestamp": 1757702819,
  "chain": 43111,
  "commit": "3a72d60"
}