{
  "transactions": [
    {
      "hash": "0xbe495c1421b3dcdc5043c0eb552edc4988d0b857fb9b6aa40219f49dd038a9f8",
      "transactionType": "CALL",
      "contractName": null,
      "contractAddress": "0xa4ca2c2e25b97da19879201ba49422bc6f181f42",
      "function": "borrow((address,address,address,address,uint256),uint256,uint256,address,address)",
      "arguments": [
        "(0xad11a8BEb98bbf61dbb1aa0F6d6F2ECD87b35afA, 0xAA40c0c7644e0b2B224509571e10ad20d9C4ef28, 0xaF72003a728Abb217Dc424fcB2F05094edF44F34, 0xdEbdEa31624552DF904A065221cD14088ABDeD70, 860000000000000000)",
        "81918",
        "0",
        "0x6539519E69343535a2aF6583D9BAE3AD74c6A293",
        "0x6539519E69343535a2aF6583D9BAE3AD74c6A293"
      ],
      "transaction": {
        "from": "0x6539519e69343535a2af6583d9bae3ad74c6a293",
        "to": "0xa4ca2c2e25b97da19879201ba49422bc6f181f42",
        "gas": "0x39c7e",
        "value": "0x0",
        "input": "0x50d8cd4b000000000000000000000000ad11a8beb98bbf61dbb1aa0f6d6f2ecd87b35afa000000000000000000000000aa40c0c7644e0b2b224509571e10ad20d9c4ef28000000000000000000000000af72003a728abb217dc424fcb2f05094edf44f34000000000000000000000000debdea31624552df904a065221cd14088abded700000000000000000000000000000000000000000000000000bef55718ad600000000000000000000000000000000000000000000000000000000000000013ffe00000000000000000000000000000000000000000000000000000000000000000000000000000000000000006539519e69343535a2af6583d9bae3ad74c6a2930000000000000000000000006539519e69343535a2af6583d9bae3ad74c6a293",
        "nonce": "0x11",
        "chainId": "0xa867"
      },
      "additionalContracts": [],
      "isFixedGasLimit": false
    }
  ],
  "receipts": [
    {
      "status": "0x1",
      "cumulativeGasUsed": "0x3422a",
      "logs": [
        {
          "address": "0xdebdea31624552df904a065221cd14088abded70",
          "topics": [
            "0x7120161a7b3d31251e01294ab351ef15a41b91659a36032e4641bb89b121e321",
            "0x36931ab4ffe6fed55ab0624afd2bf6eb1cebdbd6d5c98334e949841e402f86ff"
          ],
          "data": "0x00000000000000000000000000000000000000000000000000000000436439f4000000000000000000000000000000000000000000000000000000004ad566b0",
          "blockHash": "0xc54b2743f4d8049e856dfaa468b364a8ca140b143b598f775362708e874c7609",
          "blockNumber": "0x287ba3",
          "transactionHash": "0xbe495c1421b3dcdc5043c0eb552edc4988d0b857fb9b6aa40219f49dd038a9f8",
          "transactionIndex": "0x1",
          "logIndex": "0x0",
          "removed": false
        },
        {
          "address": "0xa4ca2c2e25b97da19879201ba49422bc6f181f42",
          "topics": [
            "0x9d9bd501d0657d7dfe415f779a620a62b78bc508ddc0891fbbd8b7ac0f8fce87",
            "0x36931ab4ffe6fed55ab0624afd2bf6eb1cebdbd6d5c98334e949841e402f86ff"
          ],
          "data": "0x00000000000000000000000000000000000000000000000000000000436439f400000000000000000000000000000000000000000000000000000000000000010000000000000000000000000000000000000000000000000000000000000000",
          "blockHash": "0xc54b2743f4d8049e856dfaa468b364a8ca140b143b598f775362708e874c7609",
          "blockNumber": "0x287ba3",
          "transactionHash": "0xbe495c1421b3dcdc5043c0eb552edc4988d0b857fb9b6aa40219f49dd038a9f8",
          "transactionIndex": "0x1",
          "logIndex": "0x1",
          "removed": false
        },
        {
          "address": "0xa4ca2c2e25b97da19879201ba49422bc6f181f42",
          "topics": [
            "0x570954540bed6b1304a87dfe815a5eda4a648f7097a16240dcd85c9b5fd42a43",
            "0x36931ab4ffe6fed55ab0624afd2bf6eb1cebdbd6d5c98334e949841e402f86ff",
            "0x0000000000000000000000006539519e69343535a2af6583d9bae3ad74c6a293",
            "0x0000000000000000000000006539519e69343535a2af6583d9bae3ad74c6a293"
          ],
          "data": "0x0000000000000000000000006539519e69343535a2af6583d9bae3ad74c6a2930000000000000000000000000000000000000000000000000000000000013ffe0000000000000000000000000000000000000000000000000000001312ad2fe1",
          "blockHash": "0xc54b2743f4d8049e856dfaa468b364a8ca140b143b598f775362708e874c7609",
          "blockNumber": "0x287ba3",
          "transactionHash": "0xbe495c1421b3dcdc5043c0eb552edc4988d0b857fb9b6aa40219f49dd038a9f8",
          "transactionIndex": "0x1",
          "logIndex": "0x2",
          "removed": false
        },
        {
          "address": "0xad11a8beb98bbf61dbb1aa0f6d6f2ecd87b35afa",
          "topics": [
            "0xddf252ad1be2c89b69c2b068fc378daa952ba7f163c4a11628f55a4df523b3ef",
            "0x000000000000000000000000a4ca2c2e25b97da19879201ba49422bc6f181f42",
            "0x0000000000000000000000006539519e69343535a2af6583d9bae3ad74c6a293"
          ],
          "data": "0x0000000000000000000000000000000000000000000000000000000000013ffe",
          "blockHash": "0xc54b2743f4d8049e856dfaa468b364a8ca140b143b598f775362708e874c7609",
          "blockNumber": "0x287ba3",
          "transactionHash": "0xbe495c1421b3dcdc5043c0eb552edc4988d0b857fb9b6aa40219f49dd038a9f8",
          "transactionIndex": "0x1",
          "logIndex": "0x3",
          "removed": false
        }
      ],
      "logsBloom": "0x00000000000020000002000002000000000000000010000000000000000000000080400000000100000000000000002000400000000000000000000020804010000008002400000000000008000000000000000000200000000000080000000000000000000000000000000000008000000000000000000000000010000000000000000000000000000000000000000000000000000080000000000000000000000000000000000080000000000000000000000000000000000000000000000000000002000000000008000000000000000000000000000000000000000000000000004000100008000000000001000000000000000000000000000000004000",
      "type": "0x2",
      "transactionHash": "0xbe495c1421b3dcdc5043c0eb552edc4988d0b857fb9b6aa40219f49dd038a9f8",
      "transactionIndex": "0x1",
      "blockHash": "0xc54b2743f4d8049e856dfaa468b364a8ca140b143b598f775362708e874c7609",
      "blockNumber": "0x287ba3",
      "gasUsed": "0x27822",
      "effectiveGasPrice": "0xf433c",
      "from": "0x6539519e69343535a2af6583d9bae3ad74c6a293",
      "to": "0xa4ca2c2e25b97da19879201ba49422bc6f181f42",
      "contractAddress": null,
      "l1BaseFeeScalar": "0xf4240",
      "l1BlobBaseFee": "0x1",
      "l1BlobBaseFeeScalar": "0x0",
      "l1Fee": "0x1d73094fe78",
      "l1GasPrice": "0x27836159",
      "l1GasUsed": "0xbec"
    }
  ],
  "libraries": [],
  "pending": [],
  "returns": {},
  "timestamp": 1757703803,
  "chain": 43111,
  "commit": "3a72d60"
}