{
  "transactions": [
    {
      "hash": "0x8b7d8f6d14bbbb915a26224b30c0a9f257f9ead351087a1b1693d94c079aef60",
      "transactionType": "CALL",
      "contractName": null,
      "contractAddress": "0xa4ca2c2e25b97da19879201ba49422bc6f181f42",
      "function": "borrow((address,address,address,address,uint256),uint256,uint256,address,address)",
      "arguments": [
        "(0xad11a8BEb98bbf61dbb1aa0F6d6F2ECD87b35afA, 0x7A06C4AeF988e7925575C50261297a946aD204A8, 0x4B1182e277F51539aC87Ec8138871947E9881862, 0xdEbdEa31624552DF904A065221cD14088ABDeD70, 915000000000000000)",
        "336663",
        "0",
        "0x6539519E69343535a2aF6583D9BAE3AD74c6A293",
        "0x6539519E69343535a2aF6583D9BAE3AD74c6A293"
      ],
      "transaction": {
        "from": "0x6539519e69343535a2af6583d9bae3ad74c6a293",
        "to": "0xa4ca2c2e25b97da19879201ba49422bc6f181f42",
        "gas": "0x3b66a",
        "value": "0x0",
        "input": "0x50d8cd4b000000000000000000000000ad11a8beb98bbf61dbb1aa0f6d6f2ecd87b35afa0000000000000000000000007a06c4aef988e7925575c50261297a946ad204a80000000000000000000000004b1182e277f51539ac87ec8138871947e9881862000000000000000000000000debdea31624552df904a065221cd14088abded700000000000000000000000000000000000000000000000000cb2bba6f17b8000000000000000000000000000000000000000000000000000000000000005231700000000000000000000000000000000000000000000000000000000000000000000000000000000000000006539519e69343535a2af6583d9bae3ad74c6a2930000000000000000000000006539519e69343535a2af6583d9bae3ad74c6a293",
        "nonce": "0x21",
        "chainId": "0xa867"
      },
      "additionalContracts": [],
      "isFixedGasLimit": false
    }
  ],
  "receipts": [
    {
      "status": "0x1",
      "cumulativeGasUsed": "0x9b201",
      "logs": [
        {
          "address": "0xdebdea31624552df904a065221cd14088abded70",
          "topics": [
            "0x7120161a7b3d31251e01294ab351ef15a41b91659a36032e4641bb89b121e321",
            "0xb7dd4c2e7c164de474b28c354cddb137deb0ce2583b925d20c33322074c22178"
          ],
          "data": "0x0000000000000000000000000000000000000000000000000000000012d1e85b000000000000000000000000000000000000000000000000000000004b41f2a0",
          "blockHash": "0x238f38a34cf695cedb6a2104f47c1557ae63fcff197d07148d930104e38252be",
          "blockNumber": "0x28c824",
          "transactionHash": "0x8b7d8f6d14bbbb915a26224b30c0a9f257f9ead351087a1b1693d94c079aef60",
          "transactionIndex": "0x3",
          "logIndex": "0x4",
          "removed": false
        },
        {
          "address": "0xa4ca2c2e25b97da19879201ba49422bc6f181f42",
          "topics": [
            "0x9d9bd501d0657d7dfe415f779a620a62b78bc508ddc0891fbbd8b7ac0f8fce87",
            "0xb7dd4c2e7c164de474b28c354cddb137deb0ce2583b925d20c33322074c22178"
          ],
          "data": "0x0000000000000000000000000000000000000000000000000000000012d1e85b00000000000000000000000000000000000000000000000000000000000000000000000000000000000000000000000000000000000000000000000000000000",
          "blockHash": "0x238f38a34cf695cedb6a2104f47c1557ae63fcff197d07148d930104e38252be",
          "blockNumber": "0x28c824",
          "transactionHash": "0x8b7d8f6d14bbbb915a26224b30c0a9f257f9ead351087a1b1693d94c079aef60",
          "transactionIndex": "0x3",
          "logIndex": "0x5",
          "removed": false
        },
        {
          "address": "0xa4ca2c2e25b97da19879201ba49422bc6f181f42",
          "topics": [
            "0x570954540bed6b1304a87dfe815a5eda4a648f7097a16240dcd85c9b5fd42a43",
            "0xb7dd4c2e7c164de474b28c354cddb137deb0ce2583b925d20c33322074c22178",
            "0x0000000000000000000000006539519e69343535a2af6583d9bae3ad74c6a293",
            "0x0000000000000000000000006539519e69343535a2af6583d9bae3ad74c6a293"
          ],
          "data": "0x0000000000000000000000006539519e69343535a2af6583d9bae3ad74c6a29300000000000000000000000000000000000000000000000000000000000523170000000000000000000000000000000000000000000000000000004e62adb3c0",
          "blockHash": "0x238f38a34cf695cedb6a2104f47c1557ae63fcff197d07148d930104e38252be",
          "blockNumber": "0x28c824",
          "transactionHash": "0x8b7d8f6d14bbbb915a26224b30c0a9f257f9ead351087a1b1693d94c079aef60",
          "transactionIndex": "0x3",
          "logIndex": "0x6",
          "removed": false
        },
        {
          "address": "0xad11a8beb98bbf61dbb1aa0f6d6f2ecd87b35afa",
          "topics": [
            "0xddf252ad1be2c89b69c2b068fc378daa952ba7f163c4a11628f55a4df523b3ef",
            "0x000000000000000000000000a4ca2c2e25b97da19879201ba49422bc6f181f42",
            "0x0000000000000000000000006539519e69343535a2af6583d9bae3ad74c6a293"
          ],
          "data": "0x0000000000000000000000000000000000000000000000000000000000052317",
          "blockHash": "0x238f38a34cf695cedb6a2104f47c1557ae63fcff197d07148d930104e38252be",
          "blockNumber": "0x28c824",
          "transactionHash": "0x8b7d8f6d14bbbb915a26224b30c0a9f257f9ead351087a1b1693d94c079aef60",
          "transactionIndex": "0x3",
          "logIndex": "0x7",
          "removed": false
        }
      ],
      "logsBloom": "0x00000000000000000002000000000000000000000010000000400000000000000080400000000100000000000000002000400000000000000000000020804010000008002400000000000008000000000000000000200000000000080000000000000000000000000000000000008000000000000000000000000010000000000000000000000000000000000000000000000000000080000000000000000000000000000000000000000000000000000000000000000001000000000000000000000002000000000008000000000000000000000000000020000000000000000000004000100008000000000001000000000000000000000000000000004000",
      "type": "0x2",
      "transactionHash": "0x8b7d8f6d14bbbb915a26224b30c0a9f257f9ead351087a1b1693d94c079aef60",
      "transactionIndex": "0x3",
      "blockHash": "0x238f38a34cf695cedb6a2104f47c1557ae63fcff197d07148d930104e38252be",
      "blockNumber": "0x28c824",
      "gasUsed": "0x2b016",
      "effectiveGasPrice": "0xf433d",
      "from": "0x6539519e69343535a2af6583d9bae3ad74c6a293",
      "to": "0xa4ca2c2e25b97da19879201ba49422bc6f181f42",
      "contractAddress": null,
      "l1BaseFeeScalar": "0xf4240",
      "l1BlobBaseFee": "0x1",
      "l1BlobBaseFeeScalar": "0x0",
      "l1Fee": "0x1abfcb65603",
      "l1GasPrice": "0x23bbcfc8",
      "l1GasUsed": "0xbfa"
    }
  ],
  "libraries": [],
  "pending": [],
  "returns": {},
  "timestamp": 1757938824,
  "chain": 43111,
  "commit": "ccc26c1"
}