{
  "transactions": [
    {
      "hash": "0xc778ed2158055ba2e20f7cbcfbb150466fc11b5bf4bd16f6ca332e4ee9e29f2f",
      "transactionType": "CALL",
      "contractName": null,
      "contractAddress": "0xa4ca2c2e25b97da19879201ba49422bc6f181f42",
      "function": "borrow((address,address,address,address,uint256),uint256,uint256,address,address)",
      "arguments": [
        "(0xad11a8BEb98bbf61dbb1aa0F6d6F2ECD87b35afA, 0x99e3dE3817F6081B2568208337ef83295b7f591D, 0xf0FF7a2E8b5d57EAb433d676c9A101DF1d2414B7, 0xdEbdEa31624552DF904A065221cD14088ABDeD70, 385000000000000000)",
        "149850",
        "0",
        "0x6539519E69343535a2aF6583D9BAE3AD74c6A293",
        "0x6539519E69343535a2aF6583D9BAE3AD74c6A293"
      ],
      "transaction": {
        "from": "0x6539519e69343535a2af6583d9bae3ad74c6a293",
        "to": "0xa4ca2c2e25b97da19879201ba49422bc6f181f42",
        "gas": "0x3477d",
        "value": "0x0",
        "input": "0x50d8cd4b000000000000000000000000ad11a8beb98bbf61dbb1aa0f6d6f2ecd87b35afa00000000000000000000000099e3de3817f6081b2568208337ef83295b7f591d000000000000000000000000f0ff7a2e8b5d57eab433d676c9a101df1d2414b7000000000000000000000000debdea31624552df904a065221cd14088abded700000000000000000000000000000000000000000000000000557cb75ce868000000000000000000000000000000000000000000000000000000000000002495a00000000000000000000000000000000000000000000000000000000000000000000000000000000000000006539519e69343535a2af6583d9bae3ad74c6a2930000000000000000000000006539519e69343535a2af6583d9bae3ad74c6a293",
        "nonce": "0x48",
        "chainId": "0xa867"
      },
      "additionalContracts": [],
      "isFixedGasLimit": false
    }
  ],
  "receipts": [
    {
      "status": "0x1",
      "cumulativeGasUsed": "0xa5d78",
      "logs": [
        {
          "address": "0xdebdea31624552df904a065221cd14088abded70",
          "topics": [
            "0x7120161a7b3d31251e01294ab351ef15a41b91659a36032e4641bb89b121e321",
            "0x6b17e90837b92f5d7339ceb02218f63b14caf63c6658b704b65b512cd2ba74d0"
          ],
          "data": "0x0000000000000000000000000000000000000000000000000000000012e44680000000000000000000000000000000000000000000000000000000004b8fd03a",
          "blockHash": "0xcec2d4ccf3705e92cbfb06cba123c735ef9abc344ba9e8c5ae640b76e6c2d840",
          "blockNumber": "0x2a9010",
          "transactionHash": "0xc778ed2158055ba2e20f7cbcfbb150466fc11b5bf4bd16f6ca332e4ee9e29f2f",
          "transactionIndex": "0x5",
          "logIndex": "0x11",
          "removed": false
        },
        {
          "address": "0xa4ca2c2e25b97da19879201ba49422bc6f181f42",
          "topics": [
            "0x9d9bd501d0657d7dfe415f779a620a62b78bc508ddc0891fbbd8b7ac0f8fce87",
            "0x6b17e90837b92f5d7339ceb02218f63b14caf63c6658b704b65b512cd2ba74d0"
          ],
          "data": "0x0000000000000000000000000000000000000000000000000000000012e4468000000000000000000000000000000000000000000000000000000000000000000000000000000000000000000000000000000000000000000000000000000000",
          "blockHash": "0xcec2d4ccf3705e92cbfb06cba123c735ef9abc344ba9e8c5ae640b76e6c2d840",
          "blockNumber": "0x2a9010",
          "transactionHash": "0xc778ed2158055ba2e20f7cbcfbb150466fc11b5bf4bd16f6ca332e4ee9e29f2f",
          "transactionIndex": "0x5",
          "logIndex": "0x12",
          "removed": false
        },
        {
          "address": "0xa4ca2c2e25b97da19879201ba49422bc6f181f42",
          "topics": [
            "0x570954540bed6b1304a87dfe815a5eda4a648f7097a16240dcd85c9b5fd42a43",
            "0x6b17e90837b92f5d7339ceb02218f63b14caf63c6658b704b65b512cd2ba74d0",
            "0x0000000000000000000000006539519e69343535a2af6583d9bae3ad74c6a293",
            "0x0000000000000000000000006539519e69343535a2af6583d9bae3ad74c6a293"
          ],
          "data": "0x0000000000000000000000006539519e69343535a2af6583d9bae3ad74c6a293000000000000000000000000000000000000000000000000000000000002495a00000000000000000000000000000000000000000000000000000022e3c18a80",
          "blockHash": "0xcec2d4ccf3705e92cbfb06cba123c735ef9abc344ba9e8c5ae640b76e6c2d840",
          "blockNumber": "0x2a9010",
          "transactionHash": "0xc778ed2158055ba2e20f7cbcfbb150466fc11b5bf4bd16f6ca332e4ee9e29f2f",
          "transactionIndex": "0x5",
          "logIndex": "0x13",
          "removed": false
        },
        {
          "address": "0xad11a8beb98bbf61dbb1aa0f6d6f2ecd87b35afa",
          "topics": [
            "0xddf252ad1be2c89b69c2b068fc378daa952ba7f163c4a11628f55a4df523b3ef",
            "0x000000000000000000000000a4ca2c2e25b97da19879201ba49422bc6f181f42",
            "0x0000000000000000000000006539519e69343535a2af6583d9bae3ad74c6a293"
          ],
          "data": "0x000000000000000000000000000000000000000000000000000000000002495a",
          "blockHash": "0xcec2d4ccf3705e92cbfb06cba123c735ef9abc344ba9e8c5ae640b76e6c2d840",
          "blockNumber": "0x2a9010",
          "transactionHash": "0xc778ed2158055ba2e20f7cbcfbb150466fc11b5bf4bd16f6ca332e4ee9e29f2f",
          "transactionIndex": "0x5",
          "logIndex": "0x14",
          "removed": false
        }
      ],
      "logsBloom": "0x00000000000000000002000000000000000000000010000000000000000000000080400000000100000000000000002000400000000000000000000020804010000008002400000000000008000000000000000000200000000000080000000000000000000002000000000000008000000000000000000000000010000000000000000000000000000000000000000000000000000082000000000000000000000000000000000000000000000000000000000000000000000000000000000000000002000000000008000000000000000000000000000000000000000000000000004000100008000000000001000000000000000000000000000000004000",
      "type": "0x2",
      "transactionHash": "0xc778ed2158055ba2e20f7cbcfbb150466fc11b5bf4bd16f6ca332e4ee9e29f2f",
      "transactionIndex": "0x5",
      "blockHash": "0xcec2d4ccf3705e92cbfb06cba123c735ef9abc344ba9e8c5ae640b76e6c2d840",
      "blockNumber": "0x2a9010",
      "gasUsed": "0x25fc7",
      "effectiveGasPrice": "0xa694e",
      "from": "0x6539519e69343535a2af6583d9bae3ad74c6a293",
      "to": "0xa4ca2c2e25b97da19879201ba49422bc6f181f42",
      "contractAddress": null,
      "l1BaseFeeScalar": "0xf4240",
      "l1BlobBaseFee": "0x1",
      "l1BlobBaseFeeScalar": "0x0",
      "l1Fee": "0x299c5d5ef2a",
      "l1GasPrice": "0x37963fef",
      "l1GasUsed": "0xbfa"
    }
  ],
  "libraries": [],
  "pending": [],
  "returns": {},
  "timestamp": 1759339416,
  "chain": 43111,
  "commit": "e9775cb"
}