{
  "transactions": [
    {
      "hash": "0x8b0b5b8671d083ee6f22be982ce4b6ff01a68fdd64d4de6e63d0610c4ee08802",
      "transactionType": "CALL",
      "contractName": null,
      "contractAddress": "0xa4ca2c2e25b97da19879201ba49422bc6f181f42",
      "function": "borrow((address,address,address,address,uint256),uint256,uint256,address,address)",
      "arguments": [
        "(0xAA40c0c7644e0b2B224509571e10ad20d9C4ef28, 0xad11a8BEb98bbf61dbb1aa0F6d6F2ECD87b35afA, 0x6F3B428CB767018a9bBFB3764f410c9636A92e3C, 0xdEbdEa31624552DF904A065221cD14088ABDeD70, 770000000000000000)",
        "257",
        "0",
        "0x6539519E69343535a2aF6583D9BAE3AD74c6A293",
        "0x6539519E69343535a2aF6583D9BAE3AD74c6A293"
      ],
      "transaction": {
        "from": "0x6539519e69343535a2af6583d9bae3ad74c6a293",
        "to": "0xa4ca2c2e25b97da19879201ba49422bc6f181f42",
        "gas": "0x3b1bd",
        "value": "0x0",
        "input": "0x50d8cd4b000000000000000000000000aa40c0c7644e0b2b224509571e10ad20d9c4ef28000000000000000000000000ad11a8beb98bbf61dbb1aa0f6d6f2ecd87b35afa0000000000000000000000006f3b428cb767018a9bbfb3764f410c9636a92e3c000000000000000000000000debdea31624552df904a065221cd14088abded700000000000000000000000000000000000000000000000000aaf96eb9d0d0000000000000000000000000000000000000000000000000000000000000000010100000000000000000000000000000000000000000000000000000000000000000000000000000000000000006539519e69343535a2af6583d9bae3ad74c6a2930000000000000000000000006539519e69343535a2af6583d9bae3ad74c6a293",
        "nonce": "0x2f",
        "chainId": "0xa867"
      },
      "additionalContracts": [],
      "isFixedGasLimit": false
    }
  ],
  "receipts": [
    {
      "status": "0x1",
      "cumulativeGasUsed": "0x53321",
      "logs": [
        {
          "address": "0xdebdea31624552df904a065221cd14088abded70",
          "topics": [
            "0x7120161a7b3d31251e01294ab351ef15a41b91659a36032e4641bb89b121e321",
            "0x7c985a3ba92fa76a362f661b37a68c9955490eb659b7905aab6019b91042b452"
          ],
          "data": "0x000000000000000000000000000000000000000000000000000000000c3181870000000000000000000000000000000000000000000000000000000030c4f474",
          "blockHash": "0x3451bcec115a390efc18e18ef65d694b6d467f7dde9df68ecd83c8212306d25d",
          "blockNumber": "0x297a99",
          "transactionHash": "0x8b0b5b8671d083ee6f22be982ce4b6ff01a68fdd64d4de6e63d0610c4ee08802",
          "transactionIndex": "0x2",
          "logIndex": "0x4",
          "removed": false
        },
        {
          "address": "0xa4ca2c2e25b97da19879201ba49422bc6f181f42",
          "topics": [
            "0x9d9bd501d0657d7dfe415f779a620a62b78bc508ddc0891fbbd8b7ac0f8fce87",
            "0x7c985a3ba92fa76a362f661b37a68c9955490eb659b7905aab6019b91042b452"
          ],
          "data": "0x000000000000000000000000000000000000000000000000000000000c31818700000000000000000000000000000000000000000000000000000000000000000000000000000000000000000000000000000000000000000000000000000000",
          "blockHash": "0x3451bcec115a390efc18e18ef65d694b6d467f7dde9df68ecd83c8212306d25d",
          "blockNumber": "0x297a99",
          "transactionHash": "0x8b0b5b8671d083ee6f22be982ce4b6ff01a68fdd64d4de6e63d0610c4ee08802",
          "transactionIndex": "0x2",
          "logIndex": "0x5",
          "removed": false
        },
        {
          "address": "0xa4ca2c2e25b97da19879201ba49422bc6f181f42",
          "topics": [
            "0x570954540bed6b1304a87dfe815a5eda4a648f7097a16240dcd85c9b5fd42a43",
            "0x7c985a3ba92fa76a362f661b37a68c9955490eb659b7905aab6019b91042b452",
            "0x0000000000000000000000006539519e69343535a2af6583d9bae3ad74c6a293",
            "0x0000000000000000000000006539519e69343535a2af6583d9bae3ad74c6a293"
          ],
          "data": "0x0000000000000000000000006539519e69343535a2af6583d9bae3ad74c6a2930000000000000000000000000000000000000000000000000000000000000101000000000000000000000000000000000000000000000000000000000f518240",
          "blockHash": "0x3451bcec115a390efc18e18ef65d694b6d467f7dde9df68ecd83c8212306d25d",
          "blockNumber": "0x297a99",
          "transactionHash": "0x8b0b5b8671d083ee6f22be982ce4b6ff01a68fdd64d4de6e63d0610c4ee08802",
          "transactionIndex": "0x2",
          "logIndex": "0x6",
          "removed": false
        },
        {
          "address": "0xaa40c0c7644e0b2b224509571e10ad20d9c4ef28",
          "topics": [
            "0xddf252ad1be2c89b69c2b068fc378daa952ba7f163c4a11628f55a4df523b3ef",
            "0x000000000000000000000000a4ca2c2e25b97da19879201ba49422bc6f181f42",
            "0x0000000000000000000000006539519e69343535a2af6583d9bae3ad74c6a293"
          ],
          "data": "0x0000000000000000000000000000000000000000000000000000000000000101",
          "blockHash": "0x3451bcec115a390efc18e18ef65d694b6d467f7dde9df68ecd83c8212306d25d",
          "blockNumber": "0x297a99",
          "transactionHash": "0x8b0b5b8671d083ee6f22be982ce4b6ff01a68fdd64d4de6e63d0610c4ee08802",
          "transactionIndex": "0x2",
          "logIndex": "0x7",
          "removed": false
        }
      ],
      "logsBloom": "0x00000000400000000002000000000000000008000010000000000000000000000080420000000100000000000000002000400000000000000000000020804010000000000000000000000008000000000000400000200000000000080000000000000000000000000000000000008000000000000000000000000010000000000000000000000000000000000000000000002000000080000000000000000000000002000000000000000000000000000000000000000000000000000000000000000002000000000008000000000000000000000000000000000000000000000000004000100008000000000001000000000000000000000000000000004000",
      "type": "0x2",
      "transactionHash": "0x8b0b5b8671d083ee6f22be982ce4b6ff01a68fdd64d4de6e63d0610c4ee08802",
      "transactionIndex": "0x2",
      "blockHash": "0x3451bcec115a390efc18e18ef65d694b6d467f7dde9df68ecd83c8212306d25d",
      "blockNumber": "0x297a99",
      "gasUsed": "0x286a9",
      "effectiveGasPrice": "0x1018d5",
      "from": "0x6539519e69343535a2af6583d9bae3ad74c6a293",
      "to": "0xa4ca2c2e25b97da19879201ba49422bc6f181f42",
      "contractAddress": null,
      "l1BaseFeeScalar": "0xf4240",
      "l1BlobBaseFee": "0x1",
      "l1BlobBaseFeeScalar": "0x0",
      "l1Fee": "0x5fce542bc8",
      "l1GasPrice": "0x811cb74",
      "l1GasUsed": "0xbdf"
    }
  ],
  "libraries": [],
  "pending": [],
  "returns": {},
  "timestamp": 1758487043,
  "chain": 43111,
  "commit": "d8ba599"
}