{
  "transactions": [
    {
      "hash": "0x1357065aadc7b9e51b59f6474f37223cb9abd11bb67c8788b46aaee5d05a56f0",
      "transactionType": "CALL",
      "contractName": null,
      "contractAddress": "0xa4ca2c2e25b97da19879201ba49422bc6f181f42",
      "function": "borrow((address,address,address,address,uint256),uint256,uint256,address,address)",
      "arguments": [
        "(0xAA40c0c7644e0b2B224509571e10ad20d9C4ef28, 0x7f0b394Bb1a2a4dF859f8a0b2A384f3d9d4E95cC, 0xA45a7741b3b8C8259969c093Cf6e8e306AC34d78, 0xdEbdEa31624552DF904A065221cD14088ABDeD70, 860000000000000000)",
        "299",
        "0",
        "0x6539519E69343535a2aF6583D9BAE3AD74c6A293",
        "0x6539519E69343535a2aF6583D9BAE3AD74c6A293"
      ],
      "transaction": {
        "from": "0x6539519e69343535a2af6583d9bae3ad74c6a293",
        "to": "0xa4ca2c2e25b97da19879201ba49422bc6f181f42",
        "gas": "0x513ab",
        "value": "0x0",
        "input": "0x50d8cd4b000000000000000000000000aa40c0c7644e0b2b224509571e10ad20d9c4ef280000000000000000000000007f0b394bb1a2a4df859f8a0b2a384f3d9d4e95cc000000000000000000000000a45a7741b3b8c8259969c093cf6e8e306ac34d78000000000000000000000000debdea31624552df904a065221cd14088abded700000000000000000000000000000000000000000000000000bef55718ad60000000000000000000000000000000000000000000000000000000000000000012b00000000000000000000000000000000000000000000000000000000000000000000000000000000000000006539519e69343535a2af6583d9bae3ad74c6a2930000000000000000000000006539519e69343535a2af6583d9bae3ad74c6a293",
        "nonce": "0x38",
        "chainId": "0xa867"
      },
      "additionalContracts": [],
      "isFixedGasLimit": false
    }
  ],
  "receipts": [
    {
      "status": "0x1",
      "cumulativeGasUsed": "0x87eae",
      "logs": [
        {
          "address": "0xdebdea31624552df904a065221cd14088abded70",
          "topics": [
            "0x7120161a7b3d31251e01294ab351ef15a41b91659a36032e4641bb89b121e321",
            "0x4b670128dfaa02a92f833bb9b99949262b685c2d3f55d4f7c97da1849d2b6355"
          ],
          "data": "0x000000000000000000000000000000000000000000000000000000000a84d4e7000000000000000000000000000000000000000000000000000000002a0f6ee7",
          "blockHash": "0x8d2a2c002ef97f1cf280fa06798c5b18f608437f1755d4600da908e93156f6b1",
          "blockNumber": "0x297b1d",
          "transactionHash": "0x1357065aadc7b9e51b59f6474f37223cb9abd11bb67c8788b46aaee5d05a56f0",
          "transactionIndex": "0x4",
          "logIndex": "0x6",
          "removed": false
        },
        {
          "address": "0xa4ca2c2e25b97da19879201ba49422bc6f181f42",
          "topics": [
            "0x9d9bd501d0657d7dfe415f779a620a62b78bc508ddc0891fbbd8b7ac0f8fce87",
            "0x4b670128dfaa02a92f833bb9b99949262b685c2d3f55d4f7c97da1849d2b6355"
          ],
          "data": "0x000000000000000000000000000000000000000000000000000000000a84d4e700000000000000000000000000000000000000000000000000000000000000000000000000000000000000000000000000000000000000000000000000000000",
          "blockHash": "0x8d2a2c002ef97f1cf280fa06798c5b18f608437f1755d4600da908e93156f6b1",
          "blockNumber": "0x297b1d",
          "transactionHash": "0x1357065aadc7b9e51b59f6474f37223cb9abd11bb67c8788b46aaee5d05a56f0",
          "transactionIndex": "0x4",
          "logIndex": "0x7",
          "removed": false
        },
        {
          "address": "0xa4ca2c2e25b97da19879201ba49422bc6f181f42",
          "topics": [
            "0x570954540bed6b1304a87dfe815a5eda4a648f7097a16240dcd85c9b5fd42a43",
            "0x4b670128dfaa02a92f833bb9b99949262b685c2d3f55d4f7c97da1849d2b6355",
            "0x0000000000000000000000006539519e69343535a2af6583d9bae3ad74c6a293",
            "0x0000000000000000000000006539519e69343535a2af6583d9bae3ad74c6a293"
          ],
          "data": "0x0000000000000000000000006539519e69343535a2af6583d9bae3ad74c6a293000000000000000000000000000000000000000000000000000000000000012b0000000000000000000000000000000000000000000000000000000011d260c0",
          "blockHash": "0x8d2a2c002ef97f1cf280fa06798c5b18f608437f1755d4600da908e93156f6b1",
          "blockNumber": "0x297b1d",
          "transactionHash": "0x1357065aadc7b9e51b59f6474f37223cb9abd11bb67c8788b46aaee5d05a56f0",
          "transactionIndex": "0x4",
          "logIndex": "0x8",
          "removed": false
        },
        {
          "address": "0xaa40c0c7644e0b2b224509571e10ad20d9c4ef28",
          "topics": [
            "0xddf252ad1be2c89b69c2b068fc378daa952ba7f163c4a11628f55a4df523b3ef",
            "0x000000000000000000000000a4ca2c2e25b97da19879201ba49422bc6f181f42",
            "0x0000000000000000000000006539519e69343535a2af6583d9bae3ad74c6a293"
          ],
          "data": "0x000000000000000000000000000000000000000000000000000000000000012b",
          "blockHash": "0x8d2a2c002ef97f1cf280fa06798c5b18f608437f1755d4600da908e93156f6b1",
          "blockNumber": "0x297b1d",
          "transactionHash": "0x1357065aadc7b9e51b59f6474f37223cb9abd11bb67c8788b46aaee5d05a56f0",
          "transactionIndex": "0x4",
          "logIndex": "0x9",
          "removed": false
        }
      ],
      "logsBloom": "0x00000000000000000002000000000000000000000010000000000000000100000080420000000100000000000000002000400000000000000000000020804010000000000000000000000008000000000000000000200800000000080000000000000000020000000000000000008000000000000000000000000010000000000000000000000000000000000000000000002000000080000000000000000000000002000000000000000000000000000000000000000000000000000000000000000002000000000008000000000000000000000000000000000000000000000000004000100008000000000001000000000000000000000000000000004000",
      "type": "0x2",
      "transactionHash": "0x1357065aadc7b9e51b59f6474f37223cb9abd11bb67c8788b46aaee5d05a56f0",
      "transactionIndex": "0x4",
      "blockHash": "0x8d2a2c002ef97f1cf280fa06798c5b18f608437f1755d4600da908e93156f6b1",
      "blockNumber": "0x297b1d",
      "gasUsed": "0x3acf0",
      "effectiveGasPrice": "0x112ba5",
      "from": "0x6539519e69343535a2af6583d9bae3ad74c6a293",
      "to": "0xa4ca2c2e25b97da19879201ba49422bc6f181f42",
      "contractAddress": null,
      "l1BaseFeeScalar": "0xf4240",
      "l1BlobBaseFee": "0x1",
      "l1BlobBaseFeeScalar": "0x0",
      "l1Fee": "0x593fb65eef",
      "l1GasPrice": "0x78468aa",
      "l1GasUsed": "0xbdf"
    }
  ],
  "libraries": [],
  "pending": [],
  "returns": {},
  "timestamp": 1758488627,
  "chain": 43111,
  "commit": "0966a6e"
}