{
  "transactions": [
    {
      "hash": "0x0bfbafdd7365d8bd6f56d85a70c12884a675d88ab39566fe2551cd535f38f977",
      "transactionType": "CALL",
      "contractName": null,
      "contractAddress": "0xa0b86991c6218b36c1d19d4a2e9eb0ce3606eb48",
      "function": "approve(address,uint256)",
      "arguments": [
        "0xBBBBBbbBBb9cC5e90e3b3Af64bdAF62C37EEFFCb",
        "1000000"
      ],
      "transaction": {
        "from": "0x6539519e69343535a2af6583d9bae3ad74c6a293",
        "to": "0xa0b86991c6218b36c1d19d4a2e9eb0ce3606eb48",
        "gas": "0x12bc3",
        "value": "0x0",
        "input": "0x095ea7b3000000000000000000000000bbbbbbbbbb9cc5e90e3b3af64bdaf62c37eeffcb00000000000000000000000000000000000000000000000000000000000f4240",
        "nonce": "0x45",
        "chainId": "0x1"
      },
      "additionalContracts": [],
      "isFixedGasLimit": false
    },
    {
      "hash": "0xbca37563102434a062f074c6b124a309cb1e4ddb41971c7f6c95775ae393e744",
      "transactionType": "CALL",
      "contractName": null,
      "contractAddress": "0xbbbbbbbbbb9cc5e90e3b3af64bdaf62c37eeffcb",
      "function": "supply((address,address,address,address,uint256),uint256,uint256,address,bytes)",
      "arguments": [
        "(0xA0b86991c6218b36c1d19D4a2e9Eb0cE3606eB48, 0x3928cbCcC982EFbaDBc004977827325B0BE4c346, 0xA9F505fA754C6D1164127A9Ba4496a0B5d980D33, 0x870aC11D48B15DB9a138Cf899d20F13F79Ba00BC, 915000000000000000)",
        "1000000",
        "0",
        "0x6539519E69343535a2aF6583D9BAE3AD74c6A293",
        "0x"
      ],
      "transaction": {
        "from": "0x6539519e69343535a2af6583d9bae3ad74c6a293",
        "to": "0xbbbbbbbbbb9cc5e90e3b3af64bdaf62c37eeffcb",
        "gas": "0x2c30c",
        "value": "0x0",
        "input": "0xa99aad89000000000000000000000000a0b86991c6218b36c1d19d4a2e9eb0ce3606eb480000000000000000000000003928cbccc982efbadbc004977827325b0be4c346000000000000000000000000a9f505fa754c6d1164127a9ba4496a0b5d980d33000000000000000000000000870ac11d48b15db9a138cf899d20f13f79ba00bc0000000000000000000000000000000000000000000000000cb2bba6f17b800000000000000000000000000000000000000000000000000000000000000f424000000000000000000000000000000000000000000000000000000000000000000000000000000000000000006539519e69343535a2af6583d9bae3ad74c6a29300000000000000000000000000000000000000000000000000000000000001200000000000000000000000000000000000000000000000000000000000000000",
        "nonce": "0x46",
        "chainId": "0x1"
      },
      "additionalContracts": [],
      "isFixedGasLimit": false
    }
  ],
  "receipts": [
    {
      "status": "0x1",
      "cumulativeGasUsed": "0x11ddf94",
      "logs": [
        {
          "address": "0xa0b86991c6218b36c1d19d4a2e9eb0ce3606eb48",
          "topics": [
            "0x8c5be1e5ebec7d5bd14f71427d1e84f3dd0314c0f7b2291e5b200ac8c7c3b925",
            "0x0000000000000000000000006539519e69343535a2af6583d9bae3ad74c6a293",
            "0x000000000000000000000000bbbbbbbbbb9cc5e90e3b3af64bdaf62c37eeffcb"
          ],
          "data": "0x00000000000000000000000000000000000000000000000000000000000f4240",
          "blockHash": "0x0c9f8c7000c85d6c422e7e5c73530b36fbd4c847770020c331978c89dd17786f",
          "blockNumber": "0x162a63e",
          "blockTimestamp": "0x68b0ca03",
          "transactionHash": "0x0bfbafdd7365d8bd6f56d85a70c12884a675d88ab39566fe2551cd535f38f977",
          "transactionIndex": "0xe5",
          "logIndex": "0x407",
          "removed": false
        }
      ],
      "logsBloom": "0x00000000000000000000000000000080000000000000000000000000000000000080000000000100000000000000000000000000000000000000000000200000000000000000000008000000000000000000000000000000000000000000000000000000000000000000000000000000000000000000000000000000000000000000000000000000000000000000000000000000010000000000000000000000020000000000200000000000000000000000000000000000000000000000000000000000000000000000000000000000000000000000000000000000000000000010000001100000000000200000000000000000000000000000000000000000",
      "type": "0x2",
      "transactionHash": "0x0bfbafdd7365d8bd6f56d85a70c12884a675d88ab39566fe2551cd535f38f977",
      "transactionIndex": "0xe5",
      "blockHash": "0x0c9f8c7000c85d6c422e7e5c73530b36fbd4c847770020c331978c89dd17786f",
      "blockNumber": "0x162a63e",
      "gasUsed": "0xd906",
      "effectiveGasPrice": "0xfd619c9",
      "from": "0x6539519e69343535a2af6583d9bae3ad74c6a293",
      "to": "0xa0b86991c6218b36c1d19d4a2e9eb0ce3606eb48",
      "contractAddress": null
    },
    {
      "status": "0x1",
      "cumulativeGasUsed": "0x11fdf78",
      "logs": [
        {
          "address": "0x870ac11d48b15db9a138cf899d20f13f79ba00bc",
          "topics": [
            "0x7120161a7b3d31251e01294ab351ef15a41b91659a36032e4641bb89b121e321",
            "0x41af37b39c4369160933b9a7523c54ca5ec9d83fe39aada8ff8cc75426290582"
          ],
          "data": "0x0000000000000000000000000000000000000000000000000000000012e45257000000000000000000000000000000000000000000000000000000004b887443",
          "blockHash": "0x0c9f8c7000c85d6c422e7e5c73530b36fbd4c847770020c331978c89dd17786f",
          "blockNumber": "0x162a63e",
          "blockTimestamp": "0x68b0ca03",
          "transactionHash": "0xbca37563102434a062f074c6b124a309cb1e4ddb41971c7f6c95775ae393e744",
          "transactionIndex": "0xe6",
          "logIndex": "0x408",
          "removed": false
        },
        {
          "address": "0xbbbbbbbbbb9cc5e90e3b3af64bdaf62c37eeffcb",
          "topics": [
            "0x9d9bd501d0657d7dfe415f779a620a62b78bc508ddc0891fbbd8b7ac0f8fce87",
            "0x41af37b39c4369160933b9a7523c54ca5ec9d83fe39aada8ff8cc75426290582"
          ],
          "data": "0x0000000000000000000000000000000000000000000000000000000012e4525700000000000000000000000000000000000000000000000000000000000000000000000000000000000000000000000000000000000000000000000000000000",
          "blockHash": "0x0c9f8c7000c85d6c422e7e5c73530b36fbd4c847770020c331978c89dd17786f",
          "blockNumber": "0x162a63e",
          "blockTimestamp": "0x68b0ca03",
          "transactionHash": "0xbca37563102434a062f074c6b124a309cb1e4ddb41971c7f6c95775ae393e744",
          "transactionIndex": "0xe6",
          "logIndex": "0x409",
          "removed": false
        },
        {
          "address": "0xbbbbbbbbbb9cc5e90e3b3af64bdaf62c37eeffcb",
          "topics": [
            "0xedf8870433c83823eb071d3df1caa8d008f12f6440918c20d75a3602cda30fe0",
            "0x41af37b39c4369160933b9a7523c54ca5ec9d83fe39aada8ff8cc75426290582",
            "0x0000000000000000000000006539519e69343535a2af6583d9bae3ad74c6a293",
            "0x0000000000000000000000006539519e69343535a2af6583d9bae3ad74c6a293"
          ],
          "data": "0x00000000000000000000000000000000000000000000000000000000000f4240000000000000000000000000000000000000000000000000000000e8d4a51000",
          "blockHash": "0x0c9f8c7000c85d6c422e7e5c73530b36fbd4c847770020c331978c89dd17786f",
          "blockNumber": "0x162a63e",
          "blockTimestamp": "0x68b0ca03",
          "transactionHash": "0xbca37563102434a062f074c6b124a309cb1e4ddb41971c7f6c95775ae393e744",
          "transactionIndex": "0xe6",
          "logIndex": "0x40a",
          "removed": false
        },
        {
          "address": "0xa0b86991c6218b36c1d19d4a2e9eb0ce3606eb48",
          "topics": [
            "0xddf252ad1be2c89b69c2b068fc378daa952ba7f163c4a11628f55a4df523b3ef",
            "0x0000000000000000000000006539519e69343535a2af6583d9bae3ad74c6a293",
            "0x000000000000000000000000bbbbbbbbbb9cc5e90e3b3af64bdaf62c37eeffcb"
          ],
          "data": "0x00000000000000000000000000000000000000000000000000000000000f4240",
          "blockHash": "0x0c9f8c7000c85d6c422e7e5c73530b36fbd4c847770020c331978c89dd17786f",
          "blockNumber": "0x162a63e",
          "blockTimestamp": "0x68b0ca03",
          "transactionHash": "0xbca37563102434a062f074c6b124a309cb1e4ddb41971c7f6c95775ae393e744",
          "transactionIndex": "0xe6",
          "logIndex": "0x40b",
          "removed": false
        }
      ],
      "logsBloom": "0x000000000000000000000000000000800000000000000000000000000000000000804000000001000000000000000000000000000000000000000000208440000000000000100000080000088000000000000008002000000000000800000000000000000000000000000000000000800000000000000000000000100000000000000000000000080000000000000000000000000100000000000000000000000000000000002000000000000000000000000000000000000000000000000000a0002002000000000001000000000000000000000000000000000000000000400000000001100000000000200001000000000000000000000000000000000000",
      "type": "0x2",
      "transactionHash": "0xbca37563102434a062f074c6b124a309cb1e4ddb41971c7f6c95775ae393e744",
      "transactionIndex": "0xe6",
      "blockHash": "0x0c9f8c7000c85d6c422e7e5c73530b36fbd4c847770020c331978c89dd17786f",
      "blockNumber": "0x162a63e",
      "gasUsed": "0x1ffe4",
      "effectiveGasPrice": "0xfd619c9",
      "from": "0x6539519e69343535a2af6583d9bae3ad74c6a293",
      "to": "0xbbbbbbbbbb9cc5e90e3b3af64bdaf62c37eeffcb",
      "contractAddress": null
    }
  ],
  "libraries": [],
  "pending": [],
  "returns": {},
  "timestamp": 1756416519,
  "chain": 1,
  "commit": "50a0c38"
}