{
  "transactions": [
    {
      "hash": "0x4068b110148965ad02f1a820cff13579e8a23d7f289e7f99c867b3ed4e626715",
      "transactionType": "CALL",
      "contractName": null,
      "contractAddress": "0xa0b86991c6218b36c1d19d4a2e9eb0ce3606eb48",
      "function": "approve(address,uint256)",
      "arguments": [
        "0xBBBBBbbBBb9cC5e90e3b3Af64bdAF62C37EEFFCb",
        "1000000"
      ],
      "transaction": {
        "from": "0x6539519e69343535a2af6583d9bae3ad74c6a293",
        "to": "0xa0b86991c6218b36c1d19d4a2e9eb0ce3606eb48",
        "gas": "0x12bc3",
        "value": "0x0",
        "input": "0x095ea7b3000000000000000000000000bbbbbbbbbb9cc5e90e3b3af64bdaf62c37eeffcb00000000000000000000000000000000000000000000000000000000000f4240",
        "nonce": "0x4c",
        "chainId": "0x1"
      },
      "additionalContracts": [],
      "isFixedGasLimit": false
    },
    {
      "hash": "0x88a8a62ee509ff70b35e8774d8f8eb64a08a46c61793de3c1f3284fed6075e66",
      "transactionType": "CALL",
      "contractName": null,
      "contractAddress": "0xbbbbbbbbbb9cc5e90e3b3af64bdaf62c37eeffcb",
      "function": "supply((address,address,address,address,uint256),uint256,uint256,address,bytes)",
      "arguments": [
        "(0xA0b86991c6218b36c1d19D4a2e9Eb0cE3606eB48, 0x6F5DdB7689D7bd74D29B7d6A06ceE8e39655a5Dc, 0x540DA4839F752AffEAF525f1af2EcF8F7e55D81f, 0x870aC11D48B15DB9a138Cf899d20F13F79Ba00BC, 915000000000000000)",
        "1000000",
        "0",
        "0x6539519E69343535a2aF6583D9BAE3AD74c6A293",
        "0x"
      ],
      "transaction": {
        "from": "0x6539519e69343535a2af6583d9bae3ad74c6a293",
        "to": "0xbbbbbbbbbb9cc5e90e3b3af64bdaf62c37eeffcb",
        "gas": "0x2c30c",
        "value": "0x0",
        "input": "0xa99aad89000000000000000000000000a0b86991c6218b36c1d19d4a2e9eb0ce3606eb480000000000000000000000006f5ddb7689d7bd74d29b7d6a06cee8e39655a5dc000000000000000000000000540da4839f752affeaf525f1af2ecf8f7e55d81f000000000000000000000000870ac11d48b15db9a138cf899d20f13f79ba00bc0000000000000000000000000000000000000000000000000cb2bba6f17b800000000000000000000000000000000000000000000000000000000000000f424000000000000000000000000000000000000000000000000000000000000000000000000000000000000000006539519e69343535a2af6583d9bae3ad74c6a29300000000000000000000000000000000000000000000000000000000000001200000000000000000000000000000000000000000000000000000000000000000",
        "nonce": "0x4d",
        "chainId": "0x1"
      },
      "additionalContracts": [],
      "isFixedGasLimit": false
    }
  ],
  "receipts": [
    {
      "status": "0x1",
      "cumulativeGasUsed": "0xc6fd9f",
      "logs": [
        {
          "address": "0xa0b86991c6218b36c1d19d4a2e9eb0ce3606eb48",
          "topics": [
            "0x8c5be1e5ebec7d5bd14f71427d1e84f3dd0314c0f7b2291e5b200ac8c7c3b925",
            "0x0000000000000000000000006539519e69343535a2af6583d9bae3ad74c6a293",
            "0x000000000000000000000000bbbbbbbbbb9cc5e90e3b3af64bdaf62c37eeffcb"
          ],
          "data": "0x00000000000000000000000000000000000000000000000000000000000f4240",
          "blockHash": "0x8308180551d086f0ac5d27384dbb20f10d528c0c6cafbb36d5e86b48060e44f3",
          "blockNumber": "0x162a69e",
          "blockTimestamp": "0x68b0ce83",
          "transactionHash": "0x4068b110148965ad02f1a820cff13579e8a23d7f289e7f99c867b3ed4e626715",
          "transactionIndex": "0xa0",
          "logIndex": "0x150",
          "removed": false
        }
      ],
      "logsBloom": "0x00000000000000000000000000000080000000000000000000000000000000000080000000000100000000000000000000000000000000000000000000200000000000000000000008000000000000000000000000000000000000000000000000000000000000000000000000000000000000000000000000000000000000000000000000000000000000000000000000000000010000000000000000000000020000000000200000000000000000000000000000000000000000000000000000000000000000000000000000000000000000000000000000000000000000000010000001100000000000200000000000000000000000000000000000000000",
      "type": "0x2",
      "transactionHash": "0x4068b110148965ad02f1a820cff13579e8a23d7f289e7f99c867b3ed4e626715",
      "transactionIndex": "0xa0",
      "blockHash": "0x8308180551d086f0ac5d27384dbb20f10d528c0c6cafbb36d5e86b48060e44f3",
      "blockNumber": "0x162a69e",
      "gasUsed": "0xd906",
      "effectiveGasPrice": "0x12762023",
      "from": "0x6539519e69343535a2af6583d9bae3ad74c6a293",
      "to": "0xa0b86991c6218b36c1d19d4a2e9eb0ce3606eb48",
      "contractAddress": null
    },
    {
      "status": "0x1",
      "cumulativeGasUsed": "0xc8fd83",
      "logs": [
        {
          "address": "0x870ac11d48b15db9a138cf899d20f13f79ba00bc",
          "topics": [
            "0x7120161a7b3d31251e01294ab351ef15a41b91659a36032e4641bb89b121e321",
            "0x1aba34974778fcec0ab70e7e7af67ca3ce444e62580fd351faff86cd222774a9"
          ],
          "data": "0x0000000000000000000000000000000000000000000000000000000012e549a9000000000000000000000000000000000000000000000000000000004b902e73",
          "blockHash": "0x8308180551d086f0ac5d27384dbb20f10d528c0c6cafbb36d5e86b48060e44f3",
          "blockNumber": "0x162a69e",
          "blockTimestamp": "0x68b0ce83",
          "transactionHash": "0x88a8a62ee509ff70b35e8774d8f8eb64a08a46c61793de3c1f3284fed6075e66",
          "transactionIndex": "0xa1",
          "logIndex": "0x151",
          "removed": false
        },
        {
          "address": "0xbbbbbbbbbb9cc5e90e3b3af64bdaf62c37eeffcb",
          "topics": [
            "0x9d9bd501d0657d7dfe415f779a620a62b78bc508ddc0891fbbd8b7ac0f8fce87",
            "0x1aba34974778fcec0ab70e7e7af67ca3ce444e62580fd351faff86cd222774a9"
          ],
          "data": "0x0000000000000000000000000000000000000000000000000000000012e549a900000000000000000000000000000000000000000000000000000000000000000000000000000000000000000000000000000000000000000000000000000000",
          "blockHash": "0x8308180551d086f0ac5d27384dbb20f10d528c0c6cafbb36d5e86b48060e44f3",
          "blockNumber": "0x162a69e",
          "blockTimestamp": "0x68b0ce83",
          "transactionHash": "0x88a8a62ee509ff70b35e8774d8f8eb64a08a46c61793de3c1f3284fed6075e66",
          "transactionIndex": "0xa1",
          "logIndex": "0x152",
          "removed": false
        },
        {
          "address": "0xbbbbbbbbbb9cc5e90e3b3af64bdaf62c37eeffcb",
          "topics": [
            "0xedf8870433c83823eb071d3df1caa8d008f12f6440918c20d75a3602cda30fe0",
            "0x1aba34974778fcec0ab70e7e7af67ca3ce444e62580fd351faff86cd222774a9",
            "0x0000000000000000000000006539519e69343535a2af6583d9bae3ad74c6a293",
            "0x0000000000000000000000006539519e69343535a2af6583d9bae3ad74c6a293"
          ],
          "data": "0x00000000000000000000000000000000000000000000000000000000000f4240000000000000000000000000000000000000000000000000000000e8d4a51000",
          "blockHash": "0x8308180551d086f0ac5d27384dbb20f10d528c0c6cafbb36d5e86b48060e44f3",
          "blockNumber": "0x162a69e",
          "blockTimestamp": "0x68b0ce83",
          "transactionHash": "0x88a8a62ee509ff70b35e8774d8f8eb64a08a46c61793de3c1f3284fed6075e66",
          "transactionIndex": "0xa1",
          "logIndex": "0x153",
          "removed": false
        },
        {
          "address": "0xa0b86991c6218b36c1d19d4a2e9eb0ce3606eb48",
          "topics": [
            "0xddf252ad1be2c89b69c2b068fc378daa952ba7f163c4a11628f55a4df523b3ef",
            "0x0000000000000000000000006539519e69343535a2af6583d9bae3ad74c6a293",
            "0x000000000000000000000000bbbbbbbbbb9cc5e90e3b3af64bdaf62c37eeffcb"
          ],
          "data": "0x00000000000000000000000000000000000000000000000000000000000f4240",
          "blockHash": "0x8308180551d086f0ac5d27384dbb20f10d528c0c6cafbb36d5e86b48060e44f3",
          "blockNumber": "0x162a69e",
          "blockTimestamp": "0x68b0ce83",
          "transactionHash": "0x88a8a62ee509ff70b35e8774d8f8eb64a08a46c61793de3c1f3284fed6075e66",
          "transactionIndex": "0xa1",
          "logIndex": "0x154",
          "removed": false
        }
      ],
      "logsBloom": "0x00000000000000000000000000000080000000000000000000000000000000000080400000000100000000000000000000000000000000000000000020944000000000000010000008000008800000000000000800200000000000080000000000000000000000000000000000000000000000000000000000000010000000000000000000000008000000000000000000000000010000000000000000000000000000000000200000000000000000000000000000000000000000000000000020000002000800000001000000000000000000000000000000000000000000400000000001100000000000200001000000000000010000000000000000000000",
      "type": "0x2",
      "transactionHash": "0x88a8a62ee509ff70b35e8774d8f8eb64a08a46c61793de3c1f3284fed6075e66",
      "transactionIndex": "0xa1",
      "blockHash": "0x8308180551d086f0ac5d27384dbb20f10d528c0c6cafbb36d5e86b48060e44f3",
      "blockNumber": "0x162a69e",
      "gasUsed": "0x1ffe4",
      "effectiveGasPrice": "0x12762023",
      "from": "0x6539519e69343535a2af6583d9bae3ad74c6a293",
      "to": "0xbbbbbbbbbb9cc5e90e3b3af64bdaf62c37eeffcb",
      "contractAddress": null
    }
  ],
  "libraries": [],
  "pending": [],
  "returns": {},
  "timestamp": 1756417671,
  "chain": 1,
  "commit": "2a7395c"
}