{
  "transactions": [
    {
      "hash": "0x3fc8e7cb55643836bae4b429c22db1461500894043e370507bce35a45bd32355",
      "transactionType": "CALL",
      "contractName": null,
      "contractAddress": "0x6440f144b7e50d6a8439336510312d2f54beb01d",
      "function": "approve(address,uint256)",
      "arguments": [
        "0xBBBBBbbBBb9cC5e90e3b3Af64bdAF62C37EEFFCb",
        "1000000000000000000"
      ],
      "transaction": {
        "from": "0x6539519e69343535a2af6583d9bae3ad74c6a293",
        "to": "0x6440f144b7e50d6a8439336510312d2f54beb01d",
        "gas": "0xf9d0",
        "value": "0x0",
        "input": "0x095ea7b3000000000000000000000000bbbbbbbbbb9cc5e90e3b3af64bdaf62c37eeffcb0000000000000000000000000000000000000000000000000de0b6b3a7640000",
        "nonce": "0x19",
        "chainId": "0x1"
      },
      "additionalContracts": [],
      "isFixedGasLimit": false
    },
    {
      "hash": "0xa083e5af486c87fcdff9f2e68d56a912df51efc58bff6fee4dd995a5ef7864c0",
      "transactionType": "CALL",
      "contractName": null,
      "contractAddress": "0xbbbbbbbbbb9cc5e90e3b3af64bdaf62c37eeffcb",
      "function": "supply((address,address,address,address,uint256),uint256,uint256,address,bytes)",
      "arguments": [
        "(0x6440f144b7e50D6a8439336510312d2F54beB01D, 0x23346B04a7f55b8760E5860AA5A77383D63491cD, 0x173b7573B2604eEd1B36c88902b236af54B02ef4, 0x870aC11D48B15DB9a138Cf899d20F13F79Ba00BC, 915000000000000000)",
        "1000000000000000000",
        "0",
        "0x6539519E69343535a2aF6583D9BAE3AD74c6A293",
        "0x"
      ],
      "transaction": {
        "from": "0x6539519e69343535a2af6583d9bae3ad74c6a293",
        "to": "0xbbbbbbbbbb9cc5e90e3b3af64bdaf62c37eeffcb",
        "gas": "0x292ab",
        "value": "0x0",
        "input": "0xa99aad890000000000000000000000006440f144b7e50d6a8439336510312d2f54beb01d00000000000000000000000023346b04a7f55b8760e5860aa5a77383d63491cd000000000000000000000000173b7573b2604eed1b36c88902b236af54b02ef4000000000000000000000000870ac11d48b15db9a138cf899d20f13f79ba00bc0000000000000000000000000000000000000000000000000cb2bba6f17b80000000000000000000000000000000000000000000000000000de0b6b3a764000000000000000000000000000000000000000000000000000000000000000000000000000000000000000000006539519e69343535a2af6583d9bae3ad74c6a29300000000000000000000000000000000000000000000000000000000000001200000000000000000000000000000000000000000000000000000000000000000",
        "nonce": "0x1a",
        "chainId": "0x1"
      },
      "additionalContracts": [],
      "isFixedGasLimit": false
    }
  ],
  "receipts": [
    {
      "status": "0x1",
      "cumulativeGasUsed": "0x145ee63",
      "logs": [
        {
          "address": "0x6440f144b7e50d6a8439336510312d2f54beb01d",
          "topics": [
            "0x8c5be1e5ebec7d5bd14f71427d1e84f3dd0314c0f7b2291e5b200ac8c7c3b925",
            "0x0000000000000000000000006539519e69343535a2af6583d9bae3ad74c6a293",
            "0x000000000000000000000000bbbbbbbbbb9cc5e90e3b3af64bdaf62c37eeffcb"
          ],
          "data": "0x0000000000000000000000000000000000000000000000000de0b6b3a7640000",
          "blockHash": "0x69b2df4089a17b8f05a5d24233d1e00b82b847ec7791aba12bd51578b9a5773d",
          "blockNumber": "0x15bba1d",
          "blockTimestamp": "0x685d3dcb",
          "transactionHash": "0x3fc8e7cb55643836bae4b429c22db1461500894043e370507bce35a45bd32355",
          "transactionIndex": "0xfa",
          "logIndex": "0x20e",
          "removed": false
        }
      ],
      "logsBloom": "0x00000000000000000000000004000080000000000000000000000000000000000080000000000100000000000000000000000000000000000000000000200000000000000000000000000000000000000000000000000000000000000000000000000000000000000000000000000000000000000000000000000000000000010000000000000000000000000000100000000000000000000000000000000000020000000000000000000000000000000000000000000000000000000000000000000000000000000000000000000000000000000000000000000000000000000010000001100000000000200000000000000000000000000000000000000000",
      "type": "0x2",
      "transactionHash": "0x3fc8e7cb55643836bae4b429c22db1461500894043e370507bce35a45bd32355",
      "transactionIndex": "0xfa",
      "blockHash": "0x69b2df4089a17b8f05a5d24233d1e00b82b847ec7791aba12bd51578b9a5773d",
      "blockNumber": "0x15bba1d",
      "gasUsed": "0xb4dd",
      "effectiveGasPrice": "0x6560217d",
      "from": "0x6539519e69343535a2af6583d9bae3ad74c6a293",
      "to": "0x6440f144b7e50d6a8439336510312d2f54beb01d",
      "contractAddress": null
    },
    {
      "status": "0x1",
      "cumulativeGasUsed": "0x147cb41",
      "logs": [
        {
          "address": "0x870ac11d48b15db9a138cf899d20f13f79ba00bc",
          "topics": [
            "0x7120161a7b3d31251e01294ab351ef15a41b91659a36032e4641bb89b121e321",
            "0xda6e6163096ebbcf1fe1d1ff872bd2d3bded1434f189a4648371336340257acd"
          ],
          "data": "0x0000000000000000000000000000000000000000000000000000000012aefff30000000000000000000000000000000000000000000000000000000049df2ca8",
          "blockHash": "0x69b2df4089a17b8f05a5d24233d1e00b82b847ec7791aba12bd51578b9a5773d",
          "blockNumber": "0x15bba1d",
          "blockTimestamp": "0x685d3dcb",
          "transactionHash": "0xa083e5af486c87fcdff9f2e68d56a912df51efc58bff6fee4dd995a5ef7864c0",
          "transactionIndex": "0xfb",
          "logIndex": "0x20f",
          "removed": false
        },
        {
          "address": "0xbbbbbbbbbb9cc5e90e3b3af64bdaf62c37eeffcb",
          "topics": [
            "0x9d9bd501d0657d7dfe415f779a620a62b78bc508ddc0891fbbd8b7ac0f8fce87",
            "0xda6e6163096ebbcf1fe1d1ff872bd2d3bded1434f189a4648371336340257acd"
          ],
          "data": "0x0000000000000000000000000000000000000000000000000000000012aefff300000000000000000000000000000000000000000000000000000000000000000000000000000000000000000000000000000000000000000000000000000000",
          "blockHash": "0x69b2df4089a17b8f05a5d24233d1e00b82b847ec7791aba12bd51578b9a5773d",
          "blockNumber": "0x15bba1d",
          "blockTimestamp": "0x685d3dcb",
          "transactionHash": "0xa083e5af486c87fcdff9f2e68d56a912df51efc58bff6fee4dd995a5ef7864c0",
          "transactionIndex": "0xfb",
          "logIndex": "0x210",
          "removed": false
        },
        {
          "address": "0xbbbbbbbbbb9cc5e90e3b3af64bdaf62c37eeffcb",
          "topics": [
            "0xedf8870433c83823eb071d3df1caa8d008f12f6440918c20d75a3602cda30fe0",
            "0xda6e6163096ebbcf1fe1d1ff872bd2d3bded1434f189a4648371336340257acd",
            "0x0000000000000000000000006539519e69343535a2af6583d9bae3ad74c6a293",
            "0x0000000000000000000000006539519e69343535a2af6583d9bae3ad74c6a293"
          ],
          "data": "0x0000000000000000000000000000000000000000000000000de0b6b3a764000000000000000000000000000000000000000000000000d3c21bcecceda1000000",
          "blockHash": "0x69b2df4089a17b8f05a5d24233d1e00b82b847ec7791aba12bd51578b9a5773d",
          "blockNumber": "0x15bba1d",
          "blockTimestamp": "0x685d3dcb",
          "transactionHash": "0xa083e5af486c87fcdff9f2e68d56a912df51efc58bff6fee4dd995a5ef7864c0",
          "transactionIndex": "0xfb",
          "logIndex": "0x211",
          "removed": false
        },
        {
          "address": "0x6440f144b7e50d6a8439336510312d2f54beb01d",
          "topics": [
            "0x8c5be1e5ebec7d5bd14f71427d1e84f3dd0314c0f7b2291e5b200ac8c7c3b925",
            "0x0000000000000000000000006539519e69343535a2af6583d9bae3ad74c6a293",
            "0x000000000000000000000000bbbbbbbbbb9cc5e90e3b3af64bdaf62c37eeffcb"
          ],
          "data": "0x0000000000000000000000000000000000000000000000000000000000000000",
          "blockHash": "0x69b2df4089a17b8f05a5d24233d1e00b82b847ec7791aba12bd51578b9a5773d",
          "blockNumber": "0x15bba1d",
          "blockTimestamp": "0x685d3dcb",
          "transactionHash": "0xa083e5af486c87fcdff9f2e68d56a912df51efc58bff6fee4dd995a5ef7864c0",
          "transactionIndex": "0xfb",
          "logIndex": "0x212",
          "removed": false
        },
        {
          "address": "0x6440f144b7e50d6a8439336510312d2f54beb01d",
          "topics": [
            "0xddf252ad1be2c89b69c2b068fc378daa952ba7f163c4a11628f55a4df523b3ef",
            "0x0000000000000000000000006539519e69343535a2af6583d9bae3ad74c6a293",
            "0x000000000000000000000000bbbbbbbbbb9cc5e90e3b3af64bdaf62c37eeffcb"
          ],
          "data": "0x0000000000000000000000000000000000000000000000000de0b6b3a7640000",
          "blockHash": "0x69b2df4089a17b8f05a5d24233d1e00b82b847ec7791aba12bd51578b9a5773d",
          "blockNumber": "0x15bba1d",
          "blockTimestamp": "0x685d3dcb",
          "transactionHash": "0xa083e5af486c87fcdff9f2e68d56a912df51efc58bff6fee4dd995a5ef7864c0",
          "transactionIndex": "0xfb",
          "logIndex": "0x213",
          "removed": false
        }
      ],
      "logsBloom": "0x00000000000000000000000004000080000000000000000000000000000000000080400000000100000000000000000000000000000000000000000020a44000000000000010000000000008800000000000000800200000000000080000000000000000000000000000000000000008000000000000000000000010000000010000000000000008000000000000100000000000000000000000000000000000020000000000000000000000000000000000000000000000000000000800000020000002000000000001000008000000000000000000000000000000000000400010000001100000000000200001000000000000000000000000000000000000",
      "type": "0x2",
      "transactionHash": "0xa083e5af486c87fcdff9f2e68d56a912df51efc58bff6fee4dd995a5ef7864c0",
      "transactionIndex": "0xfb",
      "blockHash": "0x69b2df4089a17b8f05a5d24233d1e00b82b847ec7791aba12bd51578b9a5773d",
      "blockNumber": "0x15bba1d",
      "gasUsed": "0x1dcde",
      "effectiveGasPrice": "0x6560217d",
      "from": "0x6539519e69343535a2af6583d9bae3ad74c6a293",
      "to": "0xbbbbbbbbbb9cc5e90e3b3af64bdaf62c37eeffcb",
      "contractAddress": null
    }
  ],
  "libraries": [],
  "pending": [],
  "returns": {},
  "timestamp": 1750941134,
  "chain": 1,
  "commit": "73e66cf"
}