{
  "transactions": [
    {
      "hash": "0x2d5b45b0ba1b414e315b028ec50395d24e7824e29cfceff2a1f0c990836302d6",
      "transactionType": "CALL",
      "contractName": null,
      "contractAddress": "0xa0b86991c6218b36c1d19d4a2e9eb0ce3606eb48",
      "function": "approve(address,uint256)",
      "arguments": [
        "0xBBBBBbbBBb9cC5e90e3b3Af64bdAF62C37EEFFCb",
        "1000000"
      ],
      "transaction": {
        "from": "0x6539519e69343535a2af6583d9bae3ad74c6a293",
        "to": "0xa0b86991c6218b36c1d19d4a2e9eb0ce3606eb48",
        "gas": "0x12bc3",
        "value": "0x0",
        "input": "0x095ea7b3000000000000000000000000bbbbbbbbbb9cc5e90e3b3af64bdaf62c37eeffcb00000000000000000000000000000000000000000000000000000000000f4240",
        "nonce": "0x25",
        "chainId": "0x1"
      },
      "additionalContracts": [],
      "isFixedGasLimit": false
    },
    {
      "hash": "0x40e5f480b545c52d19994c7959984046c2c0bb04de08ae9e4456fb4edc7f63c5",
      "transactionType": "CALL",
      "contractName": null,
      "contractAddress": "0xbbbbbbbbbb9cc5e90e3b3af64bdaf62c37eeffcb",
      "function": "supply((address,address,address,address,uint256),uint256,uint256,address,bytes)",
      "arguments": [
        "(0xA0b86991c6218b36c1d19D4a2e9Eb0cE3606eB48, 0x1Ff893C9071d04F8A965a90FcB0de22406A3eEaa, 0x9e74B4DbD2a0f027074A68E3f0373Fc4e960b5e1, 0x870aC11D48B15DB9a138Cf899d20F13F79Ba00BC, 915000000000000000)",
        "1000000",
        "0",
        "0x6539519E69343535a2aF6583D9BAE3AD74c6A293",
        "0x"
      ],
      "transaction": {
        "from": "0x6539519e69343535a2af6583d9bae3ad74c6a293",
        "to": "0xbbbbbbbbbb9cc5e90e3b3af64bdaf62c37eeffcb",
        "gas": "0x2c33b",
        "value": "0x0",
        "input": "0xa99aad89000000000000000000000000a0b86991c6218b36c1d19d4a2e9eb0ce3606eb480000000000000000000000001ff893c9071d04f8a965a90fcb0de22406a3eeaa0000000000000000000000009e74b4dbd2a0f027074a68e3f0373fc4e960b5e1000000000000000000000000870ac11d48b15db9a138cf899d20f13f79ba00bc0000000000000000000000000000000000000000000000000cb2bba6f17b800000000000000000000000000000000000000000000000000000000000000f424000000000000000000000000000000000000000000000000000000000000000000000000000000000000000006539519e69343535a2af6583d9bae3ad74c6a29300000000000000000000000000000000000000000000000000000000000001200000000000000000000000000000000000000000000000000000000000000000",
        "nonce": "0x26",
        "chainId": "0x1"
      },
      "additionalContracts": [],
      "isFixedGasLimit": false
    }
  ],
  "receipts": [
    {
      "status": "0x1",
      "cumulativeGasUsed": "0x10946a1",
      "logs": [
        {
          "address": "0xa0b86991c6218b36c1d19d4a2e9eb0ce3606eb48",
          "topics": [
            "0x8c5be1e5ebec7d5bd14f71427d1e84f3dd0314c0f7b2291e5b200ac8c7c3b925",
            "0x0000000000000000000000006539519e69343535a2af6583d9bae3ad74c6a293",
            "0x000000000000000000000000bbbbbbbbbb9cc5e90e3b3af64bdaf62c37eeffcb"
          ],
          "data": "0x00000000000000000000000000000000000000000000000000000000000f4240",
          "blockHash": "0x5fab9aa79556117a27996fdbc1d9e4eb6a72d6dc2364b208dbea931c9ec3b141",
          "blockNumber": "0x15dec0f",
          "blockTimestamp": "0x6877bdeb",
          "transactionHash": "0x2d5b45b0ba1b414e315b028ec50395d24e7824e29cfceff2a1f0c990836302d6",
          "transactionIndex": "0xf3",
          "logIndex": "0x1bd",
          "removed": false
        }
      ],
      "logsBloom": "0x00000000000000000000000000000080000000000000000000000000000000000080000000000100000000000000000000000000000000000000000000200000000000000000000008000000000000000000000000000000000000000000000000000000000000000000000000000000000000000000000000000000000000000000000000000000000000000000000000000000010000000000000000000000020000000000200000000000000000000000000000000000000000000000000000000000000000000000000000000000000000000000000000000000000000000010000001100000000000200000000000000000000000000000000000000000",
      "type": "0x2",
      "transactionHash": "0x2d5b45b0ba1b414e315b028ec50395d24e7824e29cfceff2a1f0c990836302d6",
      "transactionIndex": "0xf3",
      "blockHash": "0x5fab9aa79556117a27996fdbc1d9e4eb6a72d6dc2364b208dbea931c9ec3b141",
      "blockNumber": "0x15dec0f",
      "gasUsed": "0xd906",
      "effectiveGasPrice": "0x2f22ee5b0",
      "from": "0x6539519e69343535a2af6583d9bae3ad74c6a293",
      "to": "0xa0b86991c6218b36c1d19d4a2e9eb0ce3606eb48",
      "contractAddress": null
    },
    {
      "status": "0x1",
      "cumulativeGasUsed": "0x10b46a7",
      "logs": [
        {
          "address": "0x870ac11d48b15db9a138cf899d20f13f79ba00bc",
          "topics": [
            "0x7120161a7b3d31251e01294ab351ef15a41b91659a36032e4641bb89b121e321",
            "0xf12143027d7f757a1b4572bf2158d7dc88eef93631328b28fdbd351cdf1039bf"
          ],
          "data": "0x000000000000000000000000000000000000000000000000000000000d99f9820000000000000000000000000000000000000000000000000000000024e662e1",
          "blockHash": "0x5fab9aa79556117a27996fdbc1d9e4eb6a72d6dc2364b208dbea931c9ec3b141",
          "blockNumber": "0x15dec0f",
          "blockTimestamp": "0x6877bdeb",
          "transactionHash": "0x40e5f480b545c52d19994c7959984046c2c0bb04de08ae9e4456fb4edc7f63c5",
          "transactionIndex": "0xf4",
          "logIndex": "0x1be",
          "removed": false
        },
        {
          "address": "0xbbbbbbbbbb9cc5e90e3b3af64bdaf62c37eeffcb",
          "topics": [
            "0x9d9bd501d0657d7dfe415f779a620a62b78bc508ddc0891fbbd8b7ac0f8fce87",
            "0xf12143027d7f757a1b4572bf2158d7dc88eef93631328b28fdbd351cdf1039bf"
          ],
          "data": "0x000000000000000000000000000000000000000000000000000000000d99f98200000000000000000000000000000000000000000000000000000000000000000000000000000000000000000000000000000000000000000000000000000000",
          "blockHash": "0x5fab9aa79556117a27996fdbc1d9e4eb6a72d6dc2364b208dbea931c9ec3b141",
          "blockNumber": "0x15dec0f",
          "blockTimestamp": "0x6877bdeb",
          "transactionHash": "0x40e5f480b545c52d19994c7959984046c2c0bb04de08ae9e4456fb4edc7f63c5",
          "transactionIndex": "0xf4",
          "logIndex": "0x1bf",
          "removed": false
        },
        {
          "address": "0xbbbbbbbbbb9cc5e90e3b3af64bdaf62c37eeffcb",
          "topics": [
            "0xedf8870433c83823eb071d3df1caa8d008f12f6440918c20d75a3602cda30fe0",
            "0xf12143027d7f757a1b4572bf2158d7dc88eef93631328b28fdbd351cdf1039bf",
            "0x0000000000000000000000006539519e69343535a2af6583d9bae3ad74c6a293",
            "0x0000000000000000000000006539519e69343535a2af6583d9bae3ad74c6a293"
          ],
          "data": "0x00000000000000000000000000000000000000000000000000000000000f4240000000000000000000000000000000000000000000000000000000e8d4a51000",
          "blockHash": "0x5fab9aa79556117a27996fdbc1d9e4eb6a72d6dc2364b208dbea931c9ec3b141",
          "blockNumber": "0x15dec0f",
          "blockTimestamp": "0x6877bdeb",
          "transactionHash": "0x40e5f480b545c52d19994c7959984046c2c0bb04de08ae9e4456fb4edc7f63c5",
          "transactionIndex": "0xf4",
          "logIndex": "0x1c0",
          "removed": false
        },
        {
          "address": "0xa0b86991c6218b36c1d19d4a2e9eb0ce3606eb48",
          "topics": [
            "0xddf252ad1be2c89b69c2b068fc378daa952ba7f163c4a11628f55a4df523b3ef",
            "0x0000000000000000000000006539519e69343535a2af6583d9bae3ad74c6a293",
            "0x000000000000000000000000bbbbbbbbbb9cc5e90e3b3af64bdaf62c37eeffcb"
          ],
          "data": "0x00000000000000000000000000000000000000000000000000000000000f4240",
          "blockHash": "0x5fab9aa79556117a27996fdbc1d9e4eb6a72d6dc2364b208dbea931c9ec3b141",
          "blockNumber": "0x15dec0f",
          "blockTimestamp": "0x6877bdeb",
          "transactionHash": "0x40e5f480b545c52d19994c7959984046c2c0bb04de08ae9e4456fb4edc7f63c5",
          "transactionIndex": "0xf4",
          "logIndex": "0x1c1",
          "removed": false
        }
      ],
      "logsBloom": "0x00000000000000000000000000000080000000000000000000200000000000000080400000000100000000000000000000000000000000000000000028844000000000000110000008000008800000000000000800200000000000080000000000000000000000000000000000000000000000000000000000000010000000000000000000000008000000000000000000000000010000000000000000000000000000000000200000000000000000000000000000000000000000000000000020000002000000000001000000000000000000000000000000000000000000400000000001100000000000200001000000000000000000000000000000000000",
      "type": "0x2",
      "transactionHash": "0x40e5f480b545c52d19994c7959984046c2c0bb04de08ae9e4456fb4edc7f63c5",
      "transactionIndex": "0xf4",
      "blockHash": "0x5fab9aa79556117a27996fdbc1d9e4eb6a72d6dc2364b208dbea931c9ec3b141",
      "blockNumber": "0x15dec0f",
      "gasUsed": "0x20006",
      "effectiveGasPrice": "0x2f22ee5b0",
      "from": "0x6539519e69343535a2af6583d9bae3ad74c6a293",
      "to": "0xbbbbbbbbbb9cc5e90e3b3af64bdaf62c37eeffcb",
      "contractAddress": null
    }
  ],
  "libraries": [],
  "pending": [],
  "returns": {},
  "timestamp": 1752677869,
  "chain": 1,
  "commit": "ba4dfad"
}