{
  "transactions": [
    {
      "hash": "0x9c68651e6f5ce8fd88a3506a7298b059dc7e88ed991177ec1c799483bcc7627a",
      "transactionType": "CALL",
      "contractName": null,
      "contractAddress": "0xbbbbbbbbbb9cc5e90e3b3af64bdaf62c37eeffcb",
      "function": "borrow((address,address,address,address,uint256),uint256,uint256,address,address)",
      "arguments": [
        "(0x833589fCD6eDb6E08f4c7C32D4f71b54bdA02913, 0xB67675158B412D53fe6B68946483ba920b135bA1, 0x31fB76310E7AA59f4994af8cb6a420c39669604A, 0x46415998764C29aB2a25CbeA6254146D50D22687, 915000000000000000)",
        "1923123",
        "0",
        "0x6539519E69343535a2aF6583D9BAE3AD74c6A293",
        "0x6539519E69343535a2aF6583D9BAE3AD74c6A293"
      ],
      "transaction": {
        "from": "0x6539519e69343535a2af6583d9bae3ad74c6a293",
        "to": "0xbbbbbbbbbb9cc5e90e3b3af64bdaf62c37eeffcb",
        "gas": "0x40bbf",
        "value": "0x0",
        "input": "0x50d8cd4b000000000000000000000000833589fcd6edb6e08f4c7c32d4f71b54bda02913000000000000000000000000b67675158b412d53fe6b68946483ba920b135ba100000000000000000000000031fb76310e7aa59f4994af8cb6a420c39669604a00000000000000000000000046415998764c29ab2a25cbea6254146d50d226870000000000000000000000000000000000000000000000000cb2bba6f17b800000000000000000000000000000000000000000000000000000000000001d583300000000000000000000000000000000000000000000000000000000000000000000000000000000000000006539519e69343535a2af6583d9bae3ad74c6a2930000000000000000000000006539519e69343535a2af6583d9bae3ad74c6a293",
        "nonce": "0xa",
        "chainId": "0x2105"
      },
      "additionalContracts": [],
      "isFixedGasLimit": false
    }
  ],
  "receipts": [
    {
      "status": "0x1",
      "cumulativeGasUsed": "0x33f70d3",
      "logs": [
        {
          "address": "0x46415998764c29ab2a25cbea6254146d50d22687",
          "topics": [
            "0x7120161a7b3d31251e01294ab351ef15a41b91659a36032e4641bb89b121e321",
            "0x5a24250884b607439e8eb2a5bf7e4f6647af665936f47d0a8509ff783b3916ec"
          ],
          "data": "0x0000000000000000000000000000000000000000000000000000000012def4f4000000000000000000000000000000000000000000000000000000004b78656b",
          "blockHash": "0x3c4c803cf1c79d66720dcd91657ec917482db7bca45260a5cb59ee2733a9d474",
          "blockNumber": "0x1e59f26",
          "transactionHash": "0x9c68651e6f5ce8fd88a3506a7298b059dc7e88ed991177ec1c799483bcc7627a",
          "transactionIndex": "0xb9",
          "logIndex": "0x2bc",
          "removed": false
        },
        {
          "address": "0xbbbbbbbbbb9cc5e90e3b3af64bdaf62c37eeffcb",
          "topics": [
            "0x9d9bd501d0657d7dfe415f779a620a62b78bc508ddc0891fbbd8b7ac0f8fce87",
            "0x5a24250884b607439e8eb2a5bf7e4f6647af665936f47d0a8509ff783b3916ec"
          ],
          "data": "0x0000000000000000000000000000000000000000000000000000000012def4f400000000000000000000000000000000000000000000000000000000000000000000000000000000000000000000000000000000000000000000000000000000",
          "blockHash": "0x3c4c803cf1c79d66720dcd91657ec917482db7bca45260a5cb59ee2733a9d474",
          "blockNumber": "0x1e59f26",
          "transactionHash": "0x9c68651e6f5ce8fd88a3506a7298b059dc7e88ed991177ec1c799483bcc7627a",
          "transactionIndex": "0xb9",
          "logIndex": "0x2bd",
          "removed": false
        },
        {
          "address": "0xbbbbbbbbbb9cc5e90e3b3af64bdaf62c37eeffcb",
          "topics": [
            "0x570954540bed6b1304a87dfe815a5eda4a648f7097a16240dcd85c9b5fd42a43",
            "0x5a24250884b607439e8eb2a5bf7e4f6647af665936f47d0a8509ff783b3916ec",
            "0x0000000000000000000000006539519e69343535a2af6583d9bae3ad74c6a293",
            "0x0000000000000000000000006539519e69343535a2af6583d9bae3ad74c6a293"
          ],
          "data": "0x0000000000000000000000006539519e69343535a2af6583d9bae3ad74c6a29300000000000000000000000000000000000000000000000000000000001d5833000000000000000000000000000000000000000000000000000001bfc31032c0",
          "blockHash": "0x3c4c803cf1c79d66720dcd91657ec917482db7bca45260a5cb59ee2733a9d474",
          "blockNumber": "0x1e59f26",
          "transactionHash": "0x9c68651e6f5ce8fd88a3506a7298b059dc7e88ed991177ec1c799483bcc7627a",
          "transactionIndex": "0xb9",
          "logIndex": "0x2be",
          "removed": false
        },
        {
          "address": "0x833589fcd6edb6e08f4c7c32d4f71b54bda02913",
          "topics": [
            "0xddf252ad1be2c89b69c2b068fc378daa952ba7f163c4a11628f55a4df523b3ef",
            "0x000000000000000000000000bbbbbbbbbb9cc5e90e3b3af64bdaf62c37eeffcb",
            "0x0000000000000000000000006539519e69343535a2af6583d9bae3ad74c6a293"
          ],
          "data": "0x00000000000000000000000000000000000000000000000000000000001d5833",
          "blockHash": "0x3c4c803cf1c79d66720dcd91657ec917482db7bca45260a5cb59ee2733a9d474",
          "blockNumber": "0x1e59f26",
          "transactionHash": "0x9c68651e6f5ce8fd88a3506a7298b059dc7e88ed991177ec1c799483bcc7627a",
          "transactionIndex": "0xb9",
          "logIndex": "0x2bf",
          "removed": false
        }
      ],
      "logsBloom": "0x20000000000000100002000000000080000000000000000000000000000000000080400000000100000000000000100000000000000000000000000020804000000000000010000000000008000000000000000000080000000000080000000000800000000000000000000000000000000000000000000000000010000000000000000000000008000000000000000000000000000000000008000000000000000000000000000000000000000000000000000000000000000000000000000020000002000000000000000000000000000100000000000000000000000000000000004001101008000000200001000000000000000000000000000000000000",
      "type": "0x2",
      "transactionHash": "0x9c68651e6f5ce8fd88a3506a7298b059dc7e88ed991177ec1c799483bcc7627a",
      "transactionIndex": "0xb9",
      "blockHash": "0x3c4c803cf1c79d66720dcd91657ec917482db7bca45260a5cb59ee2733a9d474",
      "blockNumber": "0x1e59f26",
      "gasUsed": "0x2edde",
      "effectiveGasPrice": "0x88e9009",
      "from": "0x6539519e69343535a2af6583d9bae3ad74c6a293",
      "to": "0xbbbbbbbbbb9cc5e90e3b3af64bdaf62c37eeffcb",
      "contractAddress": null,
      "l1BaseFeeScalar": "0x8dd",
      "l1BlobBaseFee": "0x1",
      "l1BlobBaseFeeScalar": "0x101c12",
      "l1Fee": "0xb7d988bce",
      "l1GasPrice": "0x1a8ac5c33",
      "l1GasUsed": "0xbec"
    }
  ],
  "libraries": [],
  "pending": [],
  "returns": {},
  "timestamp": 1750440752,
  "chain": 8453,
  "commit": "4de0748"
}