{
  "transactions": [
    {
      "hash": "0x993d91de594175d9d6f603aabf157d27d050c148bd8823681bccf71fd5eb2bb3",
      "transactionType": "CALL",
      "contractName": null,
      "contractAddress": "0x6c247b1f6182318877311737bac0844baa518f5e",
      "function": "createMarket((address,address,address,address,uint256))",
      "arguments": [
        "(0xaf88d065e77c8cC2239327C5EDb3A432268e5831, 0x6eAf19b2FC24552925dB245F9Ff613157a7dbb4C, 0x14A7F156062D35861a285c7A7F5662964c2fe155, 0x66F30587FB8D4206918deb78ecA7d5eBbafD06DA, 915000000000000000)"
      ],
      "transaction": {
        "from": "0x6539519e69343535a2af6583d9bae3ad74c6a293",
        "to": "0x6c247b1f6182318877311737bac0844baa518f5e",
        "gas": "0x40438",
        "value": "0x0",
        "input": "0x8c1358a2000000000000000000000000af88d065e77c8cc2239327c5edb3a432268e58310000000000000000000000006eaf19b2fc24552925db245f9ff613157a7dbb4c00000000000000000000000014a7f156062d35861a285c7a7f5662964c2fe15500000000000000000000000066f30587fb8d4206918deb78eca7d5ebbafd06da0000000000000000000000000000000000000000000000000cb2bba6f17b8000",
        "nonce": "0x1",
        "chainId": "0xa4b1"
      },
      "additionalContracts": [],
      "isFixedGasLimit": false
    }
  ],
  "receipts": [
    {
      "status": "0x1",
      "cumulativeGasUsed": "0x30ad3",
      "logs": [
        {
          "address": "0x6c247b1f6182318877311737bac0844baa518f5e",
          "topics": [
            "0xac4b2400f169220b0c0afdde7a0b32e775ba727ea1cb30b35f935cdaab8683ac",
            "0x7c03103c24ccfa9188bf41a8d44423cf5492645805eb1d23d9f862717d3fe5ab"
          ],
          "data": "0x000000000000000000000000af88d065e77c8cc2239327c5edb3a432268e58310000000000000000000000006eaf19b2fc24552925db245f9ff613157a7dbb4c00000000000000000000000014a7f156062d35861a285c7a7f5662964c2fe15500000000000000000000000066f30587fb8d4206918deb78eca7d5ebbafd06da0000000000000000000000000000000000000000000000000cb2bba6f17b8000",
          "blockHash": "0x826be6b4d3fb0c94868b98e09091d677acb8b3d68e0c466392e9e11b7bcc54b6",
          "blockNumber": "0x16ce2749",
          "transactionHash": "0x993d91de594175d9d6f603aabf157d27d050c148bd8823681bccf71fd5eb2bb3",
          "transactionIndex": "0x1",
          "logIndex": "0x0",
          "removed": false
        },
        {
          "address": "0x66f30587fb8d4206918deb78eca7d5ebbafd06da",
          "topics": [
            "0x7120161a7b3d31251e01294ab351ef15a41b91659a36032e4641bb89b121e321",
            "0x7c03103c24ccfa9188bf41a8d44423cf5492645805eb1d23d9f862717d3fe5ab"
          ],
          "data": "0x0000000000000000000000000000000000000000000000000000000012e687bf000000000000000000000000000000000000000000000000000000004b9a1eff",
          "blockHash": "0x826be6b4d3fb0c94868b98e09091d677acb8b3d68e0c466392e9e11b7bcc54b6",
          "blockNumber": "0x16ce2749",
          "transactionHash": "0x993d91de594175d9d6f603aabf157d27d050c148bd8823681bccf71fd5eb2bb3",
          "transactionIndex": "0x1",
          "logIndex": "0x1",
          "removed": false
        }
      ],
      "logsBloom": "0x00000000000000000000000000000800000000000000000000000000000000080000000000000000000000000000000000000000000000000000000400804002000000000000000000000000000000000000000000000000000000000000000000000000000000000000000000000000000000000000000000000040000000000000000000000000000020000000200000000000000000000000000000000000000000000000000200000000000000000000000000000000000000000000000000000000000000000000000000000000000000000000100000800000000000000000000000000000000000000001000000000000000000000000000000000050",
      "type": "0x2",
      "transactionHash": "0x993d91de594175d9d6f603aabf157d27d050c148bd8823681bccf71fd5eb2bb3",
      "transactionIndex": "0x1",
      "blockHash": "0x826be6b4d3fb0c94868b98e09091d677acb8b3d68e0c466392e9e11b7bcc54b6",
      "blockNumber": "0x16ce2749",
      "gasUsed": "0x30ad3",
      "effectiveGasPrice": "0x989680",
      "from": "0x6539519e69343535a2af6583d9bae3ad74c6a293",
      "to": "0x6c247b1f6182318877311737bac0844baa518f5e",
      "contractAddress": null,
      "gasUsedForL1": "0x6da",
      "l1BlockNumber": "0x1659629",
      "timeboosted": false
    }
  ],
  "libraries": [],
  "pending": [],
  "returns": {},
  "timestamp": 1758739860,
  "chain": 42161,
  "commit": "53d0e91"
}