{
  "transactions": [
    {
      "hash": "0x6b0cb969fcac834b2066aa13717b1a41334070a28aee8dc01eb3134074afb7c2",
      "transactionType": "CALL",
      "contractName": null,
      "contractAddress": "0x6c247b1f6182318877311737bac0844baa518f5e",
      "function": "createMarket((address,address,address,address,uint256))",
      "arguments": [
        "(0xaf88d065e77c8cC2239327C5EDb3A432268e5831, 0x139450C2dCeF827C9A2a0Bb1CB5506260940c9fd, 0x393A33fc66C1C0742B0e65EE1C239Cf65D2aF3e4, 0x66F30587FB8D4206918deb78ecA7d5eBbafD06DA, 915000000000000000)"
      ],
      "transaction": {
        "from": "0x6539519e69343535a2af6583d9bae3ad74c6a293",
        "to": "0x6c247b1f6182318877311737bac0844baa518f5e",
        "gas": "0x43d59",
        "value": "0x0",
        "input": "0x8c1358a2000000000000000000000000af88d065e77c8cc2239327c5edb3a432268e5831000000000000000000000000139450c2dcef827c9a2a0bb1cb5506260940c9fd000000000000000000000000393a33fc66c1c0742b0e65ee1c239cf65d2af3e400000000000000000000000066f30587fb8d4206918deb78eca7d5ebbafd06da0000000000000000000000000000000000000000000000000cb2bba6f17b8000",
        "nonce": "0x8",
        "chainId": "0xa4b1"
      },
      "additionalContracts": [],
      "isFixedGasLimit": false
    }
  ],
  "receipts": [
    {
      "status": "0x1",
      "cumulativeGasUsed": "0x3d13e",
      "logs": [
        {
          "address": "0x6c247b1f6182318877311737bac0844baa518f5e",
          "topics": [
            "0xac4b2400f169220b0c0afdde7a0b32e775ba727ea1cb30b35f935cdaab8683ac",
            "0x0eedc5ee101e262ed96d49d66ff7099b1b9d996ac8007b44a6925b2f8c0626ed"
          ],
          "data": "0x000000000000000000000000af88d065e77c8cc2239327c5edb3a432268e5831000000000000000000000000139450c2dcef827c9a2a0bb1cb5506260940c9fd000000000000000000000000393a33fc66c1c0742b0e65ee1c239cf65d2af3e400000000000000000000000066f30587fb8d4206918deb78eca7d5ebbafd06da0000000000000000000000000000000000000000000000000cb2bba6f17b8000",
          "blockHash": "0x236ddd1777d23bd314a9ac2c05113d122018d2ae8960bf752c4b0be99889b98e",
          "blockNumber": "0x16ec4c61",
          "transactionHash": "0x6b0cb969fcac834b2066aa13717b1a41334070a28aee8dc01eb3134074afb7c2",
          "transactionIndex": "0x2",
          "logIndex": "0x1",
          "removed": false
        },
        {
          "address": "0x66f30587fb8d4206918deb78eca7d5ebbafd06da",
          "topics": [
            "0x7120161a7b3d31251e01294ab351ef15a41b91659a36032e4641bb89b121e321",
            "0x0eedc5ee101e262ed96d49d66ff7099b1b9d996ac8007b44a6925b2f8c0626ed"
          ],
          "data": "0x0000000000000000000000000000000000000000000000000000000012e687bf000000000000000000000000000000000000000000000000000000004b9a1eff",
          "blockHash": "0x236ddd1777d23bd314a9ac2c05113d122018d2ae8960bf752c4b0be99889b98e",
          "blockNumber": "0x16ec4c61",
          "transactionHash": "0x6b0cb969fcac834b2066aa13717b1a41334070a28aee8dc01eb3134074afb7c2",
          "transactionIndex": "0x2",
          "logIndex": "0x2",
          "removed": false
        }
      ],
      "logsBloom": "0x00000000000000000000000000000800000000000000000000000000000000000000000000000000000000000000000000000000000000000000000400804002000000000000000000000000000000000000000000000000000000000000020000000000000000000000000000000000000000000000000000000040000000000000000000000000000000000000200000000000000000000002000000000000000000000000000200000000000000000000000000000008000000000000000000000000000000000000000000000000000000000000100000800000000000000000000000000000000000000001000000000000000000000000000000000010",
      "type": "0x2",
      "transactionHash": "0x6b0cb969fcac834b2066aa13717b1a41334070a28aee8dc01eb3134074afb7c2",
      "transactionIndex": "0x2",
      "blockHash": "0x236ddd1777d23bd314a9ac2c05113d122018d2ae8960bf752c4b0be99889b98e",
      "blockNumber": "0x16ec4c61",
      "gasUsed": "0x32f30",
      "effectiveGasPrice": "0x989680",
      "from": "0x6539519e69343535a2af6583d9bae3ad74c6a293",
      "to": "0x6c247b1f6182318877311737bac0844baa518f5e",
      "contractAddress": null,
      "gasUsedForL1": "0x2b37",
      "l1BlockNumber": "0x1663588",
      "timeboosted": false
    }
  ],
  "libraries": [],
  "pending": [],
  "returns": {},
  "timestamp": 1759232736,
  "chain": 42161,
  "commit": "e74b0bc"
}