{
  "transactions": [
    {
      "hash": "0x41a2351c4153e842933d18df6ab20d6a5c7fef7085b43e7e1e59f7d7c6dd4384",
      "transactionType": "CALL",
      "contractName": null,
      "contractAddress": "0xbbbbbbbbbb9cc5e90e3b3af64bdaf62c37eeffcb",
      "function": "createMarket((address,address,address,address,uint256))",
      "arguments": [
        "(0x833589fCD6eDb6E08f4c7C32D4f71b54bdA02913, 0xB67675158B412D53fe6B68946483ba920b135bA1, 0x31fB76310E7AA59f4994af8cb6a420c39669604A, 0x46415998764C29aB2a25CbeA6254146D50D22687, 915000000000000000)"
      ],
      "transaction": {
        "from": "0x6539519e69343535a2af6583d9bae3ad74c6a293",
        "to": "0xbbbbbbbbbb9cc5e90e3b3af64bdaf62c37eeffcb",
        "gas": "0x46902",
        "value": "0x0",
        "input": "0x8c1358a2000000000000000000000000833589fcd6edb6e08f4c7c32d4f71b54bda02913000000000000000000000000b67675158b412d53fe6b68946483ba920b135ba100000000000000000000000031fb76310e7aa59f4994af8cb6a420c39669604a00000000000000000000000046415998764c29ab2a25cbea6254146d50d226870000000000000000000000000000000000000000000000000cb2bba6f17b8000",
        "nonce": "0x3",
        "chainId": "0x2105"
      },
      "additionalContracts": [],
      "isFixedGasLimit": false
    }
  ],
  "receipts": [
    {
      "status": "0x1",
      "cumulativeGasUsed": "0x2802c90",
      "logs": [
        {
          "address": "0xbbbbbbbbbb9cc5e90e3b3af64bdaf62c37eeffcb",
          "topics": [
            "0xac4b2400f169220b0c0afdde7a0b32e775ba727ea1cb30b35f935cdaab8683ac",
            "0x5a24250884b607439e8eb2a5bf7e4f6647af665936f47d0a8509ff783b3916ec"
          ],
          "data": "0x000000000000000000000000833589fcd6edb6e08f4c7c32d4f71b54bda02913000000000000000000000000b67675158b412d53fe6b68946483ba920b135ba100000000000000000000000031fb76310e7aa59f4994af8cb6a420c39669604a00000000000000000000000046415998764c29ab2a25cbea6254146d50d226870000000000000000000000000000000000000000000000000cb2bba6f17b8000",
          "blockHash": "0xc63d2db9f9f14aa5ded522b163325f01caf70e894756050588a9e4356d0ef6fd",
          "blockNumber": "0x1e59d00",
          "transactionHash": "0x41a2351c4153e842933d18df6ab20d6a5c7fef7085b43e7e1e59f7d7c6dd4384",
          "transactionIndex": "0x83",
          "logIndex": "0x25b",
          "removed": false
        },
        {
          "address": "0x46415998764c29ab2a25cbea6254146d50d22687",
          "topics": [
            "0x7120161a7b3d31251e01294ab351ef15a41b91659a36032e4641bb89b121e321",
            "0x5a24250884b607439e8eb2a5bf7e4f6647af665936f47d0a8509ff783b3916ec"
          ],
          "data": "0x0000000000000000000000000000000000000000000000000000000012e687bf000000000000000000000000000000000000000000000000000000004b9a1eff",
          "blockHash": "0xc63d2db9f9f14aa5ded522b163325f01caf70e894756050588a9e4356d0ef6fd",
          "blockNumber": "0x1e59d00",
          "transactionHash": "0x41a2351c4153e842933d18df6ab20d6a5c7fef7085b43e7e1e59f7d7c6dd4384",
          "transactionIndex": "0x83",
          "logIndex": "0x25c",
          "removed": false
        }
      ],
      "logsBloom": "0x20000000000000100000000000000800000000000000000000000000000000000000000000000100000000000000000000000000000000000000000000804000000000000010000000000000000000000000000000000000000000000000000000000000000000000000000000000000000000000000000000000040000000000000000000000008000000000000000000000000000000000008000000000000000000000000000000000000000000000000000000000000000000000000000020000000000000000000000000000000000100000000000000000000000000000000000000001000000000000001000000000000000000000000000000000010",
      "type": "0x2",
      "transactionHash": "0x41a2351c4153e842933d18df6ab20d6a5c7fef7085b43e7e1e59f7d7c6dd4384",
      "transactionIndex": "0x83",
      "blockHash": "0xc63d2db9f9f14aa5ded522b163325f01caf70e894756050588a9e4356d0ef6fd",
      "blockNumber": "0x1e59d00",
      "gasUsed": "0x303f9",
      "effectiveGasPrice": "0x14087b0",
      "from": "0x6539519e69343535a2af6583d9bae3ad74c6a293",
      "to": "0xbbbbbbbbbb9cc5e90e3b3af64bdaf62c37eeffcb",
      "contractAddress": null,
      "l1BaseFeeScalar": "0x8dd",
      "l1BlobBaseFee": "0x1",
      "l1BlobBaseFeeScalar": "0x101c12",
      "l1Fee": "0x25627efe7",
      "l1GasPrice": "0x6afea20c",
      "l1GasUsed": "0x99f"
    }
  ],
  "libraries": [],
  "pending": [],
  "returns": {},
  "timestamp": 1750439652,
  "chain": 8453,
  "commit": "4de0748"
}