{
  "transactions": [
    {
      "hash": "0xae314178cc8a855baeb08263e86377613802361c87055336d6d1228e46bfdb96",
      "transactionType": "CALL",
      "contractName": null,
      "contractAddress": "0xbbbbbbbbbb9cc5e90e3b3af64bdaf62c37eeffcb",
      "function": "borrow((address,address,address,address,uint256),uint256,uint256,address,address)",
      "arguments": [
        "(0x4200000000000000000000000000000000000006, 0x3A43AEC53490CB9Fa922847385D82fe25d0E9De7, 0xBF991c8c88Be948881a4D2168f7b7f3E1ee71DBC, 0x46415998764C29aB2a25CbeA6254146D50D22687, 915000000000000000)",
        "138086000000000",
        "0",
        "0x6539519E69343535a2aF6583D9BAE3AD74c6A293",
        "0x6539519E69343535a2aF6583D9BAE3AD74c6A293"
      ],
      "transaction": {
        "from": "0x6539519e69343535a2af6583d9bae3ad74c6a293",
        "to": "0xbbbbbbbbbb9cc5e90e3b3af64bdaf62c37eeffcb",
        "gas": "0x2c45e",
        "value": "0x0",
        "input": "0x50d8cd4b00000000000000000000000042000000000000000000000000000000000000060000000000000000000000003a43aec53490cb9fa922847385d82fe25d0e9de7000000000000000000000000bf991c8c88be948881a4d2168f7b7f3e1ee71dbc00000000000000000000000046415998764c29ab2a25cbea6254146d50d226870000000000000000000000000000000000000000000000000cb2bba6f17b800000000000000000000000000000000000000000000000000000007d96a6fa7c0000000000000000000000000000000000000000000000000000000000000000000000000000000000000000006539519e69343535a2af6583d9bae3ad74c6a2930000000000000000000000006539519e69343535a2af6583d9bae3ad74c6a293",
        "nonce": "0x2f",
        "chainId": "0x2105"
      },
      "additionalContracts": [],
      "isFixedGasLimit": false
    }
  ],
  "receipts": [
    {
      "status": "0x1",
      "cumulativeGasUsed": "0x6896d5",
      "logs": [
        {
          "address": "0x46415998764c29ab2a25cbea6254146d50d22687",
          "topics": [
            "0x7120161a7b3d31251e01294ab351ef15a41b91659a36032e4641bb89b121e321",
            "0x94f344f8db8c950faa45206c269dd0c2787a86ae3a7b988423e1e6e8173ae269"
          ],
          "data": "0x0000000000000000000000000000000000000000000000000000000012d8cd76000000000000000000000000000000000000000000000000000000004b61dd30",
          "blockHash": "0xdea793db0e6f236f7302e16009e6a78e97921402c15b80a40190194cd407d106",
          "blockNumber": "0x208a17b",
          "blockTimestamp": "0x689b9fd9",
          "transactionHash": "0xae314178cc8a855baeb08263e86377613802361c87055336d6d1228e46bfdb96",
          "transactionIndex": "0x14",
          "logIndex": "0x66",
          "removed": false
        },
        {
          "address": "0xbbbbbbbbbb9cc5e90e3b3af64bdaf62c37eeffcb",
          "topics": [
            "0x9d9bd501d0657d7dfe415f779a620a62b78bc508ddc0891fbbd8b7ac0f8fce87",
            "0x94f344f8db8c950faa45206c269dd0c2787a86ae3a7b988423e1e6e8173ae269"
          ],
          "data": "0x0000000000000000000000000000000000000000000000000000000012d8cd7600000000000000000000000000000000000000000000000000000000000000000000000000000000000000000000000000000000000000000000000000000000",
          "blockHash": "0xdea793db0e6f236f7302e16009e6a78e97921402c15b80a40190194cd407d106",
          "blockNumber": "0x208a17b",
          "blockTimestamp": "0x689b9fd9",
          "transactionHash": "0xae314178cc8a855baeb08263e86377613802361c87055336d6d1228e46bfdb96",
          "transactionIndex": "0x14",
          "logIndex": "0x67",
          "removed": false
        },
        {
          "address": "0xbbbbbbbbbb9cc5e90e3b3af64bdaf62c37eeffcb",
          "topics": [
            "0x570954540bed6b1304a87dfe815a5eda4a648f7097a16240dcd85c9b5fd42a43",
            "0x94f344f8db8c950faa45206c269dd0c2787a86ae3a7b988423e1e6e8173ae269",
            "0x0000000000000000000000006539519e69343535a2af6583d9bae3ad74c6a293",
            "0x0000000000000000000000006539519e69343535a2af6583d9bae3ad74c6a293"
          ],
          "data": "0x0000000000000000000000006539519e69343535a2af6583d9bae3ad74c6a29300000000000000000000000000000000000000000000000000007d96a6fa7c000000000000000000000000000000000000000000000000077c54056396970000",
          "blockHash": "0xdea793db0e6f236f7302e16009e6a78e97921402c15b80a40190194cd407d106",
          "blockNumber": "0x208a17b",
          "blockTimestamp": "0x689b9fd9",
          "transactionHash": "0xae314178cc8a855baeb08263e86377613802361c87055336d6d1228e46bfdb96",
          "transactionIndex": "0x14",
          "logIndex": "0x68",
          "removed": false
        },
        {
          "address": "0x4200000000000000000000000000000000000006",
          "topics": [
            "0xddf252ad1be2c89b69c2b068fc378daa952ba7f163c4a11628f55a4df523b3ef",
            "0x000000000000000000000000bbbbbbbbbb9cc5e90e3b3af64bdaf62c37eeffcb",
            "0x0000000000000000000000006539519e69343535a2af6583d9bae3ad74c6a293"
          ],
          "data": "0x00000000000000000000000000000000000000000000000000007d96a6fa7c00",
          "blockHash": "0xdea793db0e6f236f7302e16009e6a78e97921402c15b80a40190194cd407d106",
          "blockNumber": "0x208a17b",
          "blockTimestamp": "0x689b9fd9",
          "transactionHash": "0xae314178cc8a855baeb08263e86377613802361c87055336d6d1228e46bfdb96",
          "transactionIndex": "0x14",
          "logIndex": "0x69",
          "removed": false
        }
      ],
      "logsBloom": "0x00000000000000000002000000000080000000000000000000040000000000000080400000000100000000100000000000000400000000000010000020804000000000000010000000000008000000000000000000000000000000080000000000000000000000000000000000000000000000000000000000000010000000000000000000000008000000000000000000000000002000000008000000000000000000000000000000000000000000000000000000000000000000000000000020000082000000000000000000000000000100000000000000000000000000000000004001100008000000200001000000000000000000000000000000000000",
      "type": "0x2",
      "transactionHash": "0xae314178cc8a855baeb08263e86377613802361c87055336d6d1228e46bfdb96",
      "transactionIndex": "0x14",
      "blockHash": "0xdea793db0e6f236f7302e16009e6a78e97921402c15b80a40190194cd407d106",
      "blockNumber": "0x208a17b",
      "gasUsed": "0x1e45b",
      "effectiveGasPrice": "0x754bba",
      "from": "0x6539519e69343535a2af6583d9bae3ad74c6a293",
      "to": "0xbbbbbbbbbb9cc5e90e3b3af64bdaf62c37eeffcb",
      "contractAddress": null,
      "l1BaseFeeScalar": "0x8dd",
      "l1BlobBaseFee": "0x1",
      "l1BlobBaseFeeScalar": "0x101c12",
      "l1Fee": "0x2706d5a19",
      "l1GasPrice": "0x607e436d",
      "l1GasUsed": "0xb24"
    }
  ],
  "libraries": [],
  "pending": [],
  "returns": {},
  "timestamp": 1755029465,
  "chain": 8453,
  "commit": "596d8a9"
}