{
  "transactions": [
    {
      "hash": "0xb422fc8ac3faf118b6487f18a0721ff07194466c42c7c6c63fff15e03c098509",
      "transactionType": "CALL",
      "contractName": null,
      "contractAddress": "0xbbbbbbbbbb9cc5e90e3b3af64bdaf62c37eeffcb",
      "function": "borrow((address,address,address,address,uint256),uint256,uint256,address,address)",
      "arguments": [
        "(0x833589fCD6eDb6E08f4c7C32D4f71b54bdA02913, 0x0000000f2eB9f69274678c76222B35eEc7588a65, 0x77f59C5C09e7ABEF6991B456170930324FE36222, 0x46415998764C29aB2a25CbeA6254146D50D22687, 915000000000000000)",
        "830811",
        "0",
        "0x6539519E69343535a2aF6583D9BAE3AD74c6A293",
        "0x6539519E69343535a2aF6583D9BAE3AD74c6A293"
      ],
      "transaction": {
        "from": "0x6539519e69343535a2af6583d9bae3ad74c6a293",
        "to": "0xbbbbbbbbbb9cc5e90e3b3af64bdaf62c37eeffcb",
        "gas": "0x36988",
        "value": "0x0",
        "input": "0x50d8cd4b000000000000000000000000833589fcd6edb6e08f4c7c32d4f71b54bda029130000000000000000000000000000000f2eb9f69274678c76222b35eec7588a6500000000000000000000000077f59c5c09e7abef6991b456170930324fe3622200000000000000000000000046415998764c29ab2a25cbea6254146d50d226870000000000000000000000000000000000000000000000000cb2bba6f17b800000000000000000000000000000000000000000000000000000000000000cad5b00000000000000000000000000000000000000000000000000000000000000000000000000000000000000006539519e69343535a2af6583d9bae3ad74c6a2930000000000000000000000006539519e69343535a2af6583d9bae3ad74c6a293",
        "nonce": "0x27",
        "chainId": "0x2105"
      },
      "additionalContracts": [],
      "isFixedGasLimit": false
    }
  ],
  "receipts": [
    {
      "status": "0x1",
      "cumulativeGasUsed": "0x6ee4aa",
      "logs": [
        {
          "address": "0x46415998764c29ab2a25cbea6254146d50d22687",
          "topics": [
            "0x7120161a7b3d31251e01294ab351ef15a41b91659a36032e4641bb89b121e321",
            "0x1a3e69d0109bb1be42b80e11034bb6ee98fc466721f26845dc83b2aa8d979137"
          ],
          "data": "0x0000000000000000000000000000000000000000000000000000000012d161a0000000000000000000000000000000000000000000000000000000004b350fc6",
          "blockHash": "0xdb575eff1f05dfc349e01f670161dfcc27ff47499fb92e652d80f50975132fa4",
          "blockNumber": "0x2089a9a",
          "blockTimestamp": "0x689b9217",
          "transactionHash": "0xb422fc8ac3faf118b6487f18a0721ff07194466c42c7c6c63fff15e03c098509",
          "transactionIndex": "0x2d",
          "logIndex": "0x9e",
          "removed": false
        },
        {
          "address": "0xbbbbbbbbbb9cc5e90e3b3af64bdaf62c37eeffcb",
          "topics": [
            "0x9d9bd501d0657d7dfe415f779a620a62b78bc508ddc0891fbbd8b7ac0f8fce87",
            "0x1a3e69d0109bb1be42b80e11034bb6ee98fc466721f26845dc83b2aa8d979137"
          ],
          "data": "0x0000000000000000000000000000000000000000000000000000000012d161a000000000000000000000000000000000000000000000000000000000000000000000000000000000000000000000000000000000000000000000000000000000",
          "blockHash": "0xdb575eff1f05dfc349e01f670161dfcc27ff47499fb92e652d80f50975132fa4",
          "blockNumber": "0x2089a9a",
          "blockTimestamp": "0x689b9217",
          "transactionHash": "0xb422fc8ac3faf118b6487f18a0721ff07194466c42c7c6c63fff15e03c098509",
          "transactionIndex": "0x2d",
          "logIndex": "0x9f",
          "removed": false
        },
        {
          "address": "0xbbbbbbbbbb9cc5e90e3b3af64bdaf62c37eeffcb",
          "topics": [
            "0x570954540bed6b1304a87dfe815a5eda4a648f7097a16240dcd85c9b5fd42a43",
            "0x1a3e69d0109bb1be42b80e11034bb6ee98fc466721f26845dc83b2aa8d979137",
            "0x0000000000000000000000006539519e69343535a2af6583d9bae3ad74c6a293",
            "0x0000000000000000000000006539519e69343535a2af6583d9bae3ad74c6a293"
          ],
          "data": "0x0000000000000000000000006539519e69343535a2af6583d9bae3ad74c6a29300000000000000000000000000000000000000000000000000000000000cad5b000000000000000000000000000000000000000000000000000000c17031ccc0",
          "blockHash": "0xdb575eff1f05dfc349e01f670161dfcc27ff47499fb92e652d80f50975132fa4",
          "blockNumber": "0x2089a9a",
          "blockTimestamp": "0x689b9217",
          "transactionHash": "0xb422fc8ac3faf118b6487f18a0721ff07194466c42c7c6c63fff15e03c098509",
          "transactionIndex": "0x2d",
          "logIndex": "0xa0",
          "removed": false
        },
        {
          "address": "0x833589fcd6edb6e08f4c7c32d4f71b54bda02913",
          "topics": [
            "0xddf252ad1be2c89b69c2b068fc378daa952ba7f163c4a11628f55a4df523b3ef",
            "0x000000000000000000000000bbbbbbbbbb9cc5e90e3b3af64bdaf62c37eeffcb",
            "0x0000000000000000000000006539519e69343535a2af6583d9bae3ad74c6a293"
          ],
          "data": "0x00000000000000000000000000000000000000000000000000000000000cad5b",
          "blockHash": "0xdb575eff1f05dfc349e01f670161dfcc27ff47499fb92e652d80f50975132fa4",
          "blockNumber": "0x2089a9a",
          "blockTimestamp": "0x689b9217",
          "transactionHash": "0xb422fc8ac3faf118b6487f18a0721ff07194466c42c7c6c63fff15e03c098509",
          "transactionIndex": "0x2d",
          "logIndex": "0xa1",
          "removed": false
        }
      ],
      "logsBloom": "0x00000000000000000002000000000080000000000000000000000000000000000080400000000100000000000000100000000000000000000000000020804000000000000010000000000008000000000000000000080000000000082000000000800000000000000000000000000000000000000000000000000010000000000000000000000008000000000000004000000000000000000008000000000000000000000000000000000000000000000000400000000000000000000000000020000002000000000000000000000000000100000000000000000000000000000000004001100008000000200001000000000000000000000000000000000000",
      "type": "0x2",
      "transactionHash": "0xb422fc8ac3faf118b6487f18a0721ff07194466c42c7c6c63fff15e03c098509",
      "transactionIndex": "0x2d",
      "blockHash": "0xdb575eff1f05dfc349e01f670161dfcc27ff47499fb92e652d80f50975132fa4",
      "blockNumber": "0x2089a9a",
      "gasUsed": "0x2554a",
      "effectiveGasPrice": "0x78ae31",
      "from": "0x6539519e69343535a2af6583d9bae3ad74c6a293",
      "to": "0xbbbbbbbbbb9cc5e90e3b3af64bdaf62c37eeffcb",
      "contractAddress": null,
      "l1BaseFeeScalar": "0x8dd",
      "l1BlobBaseFee": "0x1",
      "l1BlobBaseFeeScalar": "0x101c12",
      "l1Fee": "0x2e7e510aa",
      "l1GasPrice": "0x6dcd443f",
      "l1GasUsed": "0xba9"
    }
  ],
  "libraries": [],
  "pending": [],
  "returns": {},
  "timestamp": 1755025944,
  "chain": 8453,
  "commit": "ef2d5f6"
}