{
  "transactions": [
    {
      "hash": "0x457e22bc9cb0cae7823f65df6bcfe82cf55480bf6389b0c17d316c7388dc9c9a",
      "transactionType": "CALL",
      "contractName": null,
      "contractAddress": "0x7a06c4aef988e7925575c50261297a946ad204a8",
      "function": "approve(address,uint256)",
      "arguments": [
        "0xa4Ca2c2e25b97DA19879201bA49422bc6f181f42",
        "664030205126105291"
      ],
      "transaction": {
        "from": "0x6539519e69343535a2af6583d9bae3ad74c6a293",
        "to": "0x7a06c4aef988e7925575c50261297a946ad204a8",
        "gas": "0x10851",
        "value": "0x0",
        "input": "0x095ea7b3000000000000000000000000a4ca2c2e25b97da19879201ba49422bc6f181f4200000000000000000000000000000000000000000000000009371bf410abd8cb",
        "nonce": "0x1d",
        "chainId": "0xa867"
      },
      "additionalContracts": [],
      "isFixedGasLimit": false
    },
    {
      "hash": "0xc44590477438ddb4a1abc2460338f0a326563abb5b43cab2fc494c0c1e09b557",
      "transactionType": "CALL",
      "contractName": null,
      "contractAddress": "0xa4ca2c2e25b97da19879201ba49422bc6f181f42",
      "function": "supplyCollateral((address,address,address,address,uint256),uint256,address,bytes)",
      "arguments": [
        "(0xad11a8BEb98bbf61dbb1aa0F6d6F2ECD87b35afA, 0x7A06C4AeF988e7925575C50261297a946aD204A8, 0x4B1182e277F51539aC87Ec8138871947E9881862, 0xdEbdEa31624552DF904A065221cD14088ABDeD70, 915000000000000000)",
        "664030205126105291",
        "0x6539519E69343535a2aF6583D9BAE3AD74c6A293",
        "0x"
      ],
      "transaction": {
        "from": "0x6539519e69343535a2af6583d9bae3ad74c6a293",
        "to": "0xa4ca2c2e25b97da19879201ba49422bc6f181f42",
        "gas": "0x1c31a",
        "value": "0x0",
        "input": "0x238d6579000000000000000000000000ad11a8beb98bbf61dbb1aa0f6d6f2ecd87b35afa0000000000000000000000007a06c4aef988e7925575c50261297a946ad204a80000000000000000000000004b1182e277f51539ac87ec8138871947e9881862000000000000000000000000debdea31624552df904a065221cd14088abded700000000000000000000000000000000000000000000000000cb2bba6f17b800000000000000000000000000000000000000000000000000009371bf410abd8cb0000000000000000000000006539519e69343535a2af6583d9bae3ad74c6a29300000000000000000000000000000000000000000000000000000000000001000000000000000000000000000000000000000000000000000000000000000000",
        "nonce": "0x1e",
        "chainId": "0xa867"
      },
      "additionalContracts": [],
      "isFixedGasLimit": false
    }
  ],
  "receipts": [
    {
      "status": "0x1",
      "cumulativeGasUsed": "0x35fdc",
      "logs": [
        {
          "address": "0x7a06c4aef988e7925575c50261297a946ad204a8",
          "topics": [
            "0x8c5be1e5ebec7d5bd14f71427d1e84f3dd0314c0f7b2291e5b200ac8c7c3b925",
            "0x0000000000000000000000006539519e69343535a2af6583d9bae3ad74c6a293",
            "0x000000000000000000000000a4ca2c2e25b97da19879201ba49422bc6f181f42"
          ],
          "data": "0x00000000000000000000000000000000000000000000000009371bf410abd8cb",
          "blockHash": "0x35aa5e3a4ebba6c5d232dce0d093318f1dc3408a9930620fdd39d215695dfd09",
          "blockNumber": "0x28c74f",
          "transactionHash": "0x457e22bc9cb0cae7823f65df6bcfe82cf55480bf6389b0c17d316c7388dc9c9a",
          "transactionIndex": "0x2",
          "logIndex": "0x4",
          "removed": false
        }
      ],
      "logsBloom": "0x00000000000000000000000000000000000000000010000000000000000000000080000000000100000000000000002000000000000000000008000000200010000000000000000002000000000000000000000000000000000000000000000000000000000000000000000000000000000000000000000000000000000000000000008000000000000000000000000000000000000000000000000000000000020000000000000000000000000000000000000000000000000000000000000000000000000000000000000000000000000000000000000000000000000000000010000000100000000000000000000000000000000000000000000000000000",
      "type": "0x2",
      "transactionHash": "0x457e22bc9cb0cae7823f65df6bcfe82cf55480bf6389b0c17d316c7388dc9c9a",
      "transactionIndex": "0x2",
      "blockHash": "0x35aa5e3a4ebba6c5d232dce0d093318f1dc3408a9930620fdd39d215695dfd09",
      "blockNumber": "0x28c74f",
      "gasUsed": "0xb4bb",
      "effectiveGasPrice": "0x124f80",
      "from": "0x6539519e69343535a2af6583d9bae3ad74c6a293",
      "to": "0x7a06c4aef988e7925575c50261297a946ad204a8",
      "contractAddress": null,
      "l1BaseFeeScalar": "0xf4240",
      "l1BlobBaseFee": "0x1",
      "l1BlobBaseFeeScalar": "0x0",
      "l1Fee": "0xb5b470e300",
      "l1GasPrice": "0x1d12a16c",
      "l1GasUsed": "0x640"
    },
    {
      "status": "0x1",
      "cumulativeGasUsed": "0x4a674",
      "logs": [
        {
          "address": "0xa4ca2c2e25b97da19879201ba49422bc6f181f42",
          "topics": [
            "0xa3b9472a1399e17e123f3c2e6586c23e504184d504de59cdaa2b375e880c6184",
            "0xb7dd4c2e7c164de474b28c354cddb137deb0ce2583b925d20c33322074c22178",
            "0x0000000000000000000000006539519e69343535a2af6583d9bae3ad74c6a293",
            "0x0000000000000000000000006539519e69343535a2af6583d9bae3ad74c6a293"
          ],
          "data": "0x00000000000000000000000000000000000000000000000009371bf410abd8cb",
          "blockHash": "0x35aa5e3a4ebba6c5d232dce0d093318f1dc3408a9930620fdd39d215695dfd09",
          "blockNumber": "0x28c74f",
          "transactionHash": "0xc44590477438ddb4a1abc2460338f0a326563abb5b43cab2fc494c0c1e09b557",
          "transactionIndex": "0x3",
          "logIndex": "0x5",
          "removed": false
        },
        {
          "address": "0x7a06c4aef988e7925575c50261297a946ad204a8",
          "topics": [
            "0x8c5be1e5ebec7d5bd14f71427d1e84f3dd0314c0f7b2291e5b200ac8c7c3b925",
            "0x0000000000000000000000006539519e69343535a2af6583d9bae3ad74c6a293",
            "0x000000000000000000000000a4ca2c2e25b97da19879201ba49422bc6f181f42"
          ],
          "data": "0x0000000000000000000000000000000000000000000000000000000000000000",
          "blockHash": "0x35aa5e3a4ebba6c5d232dce0d093318f1dc3408a9930620fdd39d215695dfd09",
          "blockNumber": "0x28c74f",
          "transactionHash": "0xc44590477438ddb4a1abc2460338f0a326563abb5b43cab2fc494c0c1e09b557",
          "transactionIndex": "0x3",
          "logIndex": "0x6",
          "removed": false
        },
        {
          "address": "0x7a06c4aef988e7925575c50261297a946ad204a8",
          "topics": [
            "0xddf252ad1be2c89b69c2b068fc378daa952ba7f163c4a11628f55a4df523b3ef",
            "0x0000000000000000000000006539519e69343535a2af6583d9bae3ad74c6a293",
            "0x000000000000000000000000a4ca2c2e25b97da19879201ba49422bc6f181f42"
          ],
          "data": "0x00000000000000000000000000000000000000000000000009371bf410abd8cb",
          "blockHash": "0x35aa5e3a4ebba6c5d232dce0d093318f1dc3408a9930620fdd39d215695dfd09",
          "blockNumber": "0x28c74f",
          "transactionHash": "0xc44590477438ddb4a1abc2460338f0a326563abb5b43cab2fc494c0c1e09b557",
          "transactionIndex": "0x3",
          "logIndex": "0x7",
          "removed": false
        }
      ],
      "logsBloom": "0x00000000000000000000000000000000000000000010000000400000000000000080000000000100000000000000002000400000000000000008000000200010000000000000000002000008000000000000000000200000000000000000000000000000000000000000000000000000000000000000000000000010000000000000008000000000000000000000000000000000000080000000000000000000020000000000000000000000000000000000000000000001000000000000000000000002000000000000000000000000000000000000000420000000000000000010000000100000000000000000200000000000000000000000000000000000",
      "type": "0x2",
      "transactionHash": "0xc44590477438ddb4a1abc2460338f0a326563abb5b43cab2fc494c0c1e09b557",
      "transactionIndex": "0x3",
      "blockHash": "0x35aa5e3a4ebba6c5d232dce0d093318f1dc3408a9930620fdd39d215695dfd09",
      "blockNumber": "0x28c74f",
      "gasUsed": "0x14698",
      "effectiveGasPrice": "0x124f80",
      "from": "0x6539519e69343535a2af6583d9bae3ad74c6a293",
      "to": "0xa4ca2c2e25b97da19879201ba49422bc6f181f42",
      "contractAddress": null,
      "l1BaseFeeScalar": "0xf4240",
      "l1BlobBaseFee": "0x1",
      "l1BlobBaseFeeScalar": "0x0",
      "l1Fee": "0x169e37e2827",
      "l1GasPrice": "0x1d12a16c",
      "l1GasUsed": "0xc72"
    }
  ],
  "libraries": [],
  "pending": [],
  "returns": {},
  "timestamp": 1757936267,
  "chain": 43111,
  "commit": "ccc26c1"
}