{
  "transactions": [
    {
      "hash": "0xa6edc8ba037df24a4beeae193863ec90fff4a25a87a6695add9d2734c486c433",
      "transactionType": "CALL",
      "contractName": null,
      "contractAddress": "0x7f0b394bb1a2a4df859f8a0b2a384f3d9d4e95cc",
      "function": "approve(address,uint256)",
      "arguments": [
        "0xa4Ca2c2e25b97DA19879201bA49422bc6f181f42",
        "1000"
      ],
      "transaction": {
        "from": "0x6539519e69343535a2af6583d9bae3ad74c6a293",
        "to": "0x7f0b394bb1a2a4df859f8a0b2a384f3d9d4e95cc",
        "gas": "0x1256a",
        "value": "0x0",
        "input": "0x095ea7b3000000000000000000000000a4ca2c2e25b97da19879201ba49422bc6f181f4200000000000000000000000000000000000000000000000000000000000003e8",
        "nonce": "0x34",
        "chainId": "0xa867"
      },
      "additionalContracts": [],
      "isFixedGasLimit": false
    },
    {
      "hash": "0x6530bf1f4a920c5290ca695f9a89017dd5475b81c0ac9d9b15b9e1c2439969ea",
      "transactionType": "CALL",
      "contractName": null,
      "contractAddress": "0xa4ca2c2e25b97da19879201ba49422bc6f181f42",
      "function": "supplyCollateral((address,address,address,address,uint256),uint256,address,bytes)",
      "arguments": [
        "(0xAA40c0c7644e0b2B224509571e10ad20d9C4ef28, 0x7f0b394Bb1a2a4dF859f8a0b2A384f3d9d4E95cC, 0xA45a7741b3b8C8259969c093Cf6e8e306AC34d78, 0xdEbdEa31624552DF904A065221cD14088ABDeD70, 860000000000000000)",
        "1000",
        "0x6539519E69343535a2aF6583D9BAE3AD74c6A293",
        "0x"
      ],
      "transaction": {
        "from": "0x6539519e69343535a2af6583d9bae3ad74c6a293",
        "to": "0xa4ca2c2e25b97da19879201ba49422bc6f181f42",
        "gas": "0x20c16",
        "value": "0x0",
        "input": "0x238d6579000000000000000000000000aa40c0c7644e0b2b224509571e10ad20d9c4ef280000000000000000000000007f0b394bb1a2a4df859f8a0b2a384f3d9d4e95cc000000000000000000000000a45a7741b3b8c8259969c093cf6e8e306ac34d78000000000000000000000000debdea31624552df904a065221cd14088abded700000000000000000000000000000000000000000000000000bef55718ad6000000000000000000000000000000000000000000000000000000000000000003e80000000000000000000000006539519e69343535a2af6583d9bae3ad74c6a29300000000000000000000000000000000000000000000000000000000000001000000000000000000000000000000000000000000000000000000000000000000",
        "nonce": "0x35",
        "chainId": "0xa867"
      },
      "additionalContracts": [],
      "isFixedGasLimit": false
    }
  ],
  "receipts": [
    {
      "status": "0x1",
      "cumulativeGasUsed": "0x8314b",
      "logs": [
        {
          "address": "0x7f0b394bb1a2a4df859f8a0b2a384f3d9d4e95cc",
          "topics": [
            "0x8c5be1e5ebec7d5bd14f71427d1e84f3dd0314c0f7b2291e5b200ac8c7c3b925",
            "0x0000000000000000000000006539519e69343535a2af6583d9bae3ad74c6a293",
            "0x000000000000000000000000a4ca2c2e25b97da19879201ba49422bc6f181f42"
          ],
          "data": "0x00000000000000000000000000000000000000000000000000000000000003e8",
          "blockHash": "0x008d587bccd369f5cdc811558ed50d189516d6415228ad14570490ea9606de3a",
          "blockNumber": "0x297aea",
          "transactionHash": "0xa6edc8ba037df24a4beeae193863ec90fff4a25a87a6695add9d2734c486c433",
          "transactionIndex": "0x5",
          "logIndex": "0xd",
          "removed": false
        }
      ],
      "logsBloom": "0x00000000000000000000000000000000000000000010000000000000000000000080000000000100000000000000002000000000000000000000000000200010000000000000000000000000000000000000000000000000000000000000000000000000000000010000000000000000000000000000000000000000000000000000000000000000000000000000000000000000000000000000000000000000020000000000000000000000000000000000000000000000000000000000000000000000000000000000000000800000000000000000000000000000000000000010000000100000000000000000000001000000000000000000000000000000",
      "type": "0x2",
      "transactionHash": "0xa6edc8ba037df24a4beeae193863ec90fff4a25a87a6695add9d2734c486c433",
      "transactionIndex": "0x5",
      "blockHash": "0x008d587bccd369f5cdc811558ed50d189516d6415228ad14570490ea9606de3a",
      "blockNumber": "0x297aea",
      "gasUsed": "0xd46e",
      "effectiveGasPrice": "0xf433c",
      "from": "0x6539519e69343535a2af6583d9bae3ad74c6a293",
      "to": "0x7f0b394bb1a2a4df859f8a0b2a384f3d9d4e95cc",
      "contractAddress": null,
      "l1BaseFeeScalar": "0xf4240",
      "l1BlobBaseFee": "0x1",
      "l1BlobBaseFeeScalar": "0x0",
      "l1Fee": "0x2d5054efc0",
      "l1GasPrice": "0x7400d97",
      "l1GasUsed": "0x640"
    },
    {
      "status": "0x1",
      "cumulativeGasUsed": "0x9acba",
      "logs": [
        {
          "address": "0xa4ca2c2e25b97da19879201ba49422bc6f181f42",
          "topics": [
            "0xa3b9472a1399e17e123f3c2e6586c23e504184d504de59cdaa2b375e880c6184",
            "0x4b670128dfaa02a92f833bb9b99949262b685c2d3f55d4f7c97da1849d2b6355",
            "0x0000000000000000000000006539519e69343535a2af6583d9bae3ad74c6a293",
            "0x0000000000000000000000006539519e69343535a2af6583d9bae3ad74c6a293"
          ],
          "data": "0x00000000000000000000000000000000000000000000000000000000000003e8",
          "blockHash": "0x008d587bccd369f5cdc811558ed50d189516d6415228ad14570490ea9606de3a",
          "blockNumber": "0x297aea",
          "transactionHash": "0x6530bf1f4a920c5290ca695f9a89017dd5475b81c0ac9d9b15b9e1c2439969ea",
          "transactionIndex": "0x6",
          "logIndex": "0xe",
          "removed": false
        },
        {
          "address": "0x7f0b394bb1a2a4df859f8a0b2a384f3d9d4e95cc",
          "topics": [
            "0xddf252ad1be2c89b69c2b068fc378daa952ba7f163c4a11628f55a4df523b3ef",
            "0x0000000000000000000000006539519e69343535a2af6583d9bae3ad74c6a293",
            "0x000000000000000000000000a4ca2c2e25b97da19879201ba49422bc6f181f42"
          ],
          "data": "0x00000000000000000000000000000000000000000000000000000000000003e8",
          "blockHash": "0x008d587bccd369f5cdc811558ed50d189516d6415228ad14570490ea9606de3a",
          "blockNumber": "0x297aea",
          "transactionHash": "0x6530bf1f4a920c5290ca695f9a89017dd5475b81c0ac9d9b15b9e1c2439969ea",
          "transactionIndex": "0x6",
          "logIndex": "0xf",
          "removed": false
        }
      ],
      "logsBloom": "0x00000000000000000000000000000000000000000010000000000000000100000080000000000100000000000000002000400000000000000000000000000010000000000000000000000008000000000000000000200800000000000000000000000000020000010000000000000000000000000000000000000010000000000000008000000000000000000000000000000000000080000000000000000000000000000000000000000000000000000000000000000000000000000000000000000002000000000000000000800000000000000000000400000000000000000000000000100000000000000000200001000000000000000000000000000000",
      "type": "0x2",
      "transactionHash": "0x6530bf1f4a920c5290ca695f9a89017dd5475b81c0ac9d9b15b9e1c2439969ea",
      "transactionIndex": "0x6",
      "blockHash": "0x008d587bccd369f5cdc811558ed50d189516d6415228ad14570490ea9606de3a",
      "blockNumber": "0x297aea",
      "gasUsed": "0x17b6f",
      "effectiveGasPrice": "0xf433c",
      "from": "0x6539519e69343535a2af6583d9bae3ad74c6a293",
      "to": "0xa4ca2c2e25b97da19879201ba49422bc6f181f42",
      "contractAddress": null,
      "l1BaseFeeScalar": "0xf4240",
      "l1BlobBaseFee": "0x1",
      "l1BlobBaseFeeScalar": "0x0",
      "l1Fee": "0x57984cbd2e",
      "l1GasPrice": "0x7400d97",
      "l1GasUsed": "0xc14"
    }
  ],
  "libraries": [],
  "pending": [],
  "returns": {},
  "timestamp": 1758488016,
  "chain": 43111,
  "commit": "0966a6e"
}