{
  "transactions": [
    {
      "hash": "0x3a405bef20958a6fee6dbd396e7be668e292ea81fd6f8d82d1682fdebbef5a48",
      "transactionType": "CALL",
      "contractName": null,
      "contractAddress": "0x4200000000000000000000000000000000000006",
      "function": "approve(address,uint256)",
      "arguments": [
        "0xa4Ca2c2e25b97DA19879201bA49422bc6f181f42",
        "145336225596529"
      ],
      "transaction": {
        "from": "0x6539519e69343535a2af6583d9bae3ad74c6a293",
        "to": "0x4200000000000000000000000000000000000006",
        "gas": "0xf85b",
        "value": "0x0",
        "input": "0x095ea7b3000000000000000000000000a4ca2c2e25b97da19879201ba49422bc6f181f420000000000000000000000000000000000000000000000000000842eba198471",
        "nonce": "0xe",
        "chainId": "0xa867"
      },
      "additionalContracts": [],
      "isFixedGasLimit": false
    },
    {
      "hash": "0x419edb5b31d2f078bf397226b7337e23edd0bdb34fa4b5aba205fe416f9eac3d",
      "transactionType": "CALL",
      "contractName": null,
      "contractAddress": "0xa4ca2c2e25b97da19879201ba49422bc6f181f42",
      "function": "supplyCollateral((address,address,address,address,uint256),uint256,address,bytes)",
      "arguments": [
        "(0xad11a8BEb98bbf61dbb1aa0F6d6F2ECD87b35afA, 0x4200000000000000000000000000000000000006, 0x294d56f3EE59Ec9CCbAdB3f1051390293c448892, 0xdEbdEa31624552DF904A065221cD14088ABDeD70, 860000000000000000)",
        "145336225596529",
        "0x6539519E69343535a2aF6583D9BAE3AD74c6A293",
        "0x"
      ],
      "transaction": {
        "from": "0x6539519e69343535a2af6583d9bae3ad74c6a293",
        "to": "0xa4ca2c2e25b97da19879201ba49422bc6f181f42",
        "gas": "0x1d1ba",
        "value": "0x0",
        "input": "0x238d6579000000000000000000000000ad11a8beb98bbf61dbb1aa0f6d6f2ecd87b35afa0000000000000000000000004200000000000000000000000000000000000006000000000000000000000000294d56f3ee59ec9ccbadb3f1051390293c448892000000000000000000000000debdea31624552df904a065221cd14088abded700000000000000000000000000000000000000000000000000bef55718ad600000000000000000000000000000000000000000000000000000000842eba1984710000000000000000000000006539519e69343535a2af6583d9bae3ad74c6a29300000000000000000000000000000000000000000000000000000000000001000000000000000000000000000000000000000000000000000000000000000000",
        "nonce": "0xf",
        "chainId": "0xa867"
      },
      "additionalContracts": [],
      "isFixedGasLimit": false
    }
  ],
  "receipts": [
    {
      "status": "0x1",
      "cumulativeGasUsed": "0x20946f",
      "logs": [
        {
          "address": "0x4200000000000000000000000000000000000006",
          "topics": [
            "0x8c5be1e5ebec7d5bd14f71427d1e84f3dd0314c0f7b2291e5b200ac8c7c3b925",
            "0x0000000000000000000000006539519e69343535a2af6583d9bae3ad74c6a293",
            "0x000000000000000000000000a4ca2c2e25b97da19879201ba49422bc6f181f42"
          ],
          "data": "0x0000000000000000000000000000000000000000000000000000842eba198471",
          "blockHash": "0x6ac58ddaa4dccc0b2d6ed10cd798a98b8a31011e78b6e789cb93d4f02d0ad04e",
          "blockNumber": "0x287a22",
          "transactionHash": "0x3a405bef20958a6fee6dbd396e7be668e292ea81fd6f8d82d1682fdebbef5a48",
          "transactionIndex": "0xd",
          "logIndex": "0x18",
          "removed": false
        }
      ],
      "logsBloom": "0x00000000000000000000000000000000000000000010000000040000000000000080000000000100000000100000002000000000000000000000000000200010000000000000000000000000000000000000000000000000000000000000000000000000000000000000000000000000000000000000000000000000000000000000000000000000000000000000000000000000002000000000000000000000020000000000000000000000000000000000000000000000000000000000000000000000000000000000000000000000000000000000000000000000000000000010000000100000000000000000000000000000000000000000000000000000",
      "type": "0x2",
      "transactionHash": "0x3a405bef20958a6fee6dbd396e7be668e292ea81fd6f8d82d1682fdebbef5a48",
      "transactionIndex": "0xd",
      "blockHash": "0x6ac58ddaa4dccc0b2d6ed10cd798a98b8a31011e78b6e789cb93d4f02d0ad04e",
      "blockNumber": "0x287a22",
      "gasUsed": "0xb3cf",
      "effectiveGasPrice": "0xf433c",
      "from": "0x6539519e69343535a2af6583d9bae3ad74c6a293",
      "to": "0x4200000000000000000000000000000000000006",
      "contractAddress": null,
      "l1BaseFeeScalar": "0xf4240",
      "l1BlobBaseFee": "0x1",
      "l1BlobBaseFeeScalar": "0x0",
      "l1Fee": "0x1c4dcf26000",
      "l1GasPrice": "0x48754580",
      "l1GasUsed": "0x640"
    },
    {
      "status": "0x1",
      "cumulativeGasUsed": "0x21d2e2",
      "logs": [
        {
          "address": "0xa4ca2c2e25b97da19879201ba49422bc6f181f42",
          "topics": [
            "0xa3b9472a1399e17e123f3c2e6586c23e504184d504de59cdaa2b375e880c6184",
            "0x08abb2b634eb6454a5819dbaa5c0229136989a9990ed757727c406dbcb4e606b",
            "0x0000000000000000000000006539519e69343535a2af6583d9bae3ad74c6a293",
            "0x0000000000000000000000006539519e69343535a2af6583d9bae3ad74c6a293"
          ],
          "data": "0x0000000000000000000000000000000000000000000000000000842eba198471",
          "blockHash": "0x6ac58ddaa4dccc0b2d6ed10cd798a98b8a31011e78b6e789cb93d4f02d0ad04e",
          "blockNumber": "0x287a22",
          "transactionHash": "0x419edb5b31d2f078bf397226b7337e23edd0bdb34fa4b5aba205fe416f9eac3d",
          "transactionIndex": "0xe",
          "logIndex": "0x19",
          "removed": false
        },
        {
          "address": "0x4200000000000000000000000000000000000006",
          "topics": [
            "0xddf252ad1be2c89b69c2b068fc378daa952ba7f163c4a11628f55a4df523b3ef",
            "0x0000000000000000000000006539519e69343535a2af6583d9bae3ad74c6a293",
            "0x000000000000000000000000a4ca2c2e25b97da19879201ba49422bc6f181f42"
          ],
          "data": "0x0000000000000000000000000000000000000000000000000000842eba198471",
          "blockHash": "0x6ac58ddaa4dccc0b2d6ed10cd798a98b8a31011e78b6e789cb93d4f02d0ad04e",
          "blockNumber": "0x287a22",
          "transactionHash": "0x419edb5b31d2f078bf397226b7337e23edd0bdb34fa4b5aba205fe416f9eac3d",
          "transactionIndex": "0xe",
          "logIndex": "0x1a",
          "removed": false
        }
      ],
      "logsBloom": "0x00000000000000000000000000000000000004000010100000040000000000000080000000000100000000100000002000400000000000000000000000000010000000000000000000000008000000000000000000200000000000000000000000000000000000000000000000000000000000000000000000000010000000000000008000000000000000000000000000000000002080000000000000000000000000000000000000000000000000000000000000000000000000000000000000000002000000000000000001000000000000000000000400000000000000000000000000100000000000000000200000000000000000000000000000000000",
      "type": "0x2",
      "transactionHash": "0x419edb5b31d2f078bf397226b7337e23edd0bdb34fa4b5aba205fe416f9eac3d",
      "transactionIndex": "0xe",
      "blockHash": "0x6ac58ddaa4dccc0b2d6ed10cd798a98b8a31011e78b6e789cb93d4f02d0ad04e",
      "blockNumber": "0x287a22",
      "gasUsed": "0x13e73",
      "effectiveGasPrice": "0xf433c",
      "from": "0x6539519e69343535a2af6583d9bae3ad74c6a293",
      "to": "0xa4ca2c2e25b97da19879201ba49422bc6f181f42",
      "contractAddress": null,
      "l1BaseFeeScalar": "0xf4240",
      "l1BlobBaseFee": "0x1",
      "l1BlobBaseFeeScalar": "0x0",
      "l1Fee": "0x345892c95cc",
      "l1GasPrice": "0x48754580",
      "l1GasUsed": "0xb8f"
    }
  ],
  "libraries": [],
  "pending": [],
  "returns": {},
  "timestamp": 1757699184,
  "chain": 43111,
  "commit": "3a72d60"
}