{
  "transactions": [
    {
      "hash": "0x335f5f8aa03ee6b9978d9bdb0bf9f7cfde638dc8c8e47dac7629ac5e4952c552",
      "transactionType": "CALL",
      "contractName": null,
      "contractAddress": "0x03c7054bcb39f7b2e5b2c7acb37583e32d70cfa3",
      "function": "approve(address,uint256)",
      "arguments": [
        "0xa4Ca2c2e25b97DA19879201bA49422bc6f181f42",
        "603"
      ],
      "transaction": {
        "from": "0x6539519e69343535a2af6583d9bae3ad74c6a293",
        "to": "0x03c7054bcb39f7b2e5b2c7acb37583e32d70cfa3",
        "gas": "0x107e7",
        "value": "0x0",
        "input": "0x095ea7b3000000000000000000000000a4ca2c2e25b97da19879201ba49422bc6f181f42000000000000000000000000000000000000000000000000000000000000025b",
        "nonce": "0x15",
        "chainId": "0xa867"
      },
      "additionalContracts": [],
      "isFixedGasLimit": false
    },
    {
      "hash": "0xf4abb5e64e08499cef118c071e6f3f1be7a13ef9d342858678fefdbe7a4af2af",
      "transactionType": "CALL",
      "contractName": null,
      "contractAddress": "0xa4ca2c2e25b97da19879201ba49422bc6f181f42",
      "function": "supplyCollateral((address,address,address,address,uint256),uint256,address,bytes)",
      "arguments": [
        "(0xad11a8BEb98bbf61dbb1aa0F6d6F2ECD87b35afA, 0x03C7054BCB39f7b2e5B2c7AcB37583e32D70Cfa3, 0x3E83F3F3cbB80BBa545910c53C080f99C1f2bA84, 0xdEbdEa31624552DF904A065221cD14088ABDeD70, 860000000000000000)",
        "603",
        "0x6539519E69343535a2aF6583D9BAE3AD74c6A293",
        "0x"
      ],
      "transaction": {
        "from": "0x6539519e69343535a2af6583d9bae3ad74c6a293",
        "to": "0xa4ca2c2e25b97da19879201ba49422bc6f181f42",
        "gas": "0x1c2a7",
        "value": "0x0",
        "input": "0x238d6579000000000000000000000000ad11a8beb98bbf61dbb1aa0f6d6f2ecd87b35afa00000000000000000000000003c7054bcb39f7b2e5b2c7acb37583e32d70cfa30000000000000000000000003e83f3f3cbb80bba545910c53c080f99c1f2ba84000000000000000000000000debdea31624552df904a065221cd14088abded700000000000000000000000000000000000000000000000000bef55718ad60000000000000000000000000000000000000000000000000000000000000000025b0000000000000000000000006539519e69343535a2af6583d9bae3ad74c6a29300000000000000000000000000000000000000000000000000000000000001000000000000000000000000000000000000000000000000000000000000000000",
        "nonce": "0x16",
        "chainId": "0xa867"
      },
      "additionalContracts": [],
      "isFixedGasLimit": false
    }
  ],
  "receipts": [
    {
      "status": "0x1",
      "cumulativeGasUsed": "0x80001",
      "logs": [
        {
          "address": "0x03c7054bcb39f7b2e5b2c7acb37583e32d70cfa3",
          "topics": [
            "0x8c5be1e5ebec7d5bd14f71427d1e84f3dd0314c0f7b2291e5b200ac8c7c3b925",
            "0x0000000000000000000000006539519e69343535a2af6583d9bae3ad74c6a293",
            "0x000000000000000000000000a4ca2c2e25b97da19879201ba49422bc6f181f42"
          ],
          "data": "0x000000000000000000000000000000000000000000000000000000000000025b",
          "blockHash": "0xb9fed596a454a1ac35567f5782d759b3ff001c6c46b5c46292fe97b096517d21",
          "blockNumber": "0x28c45a",
          "transactionHash": "0x335f5f8aa03ee6b9978d9bdb0bf9f7cfde638dc8c8e47dac7629ac5e4952c552",
          "transactionIndex": "0x4",
          "logIndex": "0x6",
          "removed": false
        }
      ],
      "logsBloom": "0x00000000000000000000000000000100000000000010000000000000000000000080000000000100000000000000002000000000000000000000000000200010000000000000000000000000000000000000000000000000000000000000000000000000000000000000000000000000000000000000000000000000000000000000000000000000000000000000000000000000000000000000400000000000020000000000000000000000000000000000000000000000000000000000000000000000000000000000000000000000002000000000000000000000000000000010000000100000000000000000000000000000000000000000000000000000",
      "type": "0x2",
      "transactionHash": "0x335f5f8aa03ee6b9978d9bdb0bf9f7cfde638dc8c8e47dac7629ac5e4952c552",
      "transactionIndex": "0x4",
      "blockHash": "0xb9fed596a454a1ac35567f5782d759b3ff001c6c46b5c46292fe97b096517d21",
      "blockNumber": "0x28c45a",
      "gasUsed": "0xb473",
      "effectiveGasPrice": "0xf433c",
      "from": "0x6539519e69343535a2af6583d9bae3ad74c6a293",
      "to": "0x03c7054bcb39f7b2e5b2c7acb37583e32d70cfa3",
      "contractAddress": null,
      "l1BaseFeeScalar": "0xf4240",
      "l1BlobBaseFee": "0x1",
      "l1BlobBaseFeeScalar": "0x0",
      "l1Fee": "0x185680bd1c0",
      "l1GasPrice": "0x3e4e165f",
      "l1GasUsed": "0x640"
    },
    {
      "status": "0x1",
      "cumulativeGasUsed": "0x94645",
      "logs": [
        {
          "address": "0xa4ca2c2e25b97da19879201ba49422bc6f181f42",
          "topics": [
            "0xa3b9472a1399e17e123f3c2e6586c23e504184d504de59cdaa2b375e880c6184",
            "0xf1b97d86baa12ef4622eeca186a49fa7f7ea1ac2aa55ea4c20a26e815ddd6bc6",
            "0x0000000000000000000000006539519e69343535a2af6583d9bae3ad74c6a293",
            "0x0000000000000000000000006539519e69343535a2af6583d9bae3ad74c6a293"
          ],
          "data": "0x000000000000000000000000000000000000000000000000000000000000025b",
          "blockHash": "0xb9fed596a454a1ac35567f5782d759b3ff001c6c46b5c46292fe97b096517d21",
          "blockNumber": "0x28c45a",
          "transactionHash": "0xf4abb5e64e08499cef118c071e6f3f1be7a13ef9d342858678fefdbe7a4af2af",
          "transactionIndex": "0x5",
          "logIndex": "0x7",
          "removed": false
        },
        {
          "address": "0x03c7054bcb39f7b2e5b2c7acb37583e32d70cfa3",
          "topics": [
            "0x8c5be1e5ebec7d5bd14f71427d1e84f3dd0314c0f7b2291e5b200ac8c7c3b925",
            "0x0000000000000000000000006539519e69343535a2af6583d9bae3ad74c6a293",
            "0x000000000000000000000000a4ca2c2e25b97da19879201ba49422bc6f181f42"
          ],
          "data": "0x0000000000000000000000000000000000000000000000000000000000000000",
          "blockHash": "0xb9fed596a454a1ac35567f5782d759b3ff001c6c46b5c46292fe97b096517d21",
          "blockNumber": "0x28c45a",
          "transactionHash": "0xf4abb5e64e08499cef118c071e6f3f1be7a13ef9d342858678fefdbe7a4af2af",
          "transactionIndex": "0x5",
          "logIndex": "0x8",
          "removed": false
        },
        {
          "address": "0x03c7054bcb39f7b2e5b2c7acb37583e32d70cfa3",
          "topics": [
            "0xddf252ad1be2c89b69c2b068fc378daa952ba7f163c4a11628f55a4df523b3ef",
            "0x0000000000000000000000006539519e69343535a2af6583d9bae3ad74c6a293",
            "0x000000000000000000000000a4ca2c2e25b97da19879201ba49422bc6f181f42"
          ],
          "data": "0x000000000000000000000000000000000000000000000000000000000000025b",
          "blockHash": "0xb9fed596a454a1ac35567f5782d759b3ff001c6c46b5c46292fe97b096517d21",
          "blockNumber": "0x28c45a",
          "transactionHash": "0xf4abb5e64e08499cef118c071e6f3f1be7a13ef9d342858678fefdbe7a4af2af",
          "transactionIndex": "0x5",
          "logIndex": "0x9",
          "removed": false
        }
      ],
      "logsBloom": "0x00000000000000000000000000000100000000000010000000000000000000000080000000000100000000000000002000400000000000000000000000200010000000000000000000000008000000000000000000200000000000000000000000000000000000000000000000000000000000000000000000000010000080000000008000000000000000000000000000000000000080000000404000000000020000000000000000000000000000000000000000000000000000000000000000000002000000000000000000000000002000000000000400000000000000000010000000100000000000040000200000000000000000000000000000000000",
      "type": "0x2",
      "transactionHash": "0xf4abb5e64e08499cef118c071e6f3f1be7a13ef9d342858678fefdbe7a4af2af",
      "transactionIndex": "0x5",
      "blockHash": "0xb9fed596a454a1ac35567f5782d759b3ff001c6c46b5c46292fe97b096517d21",
      "blockNumber": "0x28c45a",
      "gasUsed": "0x14644",
      "effectiveGasPrice": "0xf433c",
      "from": "0x6539519e69343535a2af6583d9bae3ad74c6a293",
      "to": "0xa4ca2c2e25b97da19879201ba49422bc6f181f42",
      "contractAddress": null,
      "l1BaseFeeScalar": "0xf4240",
      "l1BlobBaseFee": "0x1",
      "l1BlobBaseFeeScalar": "0x0",
      "l1Fee": "0x2f0c05ec2d8",
      "l1GasPrice": "0x3e4e165f",
      "l1GasUsed": "0xc14"
    }
  ],
  "libraries": [],
  "pending": [],
  "returns": {},
  "timestamp": 1757927184,
  "chain": 43111,
  "commit": "66cdf02"
}