{
  "transactions": [
    {
      "hash": "0x738c913f9a7a75b2a9aa61be0e5db3e881c03c956474dd101e169a9d6dca5431",
      "transactionType": "CALL",
      "contractName": null,
      "contractAddress": "0x99e3de3817f6081b2568208337ef83295b7f591d",
      "function": "approve(address,uint256)",
      "arguments": [
        "0xa4Ca2c2e25b97DA19879201bA49422bc6f181f42",
        "11363033700489837226"
      ],
      "transaction": {
        "from": "0x6539519e69343535a2af6583d9bae3ad74c6a293",
        "to": "0x99e3de3817f6081b2568208337ef83295b7f591d",
        "gas": "0x10851",
        "value": "0x0",
        "input": "0x095ea7b3000000000000000000000000a4ca2c2e25b97da19879201ba49422bc6f181f420000000000000000000000000000000000000000000000009db19af2587d3aaa",
        "nonce": "0x3e",
        "chainId": "0xa867"
      },
      "additionalContracts": [],
      "isFixedGasLimit": false
    },
    {
      "hash": "0x4dfe2bd8653f88f0022469b8073546fe213fa5e900bfcf40d05cd01b850ea0bd",
      "transactionType": "CALL",
      "contractName": null,
      "contractAddress": "0xa4ca2c2e25b97da19879201ba49422bc6f181f42",
      "function": "supplyCollateral((address,address,address,address,uint256),uint256,address,bytes)",
      "arguments": [
        "(0xad11a8BEb98bbf61dbb1aa0F6d6F2ECD87b35afA, 0x99e3dE3817F6081B2568208337ef83295b7f591D, 0xf0FF7a2E8b5d57EAb433d676c9A101DF1d2414B7, 0xdEbdEa31624552DF904A065221cD14088ABDeD70, 770000000000000000)",
        "11363033700489837226",
        "0x6539519E69343535a2aF6583D9BAE3AD74c6A293",
        "0x"
      ],
      "transaction": {
        "from": "0x6539519e69343535a2af6583d9bae3ad74c6a293",
        "to": "0xa4ca2c2e25b97da19879201ba49422bc6f181f42",
        "gas": "0x1dcf0",
        "value": "0x0",
        "input": "0x238d6579000000000000000000000000ad11a8beb98bbf61dbb1aa0f6d6f2ecd87b35afa00000000000000000000000099e3de3817f6081b2568208337ef83295b7f591d000000000000000000000000f0ff7a2e8b5d57eab433d676c9a101df1d2414b7000000000000000000000000debdea31624552df904a065221cd14088abded700000000000000000000000000000000000000000000000000aaf96eb9d0d00000000000000000000000000000000000000000000000000009db19af2587d3aaa0000000000000000000000006539519e69343535a2af6583d9bae3ad74c6a29300000000000000000000000000000000000000000000000000000000000001000000000000000000000000000000000000000000000000000000000000000000",
        "nonce": "0x3f",
        "chainId": "0xa867"
      },
      "additionalContracts": [],
      "isFixedGasLimit": false
    }
  ],
  "receipts": [
    {
      "status": "0x1",
      "cumulativeGasUsed": "0x161d97",
      "logs": [
        {
          "address": "0x99e3de3817f6081b2568208337ef83295b7f591d",
          "topics": [
            "0x8c5be1e5ebec7d5bd14f71427d1e84f3dd0314c0f7b2291e5b200ac8c7c3b925",
            "0x0000000000000000000000006539519e69343535a2af6583d9bae3ad74c6a293",
            "0x000000000000000000000000a4ca2c2e25b97da19879201ba49422bc6f181f42"
          ],
          "data": "0x0000000000000000000000000000000000000000000000009db19af2587d3aaa",
          "blockHash": "0xb6ba62fee7b24bba5f121802264267ce9faa2a985b116c99161ee6d0ffb4c9c2",
          "blockNumber": "0x2a8fd7",
          "transactionHash": "0x738c913f9a7a75b2a9aa61be0e5db3e881c03c956474dd101e169a9d6dca5431",
          "transactionIndex": "0x8",
          "logIndex": "0x24",
          "removed": false
        }
      ],
      "logsBloom": "0x00000002000000000000000000000000000000000010000000000000000000000080000000000100000000000000002000000000000000000000000000200010000000000000000000000000000000000000000000000000000000000000000000000100000000000000000000000002000000000000000000000000000000000000000000000000000000000000000000000000000000000000000000000000020000000000000000000000000000000000000000000000000000000000000000000000000000000000000000000000000000000000000000000000000000000010000000100000000000000000000000000000000000000000000000000000",
      "type": "0x2",
      "transactionHash": "0x738c913f9a7a75b2a9aa61be0e5db3e881c03c956474dd101e169a9d6dca5431",
      "transactionIndex": "0x8",
      "blockHash": "0xb6ba62fee7b24bba5f121802264267ce9faa2a985b116c99161ee6d0ffb4c9c2",
      "blockNumber": "0x2a8fd7",
      "gasUsed": "0xb4bb",
      "effectiveGasPrice": "0xf433c",
      "from": "0x6539519e69343535a2af6583d9bae3ad74c6a293",
      "to": "0x99e3de3817f6081b2568208337ef83295b7f591d",
      "contractAddress": null,
      "l1BaseFeeScalar": "0xf4240",
      "l1BlobBaseFee": "0x1",
      "l1BlobBaseFeeScalar": "0x0",
      "l1Fee": "0x1a662b70340",
      "l1GasPrice": "0x4394ea15",
      "l1GasUsed": "0x640"
    },
    {
      "status": "0x1",
      "cumulativeGasUsed": "0x1776e3",
      "logs": [
        {
          "address": "0xa4ca2c2e25b97da19879201ba49422bc6f181f42",
          "topics": [
            "0xa3b9472a1399e17e123f3c2e6586c23e504184d504de59cdaa2b375e880c6184",
            "0x30a09eca5ae1b9df33b818c2b2bdbf8011c6f08fe4e63e6212499e6952a9ca4c",
            "0x0000000000000000000000006539519e69343535a2af6583d9bae3ad74c6a293",
            "0x0000000000000000000000006539519e69343535a2af6583d9bae3ad74c6a293"
          ],
          "data": "0x0000000000000000000000000000000000000000000000009db19af2587d3aaa",
          "blockHash": "0xb6ba62fee7b24bba5f121802264267ce9faa2a985b116c99161ee6d0ffb4c9c2",
          "blockNumber": "0x2a8fd7",
          "transactionHash": "0x4dfe2bd8653f88f0022469b8073546fe213fa5e900bfcf40d05cd01b850ea0bd",
          "transactionIndex": "0x9",
          "logIndex": "0x25",
          "removed": false
        },
        {
          "address": "0x99e3de3817f6081b2568208337ef83295b7f591d",
          "topics": [
            "0x8c5be1e5ebec7d5bd14f71427d1e84f3dd0314c0f7b2291e5b200ac8c7c3b925",
            "0x0000000000000000000000006539519e69343535a2af6583d9bae3ad74c6a293",
            "0x000000000000000000000000a4ca2c2e25b97da19879201ba49422bc6f181f42"
          ],
          "data": "0x0000000000000000000000000000000000000000000000000000000000000000",
          "blockHash": "0xb6ba62fee7b24bba5f121802264267ce9faa2a985b116c99161ee6d0ffb4c9c2",
          "blockNumber": "0x2a8fd7",
          "transactionHash": "0x4dfe2bd8653f88f0022469b8073546fe213fa5e900bfcf40d05cd01b850ea0bd",
          "transactionIndex": "0x9",
          "logIndex": "0x26",
          "removed": false
        },
        {
          "address": "0x99e3de3817f6081b2568208337ef83295b7f591d",
          "topics": [
            "0xddf252ad1be2c89b69c2b068fc378daa952ba7f163c4a11628f55a4df523b3ef",
            "0x0000000000000000000000006539519e69343535a2af6583d9bae3ad74c6a293",
            "0x000000000000000000000000a4ca2c2e25b97da19879201ba49422bc6f181f42"
          ],
          "data": "0x0000000000000000000000000000000000000000000000009db19af2587d3aaa",
          "blockHash": "0xb6ba62fee7b24bba5f121802264267ce9faa2a985b116c99161ee6d0ffb4c9c2",
          "blockNumber": "0x2a8fd7",
          "transactionHash": "0x4dfe2bd8653f88f0022469b8073546fe213fa5e900bfcf40d05cd01b850ea0bd",
          "transactionIndex": "0x9",
          "logIndex": "0x27",
          "removed": false
        }
      ],
      "logsBloom": "0x00000002000000000000000000000000000000000010000000000000000000000080000000000100000000000000002100400000000000000000000000200010000000000000000000000008000000000000000000200000000000000000000000000100000000000000000000000002000000000000000000000010000000000000008000000000000000000000000000000000000080004000000000000000020000000000000000000000000000000000000000000000000000000000000000000002000000000000000000000000000000000000000400000000000000000010000000100000000000000000200000000000000000000000000000000002",
      "type": "0x2",
      "transactionHash": "0x4dfe2bd8653f88f0022469b8073546fe213fa5e900bfcf40d05cd01b850ea0bd",
      "transactionIndex": "0x9",
      "blockHash": "0xb6ba62fee7b24bba5f121802264267ce9faa2a985b116c99161ee6d0ffb4c9c2",
      "blockNumber": "0x2a8fd7",
      "gasUsed": "0x1594c",
      "effectiveGasPrice": "0xf433c",
      "from": "0x6539519e69343535a2af6583d9bae3ad74c6a293",
      "to": "0xa4ca2c2e25b97da19879201ba49422bc6f181f42",
      "contractAddress": null,
      "l1BaseFeeScalar": "0xf4240",
      "l1BlobBaseFee": "0x1",
      "l1BlobBaseFeeScalar": "0x0",
      "l1Fee": "0x345b3c10f77",
      "l1GasPrice": "0x4394ea15",
      "l1GasUsed": "0xc65"
    }
  ],
  "libraries": [],
  "pending": [],
  "returns": {},
  "timestamp": 1759338731,
  "chain": 43111,
  "commit": "df71063"
}