{
  "transactions": [
    {
      "hash": "0x7587b9e7d0b67f1303c1e172bc875e7916ff3e5d457265174344261a2ddc3bc4",
      "transactionType": "CALL",
      "contractName": null,
      "contractAddress": "0xaa40c0c7644e0b2b224509571e10ad20d9c4ef28",
      "function": "approve(address,uint256)",
      "arguments": [
        "0xa4Ca2c2e25b97DA19879201bA49422bc6f181f42",
        "594"
      ],
      "transaction": {
        "from": "0x6539519e69343535a2af6583d9bae3ad74c6a293",
        "to": "0xaa40c0c7644e0b2b224509571e10ad20d9c4ef28",
        "gas": "0xfba93a",
        "value": "0x0",
        "input": "0x095ea7b3000000000000000000000000a4ca2c2e25b97da19879201ba49422bc6f181f420000000000000000000000000000000000000000000000000000000000000252",
        "nonce": "0x8",
        "chainId": "0xa867"
      },
      "additionalContracts": [],
      "isFixedGasLimit": true
    },
    {
      "hash": "0x44450c6d09fba3a9f32e95ecbba53e41a50a02e9161e247ae70b54e100f9fa8f",
      "transactionType": "CALL",
      "contractName": null,
      "contractAddress": "0xa4ca2c2e25b97da19879201ba49422bc6f181f42",
      "function": "supplyCollateral((address,address,address,address,uint256),uint256,address,bytes)",
      "arguments": [
        "(0xad11a8BEb98bbf61dbb1aa0F6d6F2ECD87b35afA, 0xAA40c0c7644e0b2B224509571e10ad20d9C4ef28, 0xaF72003a728Abb217Dc424fcB2F05094edF44F34, 0xdEbdEa31624552DF904A065221cD14088ABDeD70, 860000000000000000)",
        "594",
        "0x6539519E69343535a2aF6583D9BAE3AD74c6A293",
        "0x"
      ],
      "transaction": {
        "from": "0x6539519e69343535a2af6583d9bae3ad74c6a293",
        "to": "0xa4ca2c2e25b97da19879201ba49422bc6f181f42",
        "gas": "0xfb1731",
        "value": "0x0",
        "input": "0x238d6579000000000000000000000000ad11a8beb98bbf61dbb1aa0f6d6f2ecd87b35afa000000000000000000000000aa40c0c7644e0b2b224509571e10ad20d9c4ef28000000000000000000000000af72003a728abb217dc424fcb2f05094edf44f34000000000000000000000000debdea31624552df904a065221cd14088abded700000000000000000000000000000000000000000000000000bef55718ad6000000000000000000000000000000000000000000000000000000000000000002520000000000000000000000006539519e69343535a2af6583d9bae3ad74c6a29300000000000000000000000000000000000000000000000000000000000001000000000000000000000000000000000000000000000000000000000000000000",
        "nonce": "0x9",
        "chainId": "0xa867"
      },
      "additionalContracts": [],
      "isFixedGasLimit": true
    }
  ],
  "receipts": [
    {
      "status": "0x1",
      "cumulativeGasUsed": "0x829a2",
      "logs": [
        {
          "address": "0xaa40c0c7644e0b2b224509571e10ad20d9c4ef28",
          "topics": [
            "0x8c5be1e5ebec7d5bd14f71427d1e84f3dd0314c0f7b2291e5b200ac8c7c3b925",
            "0x0000000000000000000000006539519e69343535a2af6583d9bae3ad74c6a293",
            "0x000000000000000000000000a4ca2c2e25b97da19879201ba49422bc6f181f42"
          ],
          "data": "0x0000000000000000000000000000000000000000000000000000000000000252",
          "blockHash": "0x05a0ded7dcf3fe0ee242080cfca7b5c0a59ad92398529d3abba0001bcc70a9e9",
          "blockNumber": "0x2879d7",
          "transactionHash": "0x7587b9e7d0b67f1303c1e172bc875e7916ff3e5d457265174344261a2ddc3bc4",
          "transactionIndex": "0x4",
          "logIndex": "0xe",
          "removed": false
        }
      ],
      "logsBloom": "0x00000000000000000000000000000000000000000010000000000000000000000080020000000100000000000000002000000000000000000000000000200010000000000000000000000000000000000000000000000000000000000000000000000000000000000000000000000000000000000000000000000000000000000000000000000000000000000000000000002000000000000000000000000000020002000000000000000000000000000000000000000000000000000000000000000000000000000000000000000000000000000000000000000000000000000010000000100000000000000000000000000000000000000000000000000000",
      "type": "0x2",
      "transactionHash": "0x7587b9e7d0b67f1303c1e172bc875e7916ff3e5d457265174344261a2ddc3bc4",
      "transactionIndex": "0x4",
      "blockHash": "0x05a0ded7dcf3fe0ee242080cfca7b5c0a59ad92398529d3abba0001bcc70a9e9",
      "blockNumber": "0x2879d7",
      "gasUsed": "0xb505",
      "effectiveGasPrice": "0xf433c",
      "from": "0x6539519e69343535a2af6583d9bae3ad74c6a293",
      "to": "0xaa40c0c7644e0b2b224509571e10ad20d9c4ef28",
      "contractAddress": null,
      "l1BaseFeeScalar": "0xf4240",
      "l1BlobBaseFee": "0x1",
      "l1BlobBaseFeeScalar": "0x0",
      "l1Fee": "0x13233f6f840",
      "l1GasPrice": "0x30fe1309",
      "l1GasUsed": "0x640"
    },
    {
      "status": "0x1",
      "cumulativeGasUsed": "0x969c9",
      "logs": [
        {
          "address": "0xa4ca2c2e25b97da19879201ba49422bc6f181f42",
          "topics": [
            "0xa3b9472a1399e17e123f3c2e6586c23e504184d504de59cdaa2b375e880c6184",
            "0x36931ab4ffe6fed55ab0624afd2bf6eb1cebdbd6d5c98334e949841e402f86ff",
            "0x0000000000000000000000006539519e69343535a2af6583d9bae3ad74c6a293",
            "0x0000000000000000000000006539519e69343535a2af6583d9bae3ad74c6a293"
          ],
          "data": "0x0000000000000000000000000000000000000000000000000000000000000252",
          "blockHash": "0x05a0ded7dcf3fe0ee242080cfca7b5c0a59ad92398529d3abba0001bcc70a9e9",
          "blockNumber": "0x2879d7",
          "transactionHash": "0x44450c6d09fba3a9f32e95ecbba53e41a50a02e9161e247ae70b54e100f9fa8f",
          "transactionIndex": "0x5",
          "logIndex": "0xf",
          "removed": false
        },
        {
          "address": "0xaa40c0c7644e0b2b224509571e10ad20d9c4ef28",
          "topics": [
            "0xddf252ad1be2c89b69c2b068fc378daa952ba7f163c4a11628f55a4df523b3ef",
            "0x0000000000000000000000006539519e69343535a2af6583d9bae3ad74c6a293",
            "0x000000000000000000000000a4ca2c2e25b97da19879201ba49422bc6f181f42"
          ],
          "data": "0x0000000000000000000000000000000000000000000000000000000000000252",
          "blockHash": "0x05a0ded7dcf3fe0ee242080cfca7b5c0a59ad92398529d3abba0001bcc70a9e9",
          "blockNumber": "0x2879d7",
          "transactionHash": "0x44450c6d09fba3a9f32e95ecbba53e41a50a02e9161e247ae70b54e100f9fa8f",
          "transactionIndex": "0x5",
          "logIndex": "0x10",
          "removed": false
        }
      ],
      "logsBloom": "0x00000000000020000000000002000000000000000010000000000000000000000080020000000100000000000000002000400000000000000000000000000010000000000000000000000008000000000000000000200000000000000000000000000000000000000000000000000000000000000000000000000010000000000000008000000000000000000000000000002000000080000000000000000000000002000000000080000000000000000000000000000000000000000000000000000002000000000000000000000000000000000000000400000000000000000000000000100000000000000000200000000000000000000000000000000000",
      "type": "0x2",
      "transactionHash": "0x44450c6d09fba3a9f32e95ecbba53e41a50a02e9161e247ae70b54e100f9fa8f",
      "transactionIndex": "0x5",
      "blockHash": "0x05a0ded7dcf3fe0ee242080cfca7b5c0a59ad92398529d3abba0001bcc70a9e9",
      "blockNumber": "0x2879d7",
      "gasUsed": "0x14027",
      "effectiveGasPrice": "0xf433c",
      "from": "0x6539519e69343535a2af6583d9bae3ad74c6a293",
      "to": "0xa4ca2c2e25b97da19879201ba49422bc6f181f42",
      "contractAddress": null,
      "l1BaseFeeScalar": "0xf4240",
      "l1BlobBaseFee": "0x1",
      "l1BlobBaseFeeScalar": "0x0",
      "l1Fee": "0x24fe9bc8cd2",
      "l1GasPrice": "0x30fe1309",
      "l1GasUsed": "0xc14"
    }
  ],
  "libraries": [],
  "pending": [],
  "returns": {},
  "timestamp": 1757698283,
  "chain": 43111,
  "commit": "3a72d60"
}