{
  "transactions": [
    {
      "hash": "0xc24f629d31d16bca8f01bd21c5811befdfc91f61b57d7c3afbbc29748bd229b0",
      "transactionType": "CALL",
      "contractName": null,
      "contractAddress": "0xad11a8beb98bbf61dbb1aa0f6d6f2ecd87b35afa",
      "function": "approve(address,uint256)",
      "arguments": [
        "0xa4Ca2c2e25b97DA19879201bA49422bc6f181f42",
        "700000"
      ],
      "transaction": {
        "from": "0x6539519e69343535a2af6583d9bae3ad74c6a293",
        "to": "0xad11a8beb98bbf61dbb1aa0f6d6f2ecd87b35afa",
        "gas": "0x12b1b",
        "value": "0x0",
        "input": "0x095ea7b3000000000000000000000000a4ca2c2e25b97da19879201ba49422bc6f181f4200000000000000000000000000000000000000000000000000000000000aae60",
        "nonce": "0x2b",
        "chainId": "0xa867"
      },
      "additionalContracts": [],
      "isFixedGasLimit": false
    },
    {
      "hash": "0xc16bb954acf07afe3255569ecf5bd7d9e2551ffabdb83bb0d0e2c3640cc789a1",
      "transactionType": "CALL",
      "contractName": null,
      "contractAddress": "0xa4ca2c2e25b97da19879201ba49422bc6f181f42",
      "function": "supplyCollateral((address,address,address,address,uint256),uint256,address,bytes)",
      "arguments": [
        "(0xAA40c0c7644e0b2B224509571e10ad20d9C4ef28, 0xad11a8BEb98bbf61dbb1aa0F6d6F2ECD87b35afA, 0x6F3B428CB767018a9bBFB3764f410c9636A92e3C, 0xdEbdEa31624552DF904A065221cD14088ABDeD70, 770000000000000000)",
        "700000",
        "0x6539519E69343535a2aF6583D9BAE3AD74c6A293",
        "0x"
      ],
      "transaction": {
        "from": "0x6539519e69343535a2af6583d9bae3ad74c6a293",
        "to": "0xa4ca2c2e25b97da19879201ba49422bc6f181f42",
        "gas": "0x1b1f6",
        "value": "0x0",
        "input": "0x238d6579000000000000000000000000aa40c0c7644e0b2b224509571e10ad20d9c4ef28000000000000000000000000ad11a8beb98bbf61dbb1aa0f6d6f2ecd87b35afa0000000000000000000000006f3b428cb767018a9bbfb3764f410c9636a92e3c000000000000000000000000debdea31624552df904a065221cd14088abded700000000000000000000000000000000000000000000000000aaf96eb9d0d000000000000000000000000000000000000000000000000000000000000000aae600000000000000000000000006539519e69343535a2af6583d9bae3ad74c6a29300000000000000000000000000000000000000000000000000000000000001000000000000000000000000000000000000000000000000000000000000000000",
        "nonce": "0x2c",
        "chainId": "0xa867"
      },
      "additionalContracts": [],
      "isFixedGasLimit": false
    }
  ],
  "receipts": [
    {
      "status": "0x1",
      "cumulativeGasUsed": "0x1119ec",
      "logs": [
        {
          "address": "0xad11a8beb98bbf61dbb1aa0f6d6f2ecd87b35afa",
          "topics": [
            "0x8c5be1e5ebec7d5bd14f71427d1e84f3dd0314c0f7b2291e5b200ac8c7c3b925",
            "0x0000000000000000000000006539519e69343535a2af6583d9bae3ad74c6a293",
            "0x000000000000000000000000a4ca2c2e25b97da19879201ba49422bc6f181f42"
          ],
          "data": "0x00000000000000000000000000000000000000000000000000000000000aae60",
          "blockHash": "0x6f2ca986e5a798a419aa3ce3ac1322160c23d573302b57fa9bd677f8e37f1e10",
          "blockNumber": "0x297a77",
          "transactionHash": "0xc24f629d31d16bca8f01bd21c5811befdfc91f61b57d7c3afbbc29748bd229b0",
          "transactionIndex": "0x4",
          "logIndex": "0x24",
          "removed": false
        }
      ],
      "logsBloom": "0x00000000000000000000000000000000000000000010000000000000000000000080000000000100000000000000002000000000000000000000000000200010000008002400000000000000000000000000000000000000000000000000000000000000000000000000000000000000000000000000000000000000000000000000000000000000000000000000000000000000000000000000000000000000020000000000000000000000000000000000000000000000000000000000000000000000000000000000000000000000000000000000000000000000000000000010000000100000000000000000000000000000000000000000000000000000",
      "type": "0x2",
      "transactionHash": "0xc24f629d31d16bca8f01bd21c5811befdfc91f61b57d7c3afbbc29748bd229b0",
      "transactionIndex": "0x4",
      "blockHash": "0x6f2ca986e5a798a419aa3ce3ac1322160c23d573302b57fa9bd677f8e37f1e10",
      "blockNumber": "0x297a77",
      "gasUsed": "0xd88d",
      "effectiveGasPrice": "0xf433c",
      "from": "0x6539519e69343535a2af6583d9bae3ad74c6a293",
      "to": "0xad11a8beb98bbf61dbb1aa0f6d6f2ecd87b35afa",
      "contractAddress": null,
      "l1BaseFeeScalar": "0xf4240",
      "l1BlobBaseFee": "0x1",
      "l1BlobBaseFeeScalar": "0x0",
      "l1Fee": "0x2c7afe8e80",
      "l1GasPrice": "0x71deb4a",
      "l1GasUsed": "0x640"
    },
    {
      "status": "0x1",
      "cumulativeGasUsed": "0x12541b",
      "logs": [
        {
          "address": "0xa4ca2c2e25b97da19879201ba49422bc6f181f42",
          "topics": [
            "0xa3b9472a1399e17e123f3c2e6586c23e504184d504de59cdaa2b375e880c6184",
            "0x7c985a3ba92fa76a362f661b37a68c9955490eb659b7905aab6019b91042b452",
            "0x0000000000000000000000006539519e69343535a2af6583d9bae3ad74c6a293",
            "0x0000000000000000000000006539519e69343535a2af6583d9bae3ad74c6a293"
          ],
          "data": "0x00000000000000000000000000000000000000000000000000000000000aae60",
          "blockHash": "0x6f2ca986e5a798a419aa3ce3ac1322160c23d573302b57fa9bd677f8e37f1e10",
          "blockNumber": "0x297a77",
          "transactionHash": "0xc16bb954acf07afe3255569ecf5bd7d9e2551ffabdb83bb0d0e2c3640cc789a1",
          "transactionIndex": "0x5",
          "logIndex": "0x25",
          "removed": false
        },
        {
          "address": "0xad11a8beb98bbf61dbb1aa0f6d6f2ecd87b35afa",
          "topics": [
            "0xddf252ad1be2c89b69c2b068fc378daa952ba7f163c4a11628f55a4df523b3ef",
            "0x0000000000000000000000006539519e69343535a2af6583d9bae3ad74c6a293",
            "0x000000000000000000000000a4ca2c2e25b97da19879201ba49422bc6f181f42"
          ],
          "data": "0x00000000000000000000000000000000000000000000000000000000000aae60",
          "blockHash": "0x6f2ca986e5a798a419aa3ce3ac1322160c23d573302b57fa9bd677f8e37f1e10",
          "blockNumber": "0x297a77",
          "transactionHash": "0xc16bb954acf07afe3255569ecf5bd7d9e2551ffabdb83bb0d0e2c3640cc789a1",
          "transactionIndex": "0x5",
          "logIndex": "0x26",
          "removed": false
        }
      ],
      "logsBloom": "0x00000000400000000000000000000000000008000010000000000000000000000080000000000100000000000000002000400000000000000000000000000010000008002400000000000008000000000000400000200000000000000000000000000000000000000000000000000000000000000000000000000010000000000000008000000000000000000000000000000000000080000000000000000000000000000000000000000000000000000000000000000000000000000000000000000002000000000000000000000000000000000000000400000000000000000000000000100000000000000000200000000000000000000000000000000000",
      "type": "0x2",
      "transactionHash": "0xc16bb954acf07afe3255569ecf5bd7d9e2551ffabdb83bb0d0e2c3640cc789a1",
      "transactionIndex": "0x5",
      "blockHash": "0x6f2ca986e5a798a419aa3ce3ac1322160c23d573302b57fa9bd677f8e37f1e10",
      "blockNumber": "0x297a77",
      "gasUsed": "0x13a2f",
      "effectiveGasPrice": "0xf433c",
      "from": "0x6539519e69343535a2af6583d9bae3ad74c6a293",
      "to": "0xa4ca2c2e25b97da19879201ba49422bc6f181f42",
      "contractAddress": null,
      "l1BaseFeeScalar": "0xf4240",
      "l1BlobBaseFee": "0x1",
      "l1BlobBaseFeeScalar": "0x0",
      "l1Fee": "0x56ba683b4b",
      "l1GasPrice": "0x71deb4a",
      "l1GasUsed": "0xc2f"
    }
  ],
  "libraries": [],
  "pending": [],
  "returns": {},
  "timestamp": 1758486635,
  "chain": 43111,
  "commit": "d8ba599"
}