{
  "transactions": [
    {
      "hash": "0xa09d577954b6e826a06c5661e8b0068bd28ce3c10729a834dd846819542a498a",
      "transactionType": "CALL",
      "contractName": null,
      "contractAddress": "0x6c247b1f6182318877311737bac0844baa518f5e",
      "function": "borrow((address,address,address,address,uint256),uint256,uint256,address,address)",
      "arguments": [
        "(0xaf88d065e77c8cC2239327C5EDb3A432268e5831, 0x6eAf19b2FC24552925dB245F9Ff613157a7dbb4C, 0x14A7F156062D35861a285c7A7F5662964c2fe155, 0x66F30587FB8D4206918deb78ecA7d5eBbafD06DA, 915000000000000000)",
        "499500",
        "0",
        "0x6539519E69343535a2aF6583D9BAE3AD74c6A293",
        "0x6539519E69343535a2aF6583D9BAE3AD74c6A293"
      ],
      "transaction": {
        "from": "0x6539519e69343535a2af6583d9bae3ad74c6a293",
        "to": "0x6c247b1f6182318877311737bac0844baa518f5e",
        "gas": "0x3bd00",
        "value": "0x0",
        "input": "0x50d8cd4b000000000000000000000000af88d065e77c8cc2239327c5edb3a432268e58310000000000000000000000006eaf19b2fc24552925db245f9ff613157a7dbb4c00000000000000000000000014a7f156062d35861a285c7a7f5662964c2fe15500000000000000000000000066f30587fb8d4206918deb78eca7d5ebbafd06da0000000000000000000000000000000000000000000000000cb2bba6f17b80000000000000000000000000000000000000000000000000000000000000079f2c00000000000000000000000000000000000000000000000000000000000000000000000000000000000000006539519e69343535a2af6583d9bae3ad74c6a2930000000000000000000000006539519e69343535a2af6583d9bae3ad74c6a293",
        "nonce": "0x7",
        "chainId": "0xa4b1"
      },
      "additionalContracts": [],
      "isFixedGasLimit": false
    }
  ],
  "receipts": [
    {
      "status": "0x1",
      "cumulativeGasUsed": "0x10dbff",
      "logs": [
        {
          "address": "0x66f30587fb8d4206918deb78eca7d5ebbafd06da",
          "topics": [
            "0x7120161a7b3d31251e01294ab351ef15a41b91659a36032e4641bb89b121e321",
            "0x7c03103c24ccfa9188bf41a8d44423cf5492645805eb1d23d9f862717d3fe5ab"
          ],
          "data": "0x000000000000000000000000000000000000000000000000000000000eb03005000000000000000000000000000000000000000000000000000000003abee0e1",
          "blockHash": "0xcff0db0dcf0acc9c91fe77cf5e1e3d3c54bee64b6a92b7bf49a7a4c03ce53c45",
          "blockNumber": "0x16d806aa",
          "transactionHash": "0xa09d577954b6e826a06c5661e8b0068bd28ce3c10729a834dd846819542a498a",
          "transactionIndex": "0x8",
          "logIndex": "0x10",
          "removed": false
        },
        {
          "address": "0x6c247b1f6182318877311737bac0844baa518f5e",
          "topics": [
            "0x9d9bd501d0657d7dfe415f779a620a62b78bc508ddc0891fbbd8b7ac0f8fce87",
            "0x7c03103c24ccfa9188bf41a8d44423cf5492645805eb1d23d9f862717d3fe5ab"
          ],
          "data": "0x000000000000000000000000000000000000000000000000000000000eb0300500000000000000000000000000000000000000000000000000000000000000000000000000000000000000000000000000000000000000000000000000000000",
          "blockHash": "0xcff0db0dcf0acc9c91fe77cf5e1e3d3c54bee64b6a92b7bf49a7a4c03ce53c45",
          "blockNumber": "0x16d806aa",
          "transactionHash": "0xa09d577954b6e826a06c5661e8b0068bd28ce3c10729a834dd846819542a498a",
          "transactionIndex": "0x8",
          "logIndex": "0x11",
          "removed": false
        },
        {
          "address": "0x6c247b1f6182318877311737bac0844baa518f5e",
          "topics": [
            "0x570954540bed6b1304a87dfe815a5eda4a648f7097a16240dcd85c9b5fd42a43",
            "0x7c03103c24ccfa9188bf41a8d44423cf5492645805eb1d23d9f862717d3fe5ab",
            "0x0000000000000000000000006539519e69343535a2af6583d9bae3ad74c6a293",
            "0x0000000000000000000000006539519e69343535a2af6583d9bae3ad74c6a293"
          ],
          "data": "0x0000000000000000000000006539519e69343535a2af6583d9bae3ad74c6a2930000000000000000000000000000000000000000000000000000000000079f2c000000000000000000000000000000000000000000000000000000744c852300",
          "blockHash": "0xcff0db0dcf0acc9c91fe77cf5e1e3d3c54bee64b6a92b7bf49a7a4c03ce53c45",
          "blockNumber": "0x16d806aa",
          "transactionHash": "0xa09d577954b6e826a06c5661e8b0068bd28ce3c10729a834dd846819542a498a",
          "transactionIndex": "0x8",
          "logIndex": "0x12",
          "removed": false
        },
        {
          "address": "0xaf88d065e77c8cc2239327c5edb3a432268e5831",
          "topics": [
            "0xddf252ad1be2c89b69c2b068fc378daa952ba7f163c4a11628f55a4df523b3ef",
            "0x0000000000000000000000006c247b1f6182318877311737bac0844baa518f5e",
            "0x0000000000000000000000006539519e69343535a2af6583d9bae3ad74c6a293"
          ],
          "data": "0x0000000000000000000000000000000000000000000000000000000000079f2c",
          "blockHash": "0xcff0db0dcf0acc9c91fe77cf5e1e3d3c54bee64b6a92b7bf49a7a4c03ce53c45",
          "blockNumber": "0x16d806aa",
          "transactionHash": "0xa09d577954b6e826a06c5661e8b0068bd28ce3c10729a834dd846819542a498a",
          "transactionIndex": "0x8",
          "logIndex": "0x13",
          "removed": false
        }
      ],
      "logsBloom": "0x00000000000000000002000000000000000000000000000000000000000000080080400000000100000000000000000000000001000000000000000420804002000000000000000000000008000000000000000000000000000000080100000000000000000000000000000000000000000000000000000000000010000000000000000000000000000020000000200000000000000000000000000000000000000000000000000200000000000000000000000000000000000000000000000000002002000100000000000000000000000000000000100000800000000000000000004000100008000000000001200000100000000000000000000000000040",
      "type": "0x2",
      "transactionHash": "0xa09d577954b6e826a06c5661e8b0068bd28ce3c10729a834dd846819542a498a",
      "transactionIndex": "0x8",
      "blockHash": "0xcff0db0dcf0acc9c91fe77cf5e1e3d3c54bee64b6a92b7bf49a7a4c03ce53c45",
      "blockNumber": "0x16d806aa",
      "gasUsed": "0x2c7ee",
      "effectiveGasPrice": "0xbad038",
      "from": "0x6539519e69343535a2af6583d9bae3ad74c6a293",
      "to": "0x6c247b1f6182318877311737bac0844baa518f5e",
      "contractAddress": null,
      "gasUsedForL1": "0x242f",
      "l1BlockNumber": "0x165ca43",
      "timeboosted": false
    }
  ],
  "libraries": [],
  "pending": [],
  "returns": {},
  "timestamp": 1758901087,
  "chain": 42161,
  "commit": "b3e5063"
}