{
  "transactions": [
    {
      "hash": "0xd9b4cb645915e23b8d76124a5b9b3a329396dbc0198164a7e34979014b31b8b7",
      "transactionType": "CALL",
      "contractName": null,
      "contractAddress": "0x6c247b1f6182318877311737bac0844baa518f5e",
      "function": "borrow((address,address,address,address,uint256),uint256,uint256,address,address)",
      "arguments": [
        "(0xaf88d065e77c8cC2239327C5EDb3A432268e5831, 0x139450C2dCeF827C9A2a0Bb1CB5506260940c9fd, 0x393A33fc66C1C0742B0e65EE1C239Cf65D2aF3e4, 0x66F30587FB8D4206918deb78ecA7d5eBbafD06DA, 915000000000000000)",
        "499500",
        "0",
        "0x6539519E69343535a2aF6583D9BAE3AD74c6A293",
        "0x6539519E69343535a2aF6583D9BAE3AD74c6A293"
      ],
      "transaction": {
        "from": "0x6539519e69343535a2af6583d9bae3ad74c6a293",
        "to": "0x6c247b1f6182318877311737bac0844baa518f5e",
        "gas": "0x297c1",
        "value": "0x0",
        "input": "0x50d8cd4b000000000000000000000000af88d065e77c8cc2239327c5edb3a432268e5831000000000000000000000000139450c2dcef827c9a2a0bb1cb5506260940c9fd000000000000000000000000393a33fc66c1c0742b0e65ee1c239cf65d2af3e400000000000000000000000066f30587fb8d4206918deb78eca7d5ebbafd06da0000000000000000000000000000000000000000000000000cb2bba6f17b80000000000000000000000000000000000000000000000000000000000000079f2c00000000000000000000000000000000000000000000000000000000000000000000000000000000000000006539519e69343535a2af6583d9bae3ad74c6a2930000000000000000000000006539519e69343535a2af6583d9bae3ad74c6a293",
        "nonce": "0xd",
        "chainId": "0xa4b1"
      },
      "additionalContracts": [],
      "isFixedGasLimit": false
    }
  ],
  "receipts": [
    {
      "status": "0x1",
      "cumulativeGasUsed": "0x41c69",
      "logs": [
        {
          "address": "0x66f30587fb8d4206918deb78eca7d5ebbafd06da",
          "topics": [
            "0x7120161a7b3d31251e01294ab351ef15a41b91659a36032e4641bb89b121e321",
            "0x0eedc5ee101e262ed96d49d66ff7099b1b9d996ac8007b44a6925b2f8c0626ed"
          ],
          "data": "0x0000000000000000000000000000000000000000000000000000000010644f2200000000000000000000000000000000000000000000000000000000419043df",
          "blockHash": "0xb8702d6ffd43f2f15f075128d24596e7e0cde7a48109dcdd98553c5cbdf76ddc",
          "blockNumber": "0x16f1cfdf",
          "transactionHash": "0xd9b4cb645915e23b8d76124a5b9b3a329396dbc0198164a7e34979014b31b8b7",
          "transactionIndex": "0x4",
          "logIndex": "0x1",
          "removed": false
        },
        {
          "address": "0x6c247b1f6182318877311737bac0844baa518f5e",
          "topics": [
            "0x9d9bd501d0657d7dfe415f779a620a62b78bc508ddc0891fbbd8b7ac0f8fce87",
            "0x0eedc5ee101e262ed96d49d66ff7099b1b9d996ac8007b44a6925b2f8c0626ed"
          ],
          "data": "0x0000000000000000000000000000000000000000000000000000000010644f2200000000000000000000000000000000000000000000000000000000000000000000000000000000000000000000000000000000000000000000000000000000",
          "blockHash": "0xb8702d6ffd43f2f15f075128d24596e7e0cde7a48109dcdd98553c5cbdf76ddc",
          "blockNumber": "0x16f1cfdf",
          "transactionHash": "0xd9b4cb645915e23b8d76124a5b9b3a329396dbc0198164a7e34979014b31b8b7",
          "transactionIndex": "0x4",
          "logIndex": "0x2",
          "removed": false
        },
        {
          "address": "0x6c247b1f6182318877311737bac0844baa518f5e",
          "topics": [
            "0x570954540bed6b1304a87dfe815a5eda4a648f7097a16240dcd85c9b5fd42a43",
            "0x0eedc5ee101e262ed96d49d66ff7099b1b9d996ac8007b44a6925b2f8c0626ed",
            "0x0000000000000000000000006539519e69343535a2af6583d9bae3ad74c6a293",
            "0x0000000000000000000000006539519e69343535a2af6583d9bae3ad74c6a293"
          ],
          "data": "0x0000000000000000000000006539519e69343535a2af6583d9bae3ad74c6a2930000000000000000000000000000000000000000000000000000000000079f2c000000000000000000000000000000000000000000000000000000744c852300",
          "blockHash": "0xb8702d6ffd43f2f15f075128d24596e7e0cde7a48109dcdd98553c5cbdf76ddc",
          "blockNumber": "0x16f1cfdf",
          "transactionHash": "0xd9b4cb645915e23b8d76124a5b9b3a329396dbc0198164a7e34979014b31b8b7",
          "transactionIndex": "0x4",
          "logIndex": "0x3",
          "removed": false
        },
        {
          "address": "0xaf88d065e77c8cc2239327c5edb3a432268e5831",
          "topics": [
            "0xddf252ad1be2c89b69c2b068fc378daa952ba7f163c4a11628f55a4df523b3ef",
            "0x0000000000000000000000006c247b1f6182318877311737bac0844baa518f5e",
            "0x0000000000000000000000006539519e69343535a2af6583d9bae3ad74c6a293"
          ],
          "data": "0x0000000000000000000000000000000000000000000000000000000000079f2c",
          "blockHash": "0xb8702d6ffd43f2f15f075128d24596e7e0cde7a48109dcdd98553c5cbdf76ddc",
          "blockNumber": "0x16f1cfdf",
          "transactionHash": "0xd9b4cb645915e23b8d76124a5b9b3a329396dbc0198164a7e34979014b31b8b7",
          "transactionIndex": "0x4",
          "logIndex": "0x4",
          "removed": false
        }
      ],
      "logsBloom": "0x00000000000000000002000000000000000000000000000000000000000000000080400000000100000000000000000000000001000000000000000420804002000000000000000000000008000000000000000000000000000000080100020000000000000000000000000000000000000000000000000000000010000000000000000000000000000000000000200000000000000000000002000000000000000000000000000200000000000000000000000000000008000000000000000000002002000100000000000000000000000000000000100000800000000000000000004000100008000000000001200000100000000000000000000000000000",
      "type": "0x2",
      "transactionHash": "0xd9b4cb645915e23b8d76124a5b9b3a329396dbc0198164a7e34979014b31b8b7",
      "transactionIndex": "0x4",
      "blockHash": "0xb8702d6ffd43f2f15f075128d24596e7e0cde7a48109dcdd98553c5cbdf76ddc",
      "blockNumber": "0x16f1cfdf",
      "gasUsed": "0x1f4fa",
      "effectiveGasPrice": "0xad3ba8",
      "from": "0x6539519e69343535a2af6583d9bae3ad74c6a293",
      "to": "0x6c247b1f6182318877311737bac0844baa518f5e",
      "contractAddress": null,
      "gasUsedForL1": "0xe99",
      "l1BlockNumber": "0x16652ab",
      "timeboosted": false
    }
  ],
  "libraries": [],
  "pending": [],
  "returns": {},
  "timestamp": 1759322932,
  "chain": 42161,
  "commit": "24867d0"
}