{
  "transactions": [
    {
      "hash": "0xde2e2d0eb85fb0ce128c5c0ca6fc57ca1178213145319330a6e13981dfc1076f",
      "transactionType": "CALL",
      "contractName": null,
      "contractAddress": "0xbbbbbbbbbb9cc5e90e3b3af64bdaf62c37eeffcb",
      "function": "createMarket((address,address,address,address,uint256))",
      "arguments": [
        "(0x4200000000000000000000000000000000000006, 0x3A43AEC53490CB9Fa922847385D82fe25d0E9De7, 0xBF991c8c88Be948881a4D2168f7b7f3E1ee71DBC, 0x46415998764C29aB2a25CbeA6254146D50D22687, 915000000000000000)"
      ],
      "transaction": {
        "from": "0x6539519e69343535a2af6583d9bae3ad74c6a293",
        "to": "0xbbbbbbbbbb9cc5e90e3b3af64bdaf62c37eeffcb",
        "gas": "0x467c6",
        "value": "0x0",
        "input": "0x8c1358a200000000000000000000000042000000000000000000000000000000000000060000000000000000000000003a43aec53490cb9fa922847385d82fe25d0e9de7000000000000000000000000bf991c8c88be948881a4d2168f7b7f3e1ee71dbc00000000000000000000000046415998764c29ab2a25cbea6254146d50d226870000000000000000000000000000000000000000000000000cb2bba6f17b8000",
        "nonce": "0x29",
        "chainId": "0x2105"
      },
      "additionalContracts": [],
      "isFixedGasLimit": false
    }
  ],
  "receipts": [
    {
      "status": "0x1",
      "cumulativeGasUsed": "0x16a9627",
      "logs": [
        {
          "address": "0xbbbbbbbbbb9cc5e90e3b3af64bdaf62c37eeffcb",
          "topics": [
            "0xac4b2400f169220b0c0afdde7a0b32e775ba727ea1cb30b35f935cdaab8683ac",
            "0x94f344f8db8c950faa45206c269dd0c2787a86ae3a7b988423e1e6e8173ae269"
          ],
          "data": "0x00000000000000000000000042000000000000000000000000000000000000060000000000000000000000003a43aec53490cb9fa922847385d82fe25d0e9de7000000000000000000000000bf991c8c88be948881a4d2168f7b7f3e1ee71dbc00000000000000000000000046415998764c29ab2a25cbea6254146d50d226870000000000000000000000000000000000000000000000000cb2bba6f17b8000",
          "blockHash": "0x634bb56a0cc199af2f3acdc522ad637efe54b02bc9b694d9d0d9a9838d8d519a",
          "blockNumber": "0x2089de5",
          "blockTimestamp": "0x689b98ad",
          "transactionHash": "0xde2e2d0eb85fb0ce128c5c0ca6fc57ca1178213145319330a6e13981dfc1076f",
          "transactionIndex": "0x52",
          "logIndex": "0x1ec",
          "removed": false
        },
        {
          "address": "0x46415998764c29ab2a25cbea6254146d50d22687",
          "topics": [
            "0x7120161a7b3d31251e01294ab351ef15a41b91659a36032e4641bb89b121e321",
            "0x94f344f8db8c950faa45206c269dd0c2787a86ae3a7b988423e1e6e8173ae269"
          ],
          "data": "0x0000000000000000000000000000000000000000000000000000000012e687bf000000000000000000000000000000000000000000000000000000004b9a1eff",
          "blockHash": "0x634bb56a0cc199af2f3acdc522ad637efe54b02bc9b694d9d0d9a9838d8d519a",
          "blockNumber": "0x2089de5",
          "blockTimestamp": "0x689b98ad",
          "transactionHash": "0xde2e2d0eb85fb0ce128c5c0ca6fc57ca1178213145319330a6e13981dfc1076f",
          "transactionIndex": "0x52",
          "logIndex": "0x1ed",
          "removed": false
        }
      ],
      "logsBloom": "0x00000000000000000000000000000800000000000000000000000000000000000000000000000100000000000000000000000400000000000010000000804000000000000010000000000000000000000000000000000000000000000000000000000000000000000000000000000000000000000000000000000040000000000000000000000008000000000000000000000000000000000008000000000000000000000000000000000000000000000000000000000000000000000000000020000080000000000000000000000000000100000000000000000000000000000000000000000000000000000001000000000000000000000000000000000010",
      "type": "0x2",
      "transactionHash": "0xde2e2d0eb85fb0ce128c5c0ca6fc57ca1178213145319330a6e13981dfc1076f",
      "transactionIndex": "0x52",
      "blockHash": "0x634bb56a0cc199af2f3acdc522ad637efe54b02bc9b694d9d0d9a9838d8d519a",
      "blockNumber": "0x2089de5",
      "gasUsed": "0x30321",
      "effectiveGasPrice": "0x4019d7",
      "from": "0x6539519e69343535a2af6583d9bae3ad74c6a293",
      "to": "0xbbbbbbbbbb9cc5e90e3b3af64bdaf62c37eeffcb",
      "contractAddress": null,
      "l1BaseFeeScalar": "0x8dd",
      "l1BlobBaseFee": "0x1",
      "l1BlobBaseFeeScalar": "0x101c12",
      "l1Fee": "0x20235a26a",
      "l1GasPrice": "0x64236247",
      "l1GasUsed": "0x8d7"
    }
  ],
  "libraries": [],
  "pending": [],
  "returns": {},
  "timestamp": 1755027629,
  "chain": 8453,
  "commit": "596d8a9"
}