{
  "transactions": [
    {
      "hash": "0xb94617bbdafcac2bc14e3f36dff687a28949457a5c00276ef70c1f136058b334",
      "transactionType": "CALL",
      "contractName": null,
      "contractAddress": "0xbbbbbbbbbb9cc5e90e3b3af64bdaf62c37eeffcb",
      "function": "createMarket((address,address,address,address,uint256))",
      "arguments": [
        "(0x833589fCD6eDb6E08f4c7C32D4f71b54bdA02913, 0x4772D2e014F9fC3a820C444e3313968e9a5C8121, 0x2766C711ec32c8ea1F141ECEE718c0c7C39f5370, 0x46415998764C29aB2a25CbeA6254146D50D22687, 915000000000000000)"
      ],
      "transaction": {
        "from": "0x6539519e69343535a2af6583d9bae3ad74c6a293",
        "to": "0xbbbbbbbbbb9cc5e90e3b3af64bdaf62c37eeffcb",
        "gas": "0x46902",
        "value": "0x0",
        "input": "0x8c1358a2000000000000000000000000833589fcd6edb6e08f4c7c32d4f71b54bda029130000000000000000000000004772d2e014f9fc3a820c444e3313968e9a5c81210000000000000000000000002766c711ec32c8ea1f141ecee718c0c7c39f537000000000000000000000000046415998764c29ab2a25cbea6254146d50d226870000000000000000000000000000000000000000000000000cb2bba6f17b8000",
        "nonce": "0x31",
        "chainId": "0x2105"
      },
      "additionalContracts": [],
      "isFixedGasLimit": false
    }
  ],
  "receipts": [
    {
      "status": "0x1",
      "cumulativeGasUsed": "0x73e598",
      "logs": [
        {
          "address": "0xbbbbbbbbbb9cc5e90e3b3af64bdaf62c37eeffcb",
          "topics": [
            "0xac4b2400f169220b0c0afdde7a0b32e775ba727ea1cb30b35f935cdaab8683ac",
            "0xb609f1d824d70a2127092333f591080be01555535c61d93252dd778e1fa88920"
          ],
          "data": "0x000000000000000000000000833589fcd6edb6e08f4c7c32d4f71b54bda029130000000000000000000000004772d2e014f9fc3a820c444e3313968e9a5c81210000000000000000000000002766c711ec32c8ea1f141ecee718c0c7c39f537000000000000000000000000046415998764c29ab2a25cbea6254146d50d226870000000000000000000000000000000000000000000000000cb2bba6f17b8000",
          "blockHash": "0x70dafbd7b376cb0fb074656a4caf5de2deaa596fae0782307ccb6521d8410adc",
          "blockNumber": "0x2128842",
          "blockTimestamp": "0x68af6d67",
          "transactionHash": "0xb94617bbdafcac2bc14e3f36dff687a28949457a5c00276ef70c1f136058b334",
          "transactionIndex": "0x29",
          "logIndex": "0x9e",
          "removed": false
        },
        {
          "address": "0x46415998764c29ab2a25cbea6254146d50d22687",
          "topics": [
            "0x7120161a7b3d31251e01294ab351ef15a41b91659a36032e4641bb89b121e321",
            "0xb609f1d824d70a2127092333f591080be01555535c61d93252dd778e1fa88920"
          ],
          "data": "0x0000000000000000000000000000000000000000000000000000000012e687bf000000000000000000000000000000000000000000000000000000004b9a1eff",
          "blockHash": "0x70dafbd7b376cb0fb074656a4caf5de2deaa596fae0782307ccb6521d8410adc",
          "blockNumber": "0x2128842",
          "blockTimestamp": "0x68af6d67",
          "transactionHash": "0xb94617bbdafcac2bc14e3f36dff687a28949457a5c00276ef70c1f136058b334",
          "transactionIndex": "0x29",
          "logIndex": "0x9f",
          "removed": false
        }
      ],
      "logsBloom": "0x00000000000000000000000000000800000000000000000000000000000000000000000000000100000000000000000000000000000000000000000000804000000000000010000000000000000000800000000000000000000000000000000000000000000000000000000000000000000000000000000000000040000000000000000000000008000000000000000040000000000000000008000000000000000000000000000000000000000000010000000000000000000000000000000020000000000000000000000000000000000100000000000000000000000000000000000000000000000000000001000000000000000000000000000000000010",
      "type": "0x2",
      "transactionHash": "0xb94617bbdafcac2bc14e3f36dff687a28949457a5c00276ef70c1f136058b334",
      "transactionIndex": "0x29",
      "blockHash": "0x70dafbd7b376cb0fb074656a4caf5de2deaa596fae0782307ccb6521d8410adc",
      "blockNumber": "0x2128842",
      "gasUsed": "0x303f9",
      "effectiveGasPrice": "0xdfed10",
      "from": "0x6539519e69343535a2af6583d9bae3ad74c6a293",
      "to": "0xbbbbbbbbbb9cc5e90e3b3af64bdaf62c37eeffcb",
      "contractAddress": null,
      "l1BaseFeeScalar": "0x8dd",
      "l1BlobBaseFee": "0x1",
      "l1BlobBaseFeeScalar": "0x101c12",
      "l1Fee": "0x2a6da3a00",
      "l1GasPrice": "0x796dde13",
      "l1GasUsed": "0x99f"
    }
  ],
  "libraries": [],
  "pending": [],
  "returns": {},
  "timestamp": 1756327269,
  "chain": 8453,
  "commit": "19af0c8"
}