{
  "transactions": [
    {
      "hash": "0x9812196ecbcc0631cf278cbbfc4b5a8af9119f59b5098ec13408d339a4846f34",
      "transactionType": "CALL",
      "contractName": null,
      "contractAddress": "0xbbbbbbbbbb9cc5e90e3b3af64bdaf62c37eeffcb",
      "function": "createMarket((address,address,address,address,uint256))",
      "arguments": [
        "(0x833589fCD6eDb6E08f4c7C32D4f71b54bdA02913, 0x0000000f2eB9f69274678c76222B35eEc7588a65, 0x77f59C5C09e7ABEF6991B456170930324FE36222, 0x46415998764C29aB2a25CbeA6254146D50D22687, 915000000000000000)"
      ],
      "transaction": {
        "from": "0x6539519e69343535a2af6583d9bae3ad74c6a293",
        "to": "0xbbbbbbbbbb9cc5e90e3b3af64bdaf62c37eeffcb",
        "gas": "0x42a17",
        "value": "0x0",
        "input": "0x8c1358a2000000000000000000000000833589fcd6edb6e08f4c7c32d4f71b54bda029130000000000000000000000000000000f2eb9f69274678c76222b35eec7588a6500000000000000000000000077f59c5c09e7abef6991b456170930324fe3622200000000000000000000000046415998764c29ab2a25cbea6254146d50d226870000000000000000000000000000000000000000000000000cb2bba6f17b8000",
        "nonce": "0x22",
        "chainId": "0x2105"
      },
      "additionalContracts": [],
      "isFixedGasLimit": false
    }
  ],
  "receipts": [
    {
      "status": "0x1",
      "cumulativeGasUsed": "0x599555",
      "logs": [
        {
          "address": "0xbbbbbbbbbb9cc5e90e3b3af64bdaf62c37eeffcb",
          "topics": [
            "0xac4b2400f169220b0c0afdde7a0b32e775ba727ea1cb30b35f935cdaab8683ac",
            "0x1a3e69d0109bb1be42b80e11034bb6ee98fc466721f26845dc83b2aa8d979137"
          ],
          "data": "0x000000000000000000000000833589fcd6edb6e08f4c7c32d4f71b54bda029130000000000000000000000000000000f2eb9f69274678c76222b35eec7588a6500000000000000000000000077f59c5c09e7abef6991b456170930324fe3622200000000000000000000000046415998764c29ab2a25cbea6254146d50d226870000000000000000000000000000000000000000000000000cb2bba6f17b8000",
          "blockHash": "0xb698093de1ddaac202eded17160869204960f6afd2b7763febdd951036b9c73e",
          "blockNumber": "0x2089427",
          "blockTimestamp": "0x689b8531",
          "transactionHash": "0x9812196ecbcc0631cf278cbbfc4b5a8af9119f59b5098ec13408d339a4846f34",
          "transactionIndex": "0x18",
          "logIndex": "0x81",
          "removed": false
        },
        {
          "address": "0x46415998764c29ab2a25cbea6254146d50d22687",
          "topics": [
            "0x7120161a7b3d31251e01294ab351ef15a41b91659a36032e4641bb89b121e321",
            "0x1a3e69d0109bb1be42b80e11034bb6ee98fc466721f26845dc83b2aa8d979137"
          ],
          "data": "0x0000000000000000000000000000000000000000000000000000000012e687bf000000000000000000000000000000000000000000000000000000004b9a1eff",
          "blockHash": "0xb698093de1ddaac202eded17160869204960f6afd2b7763febdd951036b9c73e",
          "blockNumber": "0x2089427",
          "blockTimestamp": "0x689b8531",
          "transactionHash": "0x9812196ecbcc0631cf278cbbfc4b5a8af9119f59b5098ec13408d339a4846f34",
          "transactionIndex": "0x18",
          "logIndex": "0x82",
          "removed": false
        }
      ],
      "logsBloom": "0x00000000000000000000000000000800000000000000000000000000000000000000000000000100000000000000000000000000000000000000000000804000000000000010000000000000000000000000000000000000000000002000000000000000000000000000000000000000000000000000000000000040000000000000000000000008000000000000004000000000000000000008000000000000000000000000000000000000000000000000400000000000000000000000000020000000000000000000000000000000000100000000000000000000000000000000000000000000000000000001000000000000000000000000000000000010",
      "type": "0x2",
      "transactionHash": "0x9812196ecbcc0631cf278cbbfc4b5a8af9119f59b5098ec13408d339a4846f34",
      "transactionIndex": "0x18",
      "blockHash": "0xb698093de1ddaac202eded17160869204960f6afd2b7763febdd951036b9c73e",
      "blockNumber": "0x2089427",
      "gasUsed": "0x303d5",
      "effectiveGasPrice": "0x116e8cc",
      "from": "0x6539519e69343535a2af6583d9bae3ad74c6a293",
      "to": "0xbbbbbbbbbb9cc5e90e3b3af64bdaf62c37eeffcb",
      "contractAddress": null,
      "l1BaseFeeScalar": "0x8dd",
      "l1BlobBaseFee": "0x1",
      "l1BlobBaseFeeScalar": "0x101c12",
      "l1Fee": "0x365404729",
      "l1GasPrice": "0x9ef0a971",
      "l1GasUsed": "0x96a"
    }
  ],
  "libraries": [],
  "pending": [],
  "returns": {},
  "timestamp": 1755022640,
  "chain": 8453,
  "commit": "d9abeb4"
}