{
  "transactions": [
    {
      "hash": "0xef26048691937d6663a6eea7736cf5e23d069f7206999cb7b666116976a01be9",
      "transactionType": "CALL",
      "contractName": null,
      "contractAddress": "0xbbbbbbbbbb9cc5e90e3b3af64bdaf62c37eeffcb",
      "function": "createMarket((address,address,address,address,uint256))",
      "arguments": [
        "(0xA0b86991c6218b36c1d19D4a2e9Eb0cE3606eB48, 0x1Ff893C9071d04F8A965a90FcB0de22406A3eEaa, 0x9e74B4DbD2a0f027074A68E3f0373Fc4e960b5e1, 0x870aC11D48B15DB9a138Cf899d20F13F79Ba00BC, 860000000000000000)"
      ],
      "transaction": {
        "from": "0x6539519e69343535a2af6583d9bae3ad74c6a293",
        "to": "0xbbbbbbbbbb9cc5e90e3b3af64bdaf62c37eeffcb",
        "gas": "0x47359",
        "value": "0x0",
        "input": "0x8c1358a2000000000000000000000000a0b86991c6218b36c1d19d4a2e9eb0ce3606eb480000000000000000000000001ff893c9071d04f8a965a90fcb0de22406a3eeaa0000000000000000000000009e74b4dbd2a0f027074a68e3f0373fc4e960b5e1000000000000000000000000870ac11d48b15db9a138cf899d20f13f79ba00bc0000000000000000000000000000000000000000000000000bef55718ad60000",
        "nonce": "0x1d",
        "chainId": "0x1"
      },
      "additionalContracts": [],
      "isFixedGasLimit": false
    }
  ],
  "receipts": [
    {
      "status": "0x1",
      "cumulativeGasUsed": "0x141f09e",
      "logs": [
        {
          "address": "0xbbbbbbbbbb9cc5e90e3b3af64bdaf62c37eeffcb",
          "topics": [
            "0xac4b2400f169220b0c0afdde7a0b32e775ba727ea1cb30b35f935cdaab8683ac",
            "0xa63a020dc9ae1a2b90a96ade4077a0124ec37d469150879760ef8cdb4577ad47"
          ],
          "data": "0x000000000000000000000000a0b86991c6218b36c1d19d4a2e9eb0ce3606eb480000000000000000000000001ff893c9071d04f8a965a90fcb0de22406a3eeaa0000000000000000000000009e74b4dbd2a0f027074a68e3f0373fc4e960b5e1000000000000000000000000870ac11d48b15db9a138cf899d20f13f79ba00bc0000000000000000000000000000000000000000000000000bef55718ad60000",
          "blockHash": "0x94e8a95e94334996b7c1f7d8454be201ae7c1e597c37e1cd99cf2cfc4f763f44",
          "blockNumber": "0x15d5972",
          "blockTimestamp": "0x6870d577",
          "transactionHash": "0xef26048691937d6663a6eea7736cf5e23d069f7206999cb7b666116976a01be9",
          "transactionIndex": "0xd8",
          "logIndex": "0x275",
          "removed": false
        },
        {
          "address": "0x870ac11d48b15db9a138cf899d20f13f79ba00bc",
          "topics": [
            "0x7120161a7b3d31251e01294ab351ef15a41b91659a36032e4641bb89b121e321",
            "0xa63a020dc9ae1a2b90a96ade4077a0124ec37d469150879760ef8cdb4577ad47"
          ],
          "data": "0x0000000000000000000000000000000000000000000000000000000012e687bf000000000000000000000000000000000000000000000000000000004b9a1eff",
          "blockHash": "0x94e8a95e94334996b7c1f7d8454be201ae7c1e597c37e1cd99cf2cfc4f763f44",
          "blockNumber": "0x15d5972",
          "blockTimestamp": "0x6870d577",
          "transactionHash": "0xef26048691937d6663a6eea7736cf5e23d069f7206999cb7b666116976a01be9",
          "transactionIndex": "0xd8",
          "logIndex": "0x276",
          "removed": false
        }
      ],
      "logsBloom": "0x00000000000000000000000000000800000000000000000000000000000000000000000000000000000000000000000000000000000000000000000000844001000000000010000000000000000000000000000000200000000000000000002000000000000000000000000000000000000000000000000000000040000000000000010000000008000000000000000000000000000000000000000000000000000000000000000000000000000000000000000000000000000000000000000020000000000000000001000000000000000000000000000000000000000000000000000000000000000000000001000000000000000000000000000000000010",
      "type": "0x2",
      "transactionHash": "0xef26048691937d6663a6eea7736cf5e23d069f7206999cb7b666116976a01be9",
      "transactionIndex": "0xd8",
      "blockHash": "0x94e8a95e94334996b7c1f7d8454be201ae7c1e597c37e1cd99cf2cfc4f763f44",
      "blockNumber": "0x15d5972",
      "gasUsed": "0x30b0b",
      "effectiveGasPrice": "0xcfb1d977",
      "from": "0x6539519e69343535a2af6583d9bae3ad74c6a293",
      "to": "0xbbbbbbbbbb9cc5e90e3b3af64bdaf62c37eeffcb",
      "contractAddress": null
    }
  ],
  "libraries": [],
  "pending": [],
  "returns": {},
  "timestamp": 1752225146,
  "chain": 1,
  "commit": "ba4dfad"
}