{
  "transactions": [
    {
      "hash": "0xa27fabf8f240a0cdd8621607c7542dc84af0d59459868f03d9f88b88d69eec90",
      "transactionType": "CALL",
      "contractName": null,
      "contractAddress": "0xbbbbbbbbbb9cc5e90e3b3af64bdaf62c37eeffcb",
      "function": "createMarket((address,address,address,address,uint256))",
      "arguments": [
        "(0xA0b86991c6218b36c1d19D4a2e9Eb0cE3606eB48, 0x1dC1b09D656c07404aa2747A9930C0b4D297B4F3, 0x3e14b645856d1cec3C7a61F22312086339d2dc33, 0x870aC11D48B15DB9a138Cf899d20F13F79Ba00BC, 915000000000000000)"
      ],
      "transaction": {
        "from": "0x6539519e69343535a2af6583d9bae3ad74c6a293",
        "to": "0xbbbbbbbbbb9cc5e90e3b3af64bdaf62c37eeffcb",
        "gas": "0x4341d",
        "value": "0x0",
        "input": "0x8c1358a2000000000000000000000000a0b86991c6218b36c1d19d4a2e9eb0ce3606eb480000000000000000000000001dc1b09d656c07404aa2747a9930c0b4d297b4f30000000000000000000000003e14b645856d1cec3c7a61f22312086339d2dc33000000000000000000000000870ac11d48b15db9a138cf899d20f13f79ba00bc0000000000000000000000000000000000000000000000000cb2bba6f17b8000",
        "nonce": "0x40",
        "chainId": "0x1"
      },
      "additionalContracts": [],
      "isFixedGasLimit": false
    }
  ],
  "receipts": [
    {
      "status": "0x1",
      "cumulativeGasUsed": "0x1989052",
      "logs": [
        {
          "address": "0xbbbbbbbbbb9cc5e90e3b3af64bdaf62c37eeffcb",
          "topics": [
            "0xac4b2400f169220b0c0afdde7a0b32e775ba727ea1cb30b35f935cdaab8683ac",
            "0x5d72e02f3655a343d8477932a8446b1881609c6b4e3044c20d3a5d7e61554cb7"
          ],
          "data": "0x000000000000000000000000a0b86991c6218b36c1d19d4a2e9eb0ce3606eb480000000000000000000000001dc1b09d656c07404aa2747a9930c0b4d297b4f30000000000000000000000003e14b645856d1cec3c7a61f22312086339d2dc33000000000000000000000000870ac11d48b15db9a138cf899d20f13f79ba00bc0000000000000000000000000000000000000000000000000cb2bba6f17b8000",
          "blockHash": "0xd8bce667a684713069c335eda1c413103d68b75f213716bb9e553157764e0225",
          "blockNumber": "0x162a5e3",
          "blockTimestamp": "0x68b0c5bf",
          "transactionHash": "0xa27fabf8f240a0cdd8621607c7542dc84af0d59459868f03d9f88b88d69eec90",
          "transactionIndex": "0xfa",
          "logIndex": "0x264",
          "removed": false
        },
        {
          "address": "0x870ac11d48b15db9a138cf899d20f13f79ba00bc",
          "topics": [
            "0x7120161a7b3d31251e01294ab351ef15a41b91659a36032e4641bb89b121e321",
            "0x5d72e02f3655a343d8477932a8446b1881609c6b4e3044c20d3a5d7e61554cb7"
          ],
          "data": "0x0000000000000000000000000000000000000000000000000000000012e687bf000000000000000000000000000000000000000000000000000000004b9a1eff",
          "blockHash": "0xd8bce667a684713069c335eda1c413103d68b75f213716bb9e553157764e0225",
          "blockNumber": "0x162a5e3",
          "blockTimestamp": "0x68b0c5bf",
          "transactionHash": "0xa27fabf8f240a0cdd8621607c7542dc84af0d59459868f03d9f88b88d69eec90",
          "transactionIndex": "0xfa",
          "logIndex": "0x265",
          "removed": false
        }
      ],
      "logsBloom": "0x00000000000000000000000000000800000000000000000000000000000000000000000000000000000000000000000000000000000000000000000000844000000000000010000000000000000000000000000000200000000000000000000000000000000000000000800000000000000000000000000000000040000000200000000000000008000000000000000000000000000000000000000000000000000000000000000000000000000000000000000000000000000000000000000020000000000000000001000000000000000400000000000000000000000000000000000000000000000000000001000000000000000000000000000000000010",
      "type": "0x2",
      "transactionHash": "0xa27fabf8f240a0cdd8621607c7542dc84af0d59459868f03d9f88b88d69eec90",
      "transactionIndex": "0xfa",
      "blockHash": "0xd8bce667a684713069c335eda1c413103d68b75f213716bb9e553157764e0225",
      "blockNumber": "0x162a5e3",
      "gasUsed": "0x30b17",
      "effectiveGasPrice": "0xf422579",
      "from": "0x6539519e69343535a2af6583d9bae3ad74c6a293",
      "to": "0xbbbbbbbbbb9cc5e90e3b3af64bdaf62c37eeffcb",
      "contractAddress": null
    }
  ],
  "libraries": [],
  "pending": [],
  "returns": {},
  "timestamp": 1756415427,
  "chain": 1,
  "commit": "50a0c38"
}