{
  "transactions": [
    {
      "hash": "0x5f0bc8e410e3c1b27ade62118a52762efbb3bcb7bd4fb44131040779053ccf8c",
      "transactionType": "CALL",
      "contractName": null,
      "contractAddress": "0xbbbbbbbbbb9cc5e90e3b3af64bdaf62c37eeffcb",
      "function": "createMarket((address,address,address,address,uint256))",
      "arguments": [
        "(0xA0b86991c6218b36c1d19D4a2e9Eb0cE3606eB48, 0x9eBb9230276e858eFb8209618055ADD25a2bf41B, 0x6ac3F157419DFA455b81813B544B7568f52891f7, 0x870aC11D48B15DB9a138Cf899d20F13F79Ba00BC, 915000000000000000)"
      ],
      "transaction": {
        "from": "0x6539519e69343535a2af6583d9bae3ad74c6a293",
        "to": "0xbbbbbbbbbb9cc5e90e3b3af64bdaf62c37eeffcb",
        "gas": "0x4341d",
        "value": "0x0",
        "input": "0x8c1358a2000000000000000000000000a0b86991c6218b36c1d19d4a2e9eb0ce3606eb480000000000000000000000009ebb9230276e858efb8209618055add25a2bf41b0000000000000000000000006ac3f157419dfa455b81813b544b7568f52891f7000000000000000000000000870ac11d48b15db9a138cf899d20f13f79ba00bc0000000000000000000000000000000000000000000000000cb2bba6f17b8000",
        "nonce": "0x2b",
        "chainId": "0x1"
      },
      "additionalContracts": [],
      "isFixedGasLimit": false
    }
  ],
  "receipts": [
    {
      "status": "0x1",
      "cumulativeGasUsed": "0x174cc54",
      "logs": [
        {
          "address": "0xbbbbbbbbbb9cc5e90e3b3af64bdaf62c37eeffcb",
          "topics": [
            "0xac4b2400f169220b0c0afdde7a0b32e775ba727ea1cb30b35f935cdaab8683ac",
            "0x8fee949ce04cda521a29d5fd9a3b071b80e9246a22db41be2b3f4feae28e86ae"
          ],
          "data": "0x000000000000000000000000a0b86991c6218b36c1d19d4a2e9eb0ce3606eb480000000000000000000000009ebb9230276e858efb8209618055add25a2bf41b0000000000000000000000006ac3f157419dfa455b81813b544b7568f52891f7000000000000000000000000870ac11d48b15db9a138cf899d20f13f79ba00bc0000000000000000000000000000000000000000000000000cb2bba6f17b8000",
          "blockHash": "0x1b98fda4e99972c94bd3be02722580f3e5bf822c62d4e9a841b1bf9d682677f9",
          "blockNumber": "0x162a1d9",
          "blockTimestamp": "0x68b094ff",
          "transactionHash": "0x5f0bc8e410e3c1b27ade62118a52762efbb3bcb7bd4fb44131040779053ccf8c",
          "transactionIndex": "0xd8",
          "logIndex": "0x269",
          "removed": false
        },
        {
          "address": "0x870ac11d48b15db9a138cf899d20f13f79ba00bc",
          "topics": [
            "0x7120161a7b3d31251e01294ab351ef15a41b91659a36032e4641bb89b121e321",
            "0x8fee949ce04cda521a29d5fd9a3b071b80e9246a22db41be2b3f4feae28e86ae"
          ],
          "data": "0x0000000000000000000000000000000000000000000000000000000012e687bf000000000000000000000000000000000000000000000000000000004b9a1eff",
          "blockHash": "0x1b98fda4e99972c94bd3be02722580f3e5bf822c62d4e9a841b1bf9d682677f9",
          "blockNumber": "0x162a1d9",
          "blockTimestamp": "0x68b094ff",
          "transactionHash": "0x5f0bc8e410e3c1b27ade62118a52762efbb3bcb7bd4fb44131040779053ccf8c",
          "transactionIndex": "0xd8",
          "logIndex": "0x26a",
          "removed": false
        }
      ],
      "logsBloom": "0x00000000000000000000000000000800000000000000000000000000000000000000000000000000000000000000000000000000000000000000000000844000000000000010000000000000000000000000000000200000000000000008000000000000000000000000000000000000000000000000000000000040020000000000000000000008000000000000000000000000000000000000000000000000000000000000000000000000000000000000000000000000000000000000000020000000000000000001000000000000000000000000000000000000000000000000000000000000000000000001000000000000000000000002000000000010",
      "type": "0x2",
      "transactionHash": "0x5f0bc8e410e3c1b27ade62118a52762efbb3bcb7bd4fb44131040779053ccf8c",
      "transactionIndex": "0xd8",
      "blockHash": "0x1b98fda4e99972c94bd3be02722580f3e5bf822c62d4e9a841b1bf9d682677f9",
      "blockNumber": "0x162a1d9",
      "gasUsed": "0x30b17",
      "effectiveGasPrice": "0x31fea3c7",
      "from": "0x6539519e69343535a2af6583d9bae3ad74c6a293",
      "to": "0xbbbbbbbbbb9cc5e90e3b3af64bdaf62c37eeffcb",
      "contractAddress": null
    }
  ],
  "libraries": [],
  "pending": [],
  "returns": {},
  "timestamp": 1756402945,
  "chain": 1,
  "commit": "0567491"
}