{
  "transactions": [
    {
      "hash": "0xbd628fa7b4ceadcbc6284620c0f6aca4bec55897b059b3f5c491b1dbb7478586",
      "transactionType": "CALL",
      "contractName": null,
      "contractAddress": "0xbbbbbbbbbb9cc5e90e3b3af64bdaf62c37eeffcb",
      "function": "createMarket((address,address,address,address,uint256))",
      "arguments": [
        "(0x6440f144b7e50D6a8439336510312d2F54beB01D, 0x23346B04a7f55b8760E5860AA5A77383D63491cD, 0x173b7573B2604eEd1B36c88902b236af54B02ef4, 0x870aC11D48B15DB9a138Cf899d20F13F79Ba00BC, 915000000000000000)"
      ],
      "transaction": {
        "from": "0x6539519e69343535a2af6583d9bae3ad74c6a293",
        "to": "0xbbbbbbbbbb9cc5e90e3b3af64bdaf62c37eeffcb",
        "gas": "0x4341d",
        "value": "0x0",
        "input": "0x8c1358a20000000000000000000000006440f144b7e50d6a8439336510312d2f54beb01d00000000000000000000000023346b04a7f55b8760e5860aa5a77383d63491cd000000000000000000000000173b7573b2604eed1b36c88902b236af54b02ef4000000000000000000000000870ac11d48b15db9a138cf899d20f13f79ba00bc0000000000000000000000000000000000000000000000000cb2bba6f17b8000",
        "nonce": "0x9",
        "chainId": "0x1"
      },
      "additionalContracts": [],
      "isFixedGasLimit": false
    }
  ],
  "receipts": [
    {
      "status": "0x1",
      "cumulativeGasUsed": "0x18defe9",
      "logs": [
        {
          "address": "0xbbbbbbbbbb9cc5e90e3b3af64bdaf62c37eeffcb",
          "topics": [
            "0xac4b2400f169220b0c0afdde7a0b32e775ba727ea1cb30b35f935cdaab8683ac",
            "0xda6e6163096ebbcf1fe1d1ff872bd2d3bded1434f189a4648371336340257acd"
          ],
          "data": "0x0000000000000000000000006440f144b7e50d6a8439336510312d2f54beb01d00000000000000000000000023346b04a7f55b8760e5860aa5a77383d63491cd000000000000000000000000173b7573b2604eed1b36c88902b236af54b02ef4000000000000000000000000870ac11d48b15db9a138cf899d20f13f79ba00bc0000000000000000000000000000000000000000000000000cb2bba6f17b8000",
          "blockHash": "0xedee339d47e41923a57ad0995120aa4f0a2f5df0c72b4c1a509c42a7ed66189b",
          "blockNumber": "0x15bb55f",
          "blockTimestamp": "0x685d04bf",
          "transactionHash": "0xbd628fa7b4ceadcbc6284620c0f6aca4bec55897b059b3f5c491b1dbb7478586",
          "transactionIndex": "0x1ee",
          "logIndex": "0x225",
          "removed": false
        },
        {
          "address": "0x870ac11d48b15db9a138cf899d20f13f79ba00bc",
          "topics": [
            "0x7120161a7b3d31251e01294ab351ef15a41b91659a36032e4641bb89b121e321",
            "0xda6e6163096ebbcf1fe1d1ff872bd2d3bded1434f189a4648371336340257acd"
          ],
          "data": "0x0000000000000000000000000000000000000000000000000000000012e687bf000000000000000000000000000000000000000000000000000000004b9a1eff",
          "blockHash": "0xedee339d47e41923a57ad0995120aa4f0a2f5df0c72b4c1a509c42a7ed66189b",
          "blockNumber": "0x15bb55f",
          "blockTimestamp": "0x685d04bf",
          "transactionHash": "0xbd628fa7b4ceadcbc6284620c0f6aca4bec55897b059b3f5c491b1dbb7478586",
          "transactionIndex": "0x1ee",
          "logIndex": "0x226",
          "removed": false
        }
      ],
      "logsBloom": "0x00000000000000000000000000000800000000000000000000000000000000000000000000000000000000000000000000000000000000000000000000844000000000000010000000000000000000000000000000200000000000000000000000000000000000000000000000000008000000000000000000000040000000000000000000000008000000000000000000000000000000000000000000000000000000000000000000000000000000000000000000000000000000000800000020000000000000000001000008000000000000000000000000000000000000000000000000000000000000000001000000000000000000000000000000000010",
      "type": "0x2",
      "transactionHash": "0xbd628fa7b4ceadcbc6284620c0f6aca4bec55897b059b3f5c491b1dbb7478586",
      "transactionIndex": "0x1ee",
      "blockHash": "0xedee339d47e41923a57ad0995120aa4f0a2f5df0c72b4c1a509c42a7ed66189b",
      "blockNumber": "0x15bb55f",
      "gasUsed": "0x30b17",
      "effectiveGasPrice": "0x64c81957",
      "from": "0x6539519e69343535a2af6583d9bae3ad74c6a293",
      "to": "0xbbbbbbbbbb9cc5e90e3b3af64bdaf62c37eeffcb",
      "contractAddress": null
    }
  ],
  "libraries": [],
  "pending": [],
  "returns": {},
  "timestamp": 1750926529,
  "chain": 1,
  "commit": "38f4c15"
}