{
  "transactions": [
    {
      "hash": "0x23aba9a25e23560772d9709efd4f91f9f7bfde01458045ca3faeb3d4e54cdf29",
      "transactionType": "CALL",
      "contractName": null,
      "contractAddress": "0xbbbbbbbbbb9cc5e90e3b3af64bdaf62c37eeffcb",
      "function": "createMarket((address,address,address,address,uint256))",
      "arguments": [
        "(0xA0b86991c6218b36c1d19D4a2e9Eb0cE3606eB48, 0x1Ff893C9071d04F8A965a90FcB0de22406A3eEaa, 0x9e74B4DbD2a0f027074A68E3f0373Fc4e960b5e1, 0x870aC11D48B15DB9a138Cf899d20F13F79Ba00BC, 915000000000000000)"
      ],
      "transaction": {
        "from": "0x6539519e69343535a2af6583d9bae3ad74c6a293",
        "to": "0xbbbbbbbbbb9cc5e90e3b3af64bdaf62c37eeffcb",
        "gas": "0x4341d",
        "value": "0x0",
        "input": "0x8c1358a2000000000000000000000000a0b86991c6218b36c1d19d4a2e9eb0ce3606eb480000000000000000000000001ff893c9071d04f8a965a90fcb0de22406a3eeaa0000000000000000000000009e74b4dbd2a0f027074a68e3f0373fc4e960b5e1000000000000000000000000870ac11d48b15db9a138cf899d20f13f79ba00bc0000000000000000000000000000000000000000000000000cb2bba6f17b8000",
        "nonce": "0x1e",
        "chainId": "0x1"
      },
      "additionalContracts": [],
      "isFixedGasLimit": false
    }
  ],
  "receipts": [
    {
      "status": "0x1",
      "cumulativeGasUsed": "0xd2bf5b",
      "logs": [
        {
          "address": "0xbbbbbbbbbb9cc5e90e3b3af64bdaf62c37eeffcb",
          "topics": [
            "0xac4b2400f169220b0c0afdde7a0b32e775ba727ea1cb30b35f935cdaab8683ac",
            "0xf12143027d7f757a1b4572bf2158d7dc88eef93631328b28fdbd351cdf1039bf"
          ],
          "data": "0x000000000000000000000000a0b86991c6218b36c1d19d4a2e9eb0ce3606eb480000000000000000000000001ff893c9071d04f8a965a90fcb0de22406a3eeaa0000000000000000000000009e74b4dbd2a0f027074a68e3f0373fc4e960b5e1000000000000000000000000870ac11d48b15db9a138cf899d20f13f79ba00bc0000000000000000000000000000000000000000000000000cb2bba6f17b8000",
          "blockHash": "0x585cd2ef89bd3572a15a758998e3bf5741838ca543a7171d9bd9f7dc57377b52",
          "blockNumber": "0x15d598c",
          "blockTimestamp": "0x6870d6bb",
          "transactionHash": "0x23aba9a25e23560772d9709efd4f91f9f7bfde01458045ca3faeb3d4e54cdf29",
          "transactionIndex": "0xa1",
          "logIndex": "0x151",
          "removed": false
        },
        {
          "address": "0x870ac11d48b15db9a138cf899d20f13f79ba00bc",
          "topics": [
            "0x7120161a7b3d31251e01294ab351ef15a41b91659a36032e4641bb89b121e321",
            "0xf12143027d7f757a1b4572bf2158d7dc88eef93631328b28fdbd351cdf1039bf"
          ],
          "data": "0x0000000000000000000000000000000000000000000000000000000012e687bf000000000000000000000000000000000000000000000000000000004b9a1eff",
          "blockHash": "0x585cd2ef89bd3572a15a758998e3bf5741838ca543a7171d9bd9f7dc57377b52",
          "blockNumber": "0x15d598c",
          "blockTimestamp": "0x6870d6bb",
          "transactionHash": "0x23aba9a25e23560772d9709efd4f91f9f7bfde01458045ca3faeb3d4e54cdf29",
          "transactionIndex": "0xa1",
          "logIndex": "0x152",
          "removed": false
        }
      ],
      "logsBloom": "0x00000000000000000000000000000800000000000000000000200000000000000000000000000000000000000000000000000000000000000000000008844000000000000110000000000000000000000000000000200000000000000000000000000000000000000000000000000000000000000000000000000040000000000000000000000008000000000000000000000000000000000000000000000000000000000000000000000000000000000000000000000000000000000000000020000000000000000001000000000000000000000000000000000000000000000000000000000000000000000001000000000000000000000000000000000010",
      "type": "0x2",
      "transactionHash": "0x23aba9a25e23560772d9709efd4f91f9f7bfde01458045ca3faeb3d4e54cdf29",
      "transactionIndex": "0xa1",
      "blockHash": "0x585cd2ef89bd3572a15a758998e3bf5741838ca543a7171d9bd9f7dc57377b52",
      "blockNumber": "0x15d598c",
      "gasUsed": "0x30b17",
      "effectiveGasPrice": "0x1169c9856",
      "from": "0x6539519e69343535a2af6583d9bae3ad74c6a293",
      "to": "0xbbbbbbbbbb9cc5e90e3b3af64bdaf62c37eeffcb",
      "contractAddress": null
    }
  ],
  "libraries": [],
  "pending": [],
  "returns": {},
  "timestamp": 1752225469,
  "chain": 1,
  "commit": "ba4dfad"
}