{
  "transactions": [
    {
      "hash": "0x663a2ad759e7f28e96c82d85ff69f4c092e0da513f562c413ecbc7fce31aabee",
      "transactionType": "CALL",
      "contractName": null,
      "contractAddress": "0xbbbbbbbbbb9cc5e90e3b3af64bdaf62c37eeffcb",
      "function": "createMarket((address,address,address,address,uint256))",
      "arguments": [
        "(0xA0b86991c6218b36c1d19D4a2e9Eb0cE3606eB48, 0x6F5DdB7689D7bd74D29B7d6A06ceE8e39655a5Dc, 0x540DA4839F752AffEAF525f1af2EcF8F7e55D81f, 0x870aC11D48B15DB9a138Cf899d20F13F79Ba00BC, 915000000000000000)"
      ],
      "transaction": {
        "from": "0x6539519e69343535a2af6583d9bae3ad74c6a293",
        "to": "0xbbbbbbbbbb9cc5e90e3b3af64bdaf62c37eeffcb",
        "gas": "0x4341d",
        "value": "0x0",
        "input": "0x8c1358a2000000000000000000000000a0b86991c6218b36c1d19d4a2e9eb0ce3606eb480000000000000000000000006f5ddb7689d7bd74d29b7d6a06cee8e39655a5dc000000000000000000000000540da4839f752affeaf525f1af2ecf8f7e55d81f000000000000000000000000870ac11d48b15db9a138cf899d20f13f79ba00bc0000000000000000000000000000000000000000000000000cb2bba6f17b8000",
        "nonce": "0x49",
        "chainId": "0x1"
      },
      "additionalContracts": [],
      "isFixedGasLimit": false
    }
  ],
  "receipts": [
    {
      "status": "0x1",
      "cumulativeGasUsed": "0x142ca98",
      "logs": [
        {
          "address": "0xbbbbbbbbbb9cc5e90e3b3af64bdaf62c37eeffcb",
          "topics": [
            "0xac4b2400f169220b0c0afdde7a0b32e775ba727ea1cb30b35f935cdaab8683ac",
            "0x1aba34974778fcec0ab70e7e7af67ca3ce444e62580fd351faff86cd222774a9"
          ],
          "data": "0x000000000000000000000000a0b86991c6218b36c1d19d4a2e9eb0ce3606eb480000000000000000000000006f5ddb7689d7bd74d29b7d6a06cee8e39655a5dc000000000000000000000000540da4839f752affeaf525f1af2ecf8f7e55d81f000000000000000000000000870ac11d48b15db9a138cf899d20f13f79ba00bc0000000000000000000000000000000000000000000000000cb2bba6f17b8000",
          "blockHash": "0xcd0978b626385880bfdb6da74299967939f13a69be60841f43e3acffc5703f1a",
          "blockNumber": "0x162a683",
          "blockTimestamp": "0x68b0cd3f",
          "transactionHash": "0x663a2ad759e7f28e96c82d85ff69f4c092e0da513f562c413ecbc7fce31aabee",
          "transactionIndex": "0x111",
          "logIndex": "0x543",
          "removed": false
        },
        {
          "address": "0x870ac11d48b15db9a138cf899d20f13f79ba00bc",
          "topics": [
            "0x7120161a7b3d31251e01294ab351ef15a41b91659a36032e4641bb89b121e321",
            "0x1aba34974778fcec0ab70e7e7af67ca3ce444e62580fd351faff86cd222774a9"
          ],
          "data": "0x0000000000000000000000000000000000000000000000000000000012e687bf000000000000000000000000000000000000000000000000000000004b9a1eff",
          "blockHash": "0xcd0978b626385880bfdb6da74299967939f13a69be60841f43e3acffc5703f1a",
          "blockNumber": "0x162a683",
          "blockTimestamp": "0x68b0cd3f",
          "transactionHash": "0x663a2ad759e7f28e96c82d85ff69f4c092e0da513f562c413ecbc7fce31aabee",
          "transactionIndex": "0x111",
          "logIndex": "0x544",
          "removed": false
        }
      ],
      "logsBloom": "0x00000000000000000000000000000800000000000000000000000000000000000000000000000000000000000000000000000000000000000000000000944000000000000010000000000000000000000000000000200000000000000000000000000000000000000000000000000000000000000000000000000040000000000000000000000008000000000000000000000000000000000000000000000000000000000000000000000000000000000000000000000000000000000000000020000000000800000001000000000000000000000000000000000000000000000000000000000000000000000001000000000000010000000000000000000010",
      "type": "0x2",
      "transactionHash": "0x663a2ad759e7f28e96c82d85ff69f4c092e0da513f562c413ecbc7fce31aabee",
      "transactionIndex": "0x111",
      "blockHash": "0xcd0978b626385880bfdb6da74299967939f13a69be60841f43e3acffc5703f1a",
      "blockNumber": "0x162a683",
      "gasUsed": "0x30b17",
      "effectiveGasPrice": "0x10b7f005",
      "from": "0x6539519e69343535a2af6583d9bae3ad74c6a293",
      "to": "0xbbbbbbbbbb9cc5e90e3b3af64bdaf62c37eeffcb",
      "contractAddress": null
    }
  ],
  "libraries": [],
  "pending": [],
  "returns": {},
  "timestamp": 1756417345,
  "chain": 1,
  "commit": "2a7395c"
}