{
  "transactions": [
    {
      "hash": "0x14a5f8dad65c57047aa5bae15595af3d78fd8ad9615c2ef061a795787f33e521",
      "transactionType": "CALL",
      "contractName": null,
      "contractAddress": "0xbbbbbbbbbb9cc5e90e3b3af64bdaf62c37eeffcb",
      "function": "createMarket((address,address,address,address,uint256))",
      "arguments": [
        "(0x6440f144b7e50D6a8439336510312d2F54beB01D, 0x50Bd66D59911F5e086Ec87aE43C811e0D059DD11, 0x0bB177db332caA6f29fD5Bf9304900F58E866814, 0x870aC11D48B15DB9a138Cf899d20F13F79Ba00BC, 915000000000000000)"
      ],
      "transaction": {
        "from": "0x6539519e69343535a2af6583d9bae3ad74c6a293",
        "to": "0xbbbbbbbbbb9cc5e90e3b3af64bdaf62c37eeffcb",
        "gas": "0x47359",
        "value": "0x0",
        "input": "0x8c1358a20000000000000000000000006440f144b7e50d6a8439336510312d2f54beb01d00000000000000000000000050bd66d59911f5e086ec87ae43c811e0d059dd110000000000000000000000000bb177db332caa6f29fd5bf9304900f58e866814000000000000000000000000870ac11d48b15db9a138cf899d20f13f79ba00bc0000000000000000000000000000000000000000000000000cb2bba6f17b8000",
        "nonce": "0xa",
        "chainId": "0x1"
      },
      "additionalContracts": [],
      "isFixedGasLimit": false
    }
  ],
  "receipts": [
    {
      "status": "0x1",
      "cumulativeGasUsed": "0x127c2a2",
      "logs": [
        {
          "address": "0xbbbbbbbbbb9cc5e90e3b3af64bdaf62c37eeffcb",
          "topics": [
            "0xac4b2400f169220b0c0afdde7a0b32e775ba727ea1cb30b35f935cdaab8683ac",
            "0x111e6c2b41258ab2761f01a074db1573157c0ee675c8930f436031b7e5ea4566"
          ],
          "data": "0x0000000000000000000000006440f144b7e50d6a8439336510312d2f54beb01d00000000000000000000000050bd66d59911f5e086ec87ae43c811e0d059dd110000000000000000000000000bb177db332caa6f29fd5bf9304900f58e866814000000000000000000000000870ac11d48b15db9a138cf899d20f13f79ba00bc0000000000000000000000000000000000000000000000000cb2bba6f17b8000",
          "blockHash": "0xf58bd89e346cbeda1c17c58d21310bc0f7889fdd3f82ccc6bed94ca678edaa6a",
          "blockNumber": "0x15bb64a",
          "blockTimestamp": "0x685d0fc3",
          "transactionHash": "0x14a5f8dad65c57047aa5bae15595af3d78fd8ad9615c2ef061a795787f33e521",
          "transactionIndex": "0xfc",
          "logIndex": "0x1ff",
          "removed": false
        },
        {
          "address": "0x870ac11d48b15db9a138cf899d20f13f79ba00bc",
          "topics": [
            "0x7120161a7b3d31251e01294ab351ef15a41b91659a36032e4641bb89b121e321",
            "0x111e6c2b41258ab2761f01a074db1573157c0ee675c8930f436031b7e5ea4566"
          ],
          "data": "0x0000000000000000000000000000000000000000000000000000000012e687bf000000000000000000000000000000000000000000000000000000004b9a1eff",
          "blockHash": "0xf58bd89e346cbeda1c17c58d21310bc0f7889fdd3f82ccc6bed94ca678edaa6a",
          "blockNumber": "0x15bb64a",
          "blockTimestamp": "0x685d0fc3",
          "transactionHash": "0x14a5f8dad65c57047aa5bae15595af3d78fd8ad9615c2ef061a795787f33e521",
          "transactionIndex": "0xfc",
          "logIndex": "0x200",
          "removed": false
        }
      ],
      "logsBloom": "0x00000000000000000000000000000800000000000000000000000100000000000000000000000000000000000000000000000000000000000000000000844000000000000010000000000000000000000000000000200000000000000000000000000000000000000000000000000000000000000000000000000040000000000000000000000008000000000000000000000000000000000000000000000000000000000000000000000000000000000000000000000000000000000000000020000000000000000001002000000000000000000400000000000000000000000000000000000000000000000001000000000000000000000000000000000010",
      "type": "0x2",
      "transactionHash": "0x14a5f8dad65c57047aa5bae15595af3d78fd8ad9615c2ef061a795787f33e521",
      "transactionIndex": "0xfc",
      "blockHash": "0xf58bd89e346cbeda1c17c58d21310bc0f7889fdd3f82ccc6bed94ca678edaa6a",
      "blockNumber": "0x15bb64a",
      "gasUsed": "0x30b0b",
      "effectiveGasPrice": "0x5c3b6b1a",
      "from": "0x6539519e69343535a2af6583d9bae3ad74c6a293",
      "to": "0xbbbbbbbbbb9cc5e90e3b3af64bdaf62c37eeffcb",
      "contractAddress": null
    }
  ],
  "libraries": [],
  "pending": [],
  "returns": {},
  "timestamp": 1750929349,
  "chain": 1,
  "commit": "38f4c15"
}