{
  "transactions": [
    {
      "hash": "0x2be67a547942fe0757ced39ffd774c9d54f42b47c148a87b71fad506929f81ad",
      "transactionType": "CALL",
      "contractName": null,
      "contractAddress": "0xbbbbbbbbbb9cc5e90e3b3af64bdaf62c37eeffcb",
      "function": "createMarket((address,address,address,address,uint256))",
      "arguments": [
        "(0x6440f144b7e50D6a8439336510312d2F54beB01D, 0x1Ff893C9071d04F8A965a90FcB0de22406A3eEaa, 0xDf1eC7413299a745Fd6eCaBE299947b44D0BBcE2, 0x870aC11D48B15DB9a138Cf899d20F13F79Ba00BC, 915000000000000000)"
      ],
      "transaction": {
        "from": "0x6539519e69343535a2af6583d9bae3ad74c6a293",
        "to": "0xbbbbbbbbbb9cc5e90e3b3af64bdaf62c37eeffcb",
        "gas": "0x4341d",
        "value": "0x0",
        "input": "0x8c1358a20000000000000000000000006440f144b7e50d6a8439336510312d2f54beb01d0000000000000000000000001ff893c9071d04f8a965a90fcb0de22406a3eeaa000000000000000000000000df1ec7413299a745fd6ecabe299947b44d0bbce2000000000000000000000000870ac11d48b15db9a138cf899d20f13f79ba00bc0000000000000000000000000000000000000000000000000cb2bba6f17b8000",
        "nonce": "0x20",
        "chainId": "0x1"
      },
      "additionalContracts": [],
      "isFixedGasLimit": false
    }
  ],
  "receipts": [
    {
      "status": "0x1",
      "cumulativeGasUsed": "0xf08d85",
      "logs": [
        {
          "address": "0xbbbbbbbbbb9cc5e90e3b3af64bdaf62c37eeffcb",
          "topics": [
            "0xac4b2400f169220b0c0afdde7a0b32e775ba727ea1cb30b35f935cdaab8683ac",
            "0xc8f153a103074144c5c21acbe6f0659d99a7921d1be7ec1fa0f29a78d20ecca2"
          ],
          "data": "0x0000000000000000000000006440f144b7e50d6a8439336510312d2f54beb01d0000000000000000000000001ff893c9071d04f8a965a90fcb0de22406a3eeaa000000000000000000000000df1ec7413299a745fd6ecabe299947b44d0bbce2000000000000000000000000870ac11d48b15db9a138cf899d20f13f79ba00bc0000000000000000000000000000000000000000000000000cb2bba6f17b8000",
          "blockHash": "0xf00a7c81f010bfa64743be1852a6c3735155dc4b66d4dea27b7447618f4cd134",
          "blockNumber": "0x15d59c7",
          "blockTimestamp": "0x6870d97f",
          "transactionHash": "0x2be67a547942fe0757ced39ffd774c9d54f42b47c148a87b71fad506929f81ad",
          "transactionIndex": "0xbd",
          "logIndex": "0x1a8",
          "removed": false
        },
        {
          "address": "0x870ac11d48b15db9a138cf899d20f13f79ba00bc",
          "topics": [
            "0x7120161a7b3d31251e01294ab351ef15a41b91659a36032e4641bb89b121e321",
            "0xc8f153a103074144c5c21acbe6f0659d99a7921d1be7ec1fa0f29a78d20ecca2"
          ],
          "data": "0x0000000000000000000000000000000000000000000000000000000012e687bf000000000000000000000000000000000000000000000000000000004b9a1eff",
          "blockHash": "0xf00a7c81f010bfa64743be1852a6c3735155dc4b66d4dea27b7447618f4cd134",
          "blockNumber": "0x15d59c7",
          "blockTimestamp": "0x6870d97f",
          "transactionHash": "0x2be67a547942fe0757ced39ffd774c9d54f42b47c148a87b71fad506929f81ad",
          "transactionIndex": "0xbd",
          "logIndex": "0x1a9",
          "removed": false
        }
      ],
      "logsBloom": "0x00000000000000000000000000010800000000000000000000000000000000000000000000000000000000000000000000000000000000000000000000844000000000000010000000000000000000000000000000200000000000000000000000000000000000000000000000000000000000000000000000000040000000000000000000000008000000000000000000000000000000000000000000000000000000000000000000000010000000000000000000000000000000400000000020000000000000000001000000000000000000000000000000000000000000000000000000000000000000000001000000000000000000000000000000000010",
      "type": "0x2",
      "transactionHash": "0x2be67a547942fe0757ced39ffd774c9d54f42b47c148a87b71fad506929f81ad",
      "transactionIndex": "0xbd",
      "blockHash": "0xf00a7c81f010bfa64743be1852a6c3735155dc4b66d4dea27b7447618f4cd134",
      "blockNumber": "0x15d59c7",
      "gasUsed": "0x30b17",
      "effectiveGasPrice": "0xf53b8c5f",
      "from": "0x6539519e69343535a2af6583d9bae3ad74c6a293",
      "to": "0xbbbbbbbbbb9cc5e90e3b3af64bdaf62c37eeffcb",
      "contractAddress": null
    }
  ],
  "libraries": [],
  "pending": [],
  "returns": {},
  "timestamp": 1752226179,
  "chain": 1,
  "commit": "ba4dfad"
}