{
  "transactions": [
    {
      "hash": "0x5f8f841ffb4033d5bfb37e578829de6c4ae1144d99eb828ec77d43f566628a35",
      "transactionType": "CALL",
      "contractName": null,
      "contractAddress": "0xa4ca2c2e25b97da19879201ba49422bc6f181f42",
      "function": "createMarket((address,address,address,address,uint256))",
      "arguments": [
        "(0xad11a8BEb98bbf61dbb1aa0F6d6F2ECD87b35afA, 0x99e3dE3817F6081B2568208337ef83295b7f591D, 0xf0FF7a2E8b5d57EAb433d676c9A101DF1d2414B7, 0xdEbdEa31624552DF904A065221cD14088ABDeD70, 385000000000000000)"
      ],
      "transaction": {
        "from": "0x6539519e69343535a2af6583d9bae3ad74c6a293",
        "to": "0xa4ca2c2e25b97da19879201ba49422bc6f181f42",
        "gas": "0x46902",
        "value": "0x0",
        "input": "0x8c1358a2000000000000000000000000ad11a8beb98bbf61dbb1aa0f6d6f2ecd87b35afa00000000000000000000000099e3de3817f6081b2568208337ef83295b7f591d000000000000000000000000f0ff7a2e8b5d57eab433d676c9a101df1d2414b7000000000000000000000000debdea31624552df904a065221cd14088abded700000000000000000000000000000000000000000000000000557cb75ce868000",
        "nonce": "0x43",
        "chainId": "0xa867"
      },
      "additionalContracts": [],
      "isFixedGasLimit": false
    }
  ],
  "receipts": [
    {
      "status": "0x1",
      "cumulativeGasUsed": "0x75f8a",
      "logs": [
        {
          "address": "0xa4ca2c2e25b97da19879201ba49422bc6f181f42",
          "topics": [
            "0xac4b2400f169220b0c0afdde7a0b32e775ba727ea1cb30b35f935cdaab8683ac",
            "0x6b17e90837b92f5d7339ceb02218f63b14caf63c6658b704b65b512cd2ba74d0"
          ],
          "data": "0x000000000000000000000000ad11a8beb98bbf61dbb1aa0f6d6f2ecd87b35afa00000000000000000000000099e3de3817f6081b2568208337ef83295b7f591d000000000000000000000000f0ff7a2e8b5d57eab433d676c9a101df1d2414b7000000000000000000000000debdea31624552df904a065221cd14088abded700000000000000000000000000000000000000000000000000557cb75ce868000",
          "blockHash": "0x5de4789323d679dfda6d88f0eaad986b03044b77aa569448654bc3a82314de7f",
          "blockNumber": "0x2a8ff4",
          "transactionHash": "0x5f8f841ffb4033d5bfb37e578829de6c4ae1144d99eb828ec77d43f566628a35",
          "transactionIndex": "0x3",
          "logIndex": "0x8",
          "removed": false
        },
        {
          "address": "0xdebdea31624552df904a065221cd14088abded70",
          "topics": [
            "0x7120161a7b3d31251e01294ab351ef15a41b91659a36032e4641bb89b121e321",
            "0x6b17e90837b92f5d7339ceb02218f63b14caf63c6658b704b65b512cd2ba74d0"
          ],
          "data": "0x0000000000000000000000000000000000000000000000000000000012e687bf000000000000000000000000000000000000000000000000000000004b9a1eff",
          "blockHash": "0x5de4789323d679dfda6d88f0eaad986b03044b77aa569448654bc3a82314de7f",
          "blockNumber": "0x2a8ff4",
          "transactionHash": "0x5f8f841ffb4033d5bfb37e578829de6c4ae1144d99eb828ec77d43f566628a35",
          "transactionIndex": "0x3",
          "logIndex": "0x9",
          "removed": false
        }
      ],
      "logsBloom": "0x00000000000000000000000000000800000000000000000000000000000000000080000000000000000000000000000000400000000000000000000000804000000000000000000000000000000000000000000000200000000000000000000000000000000002000000000000008000000000000000000000000040000000000000000000000000000000000000000000000000000082000000000000000000000000000000000000000000000000000000000000000000000000000000000000000000000000000008000000000000000000000000000000000000000000000000000000000000000000000001000000000000000000000000000000004010",
      "type": "0x2",
      "transactionHash": "0x5f8f841ffb4033d5bfb37e578829de6c4ae1144d99eb828ec77d43f566628a35",
      "transactionIndex": "0x3",
      "blockHash": "0x5de4789323d679dfda6d88f0eaad986b03044b77aa569448654bc3a82314de7f",
      "blockNumber": "0x2a8ff4",
      "gasUsed": "0x303f9",
      "effectiveGasPrice": "0x12b644",
      "from": "0x6539519e69343535a2af6583d9bae3ad74c6a293",
      "to": "0xa4ca2c2e25b97da19879201ba49422bc6f181f42",
      "contractAddress": null,
      "l1BaseFeeScalar": "0xf4240",
      "l1BlobBaseFee": "0x1",
      "l1BlobBaseFeeScalar": "0x0",
      "l1Fee": "0x27db7376f3b",
      "l1GasPrice": "0x41e6d43b",
      "l1GasUsed": "0x9ad"
    }
  ],
  "libraries": [],
  "pending": [],
  "returns": {},
  "timestamp": 1759339080,
  "chain": 43111,
  "commit": "e9775cb"
}