{
  "transactions": [
    {
      "hash": "0x58f8081e08c81204c6ae54580a6a1d701dd6af58875b18bf7275260c29bd51e9",
      "transactionType": "CALL",
      "contractName": null,
      "contractAddress": "0xa4ca2c2e25b97da19879201ba49422bc6f181f42",
      "function": "createMarket((address,address,address,address,uint256))",
      "arguments": [
        "(0xad11a8BEb98bbf61dbb1aa0F6d6F2ECD87b35afA, 0x0000000000000000000000000000000000000000, 0x0000000000000000000000000000000000000000, 0x0000000000000000000000000000000000000000, 0)"
      ],
      "transaction": {
        "from": "0x6539519e69343535a2af6583d9bae3ad74c6a293",
        "to": "0xa4ca2c2e25b97da19879201ba49422bc6f181f42",
        "gas": "0x1df28",
        "value": "0x0",
        "input": "0x8c1358a2000000000000000000000000ad11a8beb98bbf61dbb1aa0f6d6f2ecd87b35afa0000000000000000000000000000000000000000000000000000000000000000000000000000000000000000000000000000000000000000000000000000000000000000000000000000000000000000000000000000000000000000000000000000000000000000000000000000000000000000000000000000000000000000",
        "nonce": "0x6",
        "chainId": "0xa867"
      },
      "additionalContracts": [],
      "isFixedGasLimit": false
    }
  ],
  "receipts": [
    {
      "status": "0x1",
      "cumulativeGasUsed": "0x211a9",
      "logs": [
        {
          "address": "0xa4ca2c2e25b97da19879201ba49422bc6f181f42",
          "topics": [
            "0xac4b2400f169220b0c0afdde7a0b32e775ba727ea1cb30b35f935cdaab8683ac",
            "0x1317c1d5489d69fc763bc472a43986cbb948b6bd2281618ce9816df3b3d5a9d1"
          ],
          "data": "0x000000000000000000000000ad11a8beb98bbf61dbb1aa0f6d6f2ecd87b35afa0000000000000000000000000000000000000000000000000000000000000000000000000000000000000000000000000000000000000000000000000000000000000000000000000000000000000000000000000000000000000000000000000000000000000000000000000000000000000000000000000000000000000000",
          "blockHash": "0x12e1b19dd784c89c9efa4c8aaf3c8e26afaea2134ac2f9178d3bee1c31a5c7b9",
          "blockNumber": "0x287971",
          "transactionHash": "0x58f8081e08c81204c6ae54580a6a1d701dd6af58875b18bf7275260c29bd51e9",
          "transactionIndex": "0x1",
          "logIndex": "0x0",
          "removed": false
        }
      ],
      "logsBloom": "0x00000000000000000000000000000800000000000000200000000000000000000000000000000000000000000000000000400000000000000000000000000000000000000000000000000000000000000000000000200000000000000000000000000000000000000000000001000000000000000000000000000040000000000000000000000000000000000000000000000000000080000000000000000000000000000000000000000000000000040000000000000000000000000000000000000000000000000000000000000000000000000000000000000000000000000000000000000000000000000000000000000000000000000000000000000010",
      "type": "0x2",
      "transactionHash": "0x58f8081e08c81204c6ae54580a6a1d701dd6af58875b18bf7275260c29bd51e9",
      "transactionIndex": "0x1",
      "blockHash": "0x12e1b19dd784c89c9efa4c8aaf3c8e26afaea2134ac2f9178d3bee1c31a5c7b9",
      "blockNumber": "0x287971",
      "gasUsed": "0x147a1",
      "effectiveGasPrice": "0xf433c",
      "from": "0x6539519e69343535a2af6583d9bae3ad74c6a293",
      "to": "0xa4ca2c2e25b97da19879201ba49422bc6f181f42",
      "contractAddress": null,
      "l1BaseFeeScalar": "0xf4240",
      "l1BlobBaseFee": "0x1",
      "l1BlobBaseFeeScalar": "0x0",
      "l1Fee": "0xbb771b6380",
      "l1GasPrice": "0x1dfe93be",
      "l1GasUsed": "0x640"
    }
  ],
  "libraries": [],
  "pending": [],
  "returns": {},
  "timestamp": 1757697060,
  "chain": 43111,
  "commit": "3a72d60"
}