{
  "transactions": [
    {
      "hash": "0x00b27c7f4c235cc734080b431dad540c1218298f0082d6cc2ba017212b253f9b",
      "transactionType": "CALL",
      "contractName": null,
      "contractAddress": "0xa4ca2c2e25b97da19879201ba49422bc6f181f42",
      "function": "createMarket((address,address,address,address,uint256))",
      "arguments": [
        "(0xad11a8BEb98bbf61dbb1aa0F6d6F2ECD87b35afA, 0x4200000000000000000000000000000000000006, 0x294d56f3EE59Ec9CCbAdB3f1051390293c448892, 0xdEbdEa31624552DF904A065221cD14088ABDeD70, 860000000000000000)"
      ],
      "transaction": {
        "from": "0x6539519e69343535a2af6583d9bae3ad74c6a293",
        "to": "0xa4ca2c2e25b97da19879201ba49422bc6f181f42",
        "gas": "0x4290e",
        "value": "0x0",
        "input": "0x8c1358a2000000000000000000000000ad11a8beb98bbf61dbb1aa0f6d6f2ecd87b35afa0000000000000000000000004200000000000000000000000000000000000006000000000000000000000000294d56f3ee59ec9ccbadb3f1051390293c448892000000000000000000000000debdea31624552df904a065221cd14088abded700000000000000000000000000000000000000000000000000bef55718ad60000",
        "nonce": "0x4",
        "chainId": "0xa867"
      },
      "additionalContracts": [],
      "isFixedGasLimit": false
    }
  ],
  "receipts": [
    {
      "status": "0x1",
      "cumulativeGasUsed": "0x3cd1d",
      "logs": [
        {
          "address": "0xa4ca2c2e25b97da19879201ba49422bc6f181f42",
          "topics": [
            "0xac4b2400f169220b0c0afdde7a0b32e775ba727ea1cb30b35f935cdaab8683ac",
            "0x08abb2b634eb6454a5819dbaa5c0229136989a9990ed757727c406dbcb4e606b"
          ],
          "data": "0x000000000000000000000000ad11a8beb98bbf61dbb1aa0f6d6f2ecd87b35afa0000000000000000000000004200000000000000000000000000000000000006000000000000000000000000294d56f3ee59ec9ccbadb3f1051390293c448892000000000000000000000000debdea31624552df904a065221cd14088abded700000000000000000000000000000000000000000000000000bef55718ad60000",
          "blockHash": "0x489988c73766ff6390335965d1629a4dd107b3cacec2863cdb0baaf9c82feb6f",
          "blockNumber": "0x2878fc",
          "transactionHash": "0x00b27c7f4c235cc734080b431dad540c1218298f0082d6cc2ba017212b253f9b",
          "transactionIndex": "0x1",
          "logIndex": "0x0",
          "removed": false
        },
        {
          "address": "0xdebdea31624552df904a065221cd14088abded70",
          "topics": [
            "0x7120161a7b3d31251e01294ab351ef15a41b91659a36032e4641bb89b121e321",
            "0x08abb2b634eb6454a5819dbaa5c0229136989a9990ed757727c406dbcb4e606b"
          ],
          "data": "0x0000000000000000000000000000000000000000000000000000000012e687bf000000000000000000000000000000000000000000000000000000004b9a1eff",
          "blockHash": "0x489988c73766ff6390335965d1629a4dd107b3cacec2863cdb0baaf9c82feb6f",
          "blockNumber": "0x2878fc",
          "transactionHash": "0x00b27c7f4c235cc734080b431dad540c1218298f0082d6cc2ba017212b253f9b",
          "transactionIndex": "0x1",
          "logIndex": "0x1",
          "removed": false
        }
      ],
      "logsBloom": "0x00000000000000000000000000000800000004000000100000000000000000000000000000000000000000000000000000400000000000000000000000804000000000000000000000000000000000000000000000200000000000000000000000000000000000000000000000008000000000000000000000000040000000000000000000000000000000000000000000000000000080000000000000000000000000000000000000000000000000000000000000000000000000000000000000000000000000000008000001000000000000000000000000000000000000000000000000000000000000000001000000000000000000000000000000004010",
      "type": "0x2",
      "transactionHash": "0x00b27c7f4c235cc734080b431dad540c1218298f0082d6cc2ba017212b253f9b",
      "transactionIndex": "0x1",
      "blockHash": "0x489988c73766ff6390335965d1629a4dd107b3cacec2863cdb0baaf9c82feb6f",
      "blockNumber": "0x2878fc",
      "gasUsed": "0x30315",
      "effectiveGasPrice": "0xf433c",
      "from": "0x6539519e69343535a2af6583d9bae3ad74c6a293",
      "to": "0xa4ca2c2e25b97da19879201ba49422bc6f181f42",
      "contractAddress": null,
      "l1BaseFeeScalar": "0xf4240",
      "l1BlobBaseFee": "0x1",
      "l1BlobBaseFeeScalar": "0x0",
      "l1Fee": "0x1383eab80b2",
      "l1GasPrice": "0x231cf115",
      "l1GasUsed": "0x8e4"
    }
  ],
  "libraries": [],
  "pending": [],
  "returns": {},
  "timestamp": 1757695655,
  "chain": 43111,
  "commit": "3a72d60"
}