{
  "transactions": [
    {
      "hash": "0x96162e9f0497d88d9316922f18b4717bf1845104a5b8147740741c6037b92583",
      "transactionType": "CALL",
      "contractName": null,
      "contractAddress": "0xa4ca2c2e25b97da19879201ba49422bc6f181f42",
      "function": "createMarket((address,address,address,address,uint256))",
      "arguments": [
        "(0xad11a8BEb98bbf61dbb1aa0F6d6F2ECD87b35afA, 0x7A06C4AeF988e7925575C50261297a946aD204A8, 0x4B1182e277F51539aC87Ec8138871947E9881862, 0xdEbdEa31624552DF904A065221cD14088ABDeD70, 915000000000000000)"
      ],
      "transaction": {
        "from": "0x6539519e69343535a2af6583d9bae3ad74c6a293",
        "to": "0xa4ca2c2e25b97da19879201ba49422bc6f181f42",
        "gas": "0x46902",
        "value": "0x0",
        "input": "0x8c1358a2000000000000000000000000ad11a8beb98bbf61dbb1aa0f6d6f2ecd87b35afa0000000000000000000000007a06c4aef988e7925575c50261297a946ad204a80000000000000000000000004b1182e277f51539ac87ec8138871947e9881862000000000000000000000000debdea31624552df904a065221cd14088abded700000000000000000000000000000000000000000000000000cb2bba6f17b8000",
        "nonce": "0x1b",
        "chainId": "0xa867"
      },
      "additionalContracts": [],
      "isFixedGasLimit": false
    }
  ],
  "receipts": [
    {
      "status": "0x1",
      "cumulativeGasUsed": "0x24e13d",
      "logs": [
        {
          "address": "0xa4ca2c2e25b97da19879201ba49422bc6f181f42",
          "topics": [
            "0xac4b2400f169220b0c0afdde7a0b32e775ba727ea1cb30b35f935cdaab8683ac",
            "0xb7dd4c2e7c164de474b28c354cddb137deb0ce2583b925d20c33322074c22178"
          ],
          "data": "0x000000000000000000000000ad11a8beb98bbf61dbb1aa0f6d6f2ecd87b35afa0000000000000000000000007a06c4aef988e7925575c50261297a946ad204a80000000000000000000000004b1182e277f51539ac87ec8138871947e9881862000000000000000000000000debdea31624552df904a065221cd14088abded700000000000000000000000000000000000000000000000000cb2bba6f17b8000",
          "blockHash": "0x9be72ba384974cbcc74f08041da3108f9340399e3ac12cacddd0c763138ab9cd",
          "blockNumber": "0x28c734",
          "transactionHash": "0x96162e9f0497d88d9316922f18b4717bf1845104a5b8147740741c6037b92583",
          "transactionIndex": "0xe",
          "logIndex": "0x1b",
          "removed": false
        },
        {
          "address": "0xdebdea31624552df904a065221cd14088abded70",
          "topics": [
            "0x7120161a7b3d31251e01294ab351ef15a41b91659a36032e4641bb89b121e321",
            "0xb7dd4c2e7c164de474b28c354cddb137deb0ce2583b925d20c33322074c22178"
          ],
          "data": "0x0000000000000000000000000000000000000000000000000000000012e687bf000000000000000000000000000000000000000000000000000000004b9a1eff",
          "blockHash": "0x9be72ba384974cbcc74f08041da3108f9340399e3ac12cacddd0c763138ab9cd",
          "blockNumber": "0x28c734",
          "transactionHash": "0x96162e9f0497d88d9316922f18b4717bf1845104a5b8147740741c6037b92583",
          "transactionIndex": "0xe",
          "logIndex": "0x1c",
          "removed": false
        }
      ],
      "logsBloom": "0x00000000000000000000000000000800000000000000000000400000000000000000000000000000000000000000000000400000000000000000000000804000000000000000000000000000000000000000000000200000000000000000000000000000000000000000000000008000000000000000000000000040000000000000000000000000000000000000000000000000000080000000000000000000000000000000000000000000000000000000000000000001000000000000000000000000000000000008000000000000000000000000000020000000000000000000000000000000000000000001000000000000000000000000000000004010",
      "type": "0x2",
      "transactionHash": "0x96162e9f0497d88d9316922f18b4717bf1845104a5b8147740741c6037b92583",
      "transactionIndex": "0xe",
      "blockHash": "0x9be72ba384974cbcc74f08041da3108f9340399e3ac12cacddd0c763138ab9cd",
      "blockNumber": "0x28c734",
      "gasUsed": "0x303f9",
      "effectiveGasPrice": "0xf433c",
      "from": "0x6539519e69343535a2af6583d9bae3ad74c6a293",
      "to": "0xa4ca2c2e25b97da19879201ba49422bc6f181f42",
      "contractAddress": null,
      "l1BaseFeeScalar": "0xf4240",
      "l1BlobBaseFee": "0x1",
      "l1BlobBaseFeeScalar": "0x0",
      "l1Fee": "0x1a969d6e030",
      "l1GasPrice": "0x2bf65a4e",
      "l1GasUsed": "0x9ad"
    }
  ],
  "libraries": [],
  "pending": [],
  "returns": {},
  "timestamp": 1757935944,
  "chain": 43111,
  "commit": "ccc26c1"
}